{
	"data": {
		"bytecode": {
			"linkReferences": {},
			"object": "6106e0604052601a6080908152600360a052602f60c052601260e052603261010052600c61012052600161014052601561016052600861018052600e6101a05260216101c052601d6101e052602361020052600461022052602b6102405260116102605260056102805260146102a05260276102c05260206102e052600661030052601961032052601061034052601b61036052600761038052602e6103a052600d6103c05260316103e052601f61040052600b6104205260026104405260306104605260136104805260166104a05260266104c05260096104e052602d61050052602861052052601861054052600a6105605260256105805260176105a052600f6105c05260336105e0819052601e61060052602961062052602461064052602261066052601c61068052602c6106a052602a6106c052610142915f91610154565b5034801561014e575f80fd5b506101f8565b6002830191839082156101d4579160200282015f5b838211156101a657835183826101000a81548160ff021916908360ff16021790555092602001926001016020815f01049283019260010302610169565b80156101d25782816101000a81549060ff02191690556001016020815f010492830192600103026101a6565b505b506101e09291506101e4565b5090565b5b808211156101e0575f81556001016101e5565b610694806102055f395ff3fe608060405234801561000f575f80fd5b5060043610610085575f3560e01c806361125b631161005857806361125b63146100de578063708cb80a146100f1578063d39fa23314610104578063ec60a0ba14610117575f80fd5b806303151562146100895780632b3297f9146100a75780632f0b9dcb146100b15780634bae89cb146100b9575b5f80fd5b61009161011f565b60405161009e91906105b3565b60405180910390f35b6100af610177565b005b6100916104c5565b6100cc6100c73660046105e7565b610502565b60405160ff909116815260200161009e565b6100cc6100ec3660046105e7565b61052b565b6100cc6100ff3660046105e7565b61053a565b6100cc6101123660046105e7565b610549565b610091610557565b610127610594565b6040805161022081019182905290600290601190825f855b825461010083900a900460ff1681526020600192830181810494850194909303909202910180841161013f5790505050505050905090565b5f5b60198160ff16101561026d575f808260ff166033811061019b5761019b6105fe565b602081049091015460ff601f9092166101000a90041690505f6101bf836032610626565b60ff16603381106101d2576101d26105fe565b602091828204019190069054906101000a900460ff165f8360ff16603381106101fd576101fd6105fe565b602091828204019190066101000a81548160ff021916908360ff160217905550805f83603261022c9190610626565b60ff166033811061023f5761023f6105fe565b602091828204019190066101000a81548160ff021916908360ff160217905550508080600101915050610179565b505f5b60328160ff16101561036b575f808260ff1660338110610292576102926105fe565b602081049091015460ff601f9092166101000a90041690505f6102b6836001610645565b60ff16603381106102c9576102c96105fe565b602091828204019190069054906101000a900460ff165f8360ff16603381106102f4576102f46105fe565b602091828204019190066101000a81548160ff021916908360ff160217905550805f8360016103239190610645565b60ff1660338110610336576103366105fe565b602091828204019190066101000a81548160ff021916908360ff160217905550506002816103649190610645565b9050610270565b505f5b60118160ff1610156104c2575f8160ff166033811061038f5761038f6105fe565b602091828204019190069054906101000a900460ff1660028260ff16601181106103bb576103bb6105fe565b602091828204019190066101000a81548160ff021916908360ff1602179055505f8160116103e99190610645565b60ff16603381106103fc576103fc6105fe565b602091828204019190069054906101000a900460ff1660038260ff1660118110610428576104286105fe565b602091828204019190066101000a81548160ff021916908360ff1602179055505f8160226104569190610645565b60ff1660338110610469576104696105fe565b602091828204019190069054906101000a900460ff1660048260ff1660118110610495576104956105fe565b602091828204019190066101000a81548160ff021916908360ff160217905550808060010191505061036e565b50565b6104cd610594565b604080516102208101918290526003805460ff16825290916011908260016020860180841161013f5790505050505050905090565b60028160118110610511575f80fd5b60209182820401919006915054906101000a900460ff1681565b60038160118110610511575f80fd5b60048160118110610511575f80fd5b5f8160338110610511575f80fd5b61055f610594565b604080516102208101918290526004805460ff16825290916011908260016020860180841161013f5790505050505050905090565b6040518061022001604052806011906020820280368337509192915050565b610220810181835f5b60118110156105de57815160ff168352602092830192909101906001016105bc565b50505092915050565b5f602082840312156105f7575f80fd5b5035919050565b634e487b7160e01b5f52603260045260245ffd5b634e487b7160e01b5f52601160045260245ffd5b60ff828116828216039081111561063f5761063f610612565b92915050565b60ff818116838216019081111561063f5761063f61061256fea264697066735822122001a7c3fff8a6a3fcbdbd3d3460a1549cde8dc9345ca5dc5cec33f18e6086592864736f6c63430008190033",
			"opcodes": "PUSH2 0x6E0 PUSH1 0x40 MSTORE PUSH1 0x1A PUSH1 0x80 SWAP1 DUP2 MSTORE PUSH1 0x3 PUSH1 0xA0 MSTORE PUSH1 0x2F PUSH1 0xC0 MSTORE PUSH1 0x12 PUSH1 0xE0 MSTORE PUSH1 0x32 PUSH2 0x100 MSTORE PUSH1 0xC PUSH2 0x120 MSTORE PUSH1 0x1 PUSH2 0x140 MSTORE PUSH1 0x15 PUSH2 0x160 MSTORE PUSH1 0x8 PUSH2 0x180 MSTORE PUSH1 0xE PUSH2 0x1A0 MSTORE PUSH1 0x21 PUSH2 0x1C0 MSTORE PUSH1 0x1D PUSH2 0x1E0 MSTORE PUSH1 0x23 PUSH2 0x200 MSTORE PUSH1 0x4 PUSH2 0x220 MSTORE PUSH1 0x2B PUSH2 0x240 MSTORE PUSH1 0x11 PUSH2 0x260 MSTORE PUSH1 0x5 PUSH2 0x280 MSTORE PUSH1 0x14 PUSH2 0x2A0 MSTORE PUSH1 0x27 PUSH2 0x2C0 MSTORE PUSH1 0x20 PUSH2 0x2E0 MSTORE PUSH1 0x6 PUSH2 0x300 MSTORE PUSH1 0x19 PUSH2 0x320 MSTORE PUSH1 0x10 PUSH2 0x340 MSTORE PUSH1 0x1B PUSH2 0x360 MSTORE PUSH1 0x7 PUSH2 0x380 MSTORE PUSH1 0x2E PUSH2 0x3A0 MSTORE PUSH1 0xD PUSH2 0x3C0 MSTORE PUSH1 0x31 PUSH2 0x3E0 MSTORE PUSH1 0x1F PUSH2 0x400 MSTORE PUSH1 0xB PUSH2 0x420 MSTORE PUSH1 0x2 PUSH2 0x440 MSTORE PUSH1 0x30 PUSH2 0x460 MSTORE PUSH1 0x13 PUSH2 0x480 MSTORE PUSH1 0x16 PUSH2 0x4A0 MSTORE PUSH1 0x26 PUSH2 0x4C0 MSTORE PUSH1 0x9 PUSH2 0x4E0 MSTORE PUSH1 0x2D PUSH2 0x500 MSTORE PUSH1 0x28 PUSH2 0x520 MSTORE PUSH1 0x18 PUSH2 0x540 MSTORE PUSH1 0xA PUSH2 0x560 MSTORE PUSH1 0x25 PUSH2 0x580 MSTORE PUSH1 0x17 PUSH2 0x5A0 MSTORE PUSH1 0xF PUSH2 0x5C0 MSTORE PUSH1 0x33 PUSH2 0x5E0 DUP2 SWAP1 MSTORE PUSH1 0x1E PUSH2 0x600 MSTORE PUSH1 0x29 PUSH2 0x620 MSTORE PUSH1 0x24 PUSH2 0x640 MSTORE PUSH1 0x22 PUSH2 0x660 MSTORE PUSH1 0x1C PUSH2 0x680 MSTORE PUSH1 0x2C PUSH2 0x6A0 MSTORE PUSH1 0x2A PUSH2 0x6C0 MSTORE PUSH2 0x142 SWAP2 PUSH0 SWAP2 PUSH2 0x154 JUMP JUMPDEST POP CALLVALUE DUP1 ISZERO PUSH2 0x14E JUMPI PUSH0 DUP1 REVERT JUMPDEST POP PUSH2 0x1F8 JUMP JUMPDEST PUSH1 0x2 DUP4 ADD SWAP2 DUP4 SWAP1 DUP3 ISZERO PUSH2 0x1D4 JUMPI SWAP2 PUSH1 0x20 MUL DUP3 ADD PUSH0 JUMPDEST DUP4 DUP3 GT ISZERO PUSH2 0x1A6 JUMPI DUP4 MLOAD DUP4 DUP3 PUSH2 0x100 EXP DUP2 SLOAD DUP2 PUSH1 0xFF MUL NOT AND SWAP1 DUP4 PUSH1 0xFF AND MUL OR SWAP1 SSTORE POP SWAP3 PUSH1 0x20 ADD SWAP3 PUSH1 0x1 ADD PUSH1 0x20 DUP2 PUSH0 ADD DIV SWAP3 DUP4 ADD SWAP3 PUSH1 0x1 SUB MUL PUSH2 0x169 JUMP JUMPDEST DUP1 ISZERO PUSH2 0x1D2 JUMPI DUP3 DUP2 PUSH2 0x100 EXP DUP2 SLOAD SWAP1 PUSH1 0xFF MUL NOT AND SWAP1 SSTORE PUSH1 0x1 ADD PUSH1 0x20 DUP2 PUSH0 ADD DIV SWAP3 DUP4 ADD SWAP3 PUSH1 0x1 SUB MUL PUSH2 0x1A6 JUMP JUMPDEST POP JUMPDEST POP PUSH2 0x1E0 SWAP3 SWAP2 POP PUSH2 0x1E4 JUMP JUMPDEST POP SWAP1 JUMP JUMPDEST JUMPDEST DUP1 DUP3 GT ISZERO PUSH2 0x1E0 JUMPI PUSH0 DUP2 SSTORE PUSH1 0x1 ADD PUSH2 0x1E5 JUMP JUMPDEST PUSH2 0x694 DUP1 PUSH2 0x205 PUSH0 CODECOPY PUSH0 RETURN INVALID PUSH1 0x80 PUSH1 0x40 MSTORE CALLVALUE DUP1 ISZERO PUSH2 0xF JUMPI PUSH0 DUP1 REVERT JUMPDEST POP PUSH1 0x4 CALLDATASIZE LT PUSH2 0x85 JUMPI PUSH0 CALLDATALOAD PUSH1 0xE0 SHR DUP1 PUSH4 0x61125B63 GT PUSH2 0x58 JUMPI DUP1 PUSH4 0x61125B63 EQ PUSH2 0xDE JUMPI DUP1 PUSH4 0x708CB80A EQ PUSH2 0xF1 JUMPI DUP1 PUSH4 0xD39FA233 EQ PUSH2 0x104 JUMPI DUP1 PUSH4 0xEC60A0BA EQ PUSH2 0x117 JUMPI PUSH0 DUP1 REVERT JUMPDEST DUP1 PUSH4 0x3151562 EQ PUSH2 0x89 JUMPI DUP1 PUSH4 0x2B3297F9 EQ PUSH2 0xA7 JUMPI DUP1 PUSH4 0x2F0B9DCB EQ PUSH2 0xB1 JUMPI DUP1 PUSH4 0x4BAE89CB EQ PUSH2 0xB9 JUMPI JUMPDEST PUSH0 DUP1 REVERT JUMPDEST PUSH2 0x91 PUSH2 0x11F JUMP JUMPDEST PUSH1 0x40 MLOAD PUSH2 0x9E SWAP2 SWAP1 PUSH2 0x5B3 JUMP JUMPDEST PUSH1 0x40 MLOAD DUP1 SWAP2 SUB SWAP1 RETURN JUMPDEST PUSH2 0xAF PUSH2 0x177 JUMP JUMPDEST STOP JUMPDEST PUSH2 0x91 PUSH2 0x4C5 JUMP JUMPDEST PUSH2 0xCC PUSH2 0xC7 CALLDATASIZE PUSH1 0x4 PUSH2 0x5E7 JUMP JUMPDEST PUSH2 0x502 JUMP JUMPDEST PUSH1 0x40 MLOAD PUSH1 0xFF SWAP1 SWAP2 AND DUP2 MSTORE PUSH1 0x20 ADD PUSH2 0x9E JUMP JUMPDEST PUSH2 0xCC PUSH2 0xEC CALLDATASIZE PUSH1 0x4 PUSH2 0x5E7 JUMP JUMPDEST PUSH2 0x52B JUMP JUMPDEST PUSH2 0xCC PUSH2 0xFF CALLDATASIZE PUSH1 0x4 PUSH2 0x5E7 JUMP JUMPDEST PUSH2 0x53A JUMP JUMPDEST PUSH2 0xCC PUSH2 0x112 CALLDATASIZE PUSH1 0x4 PUSH2 0x5E7 JUMP JUMPDEST PUSH2 0x549 JUMP JUMPDEST PUSH2 0x91 PUSH2 0x557 JUMP JUMPDEST PUSH2 0x127 PUSH2 0x594 JUMP JUMPDEST PUSH1 0x40 DUP1 MLOAD PUSH2 0x220 DUP2 ADD SWAP2 DUP3 SWAP1 MSTORE SWAP1 PUSH1 0x2 SWAP1 PUSH1 0x11 SWAP1 DUP3 PUSH0 DUP6 JUMPDEST DUP3 SLOAD PUSH2 0x100 DUP4 SWAP1 EXP SWAP1 DIV PUSH1 0xFF AND DUP2 MSTORE PUSH1 0x20 PUSH1 0x1 SWAP3 DUP4 ADD DUP2 DUP2 DIV SWAP5 DUP6 ADD SWAP5 SWAP1 SWAP4 SUB SWAP1 SWAP3 MUL SWAP2 ADD DUP1 DUP5 GT PUSH2 0x13F JUMPI SWAP1 POP POP POP POP POP POP SWAP1 POP SWAP1 JUMP JUMPDEST PUSH0 JUMPDEST PUSH1 0x19 DUP2 PUSH1 0xFF AND LT ISZERO PUSH2 0x26D JUMPI PUSH0 DUP1 DUP3 PUSH1 0xFF AND PUSH1 0x33 DUP2 LT PUSH2 0x19B JUMPI PUSH2 0x19B PUSH2 0x5FE JUMP JUMPDEST PUSH1 0x20 DUP2 DIV SWAP1 SWAP2 ADD SLOAD PUSH1 0xFF PUSH1 0x1F SWAP1 SWAP3 AND PUSH2 0x100 EXP SWAP1 DIV AND SWAP1 POP PUSH0 PUSH2 0x1BF DUP4 PUSH1 0x32 PUSH2 0x626 JUMP JUMPDEST PUSH1 0xFF AND PUSH1 0x33 DUP2 LT PUSH2 0x1D2 JUMPI PUSH2 0x1D2 PUSH2 0x5FE JUMP JUMPDEST PUSH1 0x20 SWAP2 DUP3 DUP3 DIV ADD SWAP2 SWAP1 MOD SWAP1 SLOAD SWAP1 PUSH2 0x100 EXP SWAP1 DIV PUSH1 0xFF AND PUSH0 DUP4 PUSH1 0xFF AND PUSH1 0x33 DUP2 LT PUSH2 0x1FD JUMPI PUSH2 0x1FD PUSH2 0x5FE JUMP JUMPDEST PUSH1 0x20 SWAP2 DUP3 DUP3 DIV ADD SWAP2 SWAP1 MOD PUSH2 0x100 EXP DUP2 SLOAD DUP2 PUSH1 0xFF MUL NOT AND SWAP1 DUP4 PUSH1 0xFF AND MUL OR SWAP1 SSTORE POP DUP1 PUSH0 DUP4 PUSH1 0x32 PUSH2 0x22C SWAP2 SWAP1 PUSH2 0x626 JUMP JUMPDEST PUSH1 0xFF AND PUSH1 0x33 DUP2 LT PUSH2 0x23F JUMPI PUSH2 0x23F PUSH2 0x5FE JUMP JUMPDEST PUSH1 0x20 SWAP2 DUP3 DUP3 DIV ADD SWAP2 SWAP1 MOD PUSH2 0x100 EXP DUP2 SLOAD DUP2 PUSH1 0xFF MUL NOT AND SWAP1 DUP4 PUSH1 0xFF AND MUL OR SWAP1 SSTORE POP POP DUP1 DUP1 PUSH1 0x1 ADD SWAP2 POP POP PUSH2 0x179 JUMP JUMPDEST POP PUSH0 JUMPDEST PUSH1 0x32 DUP2 PUSH1 0xFF AND LT ISZERO PUSH2 0x36B JUMPI PUSH0 DUP1 DUP3 PUSH1 0xFF AND PUSH1 0x33 DUP2 LT PUSH2 0x292 JUMPI PUSH2 0x292 PUSH2 0x5FE JUMP JUMPDEST PUSH1 0x20 DUP2 DIV SWAP1 SWAP2 ADD SLOAD PUSH1 0xFF PUSH1 0x1F SWAP1 SWAP3 AND PUSH2 0x100 EXP SWAP1 DIV AND SWAP1 POP PUSH0 PUSH2 0x2B6 DUP4 PUSH1 0x1 PUSH2 0x645 JUMP JUMPDEST PUSH1 0xFF AND PUSH1 0x33 DUP2 LT PUSH2 0x2C9 JUMPI PUSH2 0x2C9 PUSH2 0x5FE JUMP JUMPDEST PUSH1 0x20 SWAP2 DUP3 DUP3 DIV ADD SWAP2 SWAP1 MOD SWAP1 SLOAD SWAP1 PUSH2 0x100 EXP SWAP1 DIV PUSH1 0xFF AND PUSH0 DUP4 PUSH1 0xFF AND PUSH1 0x33 DUP2 LT PUSH2 0x2F4 JUMPI PUSH2 0x2F4 PUSH2 0x5FE JUMP JUMPDEST PUSH1 0x20 SWAP2 DUP3 DUP3 DIV ADD SWAP2 SWAP1 MOD PUSH2 0x100 EXP DUP2 SLOAD DUP2 PUSH1 0xFF MUL NOT AND SWAP1 DUP4 PUSH1 0xFF AND MUL OR SWAP1 SSTORE POP DUP1 PUSH0 DUP4 PUSH1 0x1 PUSH2 0x323 SWAP2 SWAP1 PUSH2 0x645 JUMP JUMPDEST PUSH1 0xFF AND PUSH1 0x33 DUP2 LT PUSH2 0x336 JUMPI PUSH2 0x336 PUSH2 0x5FE JUMP JUMPDEST PUSH1 0x20 SWAP2 DUP3 DUP3 DIV ADD SWAP2 SWAP1 MOD PUSH2 0x100 EXP DUP2 SLOAD DUP2 PUSH1 0xFF MUL NOT AND SWAP1 DUP4 PUSH1 0xFF AND MUL OR SWAP1 SSTORE POP POP PUSH1 0x2 DUP2 PUSH2 0x364 SWAP2 SWAP1 PUSH2 0x645 JUMP JUMPDEST SWAP1 POP PUSH2 0x270 JUMP JUMPDEST POP PUSH0 JUMPDEST PUSH1 0x11 DUP2 PUSH1 0xFF AND LT ISZERO PUSH2 0x4C2 JUMPI PUSH0 DUP2 PUSH1 0xFF AND PUSH1 0x33 DUP2 LT PUSH2 0x38F JUMPI PUSH2 0x38F PUSH2 0x5FE JUMP JUMPDEST PUSH1 0x20 SWAP2 DUP3 DUP3 DIV ADD SWAP2 SWAP1 MOD SWAP1 SLOAD SWAP1 PUSH2 0x100 EXP SWAP1 DIV PUSH1 0xFF AND PUSH1 0x2 DUP3 PUSH1 0xFF AND PUSH1 0x11 DUP2 LT PUSH2 0x3BB JUMPI PUSH2 0x3BB PUSH2 0x5FE JUMP JUMPDEST PUSH1 0x20 SWAP2 DUP3 DUP3 DIV ADD SWAP2 SWAP1 MOD PUSH2 0x100 EXP DUP2 SLOAD DUP2 PUSH1 0xFF MUL NOT AND SWAP1 DUP4 PUSH1 0xFF AND MUL OR SWAP1 SSTORE POP PUSH0 DUP2 PUSH1 0x11 PUSH2 0x3E9 SWAP2 SWAP1 PUSH2 0x645 JUMP JUMPDEST PUSH1 0xFF AND PUSH1 0x33 DUP2 LT PUSH2 0x3FC JUMPI PUSH2 0x3FC PUSH2 0x5FE JUMP JUMPDEST PUSH1 0x20 SWAP2 DUP3 DUP3 DIV ADD SWAP2 SWAP1 MOD SWAP1 SLOAD SWAP1 PUSH2 0x100 EXP SWAP1 DIV PUSH1 0xFF AND PUSH1 0x3 DUP3 PUSH1 0xFF AND PUSH1 0x11 DUP2 LT PUSH2 0x428 JUMPI PUSH2 0x428 PUSH2 0x5FE JUMP JUMPDEST PUSH1 0x20 SWAP2 DUP3 DUP3 DIV ADD SWAP2 SWAP1 MOD PUSH2 0x100 EXP DUP2 SLOAD DUP2 PUSH1 0xFF MUL NOT AND SWAP1 DUP4 PUSH1 0xFF AND MUL OR SWAP1 SSTORE POP PUSH0 DUP2 PUSH1 0x22 PUSH2 0x456 SWAP2 SWAP1 PUSH2 0x645 JUMP JUMPDEST PUSH1 0xFF AND PUSH1 0x33 DUP2 LT PUSH2 0x469 JUMPI PUSH2 0x469 PUSH2 0x5FE JUMP JUMPDEST PUSH1 0x20 SWAP2 DUP3 DUP3 DIV ADD SWAP2 SWAP1 MOD SWAP1 SLOAD SWAP1 PUSH2 0x100 EXP SWAP1 DIV PUSH1 0xFF AND PUSH1 0x4 DUP3 PUSH1 0xFF AND PUSH1 0x11 DUP2 LT PUSH2 0x495 JUMPI PUSH2 0x495 PUSH2 0x5FE JUMP JUMPDEST PUSH1 0x20 SWAP2 DUP3 DUP3 DIV ADD SWAP2 SWAP1 MOD PUSH2 0x100 EXP DUP2 SLOAD DUP2 PUSH1 0xFF MUL NOT AND SWAP1 DUP4 PUSH1 0xFF AND MUL OR SWAP1 SSTORE POP DUP1 DUP1 PUSH1 0x1 ADD SWAP2 POP POP PUSH2 0x36E JUMP JUMPDEST POP JUMP JUMPDEST PUSH2 0x4CD PUSH2 0x594 JUMP JUMPDEST PUSH1 0x40 DUP1 MLOAD PUSH2 0x220 DUP2 ADD SWAP2 DUP3 SWAP1 MSTORE PUSH1 0x3 DUP1 SLOAD PUSH1 0xFF AND DUP3 MSTORE SWAP1 SWAP2 PUSH1 0x11 SWAP1 DUP3 PUSH1 0x1 PUSH1 0x20 DUP7 ADD DUP1 DUP5 GT PUSH2 0x13F JUMPI SWAP1 POP POP POP POP POP POP SWAP1 POP SWAP1 JUMP JUMPDEST PUSH1 0x2 DUP2 PUSH1 0x11 DUP2 LT PUSH2 0x511 JUMPI PUSH0 DUP1 REVERT JUMPDEST PUSH1 0x20 SWAP2 DUP3 DUP3 DIV ADD SWAP2 SWAP1 MOD SWAP2 POP SLOAD SWAP1 PUSH2 0x100 EXP SWAP1 DIV PUSH1 0xFF AND DUP2 JUMP JUMPDEST PUSH1 0x3 DUP2 PUSH1 0x11 DUP2 LT PUSH2 0x511 JUMPI PUSH0 DUP1 REVERT JUMPDEST PUSH1 0x4 DUP2 PUSH1 0x11 DUP2 LT PUSH2 0x511 JUMPI PUSH0 DUP1 REVERT JUMPDEST PUSH0 DUP2 PUSH1 0x33 DUP2 LT PUSH2 0x511 JUMPI PUSH0 DUP1 REVERT JUMPDEST PUSH2 0x55F PUSH2 0x594 JUMP JUMPDEST PUSH1 0x40 DUP1 MLOAD PUSH2 0x220 DUP2 ADD SWAP2 DUP3 SWAP1 MSTORE PUSH1 0x4 DUP1 SLOAD PUSH1 0xFF AND DUP3 MSTORE SWAP1 SWAP2 PUSH1 0x11 SWAP1 DUP3 PUSH1 0x1 PUSH1 0x20 DUP7 ADD DUP1 DUP5 GT PUSH2 0x13F JUMPI SWAP1 POP POP POP POP POP POP SWAP1 POP SWAP1 JUMP JUMPDEST PUSH1 0x40 MLOAD DUP1 PUSH2 0x220 ADD PUSH1 0x40 MSTORE DUP1 PUSH1 0x11 SWAP1 PUSH1 0x20 DUP3 MUL DUP1 CALLDATASIZE DUP4 CALLDATACOPY POP SWAP2 SWAP3 SWAP2 POP POP JUMP JUMPDEST PUSH2 0x220 DUP2 ADD DUP2 DUP4 PUSH0 JUMPDEST PUSH1 0x11 DUP2 LT ISZERO PUSH2 0x5DE JUMPI DUP2 MLOAD PUSH1 0xFF AND DUP4 MSTORE PUSH1 0x20 SWAP3 DUP4 ADD SWAP3 SWAP1 SWAP2 ADD SWAP1 PUSH1 0x1 ADD PUSH2 0x5BC JUMP JUMPDEST POP POP POP SWAP3 SWAP2 POP POP JUMP JUMPDEST PUSH0 PUSH1 0x20 DUP3 DUP5 SUB SLT ISZERO PUSH2 0x5F7 JUMPI PUSH0 DUP1 REVERT JUMPDEST POP CALLDATALOAD SWAP2 SWAP1 POP JUMP JUMPDEST PUSH4 0x4E487B71 PUSH1 0xE0 SHL PUSH0 MSTORE PUSH1 0x32 PUSH1 0x4 MSTORE PUSH1 0x24 PUSH0 REVERT JUMPDEST PUSH4 0x4E487B71 PUSH1 0xE0 SHL PUSH0 MSTORE PUSH1 0x11 PUSH1 0x4 MSTORE PUSH1 0x24 PUSH0 REVERT JUMPDEST PUSH1 0xFF DUP3 DUP2 AND DUP3 DUP3 AND SUB SWAP1 DUP2 GT ISZERO PUSH2 0x63F JUMPI PUSH2 0x63F PUSH2 0x612 JUMP JUMPDEST SWAP3 SWAP2 POP POP JUMP JUMPDEST PUSH1 0xFF DUP2 DUP2 AND DUP4 DUP3 AND ADD SWAP1 DUP2 GT ISZERO PUSH2 0x63F JUMPI PUSH2 0x63F PUSH2 0x612 JUMP INVALID LOG2 PUSH5 0x6970667358 0x22 SLT KECCAK256 ADD 0xA7 0xC3 SELFDESTRUCT 0xF8 0xA6 LOG3 0xFC 0xBD 0xBD RETURNDATASIZE CALLVALUE PUSH1 0xA1 SLOAD SWAP13 0xDE DUP14 0xC9 CALLVALUE TLOAD 0xA5 0xDC TLOAD 0xEC CALLER CALL DUP15 PUSH1 0x86 MSIZE 0x28 PUSH5 0x736F6C6343 STOP ADDMOD NOT STOP CALLER "
		},
		"gasEstimates": {
			"creation": {
				"codeDepositCost": "336800",
				"executionCost": "infinite",
				"totalCost": "infinite"
			},
			"external": {
				"array1(uint256)": "4150",
				"array2(uint256)": "4083",
				"array3(uint256)": "4105",
				"getArray1()": "infinite",
				"getArray2()": "infinite",
				"getArray3()": "infinite",
				"numbers(uint256)": "4126",
				"swapper()": "infinite"
			}
		},
		"methodIdentifiers": {
			"array1(uint256)": "4bae89cb",
			"array2(uint256)": "61125b63",
			"array3(uint256)": "708cb80a",
			"getArray1()": "03151562",
			"getArray2()": "2f0b9dcb",
			"getArray3()": "ec60a0ba",
			"numbers(uint256)": "d39fa233",
			"swapper()": "2b3297f9"
		}
	},
	"abi": [
		{
			"inputs": [
				{
					"internalType": "uint256",
					"name": "",
					"type": "uint256"
				}
			],
			"name": "array1",
			"outputs": [
				{
					"internalType": "uint8",
					"name": "",
					"type": "uint8"
				}
			],
			"stateMutability": "view",
			"type": "function"
		},
		{
			"inputs": [
				{
					"internalType": "uint256",
					"name": "",
					"type": "uint256"
				}
			],
			"name": "array2",
			"outputs": [
				{
					"internalType": "uint8",
					"name": "",
					"type": "uint8"
				}
			],
			"stateMutability": "view",
			"type": "function"
		},
		{
			"inputs": [
				{
					"internalType": "uint256",
					"name": "",
					"type": "uint256"
				}
			],
			"name": "array3",
			"outputs": [
				{
					"internalType": "uint8",
					"name": "",
					"type": "uint8"
				}
			],
			"stateMutability": "view",
			"type": "function"
		},
		{
			"inputs": [],
			"name": "getArray1",
			"outputs": [
				{
					"internalType": "uint8[17]",
					"name": "",
					"type": "uint8[17]"
				}
			],
			"stateMutability": "view",
			"type": "function"
		},
		{
			"inputs": [],
			"name": "getArray2",
			"outputs": [
				{
					"internalType": "uint8[17]",
					"name": "",
					"type": "uint8[17]"
				}
			],
			"stateMutability": "view",
			"type": "function"
		},
		{
			"inputs": [],
			"name": "getArray3",
			"outputs": [
				{
					"internalType": "uint8[17]",
					"name": "",
					"type": "uint8[17]"
				}
			],
			"stateMutability": "view",
			"type": "function"
		},
		{
			"inputs": [
				{
					"internalType": "uint256",
					"name": "",
					"type": "uint256"
				}
			],
			"name": "numbers",
			"outputs": [
				{
					"internalType": "uint8",
					"name": "",
					"type": "uint8"
				}
			],
			"stateMutability": "view",
			"type": "function"
		},
		{
			"inputs": [],
			"name": "swapper",
			"outputs": [],
			"stateMutability": "nonpayable",
			"type": "function"
		}
	]
}