{
	"compilerInput": "{\"language\":\"Solidity\",\"settings\":{\"optimizer\":{\"enabled\":true,\"runs\":200},\"outputSelection\":{\"*\":{\"\":[\"ast\"],\"*\":[\"abi\",\"metadata\",\"devdoc\",\"userdoc\",\"storageLayout\",\"evm.legacyAssembly\",\"evm.bytecode\",\"evm.deployedBytecode\",\"evm.methodIdentifiers\",\"evm.gasEstimates\",\"evm.assembly\"]}},\"remappings\":[]},\"sources\":{\"docs.chain.link/samples/ChainlinkFunctions/GettingStartedFunctionsConsumer.sol\":{\"content\":\"// SPDX-License-Identifier: MIT\\npragma solidity 0.8.19;\\n\\nimport {FunctionsClient} from \\\"@chainlink/contracts@1.1.1/src/v0.8/functions/v1_0_0/FunctionsClient.sol\\\";\\nimport {ConfirmedOwner} from \\\"@chainlink/contracts@1.1.1/src/v0.8/shared/access/ConfirmedOwner.sol\\\";\\nimport {FunctionsRequest} from \\\"@chainlink/contracts@1.1.1/src/v0.8/functions/v1_0_0/libraries/FunctionsRequest.sol\\\";\\n\\n/**\\n * Request testnet LINK and ETH here: https://faucets.chain.link/\\n * Find information on LINK Token Contracts and get the latest ETH and LINK faucets here: https://docs.chain.link/resources/link-token-contracts/\\n */\\n\\n/**\\n * @title GettingStartedFunctionsConsumer\\n * @notice This is an example contract to show how to make HTTP requests using Chainlink\\n * @dev This contract uses hardcoded values and should not be used in production.\\n */\\ncontract GettingStartedFunctionsConsumer is FunctionsClient, ConfirmedOwner {\\n    using FunctionsRequest for FunctionsRequest.Request;\\n\\n    // State variables to store the last request ID, response, and error\\n    bytes32 public s_lastRequestId;\\n    bytes public s_lastResponse;\\n    bytes public s_lastError;\\n\\n    // Custom error type\\n    error UnexpectedRequestID(bytes32 requestId);\\n\\n    // Event to log responses\\n    event Response(\\n        bytes32 indexed requestId,\\n        string character,\\n        bytes response,\\n        bytes err\\n    );\\n\\n    // Router address - Hardcoded for Sepolia\\n    // Check to get the router address for your supported network https://docs.chain.link/chainlink-functions/supported-networks\\n    address router = 0xb83E47C2bC239B3bf370bc41e1459A34b41238D0;\\n\\n    // JavaScript source code\\n    // Fetch character name from the Star Wars API.\\n    // Documentation: https://swapi.info/people\\n    string source =\\n        \\\"const characterId = args[0];\\\"\\n        \\\"const apiResponse = await Functions.makeHttpRequest({\\\"\\n        \\\"url: `https://swapi.info/api/people/${characterId}/`\\\"\\n        \\\"});\\\"\\n        \\\"if (apiResponse.error) {\\\"\\n        \\\"throw Error('Request failed');\\\"\\n        \\\"}\\\"\\n        \\\"const { data } = apiResponse;\\\"\\n        \\\"return Functions.encodeString(data.name);\\\";\\n\\n    //Callback gas limit\\n    uint32 gasLimit = 300000;\\n\\n    // donID - Hardcoded for Sepolia\\n    // Check to get the donID for your supported network https://docs.chain.link/chainlink-functions/supported-networks\\n    bytes32 donID =\\n        0x66756e2d657468657265756d2d7365706f6c69612d3100000000000000000000;\\n\\n    // State variable to store the returned character information\\n    string public character;\\n\\n    /**\\n     * @notice Initializes the contract with the Chainlink router address and sets the contract owner\\n     */\\n    constructor() FunctionsClient(router) ConfirmedOwner(msg.sender) {}\\n\\n    /**\\n     * @notice Sends an HTTP request for character information\\n     * @param subscriptionId The ID for the Chainlink subscription\\n     * @param args The arguments to pass to the HTTP request\\n     * @return requestId The ID of the request\\n     */\\n    function sendRequest(\\n        uint64 subscriptionId,\\n        string[] calldata args\\n    ) external onlyOwner returns (bytes32 requestId) {\\n        FunctionsRequest.Request memory req;\\n        req.initializeRequestForInlineJavaScript(source); // Initialize the request with JS code\\n        if (args.length > 0) req.setArgs(args); // Set the arguments for the request\\n\\n        // Send the request and store the request ID\\n        s_lastRequestId = _sendRequest(\\n            req.encodeCBOR(),\\n            subscriptionId,\\n            gasLimit,\\n            donID\\n        );\\n\\n        return s_lastRequestId;\\n    }\\n\\n    /**\\n     * @notice Callback function for fulfilling a request\\n     * @param requestId The ID of the request to fulfill\\n     * @param response The HTTP response data\\n     * @param err Any errors from the Functions request\\n     */\\n    function fulfillRequest(\\n        bytes32 requestId,\\n        bytes memory response,\\n        bytes memory err\\n    ) internal override {\\n        if (s_lastRequestId != requestId) {\\n            revert UnexpectedRequestID(requestId); // Check if request IDs match\\n        }\\n        // Update the contract's state variables with the response and any errors\\n        s_lastResponse = response;\\n        character = string(response);\\n        s_lastError = err;\\n\\n        // Emit an event to log the response\\n        emit Response(requestId, character, s_lastResponse, s_lastError);\\n    }\\n}\\n\"},\"@chainlink/contracts@1.1.1/src/v0.8/functions/v1_0_0/libraries/FunctionsRequest.sol\":{\"content\":\"// SPDX-License-Identifier: MIT\\npragma solidity ^0.8.19;\\n\\nimport {CBOR} from \\\"../../../vendor/solidity-cborutils/v2.0.0/CBOR.sol\\\";\\n\\n/// @title Library for encoding the input data of a Functions request into CBOR\\nlibrary FunctionsRequest {\\n  using CBOR for CBOR.CBORBuffer;\\n\\n  uint16 public constant REQUEST_DATA_VERSION = 1;\\n  uint256 internal constant DEFAULT_BUFFER_SIZE = 256;\\n\\n  enum Location {\\n    Inline, // Provided within the Request\\n    Remote, // Hosted through remote location that can be accessed through a provided URL\\n    DONHosted // Hosted on the DON's storage\\n  }\\n\\n  enum CodeLanguage {\\n    JavaScript\\n    // In future version we may add other languages\\n  }\\n\\n  struct Request {\\n    Location codeLocation; // ════════════╸ The location of the source code that will be executed on each node in the DON\\n    Location secretsLocation; // ═════════╸ The location of secrets that will be passed into the source code. *Only Remote secrets are supported\\n    CodeLanguage language; // ════════════╸ The coding language that the source code is written in\\n    string source; // ════════════════════╸ Raw source code for Request.codeLocation of Location.Inline, URL for Request.codeLocation of Location.Remote, or slot decimal number for Request.codeLocation of Location.DONHosted\\n    bytes encryptedSecretsReference; // ══╸ Encrypted URLs for Request.secretsLocation of Location.Remote (use addSecretsReference()), or CBOR encoded slotid+version for Request.secretsLocation of Location.DONHosted (use addDONHostedSecrets())\\n    string[] args; // ════════════════════╸ String arguments that will be passed into the source code\\n    bytes[] bytesArgs; // ════════════════╸ Bytes arguments that will be passed into the source code\\n  }\\n\\n  error EmptySource();\\n  error EmptySecrets();\\n  error EmptyArgs();\\n  error NoInlineSecrets();\\n\\n  /// @notice Encodes a Request to CBOR encoded bytes\\n  /// @param self The request to encode\\n  /// @return CBOR encoded bytes\\n  function encodeCBOR(Request memory self) internal pure returns (bytes memory) {\\n    CBOR.CBORBuffer memory buffer = CBOR.create(DEFAULT_BUFFER_SIZE);\\n\\n    buffer.writeString(\\\"codeLocation\\\");\\n    buffer.writeUInt256(uint256(self.codeLocation));\\n\\n    buffer.writeString(\\\"language\\\");\\n    buffer.writeUInt256(uint256(self.language));\\n\\n    buffer.writeString(\\\"source\\\");\\n    buffer.writeString(self.source);\\n\\n    if (self.args.length > 0) {\\n      buffer.writeString(\\\"args\\\");\\n      buffer.startArray();\\n      for (uint256 i = 0; i < self.args.length; ++i) {\\n        buffer.writeString(self.args[i]);\\n      }\\n      buffer.endSequence();\\n    }\\n\\n    if (self.encryptedSecretsReference.length > 0) {\\n      if (self.secretsLocation == Location.Inline) {\\n        revert NoInlineSecrets();\\n      }\\n      buffer.writeString(\\\"secretsLocation\\\");\\n      buffer.writeUInt256(uint256(self.secretsLocation));\\n      buffer.writeString(\\\"secrets\\\");\\n      buffer.writeBytes(self.encryptedSecretsReference);\\n    }\\n\\n    if (self.bytesArgs.length > 0) {\\n      buffer.writeString(\\\"bytesArgs\\\");\\n      buffer.startArray();\\n      for (uint256 i = 0; i < self.bytesArgs.length; ++i) {\\n        buffer.writeBytes(self.bytesArgs[i]);\\n      }\\n      buffer.endSequence();\\n    }\\n\\n    return buffer.buf.buf;\\n  }\\n\\n  /// @notice Initializes a Chainlink Functions Request\\n  /// @dev Sets the codeLocation and code on the request\\n  /// @param self The uninitialized request\\n  /// @param codeLocation The user provided source code location\\n  /// @param language The programming language of the user code\\n  /// @param source The user provided source code or a url\\n  function initializeRequest(\\n    Request memory self,\\n    Location codeLocation,\\n    CodeLanguage language,\\n    string memory source\\n  ) internal pure {\\n    if (bytes(source).length == 0) revert EmptySource();\\n\\n    self.codeLocation = codeLocation;\\n    self.language = language;\\n    self.source = source;\\n  }\\n\\n  /// @notice Initializes a Chainlink Functions Request\\n  /// @dev Simplified version of initializeRequest for PoC\\n  /// @param self The uninitialized request\\n  /// @param javaScriptSource The user provided JS code (must not be empty)\\n  function initializeRequestForInlineJavaScript(Request memory self, string memory javaScriptSource) internal pure {\\n    initializeRequest(self, Location.Inline, CodeLanguage.JavaScript, javaScriptSource);\\n  }\\n\\n  /// @notice Adds Remote user encrypted secrets to a Request\\n  /// @param self The initialized request\\n  /// @param encryptedSecretsReference Encrypted comma-separated string of URLs pointing to off-chain secrets\\n  function addSecretsReference(Request memory self, bytes memory encryptedSecretsReference) internal pure {\\n    if (encryptedSecretsReference.length == 0) revert EmptySecrets();\\n\\n    self.secretsLocation = Location.Remote;\\n    self.encryptedSecretsReference = encryptedSecretsReference;\\n  }\\n\\n  /// @notice Adds DON-hosted secrets reference to a Request\\n  /// @param self The initialized request\\n  /// @param slotID Slot ID of the user's secrets hosted on DON\\n  /// @param version User data version (for the slotID)\\n  function addDONHostedSecrets(Request memory self, uint8 slotID, uint64 version) internal pure {\\n    CBOR.CBORBuffer memory buffer = CBOR.create(DEFAULT_BUFFER_SIZE);\\n\\n    buffer.writeString(\\\"slotID\\\");\\n    buffer.writeUInt64(slotID);\\n    buffer.writeString(\\\"version\\\");\\n    buffer.writeUInt64(version);\\n\\n    self.secretsLocation = Location.DONHosted;\\n    self.encryptedSecretsReference = buffer.buf.buf;\\n  }\\n\\n  /// @notice Sets args for the user run function\\n  /// @param self The initialized request\\n  /// @param args The array of string args (must not be empty)\\n  function setArgs(Request memory self, string[] memory args) internal pure {\\n    if (args.length == 0) revert EmptyArgs();\\n\\n    self.args = args;\\n  }\\n\\n  /// @notice Sets bytes args for the user run function\\n  /// @param self The initialized request\\n  /// @param args The array of bytes args (must not be empty)\\n  function setBytesArgs(Request memory self, bytes[] memory args) internal pure {\\n    if (args.length == 0) revert EmptyArgs();\\n\\n    self.bytesArgs = args;\\n  }\\n}\\n\"},\"@chainlink/contracts@1.1.1/src/v0.8/shared/access/ConfirmedOwner.sol\":{\"content\":\"// SPDX-License-Identifier: MIT\\npragma solidity ^0.8.0;\\n\\nimport {ConfirmedOwnerWithProposal} from \\\"./ConfirmedOwnerWithProposal.sol\\\";\\n\\n/// @title The ConfirmedOwner contract\\n/// @notice A contract with helpers for basic contract ownership.\\ncontract ConfirmedOwner is ConfirmedOwnerWithProposal {\\n  constructor(address newOwner) ConfirmedOwnerWithProposal(newOwner, address(0)) {}\\n}\\n\"},\"@chainlink/contracts@1.1.1/src/v0.8/functions/v1_0_0/FunctionsClient.sol\":{\"content\":\"// SPDX-License-Identifier: MIT\\npragma solidity ^0.8.19;\\n\\nimport {IFunctionsRouter} from \\\"./interfaces/IFunctionsRouter.sol\\\";\\nimport {IFunctionsClient} from \\\"./interfaces/IFunctionsClient.sol\\\";\\n\\nimport {FunctionsRequest} from \\\"./libraries/FunctionsRequest.sol\\\";\\n\\n/// @title The Chainlink Functions client contract\\n/// @notice Contract developers can inherit this contract in order to make Chainlink Functions requests\\nabstract contract FunctionsClient is IFunctionsClient {\\n  using FunctionsRequest for FunctionsRequest.Request;\\n\\n  IFunctionsRouter internal immutable i_router;\\n\\n  event RequestSent(bytes32 indexed id);\\n  event RequestFulfilled(bytes32 indexed id);\\n\\n  error OnlyRouterCanFulfill();\\n\\n  constructor(address router) {\\n    i_router = IFunctionsRouter(router);\\n  }\\n\\n  /// @notice Sends a Chainlink Functions request\\n  /// @param data The CBOR encoded bytes data for a Functions request\\n  /// @param subscriptionId The subscription ID that will be charged to service the request\\n  /// @param callbackGasLimit the amount of gas that will be available for the fulfillment callback\\n  /// @return requestId The generated request ID for this request\\n  function _sendRequest(\\n    bytes memory data,\\n    uint64 subscriptionId,\\n    uint32 callbackGasLimit,\\n    bytes32 donId\\n  ) internal returns (bytes32) {\\n    bytes32 requestId = i_router.sendRequest(\\n      subscriptionId,\\n      data,\\n      FunctionsRequest.REQUEST_DATA_VERSION,\\n      callbackGasLimit,\\n      donId\\n    );\\n    emit RequestSent(requestId);\\n    return requestId;\\n  }\\n\\n  /// @notice User defined function to handle a response from the DON\\n  /// @param requestId The request ID, returned by sendRequest()\\n  /// @param response Aggregated response from the execution of the user's source code\\n  /// @param err Aggregated error from the execution of the user code or from the execution pipeline\\n  /// @dev Either response or error parameter will be set, but never both\\n  function fulfillRequest(bytes32 requestId, bytes memory response, bytes memory err) internal virtual;\\n\\n  /// @inheritdoc IFunctionsClient\\n  function handleOracleFulfillment(bytes32 requestId, bytes memory response, bytes memory err) external override {\\n    if (msg.sender != address(i_router)) {\\n      revert OnlyRouterCanFulfill();\\n    }\\n    fulfillRequest(requestId, response, err);\\n    emit RequestFulfilled(requestId);\\n  }\\n}\\n\"},\"@chainlink/contracts@1.1.1/src/v0.8/shared/access/ConfirmedOwnerWithProposal.sol\":{\"content\":\"// SPDX-License-Identifier: MIT\\npragma solidity ^0.8.0;\\n\\nimport {IOwnable} from \\\"../interfaces/IOwnable.sol\\\";\\n\\n/// @title The ConfirmedOwner contract\\n/// @notice A contract with helpers for basic contract ownership.\\ncontract ConfirmedOwnerWithProposal is IOwnable {\\n  address private s_owner;\\n  address private s_pendingOwner;\\n\\n  event OwnershipTransferRequested(address indexed from, address indexed to);\\n  event OwnershipTransferred(address indexed from, address indexed to);\\n\\n  constructor(address newOwner, address pendingOwner) {\\n    // solhint-disable-next-line gas-custom-errors\\n    require(newOwner != address(0), \\\"Cannot set owner to zero\\\");\\n\\n    s_owner = newOwner;\\n    if (pendingOwner != address(0)) {\\n      _transferOwnership(pendingOwner);\\n    }\\n  }\\n\\n  /// @notice Allows an owner to begin transferring ownership to a new address.\\n  function transferOwnership(address to) public override onlyOwner {\\n    _transferOwnership(to);\\n  }\\n\\n  /// @notice Allows an ownership transfer to be completed by the recipient.\\n  function acceptOwnership() external override {\\n    // solhint-disable-next-line gas-custom-errors\\n    require(msg.sender == s_pendingOwner, \\\"Must be proposed owner\\\");\\n\\n    address oldOwner = s_owner;\\n    s_owner = msg.sender;\\n    s_pendingOwner = address(0);\\n\\n    emit OwnershipTransferred(oldOwner, msg.sender);\\n  }\\n\\n  /// @notice Get the current owner\\n  function owner() public view override returns (address) {\\n    return s_owner;\\n  }\\n\\n  /// @notice validate, transfer ownership, and emit relevant events\\n  function _transferOwnership(address to) private {\\n    // solhint-disable-next-line gas-custom-errors\\n    require(to != msg.sender, \\\"Cannot transfer to self\\\");\\n\\n    s_pendingOwner = to;\\n\\n    emit OwnershipTransferRequested(s_owner, to);\\n  }\\n\\n  /// @notice validate access\\n  function _validateOwnership() internal view {\\n    // solhint-disable-next-line gas-custom-errors\\n    require(msg.sender == s_owner, \\\"Only callable by owner\\\");\\n  }\\n\\n  /// @notice Reverts if called by anyone other than the contract owner.\\n  modifier onlyOwner() {\\n    _validateOwnership();\\n    _;\\n  }\\n}\\n\"},\"@chainlink/contracts@1.1.1/src/v0.8/vendor/solidity-cborutils/v2.0.0/CBOR.sol\":{\"content\":\"// SPDX-License-Identifier: MIT\\npragma solidity ^0.8.4;\\n\\nimport \\\"../../@ensdomains/buffer/v0.1.0/Buffer.sol\\\";\\n\\n/**\\n* @dev A library for populating CBOR encoded payload in Solidity.\\n*\\n* https://datatracker.ietf.org/doc/html/rfc7049\\n*\\n* The library offers various write* and start* methods to encode values of different types.\\n* The resulted buffer can be obtained with data() method.\\n* Encoding of primitive types is staightforward, whereas encoding of sequences can result\\n* in an invalid CBOR if start/write/end flow is violated.\\n* For the purpose of gas saving, the library does not verify start/write/end flow internally,\\n* except for nested start/end pairs.\\n*/\\n\\nlibrary CBOR {\\n    using Buffer for Buffer.buffer;\\n\\n    struct CBORBuffer {\\n        Buffer.buffer buf;\\n        uint256 depth;\\n    }\\n\\n    uint8 private constant MAJOR_TYPE_INT = 0;\\n    uint8 private constant MAJOR_TYPE_NEGATIVE_INT = 1;\\n    uint8 private constant MAJOR_TYPE_BYTES = 2;\\n    uint8 private constant MAJOR_TYPE_STRING = 3;\\n    uint8 private constant MAJOR_TYPE_ARRAY = 4;\\n    uint8 private constant MAJOR_TYPE_MAP = 5;\\n    uint8 private constant MAJOR_TYPE_TAG = 6;\\n    uint8 private constant MAJOR_TYPE_CONTENT_FREE = 7;\\n\\n    uint8 private constant TAG_TYPE_BIGNUM = 2;\\n    uint8 private constant TAG_TYPE_NEGATIVE_BIGNUM = 3;\\n\\n    uint8 private constant CBOR_FALSE = 20;\\n    uint8 private constant CBOR_TRUE = 21;\\n    uint8 private constant CBOR_NULL = 22;\\n    uint8 private constant CBOR_UNDEFINED = 23;\\n\\n    function create(uint256 capacity) internal pure returns(CBORBuffer memory cbor) {\\n        Buffer.init(cbor.buf, capacity);\\n        cbor.depth = 0;\\n        return cbor;\\n    }\\n\\n    function data(CBORBuffer memory buf) internal pure returns(bytes memory) {\\n        require(buf.depth == 0, \\\"Invalid CBOR\\\");\\n        return buf.buf.buf;\\n    }\\n\\n    function writeUInt256(CBORBuffer memory buf, uint256 value) internal pure {\\n        buf.buf.appendUint8(uint8((MAJOR_TYPE_TAG << 5) | TAG_TYPE_BIGNUM));\\n        writeBytes(buf, abi.encode(value));\\n    }\\n\\n    function writeInt256(CBORBuffer memory buf, int256 value) internal pure {\\n        if (value < 0) {\\n            buf.buf.appendUint8(\\n                uint8((MAJOR_TYPE_TAG << 5) | TAG_TYPE_NEGATIVE_BIGNUM)\\n            );\\n            writeBytes(buf, abi.encode(uint256(-1 - value)));\\n        } else {\\n            writeUInt256(buf, uint256(value));\\n        }\\n    }\\n\\n    function writeUInt64(CBORBuffer memory buf, uint64 value) internal pure {\\n        writeFixedNumeric(buf, MAJOR_TYPE_INT, value);\\n    }\\n\\n    function writeInt64(CBORBuffer memory buf, int64 value) internal pure {\\n        if(value >= 0) {\\n            writeFixedNumeric(buf, MAJOR_TYPE_INT, uint64(value));\\n        } else{\\n            writeFixedNumeric(buf, MAJOR_TYPE_NEGATIVE_INT, uint64(-1 - value));\\n        }\\n    }\\n\\n    function writeBytes(CBORBuffer memory buf, bytes memory value) internal pure {\\n        writeFixedNumeric(buf, MAJOR_TYPE_BYTES, uint64(value.length));\\n        buf.buf.append(value);\\n    }\\n\\n    function writeString(CBORBuffer memory buf, string memory value) internal pure {\\n        writeFixedNumeric(buf, MAJOR_TYPE_STRING, uint64(bytes(value).length));\\n        buf.buf.append(bytes(value));\\n    }\\n\\n    function writeBool(CBORBuffer memory buf, bool value) internal pure {\\n        writeContentFree(buf, value ? CBOR_TRUE : CBOR_FALSE);\\n    }\\n\\n    function writeNull(CBORBuffer memory buf) internal pure {\\n        writeContentFree(buf, CBOR_NULL);\\n    }\\n\\n    function writeUndefined(CBORBuffer memory buf) internal pure {\\n        writeContentFree(buf, CBOR_UNDEFINED);\\n    }\\n\\n    function startArray(CBORBuffer memory buf) internal pure {\\n        writeIndefiniteLengthType(buf, MAJOR_TYPE_ARRAY);\\n        buf.depth += 1;\\n    }\\n\\n    function startFixedArray(CBORBuffer memory buf, uint64 length) internal pure {\\n        writeDefiniteLengthType(buf, MAJOR_TYPE_ARRAY, length);\\n    }\\n\\n    function startMap(CBORBuffer memory buf) internal pure {\\n        writeIndefiniteLengthType(buf, MAJOR_TYPE_MAP);\\n        buf.depth += 1;\\n    }\\n\\n    function startFixedMap(CBORBuffer memory buf, uint64 length) internal pure {\\n        writeDefiniteLengthType(buf, MAJOR_TYPE_MAP, length);\\n    }\\n\\n    function endSequence(CBORBuffer memory buf) internal pure {\\n        writeIndefiniteLengthType(buf, MAJOR_TYPE_CONTENT_FREE);\\n        buf.depth -= 1;\\n    }\\n\\n    function writeKVString(CBORBuffer memory buf, string memory key, string memory value) internal pure {\\n        writeString(buf, key);\\n        writeString(buf, value);\\n    }\\n\\n    function writeKVBytes(CBORBuffer memory buf, string memory key, bytes memory value) internal pure {\\n        writeString(buf, key);\\n        writeBytes(buf, value);\\n    }\\n\\n    function writeKVUInt256(CBORBuffer memory buf, string memory key, uint256 value) internal pure {\\n        writeString(buf, key);\\n        writeUInt256(buf, value);\\n    }\\n\\n    function writeKVInt256(CBORBuffer memory buf, string memory key, int256 value) internal pure {\\n        writeString(buf, key);\\n        writeInt256(buf, value);\\n    }\\n\\n    function writeKVUInt64(CBORBuffer memory buf, string memory key, uint64 value) internal pure {\\n        writeString(buf, key);\\n        writeUInt64(buf, value);\\n    }\\n\\n    function writeKVInt64(CBORBuffer memory buf, string memory key, int64 value) internal pure {\\n        writeString(buf, key);\\n        writeInt64(buf, value);\\n    }\\n\\n    function writeKVBool(CBORBuffer memory buf, string memory key, bool value) internal pure {\\n        writeString(buf, key);\\n        writeBool(buf, value);\\n    }\\n\\n    function writeKVNull(CBORBuffer memory buf, string memory key) internal pure {\\n        writeString(buf, key);\\n        writeNull(buf);\\n    }\\n\\n    function writeKVUndefined(CBORBuffer memory buf, string memory key) internal pure {\\n        writeString(buf, key);\\n        writeUndefined(buf);\\n    }\\n\\n    function writeKVMap(CBORBuffer memory buf, string memory key) internal pure {\\n        writeString(buf, key);\\n        startMap(buf);\\n    }\\n\\n    function writeKVArray(CBORBuffer memory buf, string memory key) internal pure {\\n        writeString(buf, key);\\n        startArray(buf);\\n    }\\n\\n    function writeFixedNumeric(\\n        CBORBuffer memory buf,\\n        uint8 major,\\n        uint64 value\\n    ) private pure {\\n        if (value <= 23) {\\n            buf.buf.appendUint8(uint8((major << 5) | value));\\n        } else if (value <= 0xFF) {\\n            buf.buf.appendUint8(uint8((major << 5) | 24));\\n            buf.buf.appendInt(value, 1);\\n        } else if (value <= 0xFFFF) {\\n            buf.buf.appendUint8(uint8((major << 5) | 25));\\n            buf.buf.appendInt(value, 2);\\n        } else if (value <= 0xFFFFFFFF) {\\n            buf.buf.appendUint8(uint8((major << 5) | 26));\\n            buf.buf.appendInt(value, 4);\\n        } else {\\n            buf.buf.appendUint8(uint8((major << 5) | 27));\\n            buf.buf.appendInt(value, 8);\\n        }\\n    }\\n\\n    function writeIndefiniteLengthType(CBORBuffer memory buf, uint8 major)\\n        private\\n        pure\\n    {\\n        buf.buf.appendUint8(uint8((major << 5) | 31));\\n    }\\n\\n    function writeDefiniteLengthType(CBORBuffer memory buf, uint8 major, uint64 length)\\n        private\\n        pure\\n    {\\n        writeFixedNumeric(buf, major, length);\\n    }\\n\\n    function writeContentFree(CBORBuffer memory buf, uint8 value) private pure {\\n        buf.buf.appendUint8(uint8((MAJOR_TYPE_CONTENT_FREE << 5) | value));\\n    }\\n}\"},\"@chainlink/contracts@1.1.1/src/v0.8/functions/v1_0_0/interfaces/IFunctionsClient.sol\":{\"content\":\"// SPDX-License-Identifier: MIT\\npragma solidity ^0.8.19;\\n\\n/// @title Chainlink Functions client interface.\\ninterface IFunctionsClient {\\n  /// @notice Chainlink Functions response handler called by the Functions Router\\n  /// during fullilment from the designated transmitter node in an OCR round.\\n  /// @param requestId The requestId returned by FunctionsClient.sendRequest().\\n  /// @param response Aggregated response from the request's source code.\\n  /// @param err Aggregated error either from the request's source code or from the execution pipeline.\\n  /// @dev Either response or error parameter will be set, but never both.\\n  function handleOracleFulfillment(bytes32 requestId, bytes memory response, bytes memory err) external;\\n}\\n\"},\"@chainlink/contracts@1.1.1/src/v0.8/functions/v1_0_0/interfaces/IFunctionsRouter.sol\":{\"content\":\"// SPDX-License-Identifier: MIT\\npragma solidity ^0.8.19;\\n\\nimport {FunctionsResponse} from \\\"../libraries/FunctionsResponse.sol\\\";\\n\\n/// @title Chainlink Functions Router interface.\\ninterface IFunctionsRouter {\\n  /// @notice The identifier of the route to retrieve the address of the access control contract\\n  /// The access control contract controls which accounts can manage subscriptions\\n  /// @return id - bytes32 id that can be passed to the \\\"getContractById\\\" of the Router\\n  function getAllowListId() external view returns (bytes32);\\n\\n  /// @notice Set the identifier of the route to retrieve the address of the access control contract\\n  /// The access control contract controls which accounts can manage subscriptions\\n  function setAllowListId(bytes32 allowListId) external;\\n\\n  /// @notice Get the flat fee (in Juels of LINK) that will be paid to the Router owner for operation of the network\\n  /// @return adminFee\\n  function getAdminFee() external view returns (uint72 adminFee);\\n\\n  /// @notice Sends a request using the provided subscriptionId\\n  /// @param subscriptionId - A unique subscription ID allocated by billing system,\\n  /// a client can make requests from different contracts referencing the same subscription\\n  /// @param data - CBOR encoded Chainlink Functions request data, use FunctionsClient API to encode a request\\n  /// @param dataVersion - Gas limit for the fulfillment callback\\n  /// @param callbackGasLimit - Gas limit for the fulfillment callback\\n  /// @param donId - An identifier used to determine which route to send the request along\\n  /// @return requestId - A unique request identifier\\n  function sendRequest(\\n    uint64 subscriptionId,\\n    bytes calldata data,\\n    uint16 dataVersion,\\n    uint32 callbackGasLimit,\\n    bytes32 donId\\n  ) external returns (bytes32);\\n\\n  /// @notice Sends a request to the proposed contracts\\n  /// @param subscriptionId - A unique subscription ID allocated by billing system,\\n  /// a client can make requests from different contracts referencing the same subscription\\n  /// @param data - CBOR encoded Chainlink Functions request data, use FunctionsClient API to encode a request\\n  /// @param dataVersion - Gas limit for the fulfillment callback\\n  /// @param callbackGasLimit - Gas limit for the fulfillment callback\\n  /// @param donId - An identifier used to determine which route to send the request along\\n  /// @return requestId - A unique request identifier\\n  function sendRequestToProposed(\\n    uint64 subscriptionId,\\n    bytes calldata data,\\n    uint16 dataVersion,\\n    uint32 callbackGasLimit,\\n    bytes32 donId\\n  ) external returns (bytes32);\\n\\n  /// @notice Fulfill the request by:\\n  /// - calling back the data that the Oracle returned to the client contract\\n  /// - pay the DON for processing the request\\n  /// @dev Only callable by the Coordinator contract that is saved in the commitment\\n  /// @param response response data from DON consensus\\n  /// @param err error from DON consensus\\n  /// @param juelsPerGas - current rate of juels/gas\\n  /// @param costWithoutFulfillment - The cost of processing the request (in Juels of LINK ), without fulfillment\\n  /// @param transmitter - The Node that transmitted the OCR report\\n  /// @param commitment - The parameters of the request that must be held consistent between request and response time\\n  /// @return fulfillResult -\\n  /// @return callbackGasCostJuels -\\n  function fulfill(\\n    bytes memory response,\\n    bytes memory err,\\n    uint96 juelsPerGas,\\n    uint96 costWithoutFulfillment,\\n    address transmitter,\\n    FunctionsResponse.Commitment memory commitment\\n  ) external returns (FunctionsResponse.FulfillResult, uint96);\\n\\n  /// @notice Validate requested gas limit is below the subscription max.\\n  /// @param subscriptionId subscription ID\\n  /// @param callbackGasLimit desired callback gas limit\\n  function isValidCallbackGasLimit(uint64 subscriptionId, uint32 callbackGasLimit) external view;\\n\\n  /// @notice Get the current contract given an ID\\n  /// @param id A bytes32 identifier for the route\\n  /// @return contract The current contract address\\n  function getContractById(bytes32 id) external view returns (address);\\n\\n  /// @notice Get the proposed next contract given an ID\\n  /// @param id A bytes32 identifier for the route\\n  /// @return contract The current or proposed contract address\\n  function getProposedContractById(bytes32 id) external view returns (address);\\n\\n  /// @notice Return the latest proprosal set\\n  /// @return ids The identifiers of the contracts to update\\n  /// @return to The addresses of the contracts that will be updated to\\n  function getProposedContractSet() external view returns (bytes32[] memory, address[] memory);\\n\\n  /// @notice Proposes one or more updates to the contract routes\\n  /// @dev Only callable by owner\\n  function proposeContractsUpdate(bytes32[] memory proposalSetIds, address[] memory proposalSetAddresses) external;\\n\\n  /// @notice Updates the current contract routes to the proposed contracts\\n  /// @dev Only callable by owner\\n  function updateContracts() external;\\n\\n  /// @dev Puts the system into an emergency stopped state.\\n  /// @dev Only callable by owner\\n  function pause() external;\\n\\n  /// @dev Takes the system out of an emergency stopped state.\\n  /// @dev Only callable by owner\\n  function unpause() external;\\n}\\n\"},\"@chainlink/contracts@1.1.1/src/v0.8/vendor/@ensdomains/buffer/v0.1.0/Buffer.sol\":{\"content\":\"// SPDX-License-Identifier: BSD-2-Clause\\npragma solidity ^0.8.4;\\n\\n/**\\n* @dev A library for working with mutable byte buffers in Solidity.\\n*\\n* Byte buffers are mutable and expandable, and provide a variety of primitives\\n* for appending to them. At any time you can fetch a bytes object containing the\\n* current contents of the buffer. The bytes object should not be stored between\\n* operations, as it may change due to resizing of the buffer.\\n*/\\nlibrary Buffer {\\n    /**\\n    * @dev Represents a mutable buffer. Buffers have a current value (buf) and\\n    *      a capacity. The capacity may be longer than the current value, in\\n    *      which case it can be extended without the need to allocate more memory.\\n    */\\n    struct buffer {\\n        bytes buf;\\n        uint capacity;\\n    }\\n\\n    /**\\n    * @dev Initializes a buffer with an initial capacity.\\n    * @param buf The buffer to initialize.\\n    * @param capacity The number of bytes of space to allocate the buffer.\\n    * @return The buffer, for chaining.\\n    */\\n    function init(buffer memory buf, uint capacity) internal pure returns(buffer memory) {\\n        if (capacity % 32 != 0) {\\n            capacity += 32 - (capacity % 32);\\n        }\\n        // Allocate space for the buffer data\\n        buf.capacity = capacity;\\n        assembly {\\n            let ptr := mload(0x40)\\n            mstore(buf, ptr)\\n            mstore(ptr, 0)\\n            let fpm := add(32, add(ptr, capacity))\\n            if lt(fpm, ptr) {\\n                revert(0, 0)\\n            }\\n            mstore(0x40, fpm)\\n        }\\n        return buf;\\n    }\\n\\n    /**\\n    * @dev Initializes a new buffer from an existing bytes object.\\n    *      Changes to the buffer may mutate the original value.\\n    * @param b The bytes object to initialize the buffer with.\\n    * @return A new buffer.\\n    */\\n    function fromBytes(bytes memory b) internal pure returns(buffer memory) {\\n        buffer memory buf;\\n        buf.buf = b;\\n        buf.capacity = b.length;\\n        return buf;\\n    }\\n\\n    function resize(buffer memory buf, uint capacity) private pure {\\n        bytes memory oldbuf = buf.buf;\\n        init(buf, capacity);\\n        append(buf, oldbuf);\\n    }\\n\\n    /**\\n    * @dev Sets buffer length to 0.\\n    * @param buf The buffer to truncate.\\n    * @return The original buffer, for chaining..\\n    */\\n    function truncate(buffer memory buf) internal pure returns (buffer memory) {\\n        assembly {\\n            let bufptr := mload(buf)\\n            mstore(bufptr, 0)\\n        }\\n        return buf;\\n    }\\n\\n    /**\\n    * @dev Appends len bytes of a byte string to a buffer. Resizes if doing so would exceed\\n    *      the capacity of the buffer.\\n    * @param buf The buffer to append to.\\n    * @param data The data to append.\\n    * @param len The number of bytes to copy.\\n    * @return The original buffer, for chaining.\\n    */\\n    function append(buffer memory buf, bytes memory data, uint len) internal pure returns(buffer memory) {\\n        require(len <= data.length);\\n\\n        uint off = buf.buf.length;\\n        uint newCapacity = off + len;\\n        if (newCapacity > buf.capacity) {\\n            resize(buf, newCapacity * 2);\\n        }\\n\\n        uint dest;\\n        uint src;\\n        assembly {\\n            // Memory address of the buffer data\\n            let bufptr := mload(buf)\\n            // Length of existing buffer data\\n            let buflen := mload(bufptr)\\n            // Start address = buffer address + offset + sizeof(buffer length)\\n            dest := add(add(bufptr, 32), off)\\n            // Update buffer length if we're extending it\\n            if gt(newCapacity, buflen) {\\n                mstore(bufptr, newCapacity)\\n            }\\n            src := add(data, 32)\\n        }\\n\\n        // Copy word-length chunks while possible\\n        for (; len >= 32; len -= 32) {\\n            assembly {\\n                mstore(dest, mload(src))\\n            }\\n            dest += 32;\\n            src += 32;\\n        }\\n\\n        // Copy remaining bytes\\n        unchecked {\\n            uint mask = (256 ** (32 - len)) - 1;\\n            assembly {\\n                let srcpart := and(mload(src), not(mask))\\n                let destpart := and(mload(dest), mask)\\n                mstore(dest, or(destpart, srcpart))\\n            }\\n        }\\n\\n        return buf;\\n    }\\n\\n    /**\\n    * @dev Appends a byte string to a buffer. Resizes if doing so would exceed\\n    *      the capacity of the buffer.\\n    * @param buf The buffer to append to.\\n    * @param data The data to append.\\n    * @return The original buffer, for chaining.\\n    */\\n    function append(buffer memory buf, bytes memory data) internal pure returns (buffer memory) {\\n        return append(buf, data, data.length);\\n    }\\n\\n    /**\\n    * @dev Appends a byte to the buffer. Resizes if doing so would exceed the\\n    *      capacity of the buffer.\\n    * @param buf The buffer to append to.\\n    * @param data The data to append.\\n    * @return The original buffer, for chaining.\\n    */\\n    function appendUint8(buffer memory buf, uint8 data) internal pure returns(buffer memory) {\\n        uint off = buf.buf.length;\\n        uint offPlusOne = off + 1;\\n        if (off >= buf.capacity) {\\n            resize(buf, offPlusOne * 2);\\n        }\\n\\n        assembly {\\n            // Memory address of the buffer data\\n            let bufptr := mload(buf)\\n            // Address = buffer address + sizeof(buffer length) + off\\n            let dest := add(add(bufptr, off), 32)\\n            mstore8(dest, data)\\n            // Update buffer length if we extended it\\n            if gt(offPlusOne, mload(bufptr)) {\\n                mstore(bufptr, offPlusOne)\\n            }\\n        }\\n\\n        return buf;\\n    }\\n\\n    /**\\n    * @dev Appends len bytes of bytes32 to a buffer. Resizes if doing so would\\n    *      exceed the capacity of the buffer.\\n    * @param buf The buffer to append to.\\n    * @param data The data to append.\\n    * @param len The number of bytes to write (left-aligned).\\n    * @return The original buffer, for chaining.\\n    */\\n    function append(buffer memory buf, bytes32 data, uint len) private pure returns(buffer memory) {\\n        uint off = buf.buf.length;\\n        uint newCapacity = len + off;\\n        if (newCapacity > buf.capacity) {\\n            resize(buf, newCapacity * 2);\\n        }\\n\\n        unchecked {\\n            uint mask = (256 ** len) - 1;\\n            // Right-align data\\n            data = data >> (8 * (32 - len));\\n            assembly {\\n                // Memory address of the buffer data\\n                let bufptr := mload(buf)\\n                // Address = buffer address + sizeof(buffer length) + newCapacity\\n                let dest := add(bufptr, newCapacity)\\n                mstore(dest, or(and(mload(dest), not(mask)), data))\\n                // Update buffer length if we extended it\\n                if gt(newCapacity, mload(bufptr)) {\\n                    mstore(bufptr, newCapacity)\\n                }\\n            }\\n        }\\n        return buf;\\n    }\\n\\n    /**\\n    * @dev Appends a bytes20 to the buffer. Resizes if doing so would exceed\\n    *      the capacity of the buffer.\\n    * @param buf The buffer to append to.\\n    * @param data The data to append.\\n    * @return The original buffer, for chhaining.\\n    */\\n    function appendBytes20(buffer memory buf, bytes20 data) internal pure returns (buffer memory) {\\n        return append(buf, bytes32(data), 20);\\n    }\\n\\n    /**\\n    * @dev Appends a bytes32 to the buffer. Resizes if doing so would exceed\\n    *      the capacity of the buffer.\\n    * @param buf The buffer to append to.\\n    * @param data The data to append.\\n    * @return The original buffer, for chaining.\\n    */\\n    function appendBytes32(buffer memory buf, bytes32 data) internal pure returns (buffer memory) {\\n        return append(buf, data, 32);\\n    }\\n\\n    /**\\n     * @dev Appends a byte to the end of the buffer. Resizes if doing so would\\n     *      exceed the capacity of the buffer.\\n     * @param buf The buffer to append to.\\n     * @param data The data to append.\\n     * @param len The number of bytes to write (right-aligned).\\n     * @return The original buffer.\\n     */\\n    function appendInt(buffer memory buf, uint data, uint len) internal pure returns(buffer memory) {\\n        uint off = buf.buf.length;\\n        uint newCapacity = len + off;\\n        if (newCapacity > buf.capacity) {\\n            resize(buf, newCapacity * 2);\\n        }\\n\\n        uint mask = (256 ** len) - 1;\\n        assembly {\\n            // Memory address of the buffer data\\n            let bufptr := mload(buf)\\n            // Address = buffer address + sizeof(buffer length) + newCapacity\\n            let dest := add(bufptr, newCapacity)\\n            mstore(dest, or(and(mload(dest), not(mask)), data))\\n            // Update buffer length if we extended it\\n            if gt(newCapacity, mload(bufptr)) {\\n                mstore(bufptr, newCapacity)\\n            }\\n        }\\n        return buf;\\n    }\\n}\"},\"@chainlink/contracts@1.1.1/src/v0.8/shared/interfaces/IOwnable.sol\":{\"content\":\"// SPDX-License-Identifier: MIT\\npragma solidity ^0.8.0;\\n\\ninterface IOwnable {\\n  function owner() external returns (address);\\n\\n  function transferOwnership(address recipient) external;\\n\\n  function acceptOwnership() external;\\n}\\n\"},\"@chainlink/contracts@1.1.1/src/v0.8/functions/v1_0_0/libraries/FunctionsResponse.sol\":{\"content\":\"// SPDX-License-Identifier: MIT\\npragma solidity ^0.8.19;\\n\\n/// @title Library of types that are used for fulfillment of a Functions request\\nlibrary FunctionsResponse {\\n  // Used to send request information from the Router to the Coordinator\\n  struct RequestMeta {\\n    bytes data; // ══════════════════╸ CBOR encoded Chainlink Functions request data, use FunctionsRequest library to encode a request\\n    bytes32 flags; // ═══════════════╸ Per-subscription flags\\n    address requestingContract; // ══╗ The client contract that is sending the request\\n    uint96 availableBalance; // ═════╝ Common LINK balance of the subscription that is controlled by the Router to be used for all consumer requests.\\n    uint72 adminFee; // ═════════════╗ Flat fee (in Juels of LINK) that will be paid to the Router Owner for operation of the network\\n    uint64 subscriptionId; //        ║ Identifier of the billing subscription that will be charged for the request\\n    uint64 initiatedRequests; //     ║ The number of requests that have been started\\n    uint32 callbackGasLimit; //      ║ The amount of gas that the callback to the consuming contract will be given\\n    uint16 dataVersion; // ══════════╝ The version of the structure of the CBOR encoded request data\\n    uint64 completedRequests; // ════╗ The number of requests that have successfully completed or timed out\\n    address subscriptionOwner; // ═══╝ The owner of the billing subscription\\n  }\\n\\n  enum FulfillResult {\\n    FULFILLED, // 0\\n    USER_CALLBACK_ERROR, // 1\\n    INVALID_REQUEST_ID, // 2\\n    COST_EXCEEDS_COMMITMENT, // 3\\n    INSUFFICIENT_GAS_PROVIDED, // 4\\n    SUBSCRIPTION_BALANCE_INVARIANT_VIOLATION, // 5\\n    INVALID_COMMITMENT // 6\\n  }\\n\\n  struct Commitment {\\n    bytes32 requestId; // ═════════════════╸ A unique identifier for a Chainlink Functions request\\n    address coordinator; // ═══════════════╗ The Coordinator contract that manages the DON that is servicing a request\\n    uint96 estimatedTotalCostJuels; // ════╝ The maximum cost in Juels (1e18) of LINK that will be charged to fulfill a request\\n    address client; // ════════════════════╗ The client contract that sent the request\\n    uint64 subscriptionId; //              ║ Identifier of the billing subscription that will be charged for the request\\n    uint32 callbackGasLimit; // ═══════════╝ The amount of gas that the callback to the consuming contract will be given\\n    uint72 adminFee; // ═══════════════════╗ Flat fee (in Juels of LINK) that will be paid to the Router Owner for operation of the network\\n    uint72 donFee; //                      ║ Fee (in Juels of LINK) that will be split between Node Operators for servicing a request\\n    uint40 gasOverheadBeforeCallback; //   ║ Represents the average gas execution cost before the fulfillment callback.\\n    uint40 gasOverheadAfterCallback; //    ║ Represents the average gas execution cost after the fulfillment callback.\\n    uint32 timeoutTimestamp; // ═══════════╝ The timestamp at which a request will be eligible to be timed out\\n  }\\n}\\n\"}}}",
	"name": "GettingStartedFunctionsConsumer",
	"bytecode": {
		"linkReferences": {},
		"object": "600580546001600160a01b03191673b83e47c2bc239b3bf370bc41e1459a34b41238d01790556101e060405261010560a0818152906200197e60c0396006906200004a908262000281565b506007805463ffffffff1916620493e01790557f66756e2d657468657265756d2d7365706f6c69612d31000000000000000000006008553480156200008e57600080fd5b506005546001600160a01b03166080523380600081620000f55760405162461bcd60e51b815260206004820152601860248201527f43616e6e6f7420736574206f776e657220746f207a65726f000000000000000060448201526064015b60405180910390fd5b600080546001600160a01b0319166001600160a01b03848116919091179091558116156200012857620001288162000131565b5050506200034d565b336001600160a01b038216036200018b5760405162461bcd60e51b815260206004820152601760248201527f43616e6e6f74207472616e7366657220746f2073656c660000000000000000006044820152606401620000ec565b600180546001600160a01b0319166001600160a01b0383811691821790925560008054604051929316917fed8889f560326eb138920d842192f0eb3dd22b4f139c87a2c57538e05bae12789190a350565b634e487b7160e01b600052604160045260246000fd5b600181811c908216806200020757607f821691505b6020821081036200022857634e487b7160e01b600052602260045260246000fd5b50919050565b601f8211156200027c57600081815260208120601f850160051c81016020861015620002575750805b601f850160051c820191505b81811015620002785782815560010162000263565b5050505b505050565b81516001600160401b038111156200029d576200029d620001dc565b620002b581620002ae8454620001f2565b846200022e565b602080601f831160018114620002ed5760008415620002d45750858301515b600019600386901b1c1916600185901b17855562000278565b600085815260208120601f198616915b828110156200031e57888601518255948401946001909101908401620002fd565b50858210156200033d5787850151600019600388901b60f8161c191681555b5050505050600190811b01905550565b60805161160e62000370600039600081816101460152610857015261160e6000f3fe608060405234801561001057600080fd5b50600436106100935760003560e01c80634d2e03a0116100665780634d2e03a0146100f457806379ba5097146100fc5780638da5cb5b14610104578063b1e217491461011f578063f2fde38b1461012857600080fd5b80630ca76175146100985780633944ea3a146100ad57806348a7d26d146100cb5780634b0795a8146100ec575b600080fd5b6100ab6100a6366004610fb2565b61013b565b005b6100b56101bf565b6040516100c29190611064565b60405180910390f35b6100de6100d9366004611077565b61024d565b6040519081526020016100c2565b6100b561037d565b6100b561038a565b6100ab610397565b6000546040516001600160a01b0390911681526020016100c2565b6100de60025481565b6100ab610136366004611105565b610446565b336001600160a01b037f000000000000000000000000000000000000000000000000000000000000000016146101845760405163c6829f8360e01b815260040160405180910390fd5b61018f83838361045a565b60405183907f85e1543bf2f84fe80c6badbce3648c8539ad1df4d2b3d822938ca0538be727e690600090a2505050565b600380546101cc9061112e565b80601f01602080910402602001604051908101604052809291908181526020018280546101f89061112e565b80156102455780601f1061021a57610100808354040283529160200191610245565b820191906000526020600020905b81548152906001019060200180831161022857829003601f168201915b505050505081565b60006102576104ea565b6102986040805160e0810190915280600081526020016000815260200160008152602001606081526020016060815260200160608152602001606081525090565b610335600680546102a89061112e565b80601f01602080910402602001604051908101604052809291908181526020018280546102d49061112e565b80156103215780601f106102f657610100808354040283529160200191610321565b820191906000526020600020905b81548152906001019060200180831161030457829003601f168201915b50505050508261053f90919063ffffffff16565b821561034f5761034f6103488486611168565b8290610550565b61036f61035b8261057a565b600754600854889163ffffffff1690610852565b600281905595945050505050565b600480546101cc9061112e565b600980546101cc9061112e565b6001546001600160a01b031633146103ef5760405162461bcd60e51b815260206004820152601660248201527526bab9ba10313290383937b837b9b2b21037bbb732b960511b60448201526064015b60405180910390fd5b60008054336001600160a01b0319808316821784556001805490911690556040516001600160a01b0390921692909183917f8be0079c531659141344cd1fd0a4f28419497f9722a3daafe3b4186f6b6457e091a350565b61044e6104ea565b61045781610924565b50565b826002541461047f5760405163d068bf5b60e01b8152600481018490526024016103e6565b600361048b838261124d565b506009610498838261124d565b5060046104a5828261124d565b50827f160ed0aaffbef6885155188b91459cb5a97d5daadccf7561d8c46deea6641b506009600360046040516104dd93929190611389565b60405180910390a2505050565b6000546001600160a01b0316331461053d5760405162461bcd60e51b815260206004820152601660248201527527b7363c9031b0b63630b1363290313c9037bbb732b960511b60448201526064016103e6565b565b61054c82600080846109cd565b5050565b80516000036105725760405163fe936cb760e01b815260040160405180910390fd5b60a090910152565b60606000610589610100610a4b565b90506105c26040518060400160405280600c81526020016b31b7b232a637b1b0ba34b7b760a11b81525082610a6c90919063ffffffff16565b82516105e09060028111156105d9576105d96113cc565b8290610a8a565b6040805180820190915260088152676c616e677561676560c01b602082015261060a908290610a6c565b60408301516106219080156105d9576105d96113cc565b604080518082019091526006815265736f7572636560d01b6020820152610649908290610a6c565b6060830151610659908290610a6c565b60a083015151156106ed576040805180820190915260048152636172677360e01b602082015261068a908290610a6c565b61069381610ac3565b60005b8360a00151518110156106e3576106d38460a0015182815181106106bc576106bc6113e2565b602002602001015183610a6c90919063ffffffff16565b6106dc8161140e565b9050610696565b506106ed81610ae7565b608083015151156107b157600083602001516002811115610710576107106113cc565b0361072e5760405163a80d31f760e01b815260040160405180910390fd5b60408051808201909152600f81526e39b2b1b932ba39a637b1b0ba34b7b760891b602082015261075f908290610a6c565b610778836020015160028111156105d9576105d96113cc565b6040805180820190915260078152667365637265747360c81b60208201526107a1908290610a6c565b60808301516107b1908290610b05565b60c0830151511561084a5760408051808201909152600981526862797465734172677360b81b60208201526107e7908290610a6c565b6107f081610ac3565b60005b8360c0015151811015610840576108308460c001518281518110610819576108196113e2565b602002602001015183610b0590919063ffffffff16565b6108398161140e565b90506107f3565b5061084a81610ae7565b515192915050565b6000807f00000000000000000000000000000000000000000000000000000000000000006001600160a01b031663461d27628688600188886040518663ffffffff1660e01b81526004016108aa959493929190611427565b6020604051808303816000875af11580156108c9573d6000803e3d6000fd5b505050506040513d601f19601f820116820180604052508101906108ed9190611470565b60405190915081907f1131472297a800fee664d1d89cfa8f7676ff07189ecc53f80bbb5f4969099db890600090a295945050505050565b336001600160a01b0382160361097c5760405162461bcd60e51b815260206004820152601760248201527f43616e6e6f74207472616e7366657220746f2073656c6600000000000000000060448201526064016103e6565b600180546001600160a01b0319166001600160a01b0383811691821790925560008054604051929316917fed8889f560326eb138920d842192f0eb3dd22b4f139c87a2c57538e05bae12789190a350565b80516000036109ef576040516322ce3edd60e01b815260040160405180910390fd5b83836002811115610a0257610a026113cc565b90816002811115610a1557610a156113cc565b90525060408401828015610a2b57610a2b6113cc565b90818015610a3b57610a3b6113cc565b9052506060909301929092525050565b610a53610ec0565b8051610a5f9083610b12565b5060006020820152919050565b610a798260038351610b8c565b8151610a859082610cab565b505050565b8151610a979060c2610cd3565b5061054c8282604051602001610aaf91815260200190565b604051602081830303815290604052610b05565b610ace816004610d3c565b600181602001818151610ae19190611489565b90525050565b610af2816007610d3c565b600181602001818151610ae1919061149c565b610a798260028351610b8c565b604080518082019091526060815260006020820152610b326020836114af565b15610b5a57610b426020836114af565b610b4d90602061149c565b610b579083611489565b91505b602080840183905260405180855260008152908184010181811015610b7e57600080fd5b604052508290505b92915050565b6017816001600160401b031611610bb8578251610bb29060e0600585901b168317610cd3565b50505050565b60ff816001600160401b031611610bf8578251610be0906018611fe0600586901b1617610cd3565b508251610bb2906001600160401b0383166001610d53565b61ffff816001600160401b031611610c39578251610c21906019611fe0600586901b1617610cd3565b508251610bb2906001600160401b0383166002610d53565b63ffffffff816001600160401b031611610c7c578251610c6490601a611fe0600586901b1617610cd3565b508251610bb2906001600160401b0383166004610d53565b8251610c9390601b611fe0600586901b1617610cd3565b508251610bb2906001600160401b0383166008610d53565b604080518082019091526060815260006020820152610ccc83838451610dd8565b9392505050565b6040805180820190915260608152600060208201528251516000610cf8826001611489565b905084602001518210610d1957610d1985610d148360026114d1565b610ea9565b8451602083820101858153508051821115610d32578181525b5093949350505050565b8151610a8590601f611fe0600585901b1617610cd3565b6040805180820190915260608152600060208201528351516000610d778285611489565b90508560200151811115610d9457610d9486610d148360026114d1565b60006001610da4866101006115cc565b610dae919061149c565b90508651828101878319825116178152508051831115610dcc578281525b50959695505050505050565b6040805180820190915260608152600060208201528251821115610dfb57600080fd5b8351516000610e0a8483611489565b90508560200151811115610e2757610e2786610d148360026114d1565b855180518382016020019160009180851115610e41578482525b505050602086015b60208610610e815780518252610e60602083611489565b9150610e6d602082611489565b9050610e7a60208761149c565b9550610e49565b51815160001960208890036101000a0190811690199190911617905250849150509392505050565b8151610eb58383610b12565b50610bb28382610cab565b6040518060400160405280610ee8604051806040016040528060608152602001600081525090565b8152602001600081525090565b634e487b7160e01b600052604160045260246000fd5b604051601f8201601f191681016001600160401b0381118282101715610f3357610f33610ef5565b604052919050565b60006001600160401b03831115610f5457610f54610ef5565b610f67601f8401601f1916602001610f0b565b9050828152838383011115610f7b57600080fd5b828260208301376000602084830101529392505050565b600082601f830112610fa357600080fd5b610ccc83833560208501610f3b565b600080600060608486031215610fc757600080fd5b8335925060208401356001600160401b0380821115610fe557600080fd5b610ff187838801610f92565b9350604086013591508082111561100757600080fd5b5061101486828701610f92565b9150509250925092565b6000815180845260005b8181101561104457602081850181015186830182015201611028565b506000602082860101526020601f19601f83011685010191505092915050565b602081526000610ccc602083018461101e565b60008060006040848603121561108c57600080fd5b83356001600160401b0380821682146110a457600080fd5b909350602085013590808211156110ba57600080fd5b818601915086601f8301126110ce57600080fd5b8135818111156110dd57600080fd5b8760208260051b85010111156110f257600080fd5b6020830194508093505050509250925092565b60006020828403121561111757600080fd5b81356001600160a01b0381168114610ccc57600080fd5b600181811c9082168061114257607f821691505b60208210810361116257634e487b7160e01b600052602260045260246000fd5b50919050565b60006001600160401b038084111561118257611182610ef5565b8360051b6020611193818301610f0b565b8681529185019181810190368411156111ab57600080fd5b865b848110156111f3578035868111156111c55760008081fd5b880136601f8201126111d75760008081fd5b6111e5368235878401610f3b565b8452509183019183016111ad565b50979650505050505050565b601f821115610a8557600081815260208120601f850160051c810160208610156112265750805b601f850160051c820191505b8181101561124557828155600101611232565b505050505050565b81516001600160401b0381111561126657611266610ef5565b61127a81611274845461112e565b846111ff565b602080601f8311600181146112af57600084156112975750858301515b600019600386901b1c1916600185901b178555611245565b600085815260208120601f198616915b828110156112de578886015182559484019460019091019084016112bf565b50858210156112fc5787850151600019600388901b60f8161c191681555b5050505050600190811b01905550565b600081546113198161112e565b80855260206001838116801561133657600181146113505761137e565b60ff1985168884015283151560051b88018301955061137e565b866000528260002060005b858110156113765781548a820186015290830190840161135b565b890184019650505b505050505092915050565b60608152600061139c606083018661130c565b82810360208401526113ae818661130c565b905082810360408401526113c2818561130c565b9695505050505050565b634e487b7160e01b600052602160045260246000fd5b634e487b7160e01b600052603260045260246000fd5b634e487b7160e01b600052601160045260246000fd5b600060018201611420576114206113f8565b5060010190565b6001600160401b038616815260a06020820152600061144960a083018761101e565b61ffff9590951660408301525063ffffffff92909216606083015260809091015292915050565b60006020828403121561148257600080fd5b5051919050565b80820180821115610b8657610b866113f8565b81810381811115610b8657610b866113f8565b6000826114cc57634e487b7160e01b600052601260045260246000fd5b500690565b8082028115828204841417610b8657610b866113f8565b600181815b80851115611523578160001904821115611509576115096113f8565b8085161561151657918102915b93841c93908002906114ed565b509250929050565b60008261153a57506001610b86565b8161154757506000610b86565b816001811461155d576002811461156757611583565b6001915050610b86565b60ff841115611578576115786113f8565b50506001821b610b86565b5060208310610133831016604e8410600b84101617156115a6575081810a610b86565b6115b083836114e8565b80600019048211156115c4576115c46113f8565b029392505050565b6000610ccc838361152b56fea26469706673582212209345d77ee09056d1fd55eb56e213ace3a4da00421afc26642d95e3a2e579ffec64736f6c63430008130033636f6e7374206368617261637465724964203d20617267735b305d3b636f6e737420617069526573706f6e7365203d2061776169742046756e6374696f6e732e6d616b654874747052657175657374287b75726c3a206068747470733a2f2f73776170692e696e666f2f6170692f70656f706c652f247b63686172616374657249647d2f607d293b69662028617069526573706f6e73652e6572726f7229207b7468726f77204572726f72282752657175657374206661696c656427293b7d636f6e7374207b2064617461207d203d20617069526573706f6e73653b72657475726e2046756e6374696f6e732e656e636f6465537472696e6728646174612e6e616d65293b",
		"opcodes": "PUSH1 0x5 DUP1 SLOAD PUSH1 0x1 PUSH1 0x1 PUSH1 0xA0 SHL SUB NOT AND PUSH20 0xB83E47C2BC239B3BF370BC41E1459A34B41238D0 OR SWAP1 SSTORE PUSH2 0x1E0 PUSH1 0x40 MSTORE PUSH2 0x105 PUSH1 0xA0 DUP2 DUP2 MSTORE SWAP1 PUSH3 0x197E PUSH1 0xC0 CODECOPY PUSH1 0x6 SWAP1 PUSH3 0x4A SWAP1 DUP3 PUSH3 0x281 JUMP JUMPDEST POP PUSH1 0x7 DUP1 SLOAD PUSH4 0xFFFFFFFF NOT AND PUSH3 0x493E0 OR SWAP1 SSTORE PUSH32 0x66756E2D657468657265756D2D7365706F6C69612D3100000000000000000000 PUSH1 0x8 SSTORE CALLVALUE DUP1 ISZERO PUSH3 0x8E JUMPI PUSH1 0x0 DUP1 REVERT JUMPDEST POP PUSH1 0x5 SLOAD PUSH1 0x1 PUSH1 0x1 PUSH1 0xA0 SHL SUB AND PUSH1 0x80 MSTORE CALLER DUP1 PUSH1 0x0 DUP2 PUSH3 0xF5 JUMPI PUSH1 0x40 MLOAD PUSH3 0x461BCD PUSH1 0xE5 SHL DUP2 MSTORE PUSH1 0x20 PUSH1 0x4 DUP3 ADD MSTORE PUSH1 0x18 PUSH1 0x24 DUP3 ADD MSTORE PUSH32 0x43616E6E6F7420736574206F776E657220746F207A65726F0000000000000000 PUSH1 0x44 DUP3 ADD MSTORE PUSH1 0x64 ADD JUMPDEST PUSH1 0x40 MLOAD DUP1 SWAP2 SUB SWAP1 REVERT JUMPDEST PUSH1 0x0 DUP1 SLOAD PUSH1 0x1 PUSH1 0x1 PUSH1 0xA0 SHL SUB NOT AND PUSH1 0x1 PUSH1 0x1 PUSH1 0xA0 SHL SUB DUP5 DUP2 AND SWAP2 SWAP1 SWAP2 OR SWAP1 SWAP2 SSTORE DUP2 AND ISZERO PUSH3 0x128 JUMPI PUSH3 0x128 DUP2 PUSH3 0x131 JUMP JUMPDEST POP POP POP PUSH3 0x34D JUMP JUMPDEST CALLER PUSH1 0x1 PUSH1 0x1 PUSH1 0xA0 SHL SUB DUP3 AND SUB PUSH3 0x18B JUMPI PUSH1 0x40 MLOAD PUSH3 0x461BCD PUSH1 0xE5 SHL DUP2 MSTORE PUSH1 0x20 PUSH1 0x4 DUP3 ADD MSTORE PUSH1 0x17 PUSH1 0x24 DUP3 ADD MSTORE PUSH32 0x43616E6E6F74207472616E7366657220746F2073656C66000000000000000000 PUSH1 0x44 DUP3 ADD MSTORE PUSH1 0x64 ADD PUSH3 0xEC JUMP JUMPDEST PUSH1 0x1 DUP1 SLOAD PUSH1 0x1 PUSH1 0x1 PUSH1 0xA0 SHL SUB NOT AND PUSH1 0x1 PUSH1 0x1 PUSH1 0xA0 SHL SUB DUP4 DUP2 AND SWAP2 DUP3 OR SWAP1 SWAP3 SSTORE PUSH1 0x0 DUP1 SLOAD PUSH1 0x40 MLOAD SWAP3 SWAP4 AND SWAP2 PUSH32 0xED8889F560326EB138920D842192F0EB3DD22B4F139C87A2C57538E05BAE1278 SWAP2 SWAP1 LOG3 POP JUMP JUMPDEST PUSH4 0x4E487B71 PUSH1 0xE0 SHL PUSH1 0x0 MSTORE PUSH1 0x41 PUSH1 0x4 MSTORE PUSH1 0x24 PUSH1 0x0 REVERT JUMPDEST PUSH1 0x1 DUP2 DUP2 SHR SWAP1 DUP3 AND DUP1 PUSH3 0x207 JUMPI PUSH1 0x7F DUP3 AND SWAP2 POP JUMPDEST PUSH1 0x20 DUP3 LT DUP2 SUB PUSH3 0x228 JUMPI PUSH4 0x4E487B71 PUSH1 0xE0 SHL PUSH1 0x0 MSTORE PUSH1 0x22 PUSH1 0x4 MSTORE PUSH1 0x24 PUSH1 0x0 REVERT JUMPDEST POP SWAP2 SWAP1 POP JUMP JUMPDEST PUSH1 0x1F DUP3 GT ISZERO PUSH3 0x27C JUMPI PUSH1 0x0 DUP2 DUP2 MSTORE PUSH1 0x20 DUP2 KECCAK256 PUSH1 0x1F DUP6 ADD PUSH1 0x5 SHR DUP2 ADD PUSH1 0x20 DUP7 LT ISZERO PUSH3 0x257 JUMPI POP DUP1 JUMPDEST PUSH1 0x1F DUP6 ADD PUSH1 0x5 SHR DUP3 ADD SWAP2 POP JUMPDEST DUP2 DUP2 LT ISZERO PUSH3 0x278 JUMPI DUP3 DUP2 SSTORE PUSH1 0x1 ADD PUSH3 0x263 JUMP JUMPDEST POP POP POP JUMPDEST POP POP POP JUMP JUMPDEST DUP2 MLOAD PUSH1 0x1 PUSH1 0x1 PUSH1 0x40 SHL SUB DUP2 GT ISZERO PUSH3 0x29D JUMPI PUSH3 0x29D PUSH3 0x1DC JUMP JUMPDEST PUSH3 0x2B5 DUP2 PUSH3 0x2AE DUP5 SLOAD PUSH3 0x1F2 JUMP JUMPDEST DUP5 PUSH3 0x22E JUMP JUMPDEST PUSH1 0x20 DUP1 PUSH1 0x1F DUP4 GT PUSH1 0x1 DUP2 EQ PUSH3 0x2ED JUMPI PUSH1 0x0 DUP5 ISZERO PUSH3 0x2D4 JUMPI POP DUP6 DUP4 ADD MLOAD JUMPDEST PUSH1 0x0 NOT PUSH1 0x3 DUP7 SWAP1 SHL SHR NOT AND PUSH1 0x1 DUP6 SWAP1 SHL OR DUP6 SSTORE PUSH3 0x278 JUMP JUMPDEST PUSH1 0x0 DUP6 DUP2 MSTORE PUSH1 0x20 DUP2 KECCAK256 PUSH1 0x1F NOT DUP7 AND SWAP2 JUMPDEST DUP3 DUP2 LT ISZERO PUSH3 0x31E JUMPI DUP9 DUP7 ADD MLOAD DUP3 SSTORE SWAP5 DUP5 ADD SWAP5 PUSH1 0x1 SWAP1 SWAP2 ADD SWAP1 DUP5 ADD PUSH3 0x2FD JUMP JUMPDEST POP DUP6 DUP3 LT ISZERO PUSH3 0x33D JUMPI DUP8 DUP6 ADD MLOAD PUSH1 0x0 NOT PUSH1 0x3 DUP9 SWAP1 SHL PUSH1 0xF8 AND SHR NOT AND DUP2 SSTORE JUMPDEST POP POP POP POP POP PUSH1 0x1 SWAP1 DUP2 SHL ADD SWAP1 SSTORE POP JUMP JUMPDEST PUSH1 0x80 MLOAD PUSH2 0x160E PUSH3 0x370 PUSH1 0x0 CODECOPY PUSH1 0x0 DUP2 DUP2 PUSH2 0x146 ADD MSTORE PUSH2 0x857 ADD MSTORE PUSH2 0x160E PUSH1 0x0 RETURN INVALID PUSH1 0x80 PUSH1 0x40 MSTORE CALLVALUE DUP1 ISZERO PUSH2 0x10 JUMPI PUSH1 0x0 DUP1 REVERT JUMPDEST POP PUSH1 0x4 CALLDATASIZE LT PUSH2 0x93 JUMPI PUSH1 0x0 CALLDATALOAD PUSH1 0xE0 SHR DUP1 PUSH4 0x4D2E03A0 GT PUSH2 0x66 JUMPI DUP1 PUSH4 0x4D2E03A0 EQ PUSH2 0xF4 JUMPI DUP1 PUSH4 0x79BA5097 EQ PUSH2 0xFC JUMPI DUP1 PUSH4 0x8DA5CB5B EQ PUSH2 0x104 JUMPI DUP1 PUSH4 0xB1E21749 EQ PUSH2 0x11F JUMPI DUP1 PUSH4 0xF2FDE38B EQ PUSH2 0x128 JUMPI PUSH1 0x0 DUP1 REVERT JUMPDEST DUP1 PUSH4 0xCA76175 EQ PUSH2 0x98 JUMPI DUP1 PUSH4 0x3944EA3A EQ PUSH2 0xAD JUMPI DUP1 PUSH4 0x48A7D26D EQ PUSH2 0xCB JUMPI DUP1 PUSH4 0x4B0795A8 EQ PUSH2 0xEC JUMPI JUMPDEST PUSH1 0x0 DUP1 REVERT JUMPDEST PUSH2 0xAB PUSH2 0xA6 CALLDATASIZE PUSH1 0x4 PUSH2 0xFB2 JUMP JUMPDEST PUSH2 0x13B JUMP JUMPDEST STOP JUMPDEST PUSH2 0xB5 PUSH2 0x1BF JUMP JUMPDEST PUSH1 0x40 MLOAD PUSH2 0xC2 SWAP2 SWAP1 PUSH2 0x1064 JUMP JUMPDEST PUSH1 0x40 MLOAD DUP1 SWAP2 SUB SWAP1 RETURN JUMPDEST PUSH2 0xDE PUSH2 0xD9 CALLDATASIZE PUSH1 0x4 PUSH2 0x1077 JUMP JUMPDEST PUSH2 0x24D JUMP JUMPDEST PUSH1 0x40 MLOAD SWAP1 DUP2 MSTORE PUSH1 0x20 ADD PUSH2 0xC2 JUMP JUMPDEST PUSH2 0xB5 PUSH2 0x37D JUMP JUMPDEST PUSH2 0xB5 PUSH2 0x38A JUMP JUMPDEST PUSH2 0xAB PUSH2 0x397 JUMP JUMPDEST PUSH1 0x0 SLOAD PUSH1 0x40 MLOAD PUSH1 0x1 PUSH1 0x1 PUSH1 0xA0 SHL SUB SWAP1 SWAP2 AND DUP2 MSTORE PUSH1 0x20 ADD PUSH2 0xC2 JUMP JUMPDEST PUSH2 0xDE PUSH1 0x2 SLOAD DUP2 JUMP JUMPDEST PUSH2 0xAB PUSH2 0x136 CALLDATASIZE PUSH1 0x4 PUSH2 0x1105 JUMP JUMPDEST PUSH2 0x446 JUMP JUMPDEST CALLER PUSH1 0x1 PUSH1 0x1 PUSH1 0xA0 SHL SUB PUSH32 0x0 AND EQ PUSH2 0x184 JUMPI PUSH1 0x40 MLOAD PUSH4 0xC6829F83 PUSH1 0xE0 SHL DUP2 MSTORE PUSH1 0x4 ADD PUSH1 0x40 MLOAD DUP1 SWAP2 SUB SWAP1 REVERT JUMPDEST PUSH2 0x18F DUP4 DUP4 DUP4 PUSH2 0x45A JUMP JUMPDEST PUSH1 0x40 MLOAD DUP4 SWAP1 PUSH32 0x85E1543BF2F84FE80C6BADBCE3648C8539AD1DF4D2B3D822938CA0538BE727E6 SWAP1 PUSH1 0x0 SWAP1 LOG2 POP POP POP JUMP JUMPDEST PUSH1 0x3 DUP1 SLOAD PUSH2 0x1CC SWAP1 PUSH2 0x112E JUMP JUMPDEST DUP1 PUSH1 0x1F ADD PUSH1 0x20 DUP1 SWAP2 DIV MUL PUSH1 0x20 ADD PUSH1 0x40 MLOAD SWAP1 DUP2 ADD PUSH1 0x40 MSTORE DUP1 SWAP3 SWAP2 SWAP1 DUP2 DUP2 MSTORE PUSH1 0x20 ADD DUP3 DUP1 SLOAD PUSH2 0x1F8 SWAP1 PUSH2 0x112E JUMP JUMPDEST DUP1 ISZERO PUSH2 0x245 JUMPI DUP1 PUSH1 0x1F LT PUSH2 0x21A JUMPI PUSH2 0x100 DUP1 DUP4 SLOAD DIV MUL DUP4 MSTORE SWAP2 PUSH1 0x20 ADD SWAP2 PUSH2 0x245 JUMP JUMPDEST DUP3 ADD SWAP2 SWAP1 PUSH1 0x0 MSTORE PUSH1 0x20 PUSH1 0x0 KECCAK256 SWAP1 JUMPDEST DUP2 SLOAD DUP2 MSTORE SWAP1 PUSH1 0x1 ADD SWAP1 PUSH1 0x20 ADD DUP1 DUP4 GT PUSH2 0x228 JUMPI DUP3 SWAP1 SUB PUSH1 0x1F AND DUP3 ADD SWAP2 JUMPDEST POP POP POP POP POP DUP2 JUMP JUMPDEST PUSH1 0x0 PUSH2 0x257 PUSH2 0x4EA JUMP JUMPDEST PUSH2 0x298 PUSH1 0x40 DUP1 MLOAD PUSH1 0xE0 DUP2 ADD SWAP1 SWAP2 MSTORE DUP1 PUSH1 0x0 DUP2 MSTORE PUSH1 0x20 ADD PUSH1 0x0 DUP2 MSTORE PUSH1 0x20 ADD PUSH1 0x0 DUP2 MSTORE PUSH1 0x20 ADD PUSH1 0x60 DUP2 MSTORE PUSH1 0x20 ADD PUSH1 0x60 DUP2 MSTORE PUSH1 0x20 ADD PUSH1 0x60 DUP2 MSTORE PUSH1 0x20 ADD PUSH1 0x60 DUP2 MSTORE POP SWAP1 JUMP JUMPDEST PUSH2 0x335 PUSH1 0x6 DUP1 SLOAD PUSH2 0x2A8 SWAP1 PUSH2 0x112E JUMP JUMPDEST DUP1 PUSH1 0x1F ADD PUSH1 0x20 DUP1 SWAP2 DIV MUL PUSH1 0x20 ADD PUSH1 0x40 MLOAD SWAP1 DUP2 ADD PUSH1 0x40 MSTORE DUP1 SWAP3 SWAP2 SWAP1 DUP2 DUP2 MSTORE PUSH1 0x20 ADD DUP3 DUP1 SLOAD PUSH2 0x2D4 SWAP1 PUSH2 0x112E JUMP JUMPDEST DUP1 ISZERO PUSH2 0x321 JUMPI DUP1 PUSH1 0x1F LT PUSH2 0x2F6 JUMPI PUSH2 0x100 DUP1 DUP4 SLOAD DIV MUL DUP4 MSTORE SWAP2 PUSH1 0x20 ADD SWAP2 PUSH2 0x321 JUMP JUMPDEST DUP3 ADD SWAP2 SWAP1 PUSH1 0x0 MSTORE PUSH1 0x20 PUSH1 0x0 KECCAK256 SWAP1 JUMPDEST DUP2 SLOAD DUP2 MSTORE SWAP1 PUSH1 0x1 ADD SWAP1 PUSH1 0x20 ADD DUP1 DUP4 GT PUSH2 0x304 JUMPI DUP3 SWAP1 SUB PUSH1 0x1F AND DUP3 ADD SWAP2 JUMPDEST POP POP POP POP POP DUP3 PUSH2 0x53F SWAP1 SWAP2 SWAP1 PUSH4 0xFFFFFFFF AND JUMP JUMPDEST DUP3 ISZERO PUSH2 0x34F JUMPI PUSH2 0x34F PUSH2 0x348 DUP5 DUP7 PUSH2 0x1168 JUMP JUMPDEST DUP3 SWAP1 PUSH2 0x550 JUMP JUMPDEST PUSH2 0x36F PUSH2 0x35B DUP3 PUSH2 0x57A JUMP JUMPDEST PUSH1 0x7 SLOAD PUSH1 0x8 SLOAD DUP9 SWAP2 PUSH4 0xFFFFFFFF AND SWAP1 PUSH2 0x852 JUMP JUMPDEST PUSH1 0x2 DUP2 SWAP1 SSTORE SWAP6 SWAP5 POP POP POP POP POP JUMP JUMPDEST PUSH1 0x4 DUP1 SLOAD PUSH2 0x1CC SWAP1 PUSH2 0x112E JUMP JUMPDEST PUSH1 0x9 DUP1 SLOAD PUSH2 0x1CC SWAP1 PUSH2 0x112E JUMP JUMPDEST PUSH1 0x1 SLOAD PUSH1 0x1 PUSH1 0x1 PUSH1 0xA0 SHL SUB AND CALLER EQ PUSH2 0x3EF JUMPI PUSH1 0x40 MLOAD PUSH3 0x461BCD PUSH1 0xE5 SHL DUP2 MSTORE PUSH1 0x20 PUSH1 0x4 DUP3 ADD MSTORE PUSH1 0x16 PUSH1 0x24 DUP3 ADD MSTORE PUSH22 0x26BAB9BA10313290383937B837B9B2B21037BBB732B9 PUSH1 0x51 SHL PUSH1 0x44 DUP3 ADD MSTORE PUSH1 0x64 ADD JUMPDEST PUSH1 0x40 MLOAD DUP1 SWAP2 SUB SWAP1 REVERT JUMPDEST PUSH1 0x0 DUP1 SLOAD CALLER PUSH1 0x1 PUSH1 0x1 PUSH1 0xA0 SHL SUB NOT DUP1 DUP4 AND DUP3 OR DUP5 SSTORE PUSH1 0x1 DUP1 SLOAD SWAP1 SWAP2 AND SWAP1 SSTORE PUSH1 0x40 MLOAD PUSH1 0x1 PUSH1 0x1 PUSH1 0xA0 SHL SUB SWAP1 SWAP3 AND SWAP3 SWAP1 SWAP2 DUP4 SWAP2 PUSH32 0x8BE0079C531659141344CD1FD0A4F28419497F9722A3DAAFE3B4186F6B6457E0 SWAP2 LOG3 POP JUMP JUMPDEST PUSH2 0x44E PUSH2 0x4EA JUMP JUMPDEST PUSH2 0x457 DUP2 PUSH2 0x924 JUMP JUMPDEST POP JUMP JUMPDEST DUP3 PUSH1 0x2 SLOAD EQ PUSH2 0x47F JUMPI PUSH1 0x40 MLOAD PUSH4 0xD068BF5B PUSH1 0xE0 SHL DUP2 MSTORE PUSH1 0x4 DUP2 ADD DUP5 SWAP1 MSTORE PUSH1 0x24 ADD PUSH2 0x3E6 JUMP JUMPDEST PUSH1 0x3 PUSH2 0x48B DUP4 DUP3 PUSH2 0x124D JUMP JUMPDEST POP PUSH1 0x9 PUSH2 0x498 DUP4 DUP3 PUSH2 0x124D JUMP JUMPDEST POP PUSH1 0x4 PUSH2 0x4A5 DUP3 DUP3 PUSH2 0x124D JUMP JUMPDEST POP DUP3 PUSH32 0x160ED0AAFFBEF6885155188B91459CB5A97D5DAADCCF7561D8C46DEEA6641B50 PUSH1 0x9 PUSH1 0x3 PUSH1 0x4 PUSH1 0x40 MLOAD PUSH2 0x4DD SWAP4 SWAP3 SWAP2 SWAP1 PUSH2 0x1389 JUMP JUMPDEST PUSH1 0x40 MLOAD DUP1 SWAP2 SUB SWAP1 LOG2 POP POP POP JUMP JUMPDEST PUSH1 0x0 SLOAD PUSH1 0x1 PUSH1 0x1 PUSH1 0xA0 SHL SUB AND CALLER EQ PUSH2 0x53D JUMPI PUSH1 0x40 MLOAD PUSH3 0x461BCD PUSH1 0xE5 SHL DUP2 MSTORE PUSH1 0x20 PUSH1 0x4 DUP3 ADD MSTORE PUSH1 0x16 PUSH1 0x24 DUP3 ADD MSTORE PUSH22 0x27B7363C9031B0B63630B1363290313C9037BBB732B9 PUSH1 0x51 SHL PUSH1 0x44 DUP3 ADD MSTORE PUSH1 0x64 ADD PUSH2 0x3E6 JUMP JUMPDEST JUMP JUMPDEST PUSH2 0x54C DUP3 PUSH1 0x0 DUP1 DUP5 PUSH2 0x9CD JUMP JUMPDEST POP POP JUMP JUMPDEST DUP1 MLOAD PUSH1 0x0 SUB PUSH2 0x572 JUMPI PUSH1 0x40 MLOAD PUSH4 0xFE936CB7 PUSH1 0xE0 SHL DUP2 MSTORE PUSH1 0x4 ADD PUSH1 0x40 MLOAD DUP1 SWAP2 SUB SWAP1 REVERT JUMPDEST PUSH1 0xA0 SWAP1 SWAP2 ADD MSTORE JUMP JUMPDEST PUSH1 0x60 PUSH1 0x0 PUSH2 0x589 PUSH2 0x100 PUSH2 0xA4B JUMP JUMPDEST SWAP1 POP PUSH2 0x5C2 PUSH1 0x40 MLOAD DUP1 PUSH1 0x40 ADD PUSH1 0x40 MSTORE DUP1 PUSH1 0xC DUP2 MSTORE PUSH1 0x20 ADD PUSH12 0x31B7B232A637B1B0BA34B7B7 PUSH1 0xA1 SHL DUP2 MSTORE POP DUP3 PUSH2 0xA6C SWAP1 SWAP2 SWAP1 PUSH4 0xFFFFFFFF AND JUMP JUMPDEST DUP3 MLOAD PUSH2 0x5E0 SWAP1 PUSH1 0x2 DUP2 GT ISZERO PUSH2 0x5D9 JUMPI PUSH2 0x5D9 PUSH2 0x13CC JUMP JUMPDEST DUP3 SWAP1 PUSH2 0xA8A JUMP JUMPDEST PUSH1 0x40 DUP1 MLOAD DUP1 DUP3 ADD SWAP1 SWAP2 MSTORE PUSH1 0x8 DUP2 MSTORE PUSH8 0x6C616E6775616765 PUSH1 0xC0 SHL PUSH1 0x20 DUP3 ADD MSTORE PUSH2 0x60A SWAP1 DUP3 SWAP1 PUSH2 0xA6C JUMP JUMPDEST PUSH1 0x40 DUP4 ADD MLOAD PUSH2 0x621 SWAP1 DUP1 ISZERO PUSH2 0x5D9 JUMPI PUSH2 0x5D9 PUSH2 0x13CC JUMP JUMPDEST PUSH1 0x40 DUP1 MLOAD DUP1 DUP3 ADD SWAP1 SWAP2 MSTORE PUSH1 0x6 DUP2 MSTORE PUSH6 0x736F75726365 PUSH1 0xD0 SHL PUSH1 0x20 DUP3 ADD MSTORE PUSH2 0x649 SWAP1 DUP3 SWAP1 PUSH2 0xA6C JUMP JUMPDEST PUSH1 0x60 DUP4 ADD MLOAD PUSH2 0x659 SWAP1 DUP3 SWAP1 PUSH2 0xA6C JUMP JUMPDEST PUSH1 0xA0 DUP4 ADD MLOAD MLOAD ISZERO PUSH2 0x6ED JUMPI PUSH1 0x40 DUP1 MLOAD DUP1 DUP3 ADD SWAP1 SWAP2 MSTORE PUSH1 0x4 DUP2 MSTORE PUSH4 0x61726773 PUSH1 0xE0 SHL PUSH1 0x20 DUP3 ADD MSTORE PUSH2 0x68A SWAP1 DUP3 SWAP1 PUSH2 0xA6C JUMP JUMPDEST PUSH2 0x693 DUP2 PUSH2 0xAC3 JUMP JUMPDEST PUSH1 0x0 JUMPDEST DUP4 PUSH1 0xA0 ADD MLOAD MLOAD DUP2 LT ISZERO PUSH2 0x6E3 JUMPI PUSH2 0x6D3 DUP5 PUSH1 0xA0 ADD MLOAD DUP3 DUP2 MLOAD DUP2 LT PUSH2 0x6BC JUMPI PUSH2 0x6BC PUSH2 0x13E2 JUMP JUMPDEST PUSH1 0x20 MUL PUSH1 0x20 ADD ADD MLOAD DUP4 PUSH2 0xA6C SWAP1 SWAP2 SWAP1 PUSH4 0xFFFFFFFF AND JUMP JUMPDEST PUSH2 0x6DC DUP2 PUSH2 0x140E JUMP JUMPDEST SWAP1 POP PUSH2 0x696 JUMP JUMPDEST POP PUSH2 0x6ED DUP2 PUSH2 0xAE7 JUMP JUMPDEST PUSH1 0x80 DUP4 ADD MLOAD MLOAD ISZERO PUSH2 0x7B1 JUMPI PUSH1 0x0 DUP4 PUSH1 0x20 ADD MLOAD PUSH1 0x2 DUP2 GT ISZERO PUSH2 0x710 JUMPI PUSH2 0x710 PUSH2 0x13CC JUMP JUMPDEST SUB PUSH2 0x72E JUMPI PUSH1 0x40 MLOAD PUSH4 0xA80D31F7 PUSH1 0xE0 SHL DUP2 MSTORE PUSH1 0x4 ADD PUSH1 0x40 MLOAD DUP1 SWAP2 SUB SWAP1 REVERT JUMPDEST PUSH1 0x40 DUP1 MLOAD DUP1 DUP3 ADD SWAP1 SWAP2 MSTORE PUSH1 0xF DUP2 MSTORE PUSH15 0x39B2B1B932BA39A637B1B0BA34B7B7 PUSH1 0x89 SHL PUSH1 0x20 DUP3 ADD MSTORE PUSH2 0x75F SWAP1 DUP3 SWAP1 PUSH2 0xA6C JUMP JUMPDEST PUSH2 0x778 DUP4 PUSH1 0x20 ADD MLOAD PUSH1 0x2 DUP2 GT ISZERO PUSH2 0x5D9 JUMPI PUSH2 0x5D9 PUSH2 0x13CC JUMP JUMPDEST PUSH1 0x40 DUP1 MLOAD DUP1 DUP3 ADD SWAP1 SWAP2 MSTORE PUSH1 0x7 DUP2 MSTORE PUSH7 0x73656372657473 PUSH1 0xC8 SHL PUSH1 0x20 DUP3 ADD MSTORE PUSH2 0x7A1 SWAP1 DUP3 SWAP1 PUSH2 0xA6C JUMP JUMPDEST PUSH1 0x80 DUP4 ADD MLOAD PUSH2 0x7B1 SWAP1 DUP3 SWAP1 PUSH2 0xB05 JUMP JUMPDEST PUSH1 0xC0 DUP4 ADD MLOAD MLOAD ISZERO PUSH2 0x84A JUMPI PUSH1 0x40 DUP1 MLOAD DUP1 DUP3 ADD SWAP1 SWAP2 MSTORE PUSH1 0x9 DUP2 MSTORE PUSH9 0x627974657341726773 PUSH1 0xB8 SHL PUSH1 0x20 DUP3 ADD MSTORE PUSH2 0x7E7 SWAP1 DUP3 SWAP1 PUSH2 0xA6C JUMP JUMPDEST PUSH2 0x7F0 DUP2 PUSH2 0xAC3 JUMP JUMPDEST PUSH1 0x0 JUMPDEST DUP4 PUSH1 0xC0 ADD MLOAD MLOAD DUP2 LT ISZERO PUSH2 0x840 JUMPI PUSH2 0x830 DUP5 PUSH1 0xC0 ADD MLOAD DUP3 DUP2 MLOAD DUP2 LT PUSH2 0x819 JUMPI PUSH2 0x819 PUSH2 0x13E2 JUMP JUMPDEST PUSH1 0x20 MUL PUSH1 0x20 ADD ADD MLOAD DUP4 PUSH2 0xB05 SWAP1 SWAP2 SWAP1 PUSH4 0xFFFFFFFF AND JUMP JUMPDEST PUSH2 0x839 DUP2 PUSH2 0x140E JUMP JUMPDEST SWAP1 POP PUSH2 0x7F3 JUMP JUMPDEST POP PUSH2 0x84A DUP2 PUSH2 0xAE7 JUMP JUMPDEST MLOAD MLOAD SWAP3 SWAP2 POP POP JUMP JUMPDEST PUSH1 0x0 DUP1 PUSH32 0x0 PUSH1 0x1 PUSH1 0x1 PUSH1 0xA0 SHL SUB AND PUSH4 0x461D2762 DUP7 DUP9 PUSH1 0x1 DUP9 DUP9 PUSH1 0x40 MLOAD DUP7 PUSH4 0xFFFFFFFF AND PUSH1 0xE0 SHL DUP2 MSTORE PUSH1 0x4 ADD PUSH2 0x8AA SWAP6 SWAP5 SWAP4 SWAP3 SWAP2 SWAP1 PUSH2 0x1427 JUMP JUMPDEST PUSH1 0x20 PUSH1 0x40 MLOAD DUP1 DUP4 SUB DUP2 PUSH1 0x0 DUP8 GAS CALL ISZERO DUP1 ISZERO PUSH2 0x8C9 JUMPI RETURNDATASIZE PUSH1 0x0 DUP1 RETURNDATACOPY RETURNDATASIZE PUSH1 0x0 REVERT JUMPDEST POP POP POP POP PUSH1 0x40 MLOAD RETURNDATASIZE PUSH1 0x1F NOT PUSH1 0x1F DUP3 ADD AND DUP3 ADD DUP1 PUSH1 0x40 MSTORE POP DUP2 ADD SWAP1 PUSH2 0x8ED SWAP2 SWAP1 PUSH2 0x1470 JUMP JUMPDEST PUSH1 0x40 MLOAD SWAP1 SWAP2 POP DUP2 SWAP1 PUSH32 0x1131472297A800FEE664D1D89CFA8F7676FF07189ECC53F80BBB5F4969099DB8 SWAP1 PUSH1 0x0 SWAP1 LOG2 SWAP6 SWAP5 POP POP POP POP POP JUMP JUMPDEST CALLER PUSH1 0x1 PUSH1 0x1 PUSH1 0xA0 SHL SUB DUP3 AND SUB PUSH2 0x97C JUMPI PUSH1 0x40 MLOAD PUSH3 0x461BCD PUSH1 0xE5 SHL DUP2 MSTORE PUSH1 0x20 PUSH1 0x4 DUP3 ADD MSTORE PUSH1 0x17 PUSH1 0x24 DUP3 ADD MSTORE PUSH32 0x43616E6E6F74207472616E7366657220746F2073656C66000000000000000000 PUSH1 0x44 DUP3 ADD MSTORE PUSH1 0x64 ADD PUSH2 0x3E6 JUMP JUMPDEST PUSH1 0x1 DUP1 SLOAD PUSH1 0x1 PUSH1 0x1 PUSH1 0xA0 SHL SUB NOT AND PUSH1 0x1 PUSH1 0x1 PUSH1 0xA0 SHL SUB DUP4 DUP2 AND SWAP2 DUP3 OR SWAP1 SWAP3 SSTORE PUSH1 0x0 DUP1 SLOAD PUSH1 0x40 MLOAD SWAP3 SWAP4 AND SWAP2 PUSH32 0xED8889F560326EB138920D842192F0EB3DD22B4F139C87A2C57538E05BAE1278 SWAP2 SWAP1 LOG3 POP JUMP JUMPDEST DUP1 MLOAD PUSH1 0x0 SUB PUSH2 0x9EF JUMPI PUSH1 0x40 MLOAD PUSH4 0x22CE3EDD PUSH1 0xE0 SHL DUP2 MSTORE PUSH1 0x4 ADD PUSH1 0x40 MLOAD DUP1 SWAP2 SUB SWAP1 REVERT JUMPDEST DUP4 DUP4 PUSH1 0x2 DUP2 GT ISZERO PUSH2 0xA02 JUMPI PUSH2 0xA02 PUSH2 0x13CC JUMP JUMPDEST SWAP1 DUP2 PUSH1 0x2 DUP2 GT ISZERO PUSH2 0xA15 JUMPI PUSH2 0xA15 PUSH2 0x13CC JUMP JUMPDEST SWAP1 MSTORE POP PUSH1 0x40 DUP5 ADD DUP3 DUP1 ISZERO PUSH2 0xA2B JUMPI PUSH2 0xA2B PUSH2 0x13CC JUMP JUMPDEST SWAP1 DUP2 DUP1 ISZERO PUSH2 0xA3B JUMPI PUSH2 0xA3B PUSH2 0x13CC JUMP JUMPDEST SWAP1 MSTORE POP PUSH1 0x60 SWAP1 SWAP4 ADD SWAP3 SWAP1 SWAP3 MSTORE POP POP JUMP JUMPDEST PUSH2 0xA53 PUSH2 0xEC0 JUMP JUMPDEST DUP1 MLOAD PUSH2 0xA5F SWAP1 DUP4 PUSH2 0xB12 JUMP JUMPDEST POP PUSH1 0x0 PUSH1 0x20 DUP3 ADD MSTORE SWAP2 SWAP1 POP JUMP JUMPDEST PUSH2 0xA79 DUP3 PUSH1 0x3 DUP4 MLOAD PUSH2 0xB8C JUMP JUMPDEST DUP2 MLOAD PUSH2 0xA85 SWAP1 DUP3 PUSH2 0xCAB JUMP JUMPDEST POP POP POP JUMP JUMPDEST DUP2 MLOAD PUSH2 0xA97 SWAP1 PUSH1 0xC2 PUSH2 0xCD3 JUMP JUMPDEST POP PUSH2 0x54C DUP3 DUP3 PUSH1 0x40 MLOAD PUSH1 0x20 ADD PUSH2 0xAAF SWAP2 DUP2 MSTORE PUSH1 0x20 ADD SWAP1 JUMP JUMPDEST PUSH1 0x40 MLOAD PUSH1 0x20 DUP2 DUP4 SUB SUB DUP2 MSTORE SWAP1 PUSH1 0x40 MSTORE PUSH2 0xB05 JUMP JUMPDEST PUSH2 0xACE DUP2 PUSH1 0x4 PUSH2 0xD3C JUMP JUMPDEST PUSH1 0x1 DUP2 PUSH1 0x20 ADD DUP2 DUP2 MLOAD PUSH2 0xAE1 SWAP2 SWAP1 PUSH2 0x1489 JUMP JUMPDEST SWAP1 MSTORE POP POP JUMP JUMPDEST PUSH2 0xAF2 DUP2 PUSH1 0x7 PUSH2 0xD3C JUMP JUMPDEST PUSH1 0x1 DUP2 PUSH1 0x20 ADD DUP2 DUP2 MLOAD PUSH2 0xAE1 SWAP2 SWAP1 PUSH2 0x149C JUMP JUMPDEST PUSH2 0xA79 DUP3 PUSH1 0x2 DUP4 MLOAD PUSH2 0xB8C JUMP JUMPDEST PUSH1 0x40 DUP1 MLOAD DUP1 DUP3 ADD SWAP1 SWAP2 MSTORE PUSH1 0x60 DUP2 MSTORE PUSH1 0x0 PUSH1 0x20 DUP3 ADD MSTORE PUSH2 0xB32 PUSH1 0x20 DUP4 PUSH2 0x14AF JUMP JUMPDEST ISZERO PUSH2 0xB5A JUMPI PUSH2 0xB42 PUSH1 0x20 DUP4 PUSH2 0x14AF JUMP JUMPDEST PUSH2 0xB4D SWAP1 PUSH1 0x20 PUSH2 0x149C JUMP JUMPDEST PUSH2 0xB57 SWAP1 DUP4 PUSH2 0x1489 JUMP JUMPDEST SWAP2 POP JUMPDEST PUSH1 0x20 DUP1 DUP5 ADD DUP4 SWAP1 MSTORE PUSH1 0x40 MLOAD DUP1 DUP6 MSTORE PUSH1 0x0 DUP2 MSTORE SWAP1 DUP2 DUP5 ADD ADD DUP2 DUP2 LT ISZERO PUSH2 0xB7E JUMPI PUSH1 0x0 DUP1 REVERT JUMPDEST PUSH1 0x40 MSTORE POP DUP3 SWAP1 POP JUMPDEST SWAP3 SWAP2 POP POP JUMP JUMPDEST PUSH1 0x17 DUP2 PUSH1 0x1 PUSH1 0x1 PUSH1 0x40 SHL SUB AND GT PUSH2 0xBB8 JUMPI DUP3 MLOAD PUSH2 0xBB2 SWAP1 PUSH1 0xE0 PUSH1 0x5 DUP6 SWAP1 SHL AND DUP4 OR PUSH2 0xCD3 JUMP JUMPDEST POP POP POP POP JUMP JUMPDEST PUSH1 0xFF DUP2 PUSH1 0x1 PUSH1 0x1 PUSH1 0x40 SHL SUB AND GT PUSH2 0xBF8 JUMPI DUP3 MLOAD PUSH2 0xBE0 SWAP1 PUSH1 0x18 PUSH2 0x1FE0 PUSH1 0x5 DUP7 SWAP1 SHL AND OR PUSH2 0xCD3 JUMP JUMPDEST POP DUP3 MLOAD PUSH2 0xBB2 SWAP1 PUSH1 0x1 PUSH1 0x1 PUSH1 0x40 SHL SUB DUP4 AND PUSH1 0x1 PUSH2 0xD53 JUMP JUMPDEST PUSH2 0xFFFF DUP2 PUSH1 0x1 PUSH1 0x1 PUSH1 0x40 SHL SUB AND GT PUSH2 0xC39 JUMPI DUP3 MLOAD PUSH2 0xC21 SWAP1 PUSH1 0x19 PUSH2 0x1FE0 PUSH1 0x5 DUP7 SWAP1 SHL AND OR PUSH2 0xCD3 JUMP JUMPDEST POP DUP3 MLOAD PUSH2 0xBB2 SWAP1 PUSH1 0x1 PUSH1 0x1 PUSH1 0x40 SHL SUB DUP4 AND PUSH1 0x2 PUSH2 0xD53 JUMP JUMPDEST PUSH4 0xFFFFFFFF DUP2 PUSH1 0x1 PUSH1 0x1 PUSH1 0x40 SHL SUB AND GT PUSH2 0xC7C JUMPI DUP3 MLOAD PUSH2 0xC64 SWAP1 PUSH1 0x1A PUSH2 0x1FE0 PUSH1 0x5 DUP7 SWAP1 SHL AND OR PUSH2 0xCD3 JUMP JUMPDEST POP DUP3 MLOAD PUSH2 0xBB2 SWAP1 PUSH1 0x1 PUSH1 0x1 PUSH1 0x40 SHL SUB DUP4 AND PUSH1 0x4 PUSH2 0xD53 JUMP JUMPDEST DUP3 MLOAD PUSH2 0xC93 SWAP1 PUSH1 0x1B PUSH2 0x1FE0 PUSH1 0x5 DUP7 SWAP1 SHL AND OR PUSH2 0xCD3 JUMP JUMPDEST POP DUP3 MLOAD PUSH2 0xBB2 SWAP1 PUSH1 0x1 PUSH1 0x1 PUSH1 0x40 SHL SUB DUP4 AND PUSH1 0x8 PUSH2 0xD53 JUMP JUMPDEST PUSH1 0x40 DUP1 MLOAD DUP1 DUP3 ADD SWAP1 SWAP2 MSTORE PUSH1 0x60 DUP2 MSTORE PUSH1 0x0 PUSH1 0x20 DUP3 ADD MSTORE PUSH2 0xCCC DUP4 DUP4 DUP5 MLOAD PUSH2 0xDD8 JUMP JUMPDEST SWAP4 SWAP3 POP POP POP JUMP JUMPDEST PUSH1 0x40 DUP1 MLOAD DUP1 DUP3 ADD SWAP1 SWAP2 MSTORE PUSH1 0x60 DUP2 MSTORE PUSH1 0x0 PUSH1 0x20 DUP3 ADD MSTORE DUP3 MLOAD MLOAD PUSH1 0x0 PUSH2 0xCF8 DUP3 PUSH1 0x1 PUSH2 0x1489 JUMP JUMPDEST SWAP1 POP DUP5 PUSH1 0x20 ADD MLOAD DUP3 LT PUSH2 0xD19 JUMPI PUSH2 0xD19 DUP6 PUSH2 0xD14 DUP4 PUSH1 0x2 PUSH2 0x14D1 JUMP JUMPDEST PUSH2 0xEA9 JUMP JUMPDEST DUP5 MLOAD PUSH1 0x20 DUP4 DUP3 ADD ADD DUP6 DUP2 MSTORE8 POP DUP1 MLOAD DUP3 GT ISZERO PUSH2 0xD32 JUMPI DUP2 DUP2 MSTORE JUMPDEST POP SWAP4 SWAP5 SWAP4 POP POP POP POP JUMP JUMPDEST DUP2 MLOAD PUSH2 0xA85 SWAP1 PUSH1 0x1F PUSH2 0x1FE0 PUSH1 0x5 DUP6 SWAP1 SHL AND OR PUSH2 0xCD3 JUMP JUMPDEST PUSH1 0x40 DUP1 MLOAD DUP1 DUP3 ADD SWAP1 SWAP2 MSTORE PUSH1 0x60 DUP2 MSTORE PUSH1 0x0 PUSH1 0x20 DUP3 ADD MSTORE DUP4 MLOAD MLOAD PUSH1 0x0 PUSH2 0xD77 DUP3 DUP6 PUSH2 0x1489 JUMP JUMPDEST SWAP1 POP DUP6 PUSH1 0x20 ADD MLOAD DUP2 GT ISZERO PUSH2 0xD94 JUMPI PUSH2 0xD94 DUP7 PUSH2 0xD14 DUP4 PUSH1 0x2 PUSH2 0x14D1 JUMP JUMPDEST PUSH1 0x0 PUSH1 0x1 PUSH2 0xDA4 DUP7 PUSH2 0x100 PUSH2 0x15CC JUMP JUMPDEST PUSH2 0xDAE SWAP2 SWAP1 PUSH2 0x149C JUMP JUMPDEST SWAP1 POP DUP7 MLOAD DUP3 DUP2 ADD DUP8 DUP4 NOT DUP3 MLOAD AND OR DUP2 MSTORE POP DUP1 MLOAD DUP4 GT ISZERO PUSH2 0xDCC JUMPI DUP3 DUP2 MSTORE JUMPDEST POP SWAP6 SWAP7 SWAP6 POP POP POP POP POP POP JUMP JUMPDEST PUSH1 0x40 DUP1 MLOAD DUP1 DUP3 ADD SWAP1 SWAP2 MSTORE PUSH1 0x60 DUP2 MSTORE PUSH1 0x0 PUSH1 0x20 DUP3 ADD MSTORE DUP3 MLOAD DUP3 GT ISZERO PUSH2 0xDFB JUMPI PUSH1 0x0 DUP1 REVERT JUMPDEST DUP4 MLOAD MLOAD PUSH1 0x0 PUSH2 0xE0A DUP5 DUP4 PUSH2 0x1489 JUMP JUMPDEST SWAP1 POP DUP6 PUSH1 0x20 ADD MLOAD DUP2 GT ISZERO PUSH2 0xE27 JUMPI PUSH2 0xE27 DUP7 PUSH2 0xD14 DUP4 PUSH1 0x2 PUSH2 0x14D1 JUMP JUMPDEST DUP6 MLOAD DUP1 MLOAD DUP4 DUP3 ADD PUSH1 0x20 ADD SWAP2 PUSH1 0x0 SWAP2 DUP1 DUP6 GT ISZERO PUSH2 0xE41 JUMPI DUP5 DUP3 MSTORE JUMPDEST POP POP POP PUSH1 0x20 DUP7 ADD JUMPDEST PUSH1 0x20 DUP7 LT PUSH2 0xE81 JUMPI DUP1 MLOAD DUP3 MSTORE PUSH2 0xE60 PUSH1 0x20 DUP4 PUSH2 0x1489 JUMP JUMPDEST SWAP2 POP PUSH2 0xE6D PUSH1 0x20 DUP3 PUSH2 0x1489 JUMP JUMPDEST SWAP1 POP PUSH2 0xE7A PUSH1 0x20 DUP8 PUSH2 0x149C JUMP JUMPDEST SWAP6 POP PUSH2 0xE49 JUMP JUMPDEST MLOAD DUP2 MLOAD PUSH1 0x0 NOT PUSH1 0x20 DUP9 SWAP1 SUB PUSH2 0x100 EXP ADD SWAP1 DUP2 AND SWAP1 NOT SWAP2 SWAP1 SWAP2 AND OR SWAP1 MSTORE POP DUP5 SWAP2 POP POP SWAP4 SWAP3 POP POP POP JUMP JUMPDEST DUP2 MLOAD PUSH2 0xEB5 DUP4 DUP4 PUSH2 0xB12 JUMP JUMPDEST POP PUSH2 0xBB2 DUP4 DUP3 PUSH2 0xCAB JUMP JUMPDEST PUSH1 0x40 MLOAD DUP1 PUSH1 0x40 ADD PUSH1 0x40 MSTORE DUP1 PUSH2 0xEE8 PUSH1 0x40 MLOAD DUP1 PUSH1 0x40 ADD PUSH1 0x40 MSTORE DUP1 PUSH1 0x60 DUP2 MSTORE PUSH1 0x20 ADD PUSH1 0x0 DUP2 MSTORE POP SWAP1 JUMP JUMPDEST DUP2 MSTORE PUSH1 0x20 ADD PUSH1 0x0 DUP2 MSTORE POP SWAP1 JUMP JUMPDEST PUSH4 0x4E487B71 PUSH1 0xE0 SHL PUSH1 0x0 MSTORE PUSH1 0x41 PUSH1 0x4 MSTORE PUSH1 0x24 PUSH1 0x0 REVERT JUMPDEST PUSH1 0x40 MLOAD PUSH1 0x1F DUP3 ADD PUSH1 0x1F NOT AND DUP2 ADD PUSH1 0x1 PUSH1 0x1 PUSH1 0x40 SHL SUB DUP2 GT DUP3 DUP3 LT OR ISZERO PUSH2 0xF33 JUMPI PUSH2 0xF33 PUSH2 0xEF5 JUMP JUMPDEST PUSH1 0x40 MSTORE SWAP2 SWAP1 POP JUMP JUMPDEST PUSH1 0x0 PUSH1 0x1 PUSH1 0x1 PUSH1 0x40 SHL SUB DUP4 GT ISZERO PUSH2 0xF54 JUMPI PUSH2 0xF54 PUSH2 0xEF5 JUMP JUMPDEST PUSH2 0xF67 PUSH1 0x1F DUP5 ADD PUSH1 0x1F NOT AND PUSH1 0x20 ADD PUSH2 0xF0B JUMP JUMPDEST SWAP1 POP DUP3 DUP2 MSTORE DUP4 DUP4 DUP4 ADD GT ISZERO PUSH2 0xF7B JUMPI PUSH1 0x0 DUP1 REVERT JUMPDEST DUP3 DUP3 PUSH1 0x20 DUP4 ADD CALLDATACOPY PUSH1 0x0 PUSH1 0x20 DUP5 DUP4 ADD ADD MSTORE SWAP4 SWAP3 POP POP POP JUMP JUMPDEST PUSH1 0x0 DUP3 PUSH1 0x1F DUP4 ADD SLT PUSH2 0xFA3 JUMPI PUSH1 0x0 DUP1 REVERT JUMPDEST PUSH2 0xCCC DUP4 DUP4 CALLDATALOAD PUSH1 0x20 DUP6 ADD PUSH2 0xF3B JUMP JUMPDEST PUSH1 0x0 DUP1 PUSH1 0x0 PUSH1 0x60 DUP5 DUP7 SUB SLT ISZERO PUSH2 0xFC7 JUMPI PUSH1 0x0 DUP1 REVERT JUMPDEST DUP4 CALLDATALOAD SWAP3 POP PUSH1 0x20 DUP5 ADD CALLDATALOAD PUSH1 0x1 PUSH1 0x1 PUSH1 0x40 SHL SUB DUP1 DUP3 GT ISZERO PUSH2 0xFE5 JUMPI PUSH1 0x0 DUP1 REVERT JUMPDEST PUSH2 0xFF1 DUP8 DUP4 DUP9 ADD PUSH2 0xF92 JUMP JUMPDEST SWAP4 POP PUSH1 0x40 DUP7 ADD CALLDATALOAD SWAP2 POP DUP1 DUP3 GT ISZERO PUSH2 0x1007 JUMPI PUSH1 0x0 DUP1 REVERT JUMPDEST POP PUSH2 0x1014 DUP7 DUP3 DUP8 ADD PUSH2 0xF92 JUMP JUMPDEST SWAP2 POP POP SWAP3 POP SWAP3 POP SWAP3 JUMP JUMPDEST PUSH1 0x0 DUP2 MLOAD DUP1 DUP5 MSTORE PUSH1 0x0 JUMPDEST DUP2 DUP2 LT ISZERO PUSH2 0x1044 JUMPI PUSH1 0x20 DUP2 DUP6 ADD DUP2 ADD MLOAD DUP7 DUP4 ADD DUP3 ADD MSTORE ADD PUSH2 0x1028 JUMP JUMPDEST POP PUSH1 0x0 PUSH1 0x20 DUP3 DUP7 ADD ADD MSTORE PUSH1 0x20 PUSH1 0x1F NOT PUSH1 0x1F DUP4 ADD AND DUP6 ADD ADD SWAP2 POP POP SWAP3 SWAP2 POP POP JUMP JUMPDEST PUSH1 0x20 DUP2 MSTORE PUSH1 0x0 PUSH2 0xCCC PUSH1 0x20 DUP4 ADD DUP5 PUSH2 0x101E JUMP JUMPDEST PUSH1 0x0 DUP1 PUSH1 0x0 PUSH1 0x40 DUP5 DUP7 SUB SLT ISZERO PUSH2 0x108C JUMPI PUSH1 0x0 DUP1 REVERT JUMPDEST DUP4 CALLDATALOAD PUSH1 0x1 PUSH1 0x1 PUSH1 0x40 SHL SUB DUP1 DUP3 AND DUP3 EQ PUSH2 0x10A4 JUMPI PUSH1 0x0 DUP1 REVERT JUMPDEST SWAP1 SWAP4 POP PUSH1 0x20 DUP6 ADD CALLDATALOAD SWAP1 DUP1 DUP3 GT ISZERO PUSH2 0x10BA JUMPI PUSH1 0x0 DUP1 REVERT JUMPDEST DUP2 DUP7 ADD SWAP2 POP DUP7 PUSH1 0x1F DUP4 ADD SLT PUSH2 0x10CE JUMPI PUSH1 0x0 DUP1 REVERT JUMPDEST DUP2 CALLDATALOAD DUP2 DUP2 GT ISZERO PUSH2 0x10DD JUMPI PUSH1 0x0 DUP1 REVERT JUMPDEST DUP8 PUSH1 0x20 DUP3 PUSH1 0x5 SHL DUP6 ADD ADD GT ISZERO PUSH2 0x10F2 JUMPI PUSH1 0x0 DUP1 REVERT JUMPDEST PUSH1 0x20 DUP4 ADD SWAP5 POP DUP1 SWAP4 POP POP POP POP SWAP3 POP SWAP3 POP SWAP3 JUMP JUMPDEST PUSH1 0x0 PUSH1 0x20 DUP3 DUP5 SUB SLT ISZERO PUSH2 0x1117 JUMPI PUSH1 0x0 DUP1 REVERT JUMPDEST DUP2 CALLDATALOAD PUSH1 0x1 PUSH1 0x1 PUSH1 0xA0 SHL SUB DUP2 AND DUP2 EQ PUSH2 0xCCC JUMPI PUSH1 0x0 DUP1 REVERT JUMPDEST PUSH1 0x1 DUP2 DUP2 SHR SWAP1 DUP3 AND DUP1 PUSH2 0x1142 JUMPI PUSH1 0x7F DUP3 AND SWAP2 POP JUMPDEST PUSH1 0x20 DUP3 LT DUP2 SUB PUSH2 0x1162 JUMPI PUSH4 0x4E487B71 PUSH1 0xE0 SHL PUSH1 0x0 MSTORE PUSH1 0x22 PUSH1 0x4 MSTORE PUSH1 0x24 PUSH1 0x0 REVERT JUMPDEST POP SWAP2 SWAP1 POP JUMP JUMPDEST PUSH1 0x0 PUSH1 0x1 PUSH1 0x1 PUSH1 0x40 SHL SUB DUP1 DUP5 GT ISZERO PUSH2 0x1182 JUMPI PUSH2 0x1182 PUSH2 0xEF5 JUMP JUMPDEST DUP4 PUSH1 0x5 SHL PUSH1 0x20 PUSH2 0x1193 DUP2 DUP4 ADD PUSH2 0xF0B JUMP JUMPDEST DUP7 DUP2 MSTORE SWAP2 DUP6 ADD SWAP2 DUP2 DUP2 ADD SWAP1 CALLDATASIZE DUP5 GT ISZERO PUSH2 0x11AB JUMPI PUSH1 0x0 DUP1 REVERT JUMPDEST DUP7 JUMPDEST DUP5 DUP2 LT ISZERO PUSH2 0x11F3 JUMPI DUP1 CALLDATALOAD DUP7 DUP2 GT ISZERO PUSH2 0x11C5 JUMPI PUSH1 0x0 DUP1 DUP2 REVERT JUMPDEST DUP9 ADD CALLDATASIZE PUSH1 0x1F DUP3 ADD SLT PUSH2 0x11D7 JUMPI PUSH1 0x0 DUP1 DUP2 REVERT JUMPDEST PUSH2 0x11E5 CALLDATASIZE DUP3 CALLDATALOAD DUP8 DUP5 ADD PUSH2 0xF3B JUMP JUMPDEST DUP5 MSTORE POP SWAP2 DUP4 ADD SWAP2 DUP4 ADD PUSH2 0x11AD JUMP JUMPDEST POP SWAP8 SWAP7 POP POP POP POP POP POP POP JUMP JUMPDEST PUSH1 0x1F DUP3 GT ISZERO PUSH2 0xA85 JUMPI PUSH1 0x0 DUP2 DUP2 MSTORE PUSH1 0x20 DUP2 KECCAK256 PUSH1 0x1F DUP6 ADD PUSH1 0x5 SHR DUP2 ADD PUSH1 0x20 DUP7 LT ISZERO PUSH2 0x1226 JUMPI POP DUP1 JUMPDEST PUSH1 0x1F DUP6 ADD PUSH1 0x5 SHR DUP3 ADD SWAP2 POP JUMPDEST DUP2 DUP2 LT ISZERO PUSH2 0x1245 JUMPI DUP3 DUP2 SSTORE PUSH1 0x1 ADD PUSH2 0x1232 JUMP JUMPDEST POP POP POP POP POP POP JUMP JUMPDEST DUP2 MLOAD PUSH1 0x1 PUSH1 0x1 PUSH1 0x40 SHL SUB DUP2 GT ISZERO PUSH2 0x1266 JUMPI PUSH2 0x1266 PUSH2 0xEF5 JUMP JUMPDEST PUSH2 0x127A DUP2 PUSH2 0x1274 DUP5 SLOAD PUSH2 0x112E JUMP JUMPDEST DUP5 PUSH2 0x11FF JUMP JUMPDEST PUSH1 0x20 DUP1 PUSH1 0x1F DUP4 GT PUSH1 0x1 DUP2 EQ PUSH2 0x12AF JUMPI PUSH1 0x0 DUP5 ISZERO PUSH2 0x1297 JUMPI POP DUP6 DUP4 ADD MLOAD JUMPDEST PUSH1 0x0 NOT PUSH1 0x3 DUP7 SWAP1 SHL SHR NOT AND PUSH1 0x1 DUP6 SWAP1 SHL OR DUP6 SSTORE PUSH2 0x1245 JUMP JUMPDEST PUSH1 0x0 DUP6 DUP2 MSTORE PUSH1 0x20 DUP2 KECCAK256 PUSH1 0x1F NOT DUP7 AND SWAP2 JUMPDEST DUP3 DUP2 LT ISZERO PUSH2 0x12DE JUMPI DUP9 DUP7 ADD MLOAD DUP3 SSTORE SWAP5 DUP5 ADD SWAP5 PUSH1 0x1 SWAP1 SWAP2 ADD SWAP1 DUP5 ADD PUSH2 0x12BF JUMP JUMPDEST POP DUP6 DUP3 LT ISZERO PUSH2 0x12FC JUMPI DUP8 DUP6 ADD MLOAD PUSH1 0x0 NOT PUSH1 0x3 DUP9 SWAP1 SHL PUSH1 0xF8 AND SHR NOT AND DUP2 SSTORE JUMPDEST POP POP POP POP POP PUSH1 0x1 SWAP1 DUP2 SHL ADD SWAP1 SSTORE POP JUMP JUMPDEST PUSH1 0x0 DUP2 SLOAD PUSH2 0x1319 DUP2 PUSH2 0x112E JUMP JUMPDEST DUP1 DUP6 MSTORE PUSH1 0x20 PUSH1 0x1 DUP4 DUP2 AND DUP1 ISZERO PUSH2 0x1336 JUMPI PUSH1 0x1 DUP2 EQ PUSH2 0x1350 JUMPI PUSH2 0x137E JUMP JUMPDEST PUSH1 0xFF NOT DUP6 AND DUP9 DUP5 ADD MSTORE DUP4 ISZERO ISZERO PUSH1 0x5 SHL DUP9 ADD DUP4 ADD SWAP6 POP PUSH2 0x137E JUMP JUMPDEST DUP7 PUSH1 0x0 MSTORE DUP3 PUSH1 0x0 KECCAK256 PUSH1 0x0 JUMPDEST DUP6 DUP2 LT ISZERO PUSH2 0x1376 JUMPI DUP2 SLOAD DUP11 DUP3 ADD DUP7 ADD MSTORE SWAP1 DUP4 ADD SWAP1 DUP5 ADD PUSH2 0x135B JUMP JUMPDEST DUP10 ADD DUP5 ADD SWAP7 POP POP JUMPDEST POP POP POP POP POP SWAP3 SWAP2 POP POP JUMP JUMPDEST PUSH1 0x60 DUP2 MSTORE PUSH1 0x0 PUSH2 0x139C PUSH1 0x60 DUP4 ADD DUP7 PUSH2 0x130C JUMP JUMPDEST DUP3 DUP2 SUB PUSH1 0x20 DUP5 ADD MSTORE PUSH2 0x13AE DUP2 DUP7 PUSH2 0x130C JUMP JUMPDEST SWAP1 POP DUP3 DUP2 SUB PUSH1 0x40 DUP5 ADD MSTORE PUSH2 0x13C2 DUP2 DUP6 PUSH2 0x130C JUMP JUMPDEST SWAP7 SWAP6 POP POP POP POP POP POP JUMP JUMPDEST PUSH4 0x4E487B71 PUSH1 0xE0 SHL PUSH1 0x0 MSTORE PUSH1 0x21 PUSH1 0x4 MSTORE PUSH1 0x24 PUSH1 0x0 REVERT JUMPDEST PUSH4 0x4E487B71 PUSH1 0xE0 SHL PUSH1 0x0 MSTORE PUSH1 0x32 PUSH1 0x4 MSTORE PUSH1 0x24 PUSH1 0x0 REVERT JUMPDEST PUSH4 0x4E487B71 PUSH1 0xE0 SHL PUSH1 0x0 MSTORE PUSH1 0x11 PUSH1 0x4 MSTORE PUSH1 0x24 PUSH1 0x0 REVERT JUMPDEST PUSH1 0x0 PUSH1 0x1 DUP3 ADD PUSH2 0x1420 JUMPI PUSH2 0x1420 PUSH2 0x13F8 JUMP JUMPDEST POP PUSH1 0x1 ADD SWAP1 JUMP JUMPDEST PUSH1 0x1 PUSH1 0x1 PUSH1 0x40 SHL SUB DUP7 AND DUP2 MSTORE PUSH1 0xA0 PUSH1 0x20 DUP3 ADD MSTORE PUSH1 0x0 PUSH2 0x1449 PUSH1 0xA0 DUP4 ADD DUP8 PUSH2 0x101E JUMP JUMPDEST PUSH2 0xFFFF SWAP6 SWAP1 SWAP6 AND PUSH1 0x40 DUP4 ADD MSTORE POP PUSH4 0xFFFFFFFF SWAP3 SWAP1 SWAP3 AND PUSH1 0x60 DUP4 ADD MSTORE PUSH1 0x80 SWAP1 SWAP2 ADD MSTORE SWAP3 SWAP2 POP POP JUMP JUMPDEST PUSH1 0x0 PUSH1 0x20 DUP3 DUP5 SUB SLT ISZERO PUSH2 0x1482 JUMPI PUSH1 0x0 DUP1 REVERT JUMPDEST POP MLOAD SWAP2 SWAP1 POP JUMP JUMPDEST DUP1 DUP3 ADD DUP1 DUP3 GT ISZERO PUSH2 0xB86 JUMPI PUSH2 0xB86 PUSH2 0x13F8 JUMP JUMPDEST DUP2 DUP2 SUB DUP2 DUP2 GT ISZERO PUSH2 0xB86 JUMPI PUSH2 0xB86 PUSH2 0x13F8 JUMP JUMPDEST PUSH1 0x0 DUP3 PUSH2 0x14CC JUMPI PUSH4 0x4E487B71 PUSH1 0xE0 SHL PUSH1 0x0 MSTORE PUSH1 0x12 PUSH1 0x4 MSTORE PUSH1 0x24 PUSH1 0x0 REVERT JUMPDEST POP MOD SWAP1 JUMP JUMPDEST DUP1 DUP3 MUL DUP2 ISZERO DUP3 DUP3 DIV DUP5 EQ OR PUSH2 0xB86 JUMPI PUSH2 0xB86 PUSH2 0x13F8 JUMP JUMPDEST PUSH1 0x1 DUP2 DUP2 JUMPDEST DUP1 DUP6 GT ISZERO PUSH2 0x1523 JUMPI DUP2 PUSH1 0x0 NOT DIV DUP3 GT ISZERO PUSH2 0x1509 JUMPI PUSH2 0x1509 PUSH2 0x13F8 JUMP JUMPDEST DUP1 DUP6 AND ISZERO PUSH2 0x1516 JUMPI SWAP2 DUP2 MUL SWAP2 JUMPDEST SWAP4 DUP5 SHR SWAP4 SWAP1 DUP1 MUL SWAP1 PUSH2 0x14ED JUMP JUMPDEST POP SWAP3 POP SWAP3 SWAP1 POP JUMP JUMPDEST PUSH1 0x0 DUP3 PUSH2 0x153A JUMPI POP PUSH1 0x1 PUSH2 0xB86 JUMP JUMPDEST DUP2 PUSH2 0x1547 JUMPI POP PUSH1 0x0 PUSH2 0xB86 JUMP JUMPDEST DUP2 PUSH1 0x1 DUP2 EQ PUSH2 0x155D JUMPI PUSH1 0x2 DUP2 EQ PUSH2 0x1567 JUMPI PUSH2 0x1583 JUMP JUMPDEST PUSH1 0x1 SWAP2 POP POP PUSH2 0xB86 JUMP JUMPDEST PUSH1 0xFF DUP5 GT ISZERO PUSH2 0x1578 JUMPI PUSH2 0x1578 PUSH2 0x13F8 JUMP JUMPDEST POP POP PUSH1 0x1 DUP3 SHL PUSH2 0xB86 JUMP JUMPDEST POP PUSH1 0x20 DUP4 LT PUSH2 0x133 DUP4 LT AND PUSH1 0x4E DUP5 LT PUSH1 0xB DUP5 LT AND OR ISZERO PUSH2 0x15A6 JUMPI POP DUP2 DUP2 EXP PUSH2 0xB86 JUMP JUMPDEST PUSH2 0x15B0 DUP4 DUP4 PUSH2 0x14E8 JUMP JUMPDEST DUP1 PUSH1 0x0 NOT DIV DUP3 GT ISZERO PUSH2 0x15C4 JUMPI PUSH2 0x15C4 PUSH2 0x13F8 JUMP JUMPDEST MUL SWAP4 SWAP3 POP POP POP JUMP JUMPDEST PUSH1 0x0 PUSH2 0xCCC DUP4 DUP4 PUSH2 0x152B JUMP INVALID LOG2 PUSH5 0x6970667358 0x22 SLT KECCAK256 SWAP4 GASLIMIT 0xD7 PUSH31 0xE09056D1FD55EB56E213ACE3A4DA00421AFC26642D95E3A2E579FFEC64736F PUSH13 0x63430008130033636F6E737420 PUSH4 0x68617261 PUSH4 0x74657249 PUSH5 0x203D206172 PUSH8 0x735B305D3B636F6E PUSH20 0x7420617069526573706F6E7365203D2061776169 PUSH21 0x2046756E6374696F6E732E6D616B65487474705265 PUSH18 0x75657374287B75726C3A206068747470733A 0x2F 0x2F PUSH20 0x776170692E696E666F2F6170692F70656F706C65 0x2F 0x24 PUSH28 0x63686172616374657249647D2F607D293B6966202861706952657370 PUSH16 0x6E73652E6572726F7229207B7468726F PUSH24 0x204572726F72282752657175657374206661696C65642729 EXTCODESIZE PUSH30 0x636F6E7374207B2064617461207D203D20617069526573706F6E73653B72 PUSH6 0x7475726E2046 PUSH22 0x6E6374696F6E732E656E636F6465537472696E672864 PUSH2 0x7461 0x2E PUSH15 0x616D65293B00000000000000000000 "
	},
	"abi": [
		{
			"inputs": [],
			"stateMutability": "nonpayable",
			"type": "constructor"
		},
		{
			"inputs": [],
			"name": "EmptyArgs",
			"type": "error"
		},
		{
			"inputs": [],
			"name": "EmptySource",
			"type": "error"
		},
		{
			"inputs": [],
			"name": "NoInlineSecrets",
			"type": "error"
		},
		{
			"inputs": [],
			"name": "OnlyRouterCanFulfill",
			"type": "error"
		},
		{
			"inputs": [
				{
					"internalType": "bytes32",
					"name": "requestId",
					"type": "bytes32"
				}
			],
			"name": "UnexpectedRequestID",
			"type": "error"
		},
		{
			"anonymous": false,
			"inputs": [
				{
					"indexed": true,
					"internalType": "address",
					"name": "from",
					"type": "address"
				},
				{
					"indexed": true,
					"internalType": "address",
					"name": "to",
					"type": "address"
				}
			],
			"name": "OwnershipTransferRequested",
			"type": "event"
		},
		{
			"anonymous": false,
			"inputs": [
				{
					"indexed": true,
					"internalType": "address",
					"name": "from",
					"type": "address"
				},
				{
					"indexed": true,
					"internalType": "address",
					"name": "to",
					"type": "address"
				}
			],
			"name": "OwnershipTransferred",
			"type": "event"
		},
		{
			"anonymous": false,
			"inputs": [
				{
					"indexed": true,
					"internalType": "bytes32",
					"name": "id",
					"type": "bytes32"
				}
			],
			"name": "RequestFulfilled",
			"type": "event"
		},
		{
			"anonymous": false,
			"inputs": [
				{
					"indexed": true,
					"internalType": "bytes32",
					"name": "id",
					"type": "bytes32"
				}
			],
			"name": "RequestSent",
			"type": "event"
		},
		{
			"anonymous": false,
			"inputs": [
				{
					"indexed": true,
					"internalType": "bytes32",
					"name": "requestId",
					"type": "bytes32"
				},
				{
					"indexed": false,
					"internalType": "string",
					"name": "character",
					"type": "string"
				},
				{
					"indexed": false,
					"internalType": "bytes",
					"name": "response",
					"type": "bytes"
				},
				{
					"indexed": false,
					"internalType": "bytes",
					"name": "err",
					"type": "bytes"
				}
			],
			"name": "Response",
			"type": "event"
		},
		{
			"inputs": [],
			"name": "acceptOwnership",
			"outputs": [],
			"stateMutability": "nonpayable",
			"type": "function"
		},
		{
			"inputs": [],
			"name": "character",
			"outputs": [
				{
					"internalType": "string",
					"name": "",
					"type": "string"
				}
			],
			"stateMutability": "view",
			"type": "function"
		},
		{
			"inputs": [
				{
					"internalType": "bytes32",
					"name": "requestId",
					"type": "bytes32"
				},
				{
					"internalType": "bytes",
					"name": "response",
					"type": "bytes"
				},
				{
					"internalType": "bytes",
					"name": "err",
					"type": "bytes"
				}
			],
			"name": "handleOracleFulfillment",
			"outputs": [],
			"stateMutability": "nonpayable",
			"type": "function"
		},
		{
			"inputs": [],
			"name": "owner",
			"outputs": [
				{
					"internalType": "address",
					"name": "",
					"type": "address"
				}
			],
			"stateMutability": "view",
			"type": "function"
		},
		{
			"inputs": [],
			"name": "s_lastError",
			"outputs": [
				{
					"internalType": "bytes",
					"name": "",
					"type": "bytes"
				}
			],
			"stateMutability": "view",
			"type": "function"
		},
		{
			"inputs": [],
			"name": "s_lastRequestId",
			"outputs": [
				{
					"internalType": "bytes32",
					"name": "",
					"type": "bytes32"
				}
			],
			"stateMutability": "view",
			"type": "function"
		},
		{
			"inputs": [],
			"name": "s_lastResponse",
			"outputs": [
				{
					"internalType": "bytes",
					"name": "",
					"type": "bytes"
				}
			],
			"stateMutability": "view",
			"type": "function"
		},
		{
			"inputs": [
				{
					"internalType": "uint64",
					"name": "subscriptionId",
					"type": "uint64"
				},
				{
					"internalType": "string[]",
					"name": "args",
					"type": "string[]"
				}
			],
			"name": "sendRequest",
			"outputs": [
				{
					"internalType": "bytes32",
					"name": "requestId",
					"type": "bytes32"
				}
			],
			"stateMutability": "nonpayable",
			"type": "function"
		},
		{
			"inputs": [
				{
					"internalType": "address",
					"name": "to",
					"type": "address"
				}
			],
			"name": "transferOwnership",
			"outputs": [],
			"stateMutability": "nonpayable",
			"type": "function"
		}
	],
	"storageLayout": {
		"storage": [
			{
				"astId": 816,
				"contract": "docs.chain.link/samples/ChainlinkFunctions/GettingStartedFunctionsConsumer.sol:GettingStartedFunctionsConsumer",
				"label": "s_owner",
				"offset": 0,
				"slot": "0",
				"type": "t_address"
			},
			{
				"astId": 818,
				"contract": "docs.chain.link/samples/ChainlinkFunctions/GettingStartedFunctionsConsumer.sol:GettingStartedFunctionsConsumer",
				"label": "s_pendingOwner",
				"offset": 0,
				"slot": "1",
				"type": "t_address"
			},
			{
				"astId": 2285,
				"contract": "docs.chain.link/samples/ChainlinkFunctions/GettingStartedFunctionsConsumer.sol:GettingStartedFunctionsConsumer",
				"label": "s_lastRequestId",
				"offset": 0,
				"slot": "2",
				"type": "t_bytes32"
			},
			{
				"astId": 2287,
				"contract": "docs.chain.link/samples/ChainlinkFunctions/GettingStartedFunctionsConsumer.sol:GettingStartedFunctionsConsumer",
				"label": "s_lastResponse",
				"offset": 0,
				"slot": "3",
				"type": "t_bytes_storage"
			},
			{
				"astId": 2289,
				"contract": "docs.chain.link/samples/ChainlinkFunctions/GettingStartedFunctionsConsumer.sol:GettingStartedFunctionsConsumer",
				"label": "s_lastError",
				"offset": 0,
				"slot": "4",
				"type": "t_bytes_storage"
			},
			{
				"astId": 2306,
				"contract": "docs.chain.link/samples/ChainlinkFunctions/GettingStartedFunctionsConsumer.sol:GettingStartedFunctionsConsumer",
				"label": "router",
				"offset": 0,
				"slot": "5",
				"type": "t_address"
			},
			{
				"astId": 2309,
				"contract": "docs.chain.link/samples/ChainlinkFunctions/GettingStartedFunctionsConsumer.sol:GettingStartedFunctionsConsumer",
				"label": "source",
				"offset": 0,
				"slot": "6",
				"type": "t_string_storage"
			},
			{
				"astId": 2312,
				"contract": "docs.chain.link/samples/ChainlinkFunctions/GettingStartedFunctionsConsumer.sol:GettingStartedFunctionsConsumer",
				"label": "gasLimit",
				"offset": 0,
				"slot": "7",
				"type": "t_uint32"
			},
			{
				"astId": 2315,
				"contract": "docs.chain.link/samples/ChainlinkFunctions/GettingStartedFunctionsConsumer.sol:GettingStartedFunctionsConsumer",
				"label": "donID",
				"offset": 0,
				"slot": "8",
				"type": "t_bytes32"
			},
			{
				"astId": 2317,
				"contract": "docs.chain.link/samples/ChainlinkFunctions/GettingStartedFunctionsConsumer.sol:GettingStartedFunctionsConsumer",
				"label": "character",
				"offset": 0,
				"slot": "9",
				"type": "t_string_storage"
			}
		],
		"types": {
			"t_address": {
				"encoding": "inplace",
				"label": "address",
				"numberOfBytes": "20"
			},
			"t_bytes32": {
				"encoding": "inplace",
				"label": "bytes32",
				"numberOfBytes": "32"
			},
			"t_bytes_storage": {
				"encoding": "bytes",
				"label": "bytes",
				"numberOfBytes": "32"
			},
			"t_string_storage": {
				"encoding": "bytes",
				"label": "string",
				"numberOfBytes": "32"
			},
			"t_uint32": {
				"encoding": "inplace",
				"label": "uint32",
				"numberOfBytes": "4"
			}
		}
	},
	"web3Deploy": "var gettingstartedfunctionsconsumerContract = new web3.eth.Contract([{\"inputs\":[],\"stateMutability\":\"nonpayable\",\"type\":\"constructor\"},{\"inputs\":[],\"name\":\"EmptyArgs\",\"type\":\"error\"},{\"inputs\":[],\"name\":\"EmptySource\",\"type\":\"error\"},{\"inputs\":[],\"name\":\"NoInlineSecrets\",\"type\":\"error\"},{\"inputs\":[],\"name\":\"OnlyRouterCanFulfill\",\"type\":\"error\"},{\"inputs\":[{\"internalType\":\"bytes32\",\"name\":\"requestId\",\"type\":\"bytes32\"}],\"name\":\"UnexpectedRequestID\",\"type\":\"error\"},{\"anonymous\":false,\"inputs\":[{\"indexed\":true,\"internalType\":\"address\",\"name\":\"from\",\"type\":\"address\"},{\"indexed\":true,\"internalType\":\"address\",\"name\":\"to\",\"type\":\"address\"}],\"name\":\"OwnershipTransferRequested\",\"type\":\"event\"},{\"anonymous\":false,\"inputs\":[{\"indexed\":true,\"internalType\":\"address\",\"name\":\"from\",\"type\":\"address\"},{\"indexed\":true,\"internalType\":\"address\",\"name\":\"to\",\"type\":\"address\"}],\"name\":\"OwnershipTransferred\",\"type\":\"event\"},{\"anonymous\":false,\"inputs\":[{\"indexed\":true,\"internalType\":\"bytes32\",\"name\":\"id\",\"type\":\"bytes32\"}],\"name\":\"RequestFulfilled\",\"type\":\"event\"},{\"anonymous\":false,\"inputs\":[{\"indexed\":true,\"internalType\":\"bytes32\",\"name\":\"id\",\"type\":\"bytes32\"}],\"name\":\"RequestSent\",\"type\":\"event\"},{\"anonymous\":false,\"inputs\":[{\"indexed\":true,\"internalType\":\"bytes32\",\"name\":\"requestId\",\"type\":\"bytes32\"},{\"indexed\":false,\"internalType\":\"string\",\"name\":\"character\",\"type\":\"string\"},{\"indexed\":false,\"internalType\":\"bytes\",\"name\":\"response\",\"type\":\"bytes\"},{\"indexed\":false,\"internalType\":\"bytes\",\"name\":\"err\",\"type\":\"bytes\"}],\"name\":\"Response\",\"type\":\"event\"},{\"inputs\":[],\"name\":\"acceptOwnership\",\"outputs\":[],\"stateMutability\":\"nonpayable\",\"type\":\"function\"},{\"inputs\":[],\"name\":\"character\",\"outputs\":[{\"internalType\":\"string\",\"name\":\"\",\"type\":\"string\"}],\"stateMutability\":\"view\",\"type\":\"function\"},{\"inputs\":[{\"internalType\":\"bytes32\",\"name\":\"requestId\",\"type\":\"bytes32\"},{\"internalType\":\"bytes\",\"name\":\"response\",\"type\":\"bytes\"},{\"internalType\":\"bytes\",\"name\":\"err\",\"type\":\"bytes\"}],\"name\":\"handleOracleFulfillment\",\"outputs\":[],\"stateMutability\":\"nonpayable\",\"type\":\"function\"},{\"inputs\":[],\"name\":\"owner\",\"outputs\":[{\"internalType\":\"address\",\"name\":\"\",\"type\":\"address\"}],\"stateMutability\":\"view\",\"type\":\"function\"},{\"inputs\":[],\"name\":\"s_lastError\",\"outputs\":[{\"internalType\":\"bytes\",\"name\":\"\",\"type\":\"bytes\"}],\"stateMutability\":\"view\",\"type\":\"function\"},{\"inputs\":[],\"name\":\"s_lastRequestId\",\"outputs\":[{\"internalType\":\"bytes32\",\"name\":\"\",\"type\":\"bytes32\"}],\"stateMutability\":\"view\",\"type\":\"function\"},{\"inputs\":[],\"name\":\"s_lastResponse\",\"outputs\":[{\"internalType\":\"bytes\",\"name\":\"\",\"type\":\"bytes\"}],\"stateMutability\":\"view\",\"type\":\"function\"},{\"inputs\":[{\"internalType\":\"uint64\",\"name\":\"subscriptionId\",\"type\":\"uint64\"},{\"internalType\":\"string[]\",\"name\":\"args\",\"type\":\"string[]\"}],\"name\":\"sendRequest\",\"outputs\":[{\"internalType\":\"bytes32\",\"name\":\"requestId\",\"type\":\"bytes32\"}],\"stateMutability\":\"nonpayable\",\"type\":\"function\"},{\"inputs\":[{\"internalType\":\"address\",\"name\":\"to\",\"type\":\"address\"}],\"name\":\"transferOwnership\",\"outputs\":[],\"stateMutability\":\"nonpayable\",\"type\":\"function\"}]);\nvar gettingstartedfunctionsconsumer = gettingstartedfunctionsconsumerContract.deploy({\n     data: '0x600580546001600160a01b03191673b83e47c2bc239b3bf370bc41e1459a34b41238d01790556101e060405261010560a0818152906200197e60c0396006906200004a908262000281565b506007805463ffffffff1916620493e01790557f66756e2d657468657265756d2d7365706f6c69612d31000000000000000000006008553480156200008e57600080fd5b506005546001600160a01b03166080523380600081620000f55760405162461bcd60e51b815260206004820152601860248201527f43616e6e6f7420736574206f776e657220746f207a65726f000000000000000060448201526064015b60405180910390fd5b600080546001600160a01b0319166001600160a01b03848116919091179091558116156200012857620001288162000131565b5050506200034d565b336001600160a01b038216036200018b5760405162461bcd60e51b815260206004820152601760248201527f43616e6e6f74207472616e7366657220746f2073656c660000000000000000006044820152606401620000ec565b600180546001600160a01b0319166001600160a01b0383811691821790925560008054604051929316917fed8889f560326eb138920d842192f0eb3dd22b4f139c87a2c57538e05bae12789190a350565b634e487b7160e01b600052604160045260246000fd5b600181811c908216806200020757607f821691505b6020821081036200022857634e487b7160e01b600052602260045260246000fd5b50919050565b601f8211156200027c57600081815260208120601f850160051c81016020861015620002575750805b601f850160051c820191505b81811015620002785782815560010162000263565b5050505b505050565b81516001600160401b038111156200029d576200029d620001dc565b620002b581620002ae8454620001f2565b846200022e565b602080601f831160018114620002ed5760008415620002d45750858301515b600019600386901b1c1916600185901b17855562000278565b600085815260208120601f198616915b828110156200031e57888601518255948401946001909101908401620002fd565b50858210156200033d5787850151600019600388901b60f8161c191681555b5050505050600190811b01905550565b60805161160e62000370600039600081816101460152610857015261160e6000f3fe608060405234801561001057600080fd5b50600436106100935760003560e01c80634d2e03a0116100665780634d2e03a0146100f457806379ba5097146100fc5780638da5cb5b14610104578063b1e217491461011f578063f2fde38b1461012857600080fd5b80630ca76175146100985780633944ea3a146100ad57806348a7d26d146100cb5780634b0795a8146100ec575b600080fd5b6100ab6100a6366004610fb2565b61013b565b005b6100b56101bf565b6040516100c29190611064565b60405180910390f35b6100de6100d9366004611077565b61024d565b6040519081526020016100c2565b6100b561037d565b6100b561038a565b6100ab610397565b6000546040516001600160a01b0390911681526020016100c2565b6100de60025481565b6100ab610136366004611105565b610446565b336001600160a01b037f000000000000000000000000000000000000000000000000000000000000000016146101845760405163c6829f8360e01b815260040160405180910390fd5b61018f83838361045a565b60405183907f85e1543bf2f84fe80c6badbce3648c8539ad1df4d2b3d822938ca0538be727e690600090a2505050565b600380546101cc9061112e565b80601f01602080910402602001604051908101604052809291908181526020018280546101f89061112e565b80156102455780601f1061021a57610100808354040283529160200191610245565b820191906000526020600020905b81548152906001019060200180831161022857829003601f168201915b505050505081565b60006102576104ea565b6102986040805160e0810190915280600081526020016000815260200160008152602001606081526020016060815260200160608152602001606081525090565b610335600680546102a89061112e565b80601f01602080910402602001604051908101604052809291908181526020018280546102d49061112e565b80156103215780601f106102f657610100808354040283529160200191610321565b820191906000526020600020905b81548152906001019060200180831161030457829003601f168201915b50505050508261053f90919063ffffffff16565b821561034f5761034f6103488486611168565b8290610550565b61036f61035b8261057a565b600754600854889163ffffffff1690610852565b600281905595945050505050565b600480546101cc9061112e565b600980546101cc9061112e565b6001546001600160a01b031633146103ef5760405162461bcd60e51b815260206004820152601660248201527526bab9ba10313290383937b837b9b2b21037bbb732b960511b60448201526064015b60405180910390fd5b60008054336001600160a01b0319808316821784556001805490911690556040516001600160a01b0390921692909183917f8be0079c531659141344cd1fd0a4f28419497f9722a3daafe3b4186f6b6457e091a350565b61044e6104ea565b61045781610924565b50565b826002541461047f5760405163d068bf5b60e01b8152600481018490526024016103e6565b600361048b838261124d565b506009610498838261124d565b5060046104a5828261124d565b50827f160ed0aaffbef6885155188b91459cb5a97d5daadccf7561d8c46deea6641b506009600360046040516104dd93929190611389565b60405180910390a2505050565b6000546001600160a01b0316331461053d5760405162461bcd60e51b815260206004820152601660248201527527b7363c9031b0b63630b1363290313c9037bbb732b960511b60448201526064016103e6565b565b61054c82600080846109cd565b5050565b80516000036105725760405163fe936cb760e01b815260040160405180910390fd5b60a090910152565b60606000610589610100610a4b565b90506105c26040518060400160405280600c81526020016b31b7b232a637b1b0ba34b7b760a11b81525082610a6c90919063ffffffff16565b82516105e09060028111156105d9576105d96113cc565b8290610a8a565b6040805180820190915260088152676c616e677561676560c01b602082015261060a908290610a6c565b60408301516106219080156105d9576105d96113cc565b604080518082019091526006815265736f7572636560d01b6020820152610649908290610a6c565b6060830151610659908290610a6c565b60a083015151156106ed576040805180820190915260048152636172677360e01b602082015261068a908290610a6c565b61069381610ac3565b60005b8360a00151518110156106e3576106d38460a0015182815181106106bc576106bc6113e2565b602002602001015183610a6c90919063ffffffff16565b6106dc8161140e565b9050610696565b506106ed81610ae7565b608083015151156107b157600083602001516002811115610710576107106113cc565b0361072e5760405163a80d31f760e01b815260040160405180910390fd5b60408051808201909152600f81526e39b2b1b932ba39a637b1b0ba34b7b760891b602082015261075f908290610a6c565b610778836020015160028111156105d9576105d96113cc565b6040805180820190915260078152667365637265747360c81b60208201526107a1908290610a6c565b60808301516107b1908290610b05565b60c0830151511561084a5760408051808201909152600981526862797465734172677360b81b60208201526107e7908290610a6c565b6107f081610ac3565b60005b8360c0015151811015610840576108308460c001518281518110610819576108196113e2565b602002602001015183610b0590919063ffffffff16565b6108398161140e565b90506107f3565b5061084a81610ae7565b515192915050565b6000807f00000000000000000000000000000000000000000000000000000000000000006001600160a01b031663461d27628688600188886040518663ffffffff1660e01b81526004016108aa959493929190611427565b6020604051808303816000875af11580156108c9573d6000803e3d6000fd5b505050506040513d601f19601f820116820180604052508101906108ed9190611470565b60405190915081907f1131472297a800fee664d1d89cfa8f7676ff07189ecc53f80bbb5f4969099db890600090a295945050505050565b336001600160a01b0382160361097c5760405162461bcd60e51b815260206004820152601760248201527f43616e6e6f74207472616e7366657220746f2073656c6600000000000000000060448201526064016103e6565b600180546001600160a01b0319166001600160a01b0383811691821790925560008054604051929316917fed8889f560326eb138920d842192f0eb3dd22b4f139c87a2c57538e05bae12789190a350565b80516000036109ef576040516322ce3edd60e01b815260040160405180910390fd5b83836002811115610a0257610a026113cc565b90816002811115610a1557610a156113cc565b90525060408401828015610a2b57610a2b6113cc565b90818015610a3b57610a3b6113cc565b9052506060909301929092525050565b610a53610ec0565b8051610a5f9083610b12565b5060006020820152919050565b610a798260038351610b8c565b8151610a859082610cab565b505050565b8151610a979060c2610cd3565b5061054c8282604051602001610aaf91815260200190565b604051602081830303815290604052610b05565b610ace816004610d3c565b600181602001818151610ae19190611489565b90525050565b610af2816007610d3c565b600181602001818151610ae1919061149c565b610a798260028351610b8c565b604080518082019091526060815260006020820152610b326020836114af565b15610b5a57610b426020836114af565b610b4d90602061149c565b610b579083611489565b91505b602080840183905260405180855260008152908184010181811015610b7e57600080fd5b604052508290505b92915050565b6017816001600160401b031611610bb8578251610bb29060e0600585901b168317610cd3565b50505050565b60ff816001600160401b031611610bf8578251610be0906018611fe0600586901b1617610cd3565b508251610bb2906001600160401b0383166001610d53565b61ffff816001600160401b031611610c39578251610c21906019611fe0600586901b1617610cd3565b508251610bb2906001600160401b0383166002610d53565b63ffffffff816001600160401b031611610c7c578251610c6490601a611fe0600586901b1617610cd3565b508251610bb2906001600160401b0383166004610d53565b8251610c9390601b611fe0600586901b1617610cd3565b508251610bb2906001600160401b0383166008610d53565b604080518082019091526060815260006020820152610ccc83838451610dd8565b9392505050565b6040805180820190915260608152600060208201528251516000610cf8826001611489565b905084602001518210610d1957610d1985610d148360026114d1565b610ea9565b8451602083820101858153508051821115610d32578181525b5093949350505050565b8151610a8590601f611fe0600585901b1617610cd3565b6040805180820190915260608152600060208201528351516000610d778285611489565b90508560200151811115610d9457610d9486610d148360026114d1565b60006001610da4866101006115cc565b610dae919061149c565b90508651828101878319825116178152508051831115610dcc578281525b50959695505050505050565b6040805180820190915260608152600060208201528251821115610dfb57600080fd5b8351516000610e0a8483611489565b90508560200151811115610e2757610e2786610d148360026114d1565b855180518382016020019160009180851115610e41578482525b505050602086015b60208610610e815780518252610e60602083611489565b9150610e6d602082611489565b9050610e7a60208761149c565b9550610e49565b51815160001960208890036101000a0190811690199190911617905250849150509392505050565b8151610eb58383610b12565b50610bb28382610cab565b6040518060400160405280610ee8604051806040016040528060608152602001600081525090565b8152602001600081525090565b634e487b7160e01b600052604160045260246000fd5b604051601f8201601f191681016001600160401b0381118282101715610f3357610f33610ef5565b604052919050565b60006001600160401b03831115610f5457610f54610ef5565b610f67601f8401601f1916602001610f0b565b9050828152838383011115610f7b57600080fd5b828260208301376000602084830101529392505050565b600082601f830112610fa357600080fd5b610ccc83833560208501610f3b565b600080600060608486031215610fc757600080fd5b8335925060208401356001600160401b0380821115610fe557600080fd5b610ff187838801610f92565b9350604086013591508082111561100757600080fd5b5061101486828701610f92565b9150509250925092565b6000815180845260005b8181101561104457602081850181015186830182015201611028565b506000602082860101526020601f19601f83011685010191505092915050565b602081526000610ccc602083018461101e565b60008060006040848603121561108c57600080fd5b83356001600160401b0380821682146110a457600080fd5b909350602085013590808211156110ba57600080fd5b818601915086601f8301126110ce57600080fd5b8135818111156110dd57600080fd5b8760208260051b85010111156110f257600080fd5b6020830194508093505050509250925092565b60006020828403121561111757600080fd5b81356001600160a01b0381168114610ccc57600080fd5b600181811c9082168061114257607f821691505b60208210810361116257634e487b7160e01b600052602260045260246000fd5b50919050565b60006001600160401b038084111561118257611182610ef5565b8360051b6020611193818301610f0b565b8681529185019181810190368411156111ab57600080fd5b865b848110156111f3578035868111156111c55760008081fd5b880136601f8201126111d75760008081fd5b6111e5368235878401610f3b565b8452509183019183016111ad565b50979650505050505050565b601f821115610a8557600081815260208120601f850160051c810160208610156112265750805b601f850160051c820191505b8181101561124557828155600101611232565b505050505050565b81516001600160401b0381111561126657611266610ef5565b61127a81611274845461112e565b846111ff565b602080601f8311600181146112af57600084156112975750858301515b600019600386901b1c1916600185901b178555611245565b600085815260208120601f198616915b828110156112de578886015182559484019460019091019084016112bf565b50858210156112fc5787850151600019600388901b60f8161c191681555b5050505050600190811b01905550565b600081546113198161112e565b80855260206001838116801561133657600181146113505761137e565b60ff1985168884015283151560051b88018301955061137e565b866000528260002060005b858110156113765781548a820186015290830190840161135b565b890184019650505b505050505092915050565b60608152600061139c606083018661130c565b82810360208401526113ae818661130c565b905082810360408401526113c2818561130c565b9695505050505050565b634e487b7160e01b600052602160045260246000fd5b634e487b7160e01b600052603260045260246000fd5b634e487b7160e01b600052601160045260246000fd5b600060018201611420576114206113f8565b5060010190565b6001600160401b038616815260a06020820152600061144960a083018761101e565b61ffff9590951660408301525063ffffffff92909216606083015260809091015292915050565b60006020828403121561148257600080fd5b5051919050565b80820180821115610b8657610b866113f8565b81810381811115610b8657610b866113f8565b6000826114cc57634e487b7160e01b600052601260045260246000fd5b500690565b8082028115828204841417610b8657610b866113f8565b600181815b80851115611523578160001904821115611509576115096113f8565b8085161561151657918102915b93841c93908002906114ed565b509250929050565b60008261153a57506001610b86565b8161154757506000610b86565b816001811461155d576002811461156757611583565b6001915050610b86565b60ff841115611578576115786113f8565b50506001821b610b86565b5060208310610133831016604e8410600b84101617156115a6575081810a610b86565b6115b083836114e8565b80600019048211156115c4576115c46113f8565b029392505050565b6000610ccc838361152b56fea26469706673582212209345d77ee09056d1fd55eb56e213ace3a4da00421afc26642d95e3a2e579ffec64736f6c63430008130033636f6e7374206368617261637465724964203d20617267735b305d3b636f6e737420617069526573706f6e7365203d2061776169742046756e6374696f6e732e6d616b654874747052657175657374287b75726c3a206068747470733a2f2f73776170692e696e666f2f6170692f70656f706c652f247b63686172616374657249647d2f607d293b69662028617069526573706f6e73652e6572726f7229207b7468726f77204572726f72282752657175657374206661696c656427293b7d636f6e7374207b2064617461207d203d20617069526573706f6e73653b72657475726e2046756e6374696f6e732e656e636f6465537472696e6728646174612e6e616d65293b', \n     arguments: [\n     ]\n}).send({\n     from: web3.eth.accounts[0], \n     gas: '4700000'\n   }, function (e, contract){\n    console.log(e, contract);\n    if (typeof contract.address !== 'undefined') {\n         console.log('Contract mined! address: ' + contract.address + ' transactionHash: ' + contract.transactionHash);\n    }\n })",
	"functionHashes": {
		"79ba5097": "acceptOwnership()",
		"4d2e03a0": "character()",
		"0ca76175": "handleOracleFulfillment(bytes32,bytes,bytes)",
		"8da5cb5b": "owner()",
		"4b0795a8": "s_lastError()",
		"b1e21749": "s_lastRequestId()",
		"3944ea3a": "s_lastResponse()",
		"48a7d26d": "sendRequest(uint64,string[])",
		"f2fde38b": "transferOwnership(address)"
	},
	"gasEstimates": {
		"Creation": {
			"codeDepositCost": "1129200",
			"executionCost": "infinite",
			"totalCost": "infinite"
		},
		"External": {
			"acceptOwnership()": "52321",
			"character()": "infinite",
			"handleOracleFulfillment(bytes32,bytes,bytes)": "infinite",
			"owner()": "2345",
			"s_lastError()": "infinite",
			"s_lastRequestId()": "2361",
			"s_lastResponse()": "infinite",
			"sendRequest(uint64,string[])": "infinite",
			"transferOwnership(address)": "30489"
		},
		"Internal": {
			"fulfillRequest(bytes32,bytes memory,bytes memory)": "infinite"
		}
	},
	"devdoc": {
		"details": "This contract uses hardcoded values and should not be used in production.",
		"kind": "dev",
		"methods": {
			"handleOracleFulfillment(bytes32,bytes,bytes)": {
				"details": "Either response or error parameter will be set, but never both.",
				"params": {
					"err": "Aggregated error either from the request's source code or from the execution pipeline.",
					"requestId": "The requestId returned by FunctionsClient.sendRequest().",
					"response": "Aggregated response from the request's source code."
				}
			},
			"sendRequest(uint64,string[])": {
				"params": {
					"args": "The arguments to pass to the HTTP request",
					"subscriptionId": "The ID for the Chainlink subscription"
				},
				"returns": {
					"requestId": "The ID of the request"
				}
			}
		},
		"title": "GettingStartedFunctionsConsumer",
		"version": 1
	},
	"userdoc": {
		"kind": "user",
		"methods": {
			"acceptOwnership()": {
				"notice": "Allows an ownership transfer to be completed by the recipient."
			},
			"constructor": {
				"notice": "Initializes the contract with the Chainlink router address and sets the contract owner"
			},
			"handleOracleFulfillment(bytes32,bytes,bytes)": {
				"notice": "Chainlink Functions response handler called by the Functions Router during fullilment from the designated transmitter node in an OCR round."
			},
			"owner()": {
				"notice": "Get the current owner"
			},
			"sendRequest(uint64,string[])": {
				"notice": "Sends an HTTP request for character information"
			},
			"transferOwnership(address)": {
				"notice": "Allows an owner to begin transferring ownership to a new address."
			}
		},
		"notice": "This is an example contract to show how to make HTTP requests using Chainlink",
		"version": 1
	},
	"Runtime Bytecode": {
		"immutableReferences": {
			"17": [
				{
					"length": 32,
					"start": 326
				},
				{
					"length": 32,
					"start": 2135
				}
			]
		},
		"linkReferences": {},
		"object": "608060405234801561001057600080fd5b50600436106100935760003560e01c80634d2e03a0116100665780634d2e03a0146100f457806379ba5097146100fc5780638da5cb5b14610104578063b1e217491461011f578063f2fde38b1461012857600080fd5b80630ca76175146100985780633944ea3a146100ad57806348a7d26d146100cb5780634b0795a8146100ec575b600080fd5b6100ab6100a6366004610fb2565b61013b565b005b6100b56101bf565b6040516100c29190611064565b60405180910390f35b6100de6100d9366004611077565b61024d565b6040519081526020016100c2565b6100b561037d565b6100b561038a565b6100ab610397565b6000546040516001600160a01b0390911681526020016100c2565b6100de60025481565b6100ab610136366004611105565b610446565b336001600160a01b037f000000000000000000000000000000000000000000000000000000000000000016146101845760405163c6829f8360e01b815260040160405180910390fd5b61018f83838361045a565b60405183907f85e1543bf2f84fe80c6badbce3648c8539ad1df4d2b3d822938ca0538be727e690600090a2505050565b600380546101cc9061112e565b80601f01602080910402602001604051908101604052809291908181526020018280546101f89061112e565b80156102455780601f1061021a57610100808354040283529160200191610245565b820191906000526020600020905b81548152906001019060200180831161022857829003601f168201915b505050505081565b60006102576104ea565b6102986040805160e0810190915280600081526020016000815260200160008152602001606081526020016060815260200160608152602001606081525090565b610335600680546102a89061112e565b80601f01602080910402602001604051908101604052809291908181526020018280546102d49061112e565b80156103215780601f106102f657610100808354040283529160200191610321565b820191906000526020600020905b81548152906001019060200180831161030457829003601f168201915b50505050508261053f90919063ffffffff16565b821561034f5761034f6103488486611168565b8290610550565b61036f61035b8261057a565b600754600854889163ffffffff1690610852565b600281905595945050505050565b600480546101cc9061112e565b600980546101cc9061112e565b6001546001600160a01b031633146103ef5760405162461bcd60e51b815260206004820152601660248201527526bab9ba10313290383937b837b9b2b21037bbb732b960511b60448201526064015b60405180910390fd5b60008054336001600160a01b0319808316821784556001805490911690556040516001600160a01b0390921692909183917f8be0079c531659141344cd1fd0a4f28419497f9722a3daafe3b4186f6b6457e091a350565b61044e6104ea565b61045781610924565b50565b826002541461047f5760405163d068bf5b60e01b8152600481018490526024016103e6565b600361048b838261124d565b506009610498838261124d565b5060046104a5828261124d565b50827f160ed0aaffbef6885155188b91459cb5a97d5daadccf7561d8c46deea6641b506009600360046040516104dd93929190611389565b60405180910390a2505050565b6000546001600160a01b0316331461053d5760405162461bcd60e51b815260206004820152601660248201527527b7363c9031b0b63630b1363290313c9037bbb732b960511b60448201526064016103e6565b565b61054c82600080846109cd565b5050565b80516000036105725760405163fe936cb760e01b815260040160405180910390fd5b60a090910152565b60606000610589610100610a4b565b90506105c26040518060400160405280600c81526020016b31b7b232a637b1b0ba34b7b760a11b81525082610a6c90919063ffffffff16565b82516105e09060028111156105d9576105d96113cc565b8290610a8a565b6040805180820190915260088152676c616e677561676560c01b602082015261060a908290610a6c565b60408301516106219080156105d9576105d96113cc565b604080518082019091526006815265736f7572636560d01b6020820152610649908290610a6c565b6060830151610659908290610a6c565b60a083015151156106ed576040805180820190915260048152636172677360e01b602082015261068a908290610a6c565b61069381610ac3565b60005b8360a00151518110156106e3576106d38460a0015182815181106106bc576106bc6113e2565b602002602001015183610a6c90919063ffffffff16565b6106dc8161140e565b9050610696565b506106ed81610ae7565b608083015151156107b157600083602001516002811115610710576107106113cc565b0361072e5760405163a80d31f760e01b815260040160405180910390fd5b60408051808201909152600f81526e39b2b1b932ba39a637b1b0ba34b7b760891b602082015261075f908290610a6c565b610778836020015160028111156105d9576105d96113cc565b6040805180820190915260078152667365637265747360c81b60208201526107a1908290610a6c565b60808301516107b1908290610b05565b60c0830151511561084a5760408051808201909152600981526862797465734172677360b81b60208201526107e7908290610a6c565b6107f081610ac3565b60005b8360c0015151811015610840576108308460c001518281518110610819576108196113e2565b602002602001015183610b0590919063ffffffff16565b6108398161140e565b90506107f3565b5061084a81610ae7565b515192915050565b6000807f00000000000000000000000000000000000000000000000000000000000000006001600160a01b031663461d27628688600188886040518663ffffffff1660e01b81526004016108aa959493929190611427565b6020604051808303816000875af11580156108c9573d6000803e3d6000fd5b505050506040513d601f19601f820116820180604052508101906108ed9190611470565b60405190915081907f1131472297a800fee664d1d89cfa8f7676ff07189ecc53f80bbb5f4969099db890600090a295945050505050565b336001600160a01b0382160361097c5760405162461bcd60e51b815260206004820152601760248201527f43616e6e6f74207472616e7366657220746f2073656c6600000000000000000060448201526064016103e6565b600180546001600160a01b0319166001600160a01b0383811691821790925560008054604051929316917fed8889f560326eb138920d842192f0eb3dd22b4f139c87a2c57538e05bae12789190a350565b80516000036109ef576040516322ce3edd60e01b815260040160405180910390fd5b83836002811115610a0257610a026113cc565b90816002811115610a1557610a156113cc565b90525060408401828015610a2b57610a2b6113cc565b90818015610a3b57610a3b6113cc565b9052506060909301929092525050565b610a53610ec0565b8051610a5f9083610b12565b5060006020820152919050565b610a798260038351610b8c565b8151610a859082610cab565b505050565b8151610a979060c2610cd3565b5061054c8282604051602001610aaf91815260200190565b604051602081830303815290604052610b05565b610ace816004610d3c565b600181602001818151610ae19190611489565b90525050565b610af2816007610d3c565b600181602001818151610ae1919061149c565b610a798260028351610b8c565b604080518082019091526060815260006020820152610b326020836114af565b15610b5a57610b426020836114af565b610b4d90602061149c565b610b579083611489565b91505b602080840183905260405180855260008152908184010181811015610b7e57600080fd5b604052508290505b92915050565b6017816001600160401b031611610bb8578251610bb29060e0600585901b168317610cd3565b50505050565b60ff816001600160401b031611610bf8578251610be0906018611fe0600586901b1617610cd3565b508251610bb2906001600160401b0383166001610d53565b61ffff816001600160401b031611610c39578251610c21906019611fe0600586901b1617610cd3565b508251610bb2906001600160401b0383166002610d53565b63ffffffff816001600160401b031611610c7c578251610c6490601a611fe0600586901b1617610cd3565b508251610bb2906001600160401b0383166004610d53565b8251610c9390601b611fe0600586901b1617610cd3565b508251610bb2906001600160401b0383166008610d53565b604080518082019091526060815260006020820152610ccc83838451610dd8565b9392505050565b6040805180820190915260608152600060208201528251516000610cf8826001611489565b905084602001518210610d1957610d1985610d148360026114d1565b610ea9565b8451602083820101858153508051821115610d32578181525b5093949350505050565b8151610a8590601f611fe0600585901b1617610cd3565b6040805180820190915260608152600060208201528351516000610d778285611489565b90508560200151811115610d9457610d9486610d148360026114d1565b60006001610da4866101006115cc565b610dae919061149c565b90508651828101878319825116178152508051831115610dcc578281525b50959695505050505050565b6040805180820190915260608152600060208201528251821115610dfb57600080fd5b8351516000610e0a8483611489565b90508560200151811115610e2757610e2786610d148360026114d1565b855180518382016020019160009180851115610e41578482525b505050602086015b60208610610e815780518252610e60602083611489565b9150610e6d602082611489565b9050610e7a60208761149c565b9550610e49565b51815160001960208890036101000a0190811690199190911617905250849150509392505050565b8151610eb58383610b12565b50610bb28382610cab565b6040518060400160405280610ee8604051806040016040528060608152602001600081525090565b8152602001600081525090565b634e487b7160e01b600052604160045260246000fd5b604051601f8201601f191681016001600160401b0381118282101715610f3357610f33610ef5565b604052919050565b60006001600160401b03831115610f5457610f54610ef5565b610f67601f8401601f1916602001610f0b565b9050828152838383011115610f7b57600080fd5b828260208301376000602084830101529392505050565b600082601f830112610fa357600080fd5b610ccc83833560208501610f3b565b600080600060608486031215610fc757600080fd5b8335925060208401356001600160401b0380821115610fe557600080fd5b610ff187838801610f92565b9350604086013591508082111561100757600080fd5b5061101486828701610f92565b9150509250925092565b6000815180845260005b8181101561104457602081850181015186830182015201611028565b506000602082860101526020601f19601f83011685010191505092915050565b602081526000610ccc602083018461101e565b60008060006040848603121561108c57600080fd5b83356001600160401b0380821682146110a457600080fd5b909350602085013590808211156110ba57600080fd5b818601915086601f8301126110ce57600080fd5b8135818111156110dd57600080fd5b8760208260051b85010111156110f257600080fd5b6020830194508093505050509250925092565b60006020828403121561111757600080fd5b81356001600160a01b0381168114610ccc57600080fd5b600181811c9082168061114257607f821691505b60208210810361116257634e487b7160e01b600052602260045260246000fd5b50919050565b60006001600160401b038084111561118257611182610ef5565b8360051b6020611193818301610f0b565b8681529185019181810190368411156111ab57600080fd5b865b848110156111f3578035868111156111c55760008081fd5b880136601f8201126111d75760008081fd5b6111e5368235878401610f3b565b8452509183019183016111ad565b50979650505050505050565b601f821115610a8557600081815260208120601f850160051c810160208610156112265750805b601f850160051c820191505b8181101561124557828155600101611232565b505050505050565b81516001600160401b0381111561126657611266610ef5565b61127a81611274845461112e565b846111ff565b602080601f8311600181146112af57600084156112975750858301515b600019600386901b1c1916600185901b178555611245565b600085815260208120601f198616915b828110156112de578886015182559484019460019091019084016112bf565b50858210156112fc5787850151600019600388901b60f8161c191681555b5050505050600190811b01905550565b600081546113198161112e565b80855260206001838116801561133657600181146113505761137e565b60ff1985168884015283151560051b88018301955061137e565b866000528260002060005b858110156113765781548a820186015290830190840161135b565b890184019650505b505050505092915050565b60608152600061139c606083018661130c565b82810360208401526113ae818661130c565b905082810360408401526113c2818561130c565b9695505050505050565b634e487b7160e01b600052602160045260246000fd5b634e487b7160e01b600052603260045260246000fd5b634e487b7160e01b600052601160045260246000fd5b600060018201611420576114206113f8565b5060010190565b6001600160401b038616815260a06020820152600061144960a083018761101e565b61ffff9590951660408301525063ffffffff92909216606083015260809091015292915050565b60006020828403121561148257600080fd5b5051919050565b80820180821115610b8657610b866113f8565b81810381811115610b8657610b866113f8565b6000826114cc57634e487b7160e01b600052601260045260246000fd5b500690565b8082028115828204841417610b8657610b866113f8565b600181815b80851115611523578160001904821115611509576115096113f8565b8085161561151657918102915b93841c93908002906114ed565b509250929050565b60008261153a57506001610b86565b8161154757506000610b86565b816001811461155d576002811461156757611583565b6001915050610b86565b60ff841115611578576115786113f8565b50506001821b610b86565b5060208310610133831016604e8410600b84101617156115a6575081810a610b86565b6115b083836114e8565b80600019048211156115c4576115c46113f8565b029392505050565b6000610ccc838361152b56fea26469706673582212209345d77ee09056d1fd55eb56e213ace3a4da00421afc26642d95e3a2e579ffec64736f6c63430008130033",
		"opcodes": "PUSH1 0x80 PUSH1 0x40 MSTORE CALLVALUE DUP1 ISZERO PUSH2 0x10 JUMPI PUSH1 0x0 DUP1 REVERT JUMPDEST POP PUSH1 0x4 CALLDATASIZE LT PUSH2 0x93 JUMPI PUSH1 0x0 CALLDATALOAD PUSH1 0xE0 SHR DUP1 PUSH4 0x4D2E03A0 GT PUSH2 0x66 JUMPI DUP1 PUSH4 0x4D2E03A0 EQ PUSH2 0xF4 JUMPI DUP1 PUSH4 0x79BA5097 EQ PUSH2 0xFC JUMPI DUP1 PUSH4 0x8DA5CB5B EQ PUSH2 0x104 JUMPI DUP1 PUSH4 0xB1E21749 EQ PUSH2 0x11F JUMPI DUP1 PUSH4 0xF2FDE38B EQ PUSH2 0x128 JUMPI PUSH1 0x0 DUP1 REVERT JUMPDEST DUP1 PUSH4 0xCA76175 EQ PUSH2 0x98 JUMPI DUP1 PUSH4 0x3944EA3A EQ PUSH2 0xAD JUMPI DUP1 PUSH4 0x48A7D26D EQ PUSH2 0xCB JUMPI DUP1 PUSH4 0x4B0795A8 EQ PUSH2 0xEC JUMPI JUMPDEST PUSH1 0x0 DUP1 REVERT JUMPDEST PUSH2 0xAB PUSH2 0xA6 CALLDATASIZE PUSH1 0x4 PUSH2 0xFB2 JUMP JUMPDEST PUSH2 0x13B JUMP JUMPDEST STOP JUMPDEST PUSH2 0xB5 PUSH2 0x1BF JUMP JUMPDEST PUSH1 0x40 MLOAD PUSH2 0xC2 SWAP2 SWAP1 PUSH2 0x1064 JUMP JUMPDEST PUSH1 0x40 MLOAD DUP1 SWAP2 SUB SWAP1 RETURN JUMPDEST PUSH2 0xDE PUSH2 0xD9 CALLDATASIZE PUSH1 0x4 PUSH2 0x1077 JUMP JUMPDEST PUSH2 0x24D JUMP JUMPDEST PUSH1 0x40 MLOAD SWAP1 DUP2 MSTORE PUSH1 0x20 ADD PUSH2 0xC2 JUMP JUMPDEST PUSH2 0xB5 PUSH2 0x37D JUMP JUMPDEST PUSH2 0xB5 PUSH2 0x38A JUMP JUMPDEST PUSH2 0xAB PUSH2 0x397 JUMP JUMPDEST PUSH1 0x0 SLOAD PUSH1 0x40 MLOAD PUSH1 0x1 PUSH1 0x1 PUSH1 0xA0 SHL SUB SWAP1 SWAP2 AND DUP2 MSTORE PUSH1 0x20 ADD PUSH2 0xC2 JUMP JUMPDEST PUSH2 0xDE PUSH1 0x2 SLOAD DUP2 JUMP JUMPDEST PUSH2 0xAB PUSH2 0x136 CALLDATASIZE PUSH1 0x4 PUSH2 0x1105 JUMP JUMPDEST PUSH2 0x446 JUMP JUMPDEST CALLER PUSH1 0x1 PUSH1 0x1 PUSH1 0xA0 SHL SUB PUSH32 0x0 AND EQ PUSH2 0x184 JUMPI PUSH1 0x40 MLOAD PUSH4 0xC6829F83 PUSH1 0xE0 SHL DUP2 MSTORE PUSH1 0x4 ADD PUSH1 0x40 MLOAD DUP1 SWAP2 SUB SWAP1 REVERT JUMPDEST PUSH2 0x18F DUP4 DUP4 DUP4 PUSH2 0x45A JUMP JUMPDEST PUSH1 0x40 MLOAD DUP4 SWAP1 PUSH32 0x85E1543BF2F84FE80C6BADBCE3648C8539AD1DF4D2B3D822938CA0538BE727E6 SWAP1 PUSH1 0x0 SWAP1 LOG2 POP POP POP JUMP JUMPDEST PUSH1 0x3 DUP1 SLOAD PUSH2 0x1CC SWAP1 PUSH2 0x112E JUMP JUMPDEST DUP1 PUSH1 0x1F ADD PUSH1 0x20 DUP1 SWAP2 DIV MUL PUSH1 0x20 ADD PUSH1 0x40 MLOAD SWAP1 DUP2 ADD PUSH1 0x40 MSTORE DUP1 SWAP3 SWAP2 SWAP1 DUP2 DUP2 MSTORE PUSH1 0x20 ADD DUP3 DUP1 SLOAD PUSH2 0x1F8 SWAP1 PUSH2 0x112E JUMP JUMPDEST DUP1 ISZERO PUSH2 0x245 JUMPI DUP1 PUSH1 0x1F LT PUSH2 0x21A JUMPI PUSH2 0x100 DUP1 DUP4 SLOAD DIV MUL DUP4 MSTORE SWAP2 PUSH1 0x20 ADD SWAP2 PUSH2 0x245 JUMP JUMPDEST DUP3 ADD SWAP2 SWAP1 PUSH1 0x0 MSTORE PUSH1 0x20 PUSH1 0x0 KECCAK256 SWAP1 JUMPDEST DUP2 SLOAD DUP2 MSTORE SWAP1 PUSH1 0x1 ADD SWAP1 PUSH1 0x20 ADD DUP1 DUP4 GT PUSH2 0x228 JUMPI DUP3 SWAP1 SUB PUSH1 0x1F AND DUP3 ADD SWAP2 JUMPDEST POP POP POP POP POP DUP2 JUMP JUMPDEST PUSH1 0x0 PUSH2 0x257 PUSH2 0x4EA JUMP JUMPDEST PUSH2 0x298 PUSH1 0x40 DUP1 MLOAD PUSH1 0xE0 DUP2 ADD SWAP1 SWAP2 MSTORE DUP1 PUSH1 0x0 DUP2 MSTORE PUSH1 0x20 ADD PUSH1 0x0 DUP2 MSTORE PUSH1 0x20 ADD PUSH1 0x0 DUP2 MSTORE PUSH1 0x20 ADD PUSH1 0x60 DUP2 MSTORE PUSH1 0x20 ADD PUSH1 0x60 DUP2 MSTORE PUSH1 0x20 ADD PUSH1 0x60 DUP2 MSTORE PUSH1 0x20 ADD PUSH1 0x60 DUP2 MSTORE POP SWAP1 JUMP JUMPDEST PUSH2 0x335 PUSH1 0x6 DUP1 SLOAD PUSH2 0x2A8 SWAP1 PUSH2 0x112E JUMP JUMPDEST DUP1 PUSH1 0x1F ADD PUSH1 0x20 DUP1 SWAP2 DIV MUL PUSH1 0x20 ADD PUSH1 0x40 MLOAD SWAP1 DUP2 ADD PUSH1 0x40 MSTORE DUP1 SWAP3 SWAP2 SWAP1 DUP2 DUP2 MSTORE PUSH1 0x20 ADD DUP3 DUP1 SLOAD PUSH2 0x2D4 SWAP1 PUSH2 0x112E JUMP JUMPDEST DUP1 ISZERO PUSH2 0x321 JUMPI DUP1 PUSH1 0x1F LT PUSH2 0x2F6 JUMPI PUSH2 0x100 DUP1 DUP4 SLOAD DIV MUL DUP4 MSTORE SWAP2 PUSH1 0x20 ADD SWAP2 PUSH2 0x321 JUMP JUMPDEST DUP3 ADD SWAP2 SWAP1 PUSH1 0x0 MSTORE PUSH1 0x20 PUSH1 0x0 KECCAK256 SWAP1 JUMPDEST DUP2 SLOAD DUP2 MSTORE SWAP1 PUSH1 0x1 ADD SWAP1 PUSH1 0x20 ADD DUP1 DUP4 GT PUSH2 0x304 JUMPI DUP3 SWAP1 SUB PUSH1 0x1F AND DUP3 ADD SWAP2 JUMPDEST POP POP POP POP POP DUP3 PUSH2 0x53F SWAP1 SWAP2 SWAP1 PUSH4 0xFFFFFFFF AND JUMP JUMPDEST DUP3 ISZERO PUSH2 0x34F JUMPI PUSH2 0x34F PUSH2 0x348 DUP5 DUP7 PUSH2 0x1168 JUMP JUMPDEST DUP3 SWAP1 PUSH2 0x550 JUMP JUMPDEST PUSH2 0x36F PUSH2 0x35B DUP3 PUSH2 0x57A JUMP JUMPDEST PUSH1 0x7 SLOAD PUSH1 0x8 SLOAD DUP9 SWAP2 PUSH4 0xFFFFFFFF AND SWAP1 PUSH2 0x852 JUMP JUMPDEST PUSH1 0x2 DUP2 SWAP1 SSTORE SWAP6 SWAP5 POP POP POP POP POP JUMP JUMPDEST PUSH1 0x4 DUP1 SLOAD PUSH2 0x1CC SWAP1 PUSH2 0x112E JUMP JUMPDEST PUSH1 0x9 DUP1 SLOAD PUSH2 0x1CC SWAP1 PUSH2 0x112E JUMP JUMPDEST PUSH1 0x1 SLOAD PUSH1 0x1 PUSH1 0x1 PUSH1 0xA0 SHL SUB AND CALLER EQ PUSH2 0x3EF JUMPI PUSH1 0x40 MLOAD PUSH3 0x461BCD PUSH1 0xE5 SHL DUP2 MSTORE PUSH1 0x20 PUSH1 0x4 DUP3 ADD MSTORE PUSH1 0x16 PUSH1 0x24 DUP3 ADD MSTORE PUSH22 0x26BAB9BA10313290383937B837B9B2B21037BBB732B9 PUSH1 0x51 SHL PUSH1 0x44 DUP3 ADD MSTORE PUSH1 0x64 ADD JUMPDEST PUSH1 0x40 MLOAD DUP1 SWAP2 SUB SWAP1 REVERT JUMPDEST PUSH1 0x0 DUP1 SLOAD CALLER PUSH1 0x1 PUSH1 0x1 PUSH1 0xA0 SHL SUB NOT DUP1 DUP4 AND DUP3 OR DUP5 SSTORE PUSH1 0x1 DUP1 SLOAD SWAP1 SWAP2 AND SWAP1 SSTORE PUSH1 0x40 MLOAD PUSH1 0x1 PUSH1 0x1 PUSH1 0xA0 SHL SUB SWAP1 SWAP3 AND SWAP3 SWAP1 SWAP2 DUP4 SWAP2 PUSH32 0x8BE0079C531659141344CD1FD0A4F28419497F9722A3DAAFE3B4186F6B6457E0 SWAP2 LOG3 POP JUMP JUMPDEST PUSH2 0x44E PUSH2 0x4EA JUMP JUMPDEST PUSH2 0x457 DUP2 PUSH2 0x924 JUMP JUMPDEST POP JUMP JUMPDEST DUP3 PUSH1 0x2 SLOAD EQ PUSH2 0x47F JUMPI PUSH1 0x40 MLOAD PUSH4 0xD068BF5B PUSH1 0xE0 SHL DUP2 MSTORE PUSH1 0x4 DUP2 ADD DUP5 SWAP1 MSTORE PUSH1 0x24 ADD PUSH2 0x3E6 JUMP JUMPDEST PUSH1 0x3 PUSH2 0x48B DUP4 DUP3 PUSH2 0x124D JUMP JUMPDEST POP PUSH1 0x9 PUSH2 0x498 DUP4 DUP3 PUSH2 0x124D JUMP JUMPDEST POP PUSH1 0x4 PUSH2 0x4A5 DUP3 DUP3 PUSH2 0x124D JUMP JUMPDEST POP DUP3 PUSH32 0x160ED0AAFFBEF6885155188B91459CB5A97D5DAADCCF7561D8C46DEEA6641B50 PUSH1 0x9 PUSH1 0x3 PUSH1 0x4 PUSH1 0x40 MLOAD PUSH2 0x4DD SWAP4 SWAP3 SWAP2 SWAP1 PUSH2 0x1389 JUMP JUMPDEST PUSH1 0x40 MLOAD DUP1 SWAP2 SUB SWAP1 LOG2 POP POP POP JUMP JUMPDEST PUSH1 0x0 SLOAD PUSH1 0x1 PUSH1 0x1 PUSH1 0xA0 SHL SUB AND CALLER EQ PUSH2 0x53D JUMPI PUSH1 0x40 MLOAD PUSH3 0x461BCD PUSH1 0xE5 SHL DUP2 MSTORE PUSH1 0x20 PUSH1 0x4 DUP3 ADD MSTORE PUSH1 0x16 PUSH1 0x24 DUP3 ADD MSTORE PUSH22 0x27B7363C9031B0B63630B1363290313C9037BBB732B9 PUSH1 0x51 SHL PUSH1 0x44 DUP3 ADD MSTORE PUSH1 0x64 ADD PUSH2 0x3E6 JUMP JUMPDEST JUMP JUMPDEST PUSH2 0x54C DUP3 PUSH1 0x0 DUP1 DUP5 PUSH2 0x9CD JUMP JUMPDEST POP POP JUMP JUMPDEST DUP1 MLOAD PUSH1 0x0 SUB PUSH2 0x572 JUMPI PUSH1 0x40 MLOAD PUSH4 0xFE936CB7 PUSH1 0xE0 SHL DUP2 MSTORE PUSH1 0x4 ADD PUSH1 0x40 MLOAD DUP1 SWAP2 SUB SWAP1 REVERT JUMPDEST PUSH1 0xA0 SWAP1 SWAP2 ADD MSTORE JUMP JUMPDEST PUSH1 0x60 PUSH1 0x0 PUSH2 0x589 PUSH2 0x100 PUSH2 0xA4B JUMP JUMPDEST SWAP1 POP PUSH2 0x5C2 PUSH1 0x40 MLOAD DUP1 PUSH1 0x40 ADD PUSH1 0x40 MSTORE DUP1 PUSH1 0xC DUP2 MSTORE PUSH1 0x20 ADD PUSH12 0x31B7B232A637B1B0BA34B7B7 PUSH1 0xA1 SHL DUP2 MSTORE POP DUP3 PUSH2 0xA6C SWAP1 SWAP2 SWAP1 PUSH4 0xFFFFFFFF AND JUMP JUMPDEST DUP3 MLOAD PUSH2 0x5E0 SWAP1 PUSH1 0x2 DUP2 GT ISZERO PUSH2 0x5D9 JUMPI PUSH2 0x5D9 PUSH2 0x13CC JUMP JUMPDEST DUP3 SWAP1 PUSH2 0xA8A JUMP JUMPDEST PUSH1 0x40 DUP1 MLOAD DUP1 DUP3 ADD SWAP1 SWAP2 MSTORE PUSH1 0x8 DUP2 MSTORE PUSH8 0x6C616E6775616765 PUSH1 0xC0 SHL PUSH1 0x20 DUP3 ADD MSTORE PUSH2 0x60A SWAP1 DUP3 SWAP1 PUSH2 0xA6C JUMP JUMPDEST PUSH1 0x40 DUP4 ADD MLOAD PUSH2 0x621 SWAP1 DUP1 ISZERO PUSH2 0x5D9 JUMPI PUSH2 0x5D9 PUSH2 0x13CC JUMP JUMPDEST PUSH1 0x40 DUP1 MLOAD DUP1 DUP3 ADD SWAP1 SWAP2 MSTORE PUSH1 0x6 DUP2 MSTORE PUSH6 0x736F75726365 PUSH1 0xD0 SHL PUSH1 0x20 DUP3 ADD MSTORE PUSH2 0x649 SWAP1 DUP3 SWAP1 PUSH2 0xA6C JUMP JUMPDEST PUSH1 0x60 DUP4 ADD MLOAD PUSH2 0x659 SWAP1 DUP3 SWAP1 PUSH2 0xA6C JUMP JUMPDEST PUSH1 0xA0 DUP4 ADD MLOAD MLOAD ISZERO PUSH2 0x6ED JUMPI PUSH1 0x40 DUP1 MLOAD DUP1 DUP3 ADD SWAP1 SWAP2 MSTORE PUSH1 0x4 DUP2 MSTORE PUSH4 0x61726773 PUSH1 0xE0 SHL PUSH1 0x20 DUP3 ADD MSTORE PUSH2 0x68A SWAP1 DUP3 SWAP1 PUSH2 0xA6C JUMP JUMPDEST PUSH2 0x693 DUP2 PUSH2 0xAC3 JUMP JUMPDEST PUSH1 0x0 JUMPDEST DUP4 PUSH1 0xA0 ADD MLOAD MLOAD DUP2 LT ISZERO PUSH2 0x6E3 JUMPI PUSH2 0x6D3 DUP5 PUSH1 0xA0 ADD MLOAD DUP3 DUP2 MLOAD DUP2 LT PUSH2 0x6BC JUMPI PUSH2 0x6BC PUSH2 0x13E2 JUMP JUMPDEST PUSH1 0x20 MUL PUSH1 0x20 ADD ADD MLOAD DUP4 PUSH2 0xA6C SWAP1 SWAP2 SWAP1 PUSH4 0xFFFFFFFF AND JUMP JUMPDEST PUSH2 0x6DC DUP2 PUSH2 0x140E JUMP JUMPDEST SWAP1 POP PUSH2 0x696 JUMP JUMPDEST POP PUSH2 0x6ED DUP2 PUSH2 0xAE7 JUMP JUMPDEST PUSH1 0x80 DUP4 ADD MLOAD MLOAD ISZERO PUSH2 0x7B1 JUMPI PUSH1 0x0 DUP4 PUSH1 0x20 ADD MLOAD PUSH1 0x2 DUP2 GT ISZERO PUSH2 0x710 JUMPI PUSH2 0x710 PUSH2 0x13CC JUMP JUMPDEST SUB PUSH2 0x72E JUMPI PUSH1 0x40 MLOAD PUSH4 0xA80D31F7 PUSH1 0xE0 SHL DUP2 MSTORE PUSH1 0x4 ADD PUSH1 0x40 MLOAD DUP1 SWAP2 SUB SWAP1 REVERT JUMPDEST PUSH1 0x40 DUP1 MLOAD DUP1 DUP3 ADD SWAP1 SWAP2 MSTORE PUSH1 0xF DUP2 MSTORE PUSH15 0x39B2B1B932BA39A637B1B0BA34B7B7 PUSH1 0x89 SHL PUSH1 0x20 DUP3 ADD MSTORE PUSH2 0x75F SWAP1 DUP3 SWAP1 PUSH2 0xA6C JUMP JUMPDEST PUSH2 0x778 DUP4 PUSH1 0x20 ADD MLOAD PUSH1 0x2 DUP2 GT ISZERO PUSH2 0x5D9 JUMPI PUSH2 0x5D9 PUSH2 0x13CC JUMP JUMPDEST PUSH1 0x40 DUP1 MLOAD DUP1 DUP3 ADD SWAP1 SWAP2 MSTORE PUSH1 0x7 DUP2 MSTORE PUSH7 0x73656372657473 PUSH1 0xC8 SHL PUSH1 0x20 DUP3 ADD MSTORE PUSH2 0x7A1 SWAP1 DUP3 SWAP1 PUSH2 0xA6C JUMP JUMPDEST PUSH1 0x80 DUP4 ADD MLOAD PUSH2 0x7B1 SWAP1 DUP3 SWAP1 PUSH2 0xB05 JUMP JUMPDEST PUSH1 0xC0 DUP4 ADD MLOAD MLOAD ISZERO PUSH2 0x84A JUMPI PUSH1 0x40 DUP1 MLOAD DUP1 DUP3 ADD SWAP1 SWAP2 MSTORE PUSH1 0x9 DUP2 MSTORE PUSH9 0x627974657341726773 PUSH1 0xB8 SHL PUSH1 0x20 DUP3 ADD MSTORE PUSH2 0x7E7 SWAP1 DUP3 SWAP1 PUSH2 0xA6C JUMP JUMPDEST PUSH2 0x7F0 DUP2 PUSH2 0xAC3 JUMP JUMPDEST PUSH1 0x0 JUMPDEST DUP4 PUSH1 0xC0 ADD MLOAD MLOAD DUP2 LT ISZERO PUSH2 0x840 JUMPI PUSH2 0x830 DUP5 PUSH1 0xC0 ADD MLOAD DUP3 DUP2 MLOAD DUP2 LT PUSH2 0x819 JUMPI PUSH2 0x819 PUSH2 0x13E2 JUMP JUMPDEST PUSH1 0x20 MUL PUSH1 0x20 ADD ADD MLOAD DUP4 PUSH2 0xB05 SWAP1 SWAP2 SWAP1 PUSH4 0xFFFFFFFF AND JUMP JUMPDEST PUSH2 0x839 DUP2 PUSH2 0x140E JUMP JUMPDEST SWAP1 POP PUSH2 0x7F3 JUMP JUMPDEST POP PUSH2 0x84A DUP2 PUSH2 0xAE7 JUMP JUMPDEST MLOAD MLOAD SWAP3 SWAP2 POP POP JUMP JUMPDEST PUSH1 0x0 DUP1 PUSH32 0x0 PUSH1 0x1 PUSH1 0x1 PUSH1 0xA0 SHL SUB AND PUSH4 0x461D2762 DUP7 DUP9 PUSH1 0x1 DUP9 DUP9 PUSH1 0x40 MLOAD DUP7 PUSH4 0xFFFFFFFF AND PUSH1 0xE0 SHL DUP2 MSTORE PUSH1 0x4 ADD PUSH2 0x8AA SWAP6 SWAP5 SWAP4 SWAP3 SWAP2 SWAP1 PUSH2 0x1427 JUMP JUMPDEST PUSH1 0x20 PUSH1 0x40 MLOAD DUP1 DUP4 SUB DUP2 PUSH1 0x0 DUP8 GAS CALL ISZERO DUP1 ISZERO PUSH2 0x8C9 JUMPI RETURNDATASIZE PUSH1 0x0 DUP1 RETURNDATACOPY RETURNDATASIZE PUSH1 0x0 REVERT JUMPDEST POP POP POP POP PUSH1 0x40 MLOAD RETURNDATASIZE PUSH1 0x1F NOT PUSH1 0x1F DUP3 ADD AND DUP3 ADD DUP1 PUSH1 0x40 MSTORE POP DUP2 ADD SWAP1 PUSH2 0x8ED SWAP2 SWAP1 PUSH2 0x1470 JUMP JUMPDEST PUSH1 0x40 MLOAD SWAP1 SWAP2 POP DUP2 SWAP1 PUSH32 0x1131472297A800FEE664D1D89CFA8F7676FF07189ECC53F80BBB5F4969099DB8 SWAP1 PUSH1 0x0 SWAP1 LOG2 SWAP6 SWAP5 POP POP POP POP POP JUMP JUMPDEST CALLER PUSH1 0x1 PUSH1 0x1 PUSH1 0xA0 SHL SUB DUP3 AND SUB PUSH2 0x97C JUMPI PUSH1 0x40 MLOAD PUSH3 0x461BCD PUSH1 0xE5 SHL DUP2 MSTORE PUSH1 0x20 PUSH1 0x4 DUP3 ADD MSTORE PUSH1 0x17 PUSH1 0x24 DUP3 ADD MSTORE PUSH32 0x43616E6E6F74207472616E7366657220746F2073656C66000000000000000000 PUSH1 0x44 DUP3 ADD MSTORE PUSH1 0x64 ADD PUSH2 0x3E6 JUMP JUMPDEST PUSH1 0x1 DUP1 SLOAD PUSH1 0x1 PUSH1 0x1 PUSH1 0xA0 SHL SUB NOT AND PUSH1 0x1 PUSH1 0x1 PUSH1 0xA0 SHL SUB DUP4 DUP2 AND SWAP2 DUP3 OR SWAP1 SWAP3 SSTORE PUSH1 0x0 DUP1 SLOAD PUSH1 0x40 MLOAD SWAP3 SWAP4 AND SWAP2 PUSH32 0xED8889F560326EB138920D842192F0EB3DD22B4F139C87A2C57538E05BAE1278 SWAP2 SWAP1 LOG3 POP JUMP JUMPDEST DUP1 MLOAD PUSH1 0x0 SUB PUSH2 0x9EF JUMPI PUSH1 0x40 MLOAD PUSH4 0x22CE3EDD PUSH1 0xE0 SHL DUP2 MSTORE PUSH1 0x4 ADD PUSH1 0x40 MLOAD DUP1 SWAP2 SUB SWAP1 REVERT JUMPDEST DUP4 DUP4 PUSH1 0x2 DUP2 GT ISZERO PUSH2 0xA02 JUMPI PUSH2 0xA02 PUSH2 0x13CC JUMP JUMPDEST SWAP1 DUP2 PUSH1 0x2 DUP2 GT ISZERO PUSH2 0xA15 JUMPI PUSH2 0xA15 PUSH2 0x13CC JUMP JUMPDEST SWAP1 MSTORE POP PUSH1 0x40 DUP5 ADD DUP3 DUP1 ISZERO PUSH2 0xA2B JUMPI PUSH2 0xA2B PUSH2 0x13CC JUMP JUMPDEST SWAP1 DUP2 DUP1 ISZERO PUSH2 0xA3B JUMPI PUSH2 0xA3B PUSH2 0x13CC JUMP JUMPDEST SWAP1 MSTORE POP PUSH1 0x60 SWAP1 SWAP4 ADD SWAP3 SWAP1 SWAP3 MSTORE POP POP JUMP JUMPDEST PUSH2 0xA53 PUSH2 0xEC0 JUMP JUMPDEST DUP1 MLOAD PUSH2 0xA5F SWAP1 DUP4 PUSH2 0xB12 JUMP JUMPDEST POP PUSH1 0x0 PUSH1 0x20 DUP3 ADD MSTORE SWAP2 SWAP1 POP JUMP JUMPDEST PUSH2 0xA79 DUP3 PUSH1 0x3 DUP4 MLOAD PUSH2 0xB8C JUMP JUMPDEST DUP2 MLOAD PUSH2 0xA85 SWAP1 DUP3 PUSH2 0xCAB JUMP JUMPDEST POP POP POP JUMP JUMPDEST DUP2 MLOAD PUSH2 0xA97 SWAP1 PUSH1 0xC2 PUSH2 0xCD3 JUMP JUMPDEST POP PUSH2 0x54C DUP3 DUP3 PUSH1 0x40 MLOAD PUSH1 0x20 ADD PUSH2 0xAAF SWAP2 DUP2 MSTORE PUSH1 0x20 ADD SWAP1 JUMP JUMPDEST PUSH1 0x40 MLOAD PUSH1 0x20 DUP2 DUP4 SUB SUB DUP2 MSTORE SWAP1 PUSH1 0x40 MSTORE PUSH2 0xB05 JUMP JUMPDEST PUSH2 0xACE DUP2 PUSH1 0x4 PUSH2 0xD3C JUMP JUMPDEST PUSH1 0x1 DUP2 PUSH1 0x20 ADD DUP2 DUP2 MLOAD PUSH2 0xAE1 SWAP2 SWAP1 PUSH2 0x1489 JUMP JUMPDEST SWAP1 MSTORE POP POP JUMP JUMPDEST PUSH2 0xAF2 DUP2 PUSH1 0x7 PUSH2 0xD3C JUMP JUMPDEST PUSH1 0x1 DUP2 PUSH1 0x20 ADD DUP2 DUP2 MLOAD PUSH2 0xAE1 SWAP2 SWAP1 PUSH2 0x149C JUMP JUMPDEST PUSH2 0xA79 DUP3 PUSH1 0x2 DUP4 MLOAD PUSH2 0xB8C JUMP JUMPDEST PUSH1 0x40 DUP1 MLOAD DUP1 DUP3 ADD SWAP1 SWAP2 MSTORE PUSH1 0x60 DUP2 MSTORE PUSH1 0x0 PUSH1 0x20 DUP3 ADD MSTORE PUSH2 0xB32 PUSH1 0x20 DUP4 PUSH2 0x14AF JUMP JUMPDEST ISZERO PUSH2 0xB5A JUMPI PUSH2 0xB42 PUSH1 0x20 DUP4 PUSH2 0x14AF JUMP JUMPDEST PUSH2 0xB4D SWAP1 PUSH1 0x20 PUSH2 0x149C JUMP JUMPDEST PUSH2 0xB57 SWAP1 DUP4 PUSH2 0x1489 JUMP JUMPDEST SWAP2 POP JUMPDEST PUSH1 0x20 DUP1 DUP5 ADD DUP4 SWAP1 MSTORE PUSH1 0x40 MLOAD DUP1 DUP6 MSTORE PUSH1 0x0 DUP2 MSTORE SWAP1 DUP2 DUP5 ADD ADD DUP2 DUP2 LT ISZERO PUSH2 0xB7E JUMPI PUSH1 0x0 DUP1 REVERT JUMPDEST PUSH1 0x40 MSTORE POP DUP3 SWAP1 POP JUMPDEST SWAP3 SWAP2 POP POP JUMP JUMPDEST PUSH1 0x17 DUP2 PUSH1 0x1 PUSH1 0x1 PUSH1 0x40 SHL SUB AND GT PUSH2 0xBB8 JUMPI DUP3 MLOAD PUSH2 0xBB2 SWAP1 PUSH1 0xE0 PUSH1 0x5 DUP6 SWAP1 SHL AND DUP4 OR PUSH2 0xCD3 JUMP JUMPDEST POP POP POP POP JUMP JUMPDEST PUSH1 0xFF DUP2 PUSH1 0x1 PUSH1 0x1 PUSH1 0x40 SHL SUB AND GT PUSH2 0xBF8 JUMPI DUP3 MLOAD PUSH2 0xBE0 SWAP1 PUSH1 0x18 PUSH2 0x1FE0 PUSH1 0x5 DUP7 SWAP1 SHL AND OR PUSH2 0xCD3 JUMP JUMPDEST POP DUP3 MLOAD PUSH2 0xBB2 SWAP1 PUSH1 0x1 PUSH1 0x1 PUSH1 0x40 SHL SUB DUP4 AND PUSH1 0x1 PUSH2 0xD53 JUMP JUMPDEST PUSH2 0xFFFF DUP2 PUSH1 0x1 PUSH1 0x1 PUSH1 0x40 SHL SUB AND GT PUSH2 0xC39 JUMPI DUP3 MLOAD PUSH2 0xC21 SWAP1 PUSH1 0x19 PUSH2 0x1FE0 PUSH1 0x5 DUP7 SWAP1 SHL AND OR PUSH2 0xCD3 JUMP JUMPDEST POP DUP3 MLOAD PUSH2 0xBB2 SWAP1 PUSH1 0x1 PUSH1 0x1 PUSH1 0x40 SHL SUB DUP4 AND PUSH1 0x2 PUSH2 0xD53 JUMP JUMPDEST PUSH4 0xFFFFFFFF DUP2 PUSH1 0x1 PUSH1 0x1 PUSH1 0x40 SHL SUB AND GT PUSH2 0xC7C JUMPI DUP3 MLOAD PUSH2 0xC64 SWAP1 PUSH1 0x1A PUSH2 0x1FE0 PUSH1 0x5 DUP7 SWAP1 SHL AND OR PUSH2 0xCD3 JUMP JUMPDEST POP DUP3 MLOAD PUSH2 0xBB2 SWAP1 PUSH1 0x1 PUSH1 0x1 PUSH1 0x40 SHL SUB DUP4 AND PUSH1 0x4 PUSH2 0xD53 JUMP JUMPDEST DUP3 MLOAD PUSH2 0xC93 SWAP1 PUSH1 0x1B PUSH2 0x1FE0 PUSH1 0x5 DUP7 SWAP1 SHL AND OR PUSH2 0xCD3 JUMP JUMPDEST POP DUP3 MLOAD PUSH2 0xBB2 SWAP1 PUSH1 0x1 PUSH1 0x1 PUSH1 0x40 SHL SUB DUP4 AND PUSH1 0x8 PUSH2 0xD53 JUMP JUMPDEST PUSH1 0x40 DUP1 MLOAD DUP1 DUP3 ADD SWAP1 SWAP2 MSTORE PUSH1 0x60 DUP2 MSTORE PUSH1 0x0 PUSH1 0x20 DUP3 ADD MSTORE PUSH2 0xCCC DUP4 DUP4 DUP5 MLOAD PUSH2 0xDD8 JUMP JUMPDEST SWAP4 SWAP3 POP POP POP JUMP JUMPDEST PUSH1 0x40 DUP1 MLOAD DUP1 DUP3 ADD SWAP1 SWAP2 MSTORE PUSH1 0x60 DUP2 MSTORE PUSH1 0x0 PUSH1 0x20 DUP3 ADD MSTORE DUP3 MLOAD MLOAD PUSH1 0x0 PUSH2 0xCF8 DUP3 PUSH1 0x1 PUSH2 0x1489 JUMP JUMPDEST SWAP1 POP DUP5 PUSH1 0x20 ADD MLOAD DUP3 LT PUSH2 0xD19 JUMPI PUSH2 0xD19 DUP6 PUSH2 0xD14 DUP4 PUSH1 0x2 PUSH2 0x14D1 JUMP JUMPDEST PUSH2 0xEA9 JUMP JUMPDEST DUP5 MLOAD PUSH1 0x20 DUP4 DUP3 ADD ADD DUP6 DUP2 MSTORE8 POP DUP1 MLOAD DUP3 GT ISZERO PUSH2 0xD32 JUMPI DUP2 DUP2 MSTORE JUMPDEST POP SWAP4 SWAP5 SWAP4 POP POP POP POP JUMP JUMPDEST DUP2 MLOAD PUSH2 0xA85 SWAP1 PUSH1 0x1F PUSH2 0x1FE0 PUSH1 0x5 DUP6 SWAP1 SHL AND OR PUSH2 0xCD3 JUMP JUMPDEST PUSH1 0x40 DUP1 MLOAD DUP1 DUP3 ADD SWAP1 SWAP2 MSTORE PUSH1 0x60 DUP2 MSTORE PUSH1 0x0 PUSH1 0x20 DUP3 ADD MSTORE DUP4 MLOAD MLOAD PUSH1 0x0 PUSH2 0xD77 DUP3 DUP6 PUSH2 0x1489 JUMP JUMPDEST SWAP1 POP DUP6 PUSH1 0x20 ADD MLOAD DUP2 GT ISZERO PUSH2 0xD94 JUMPI PUSH2 0xD94 DUP7 PUSH2 0xD14 DUP4 PUSH1 0x2 PUSH2 0x14D1 JUMP JUMPDEST PUSH1 0x0 PUSH1 0x1 PUSH2 0xDA4 DUP7 PUSH2 0x100 PUSH2 0x15CC JUMP JUMPDEST PUSH2 0xDAE SWAP2 SWAP1 PUSH2 0x149C JUMP JUMPDEST SWAP1 POP DUP7 MLOAD DUP3 DUP2 ADD DUP8 DUP4 NOT DUP3 MLOAD AND OR DUP2 MSTORE POP DUP1 MLOAD DUP4 GT ISZERO PUSH2 0xDCC JUMPI DUP3 DUP2 MSTORE JUMPDEST POP SWAP6 SWAP7 SWAP6 POP POP POP POP POP POP JUMP JUMPDEST PUSH1 0x40 DUP1 MLOAD DUP1 DUP3 ADD SWAP1 SWAP2 MSTORE PUSH1 0x60 DUP2 MSTORE PUSH1 0x0 PUSH1 0x20 DUP3 ADD MSTORE DUP3 MLOAD DUP3 GT ISZERO PUSH2 0xDFB JUMPI PUSH1 0x0 DUP1 REVERT JUMPDEST DUP4 MLOAD MLOAD PUSH1 0x0 PUSH2 0xE0A DUP5 DUP4 PUSH2 0x1489 JUMP JUMPDEST SWAP1 POP DUP6 PUSH1 0x20 ADD MLOAD DUP2 GT ISZERO PUSH2 0xE27 JUMPI PUSH2 0xE27 DUP7 PUSH2 0xD14 DUP4 PUSH1 0x2 PUSH2 0x14D1 JUMP JUMPDEST DUP6 MLOAD DUP1 MLOAD DUP4 DUP3 ADD PUSH1 0x20 ADD SWAP2 PUSH1 0x0 SWAP2 DUP1 DUP6 GT ISZERO PUSH2 0xE41 JUMPI DUP5 DUP3 MSTORE JUMPDEST POP POP POP PUSH1 0x20 DUP7 ADD JUMPDEST PUSH1 0x20 DUP7 LT PUSH2 0xE81 JUMPI DUP1 MLOAD DUP3 MSTORE PUSH2 0xE60 PUSH1 0x20 DUP4 PUSH2 0x1489 JUMP JUMPDEST SWAP2 POP PUSH2 0xE6D PUSH1 0x20 DUP3 PUSH2 0x1489 JUMP JUMPDEST SWAP1 POP PUSH2 0xE7A PUSH1 0x20 DUP8 PUSH2 0x149C JUMP JUMPDEST SWAP6 POP PUSH2 0xE49 JUMP JUMPDEST MLOAD DUP2 MLOAD PUSH1 0x0 NOT PUSH1 0x20 DUP9 SWAP1 SUB PUSH2 0x100 EXP ADD SWAP1 DUP2 AND SWAP1 NOT SWAP2 SWAP1 SWAP2 AND OR SWAP1 MSTORE POP DUP5 SWAP2 POP POP SWAP4 SWAP3 POP POP POP JUMP JUMPDEST DUP2 MLOAD PUSH2 0xEB5 DUP4 DUP4 PUSH2 0xB12 JUMP JUMPDEST POP PUSH2 0xBB2 DUP4 DUP3 PUSH2 0xCAB JUMP JUMPDEST PUSH1 0x40 MLOAD DUP1 PUSH1 0x40 ADD PUSH1 0x40 MSTORE DUP1 PUSH2 0xEE8 PUSH1 0x40 MLOAD DUP1 PUSH1 0x40 ADD PUSH1 0x40 MSTORE DUP1 PUSH1 0x60 DUP2 MSTORE PUSH1 0x20 ADD PUSH1 0x0 DUP2 MSTORE POP SWAP1 JUMP JUMPDEST DUP2 MSTORE PUSH1 0x20 ADD PUSH1 0x0 DUP2 MSTORE POP SWAP1 JUMP JUMPDEST PUSH4 0x4E487B71 PUSH1 0xE0 SHL PUSH1 0x0 MSTORE PUSH1 0x41 PUSH1 0x4 MSTORE PUSH1 0x24 PUSH1 0x0 REVERT JUMPDEST PUSH1 0x40 MLOAD PUSH1 0x1F DUP3 ADD PUSH1 0x1F NOT AND DUP2 ADD PUSH1 0x1 PUSH1 0x1 PUSH1 0x40 SHL SUB DUP2 GT DUP3 DUP3 LT OR ISZERO PUSH2 0xF33 JUMPI PUSH2 0xF33 PUSH2 0xEF5 JUMP JUMPDEST PUSH1 0x40 MSTORE SWAP2 SWAP1 POP JUMP JUMPDEST PUSH1 0x0 PUSH1 0x1 PUSH1 0x1 PUSH1 0x40 SHL SUB DUP4 GT ISZERO PUSH2 0xF54 JUMPI PUSH2 0xF54 PUSH2 0xEF5 JUMP JUMPDEST PUSH2 0xF67 PUSH1 0x1F DUP5 ADD PUSH1 0x1F NOT AND PUSH1 0x20 ADD PUSH2 0xF0B JUMP JUMPDEST SWAP1 POP DUP3 DUP2 MSTORE DUP4 DUP4 DUP4 ADD GT ISZERO PUSH2 0xF7B JUMPI PUSH1 0x0 DUP1 REVERT JUMPDEST DUP3 DUP3 PUSH1 0x20 DUP4 ADD CALLDATACOPY PUSH1 0x0 PUSH1 0x20 DUP5 DUP4 ADD ADD MSTORE SWAP4 SWAP3 POP POP POP JUMP JUMPDEST PUSH1 0x0 DUP3 PUSH1 0x1F DUP4 ADD SLT PUSH2 0xFA3 JUMPI PUSH1 0x0 DUP1 REVERT JUMPDEST PUSH2 0xCCC DUP4 DUP4 CALLDATALOAD PUSH1 0x20 DUP6 ADD PUSH2 0xF3B JUMP JUMPDEST PUSH1 0x0 DUP1 PUSH1 0x0 PUSH1 0x60 DUP5 DUP7 SUB SLT ISZERO PUSH2 0xFC7 JUMPI PUSH1 0x0 DUP1 REVERT JUMPDEST DUP4 CALLDATALOAD SWAP3 POP PUSH1 0x20 DUP5 ADD CALLDATALOAD PUSH1 0x1 PUSH1 0x1 PUSH1 0x40 SHL SUB DUP1 DUP3 GT ISZERO PUSH2 0xFE5 JUMPI PUSH1 0x0 DUP1 REVERT JUMPDEST PUSH2 0xFF1 DUP8 DUP4 DUP9 ADD PUSH2 0xF92 JUMP JUMPDEST SWAP4 POP PUSH1 0x40 DUP7 ADD CALLDATALOAD SWAP2 POP DUP1 DUP3 GT ISZERO PUSH2 0x1007 JUMPI PUSH1 0x0 DUP1 REVERT JUMPDEST POP PUSH2 0x1014 DUP7 DUP3 DUP8 ADD PUSH2 0xF92 JUMP JUMPDEST SWAP2 POP POP SWAP3 POP SWAP3 POP SWAP3 JUMP JUMPDEST PUSH1 0x0 DUP2 MLOAD DUP1 DUP5 MSTORE PUSH1 0x0 JUMPDEST DUP2 DUP2 LT ISZERO PUSH2 0x1044 JUMPI PUSH1 0x20 DUP2 DUP6 ADD DUP2 ADD MLOAD DUP7 DUP4 ADD DUP3 ADD MSTORE ADD PUSH2 0x1028 JUMP JUMPDEST POP PUSH1 0x0 PUSH1 0x20 DUP3 DUP7 ADD ADD MSTORE PUSH1 0x20 PUSH1 0x1F NOT PUSH1 0x1F DUP4 ADD AND DUP6 ADD ADD SWAP2 POP POP SWAP3 SWAP2 POP POP JUMP JUMPDEST PUSH1 0x20 DUP2 MSTORE PUSH1 0x0 PUSH2 0xCCC PUSH1 0x20 DUP4 ADD DUP5 PUSH2 0x101E JUMP JUMPDEST PUSH1 0x0 DUP1 PUSH1 0x0 PUSH1 0x40 DUP5 DUP7 SUB SLT ISZERO PUSH2 0x108C JUMPI PUSH1 0x0 DUP1 REVERT JUMPDEST DUP4 CALLDATALOAD PUSH1 0x1 PUSH1 0x1 PUSH1 0x40 SHL SUB DUP1 DUP3 AND DUP3 EQ PUSH2 0x10A4 JUMPI PUSH1 0x0 DUP1 REVERT JUMPDEST SWAP1 SWAP4 POP PUSH1 0x20 DUP6 ADD CALLDATALOAD SWAP1 DUP1 DUP3 GT ISZERO PUSH2 0x10BA JUMPI PUSH1 0x0 DUP1 REVERT JUMPDEST DUP2 DUP7 ADD SWAP2 POP DUP7 PUSH1 0x1F DUP4 ADD SLT PUSH2 0x10CE JUMPI PUSH1 0x0 DUP1 REVERT JUMPDEST DUP2 CALLDATALOAD DUP2 DUP2 GT ISZERO PUSH2 0x10DD JUMPI PUSH1 0x0 DUP1 REVERT JUMPDEST DUP8 PUSH1 0x20 DUP3 PUSH1 0x5 SHL DUP6 ADD ADD GT ISZERO PUSH2 0x10F2 JUMPI PUSH1 0x0 DUP1 REVERT JUMPDEST PUSH1 0x20 DUP4 ADD SWAP5 POP DUP1 SWAP4 POP POP POP POP SWAP3 POP SWAP3 POP SWAP3 JUMP JUMPDEST PUSH1 0x0 PUSH1 0x20 DUP3 DUP5 SUB SLT ISZERO PUSH2 0x1117 JUMPI PUSH1 0x0 DUP1 REVERT JUMPDEST DUP2 CALLDATALOAD PUSH1 0x1 PUSH1 0x1 PUSH1 0xA0 SHL SUB DUP2 AND DUP2 EQ PUSH2 0xCCC JUMPI PUSH1 0x0 DUP1 REVERT JUMPDEST PUSH1 0x1 DUP2 DUP2 SHR SWAP1 DUP3 AND DUP1 PUSH2 0x1142 JUMPI PUSH1 0x7F DUP3 AND SWAP2 POP JUMPDEST PUSH1 0x20 DUP3 LT DUP2 SUB PUSH2 0x1162 JUMPI PUSH4 0x4E487B71 PUSH1 0xE0 SHL PUSH1 0x0 MSTORE PUSH1 0x22 PUSH1 0x4 MSTORE PUSH1 0x24 PUSH1 0x0 REVERT JUMPDEST POP SWAP2 SWAP1 POP JUMP JUMPDEST PUSH1 0x0 PUSH1 0x1 PUSH1 0x1 PUSH1 0x40 SHL SUB DUP1 DUP5 GT ISZERO PUSH2 0x1182 JUMPI PUSH2 0x1182 PUSH2 0xEF5 JUMP JUMPDEST DUP4 PUSH1 0x5 SHL PUSH1 0x20 PUSH2 0x1193 DUP2 DUP4 ADD PUSH2 0xF0B JUMP JUMPDEST DUP7 DUP2 MSTORE SWAP2 DUP6 ADD SWAP2 DUP2 DUP2 ADD SWAP1 CALLDATASIZE DUP5 GT ISZERO PUSH2 0x11AB JUMPI PUSH1 0x0 DUP1 REVERT JUMPDEST DUP7 JUMPDEST DUP5 DUP2 LT ISZERO PUSH2 0x11F3 JUMPI DUP1 CALLDATALOAD DUP7 DUP2 GT ISZERO PUSH2 0x11C5 JUMPI PUSH1 0x0 DUP1 DUP2 REVERT JUMPDEST DUP9 ADD CALLDATASIZE PUSH1 0x1F DUP3 ADD SLT PUSH2 0x11D7 JUMPI PUSH1 0x0 DUP1 DUP2 REVERT JUMPDEST PUSH2 0x11E5 CALLDATASIZE DUP3 CALLDATALOAD DUP8 DUP5 ADD PUSH2 0xF3B JUMP JUMPDEST DUP5 MSTORE POP SWAP2 DUP4 ADD SWAP2 DUP4 ADD PUSH2 0x11AD JUMP JUMPDEST POP SWAP8 SWAP7 POP POP POP POP POP POP POP JUMP JUMPDEST PUSH1 0x1F DUP3 GT ISZERO PUSH2 0xA85 JUMPI PUSH1 0x0 DUP2 DUP2 MSTORE PUSH1 0x20 DUP2 KECCAK256 PUSH1 0x1F DUP6 ADD PUSH1 0x5 SHR DUP2 ADD PUSH1 0x20 DUP7 LT ISZERO PUSH2 0x1226 JUMPI POP DUP1 JUMPDEST PUSH1 0x1F DUP6 ADD PUSH1 0x5 SHR DUP3 ADD SWAP2 POP JUMPDEST DUP2 DUP2 LT ISZERO PUSH2 0x1245 JUMPI DUP3 DUP2 SSTORE PUSH1 0x1 ADD PUSH2 0x1232 JUMP JUMPDEST POP POP POP POP POP POP JUMP JUMPDEST DUP2 MLOAD PUSH1 0x1 PUSH1 0x1 PUSH1 0x40 SHL SUB DUP2 GT ISZERO PUSH2 0x1266 JUMPI PUSH2 0x1266 PUSH2 0xEF5 JUMP JUMPDEST PUSH2 0x127A DUP2 PUSH2 0x1274 DUP5 SLOAD PUSH2 0x112E JUMP JUMPDEST DUP5 PUSH2 0x11FF JUMP JUMPDEST PUSH1 0x20 DUP1 PUSH1 0x1F DUP4 GT PUSH1 0x1 DUP2 EQ PUSH2 0x12AF JUMPI PUSH1 0x0 DUP5 ISZERO PUSH2 0x1297 JUMPI POP DUP6 DUP4 ADD MLOAD JUMPDEST PUSH1 0x0 NOT PUSH1 0x3 DUP7 SWAP1 SHL SHR NOT AND PUSH1 0x1 DUP6 SWAP1 SHL OR DUP6 SSTORE PUSH2 0x1245 JUMP JUMPDEST PUSH1 0x0 DUP6 DUP2 MSTORE PUSH1 0x20 DUP2 KECCAK256 PUSH1 0x1F NOT DUP7 AND SWAP2 JUMPDEST DUP3 DUP2 LT ISZERO PUSH2 0x12DE JUMPI DUP9 DUP7 ADD MLOAD DUP3 SSTORE SWAP5 DUP5 ADD SWAP5 PUSH1 0x1 SWAP1 SWAP2 ADD SWAP1 DUP5 ADD PUSH2 0x12BF JUMP JUMPDEST POP DUP6 DUP3 LT ISZERO PUSH2 0x12FC JUMPI DUP8 DUP6 ADD MLOAD PUSH1 0x0 NOT PUSH1 0x3 DUP9 SWAP1 SHL PUSH1 0xF8 AND SHR NOT AND DUP2 SSTORE JUMPDEST POP POP POP POP POP PUSH1 0x1 SWAP1 DUP2 SHL ADD SWAP1 SSTORE POP JUMP JUMPDEST PUSH1 0x0 DUP2 SLOAD PUSH2 0x1319 DUP2 PUSH2 0x112E JUMP JUMPDEST DUP1 DUP6 MSTORE PUSH1 0x20 PUSH1 0x1 DUP4 DUP2 AND DUP1 ISZERO PUSH2 0x1336 JUMPI PUSH1 0x1 DUP2 EQ PUSH2 0x1350 JUMPI PUSH2 0x137E JUMP JUMPDEST PUSH1 0xFF NOT DUP6 AND DUP9 DUP5 ADD MSTORE DUP4 ISZERO ISZERO PUSH1 0x5 SHL DUP9 ADD DUP4 ADD SWAP6 POP PUSH2 0x137E JUMP JUMPDEST DUP7 PUSH1 0x0 MSTORE DUP3 PUSH1 0x0 KECCAK256 PUSH1 0x0 JUMPDEST DUP6 DUP2 LT ISZERO PUSH2 0x1376 JUMPI DUP2 SLOAD DUP11 DUP3 ADD DUP7 ADD MSTORE SWAP1 DUP4 ADD SWAP1 DUP5 ADD PUSH2 0x135B JUMP JUMPDEST DUP10 ADD DUP5 ADD SWAP7 POP POP JUMPDEST POP POP POP POP POP SWAP3 SWAP2 POP POP JUMP JUMPDEST PUSH1 0x60 DUP2 MSTORE PUSH1 0x0 PUSH2 0x139C PUSH1 0x60 DUP4 ADD DUP7 PUSH2 0x130C JUMP JUMPDEST DUP3 DUP2 SUB PUSH1 0x20 DUP5 ADD MSTORE PUSH2 0x13AE DUP2 DUP7 PUSH2 0x130C JUMP JUMPDEST SWAP1 POP DUP3 DUP2 SUB PUSH1 0x40 DUP5 ADD MSTORE PUSH2 0x13C2 DUP2 DUP6 PUSH2 0x130C JUMP JUMPDEST SWAP7 SWAP6 POP POP POP POP POP POP JUMP JUMPDEST PUSH4 0x4E487B71 PUSH1 0xE0 SHL PUSH1 0x0 MSTORE PUSH1 0x21 PUSH1 0x4 MSTORE PUSH1 0x24 PUSH1 0x0 REVERT JUMPDEST PUSH4 0x4E487B71 PUSH1 0xE0 SHL PUSH1 0x0 MSTORE PUSH1 0x32 PUSH1 0x4 MSTORE PUSH1 0x24 PUSH1 0x0 REVERT JUMPDEST PUSH4 0x4E487B71 PUSH1 0xE0 SHL PUSH1 0x0 MSTORE PUSH1 0x11 PUSH1 0x4 MSTORE PUSH1 0x24 PUSH1 0x0 REVERT JUMPDEST PUSH1 0x0 PUSH1 0x1 DUP3 ADD PUSH2 0x1420 JUMPI PUSH2 0x1420 PUSH2 0x13F8 JUMP JUMPDEST POP PUSH1 0x1 ADD SWAP1 JUMP JUMPDEST PUSH1 0x1 PUSH1 0x1 PUSH1 0x40 SHL SUB DUP7 AND DUP2 MSTORE PUSH1 0xA0 PUSH1 0x20 DUP3 ADD MSTORE PUSH1 0x0 PUSH2 0x1449 PUSH1 0xA0 DUP4 ADD DUP8 PUSH2 0x101E JUMP JUMPDEST PUSH2 0xFFFF SWAP6 SWAP1 SWAP6 AND PUSH1 0x40 DUP4 ADD MSTORE POP PUSH4 0xFFFFFFFF SWAP3 SWAP1 SWAP3 AND PUSH1 0x60 DUP4 ADD MSTORE PUSH1 0x80 SWAP1 SWAP2 ADD MSTORE SWAP3 SWAP2 POP POP JUMP JUMPDEST PUSH1 0x0 PUSH1 0x20 DUP3 DUP5 SUB SLT ISZERO PUSH2 0x1482 JUMPI PUSH1 0x0 DUP1 REVERT JUMPDEST POP MLOAD SWAP2 SWAP1 POP JUMP JUMPDEST DUP1 DUP3 ADD DUP1 DUP3 GT ISZERO PUSH2 0xB86 JUMPI PUSH2 0xB86 PUSH2 0x13F8 JUMP JUMPDEST DUP2 DUP2 SUB DUP2 DUP2 GT ISZERO PUSH2 0xB86 JUMPI PUSH2 0xB86 PUSH2 0x13F8 JUMP JUMPDEST PUSH1 0x0 DUP3 PUSH2 0x14CC JUMPI PUSH4 0x4E487B71 PUSH1 0xE0 SHL PUSH1 0x0 MSTORE PUSH1 0x12 PUSH1 0x4 MSTORE PUSH1 0x24 PUSH1 0x0 REVERT JUMPDEST POP MOD SWAP1 JUMP JUMPDEST DUP1 DUP3 MUL DUP2 ISZERO DUP3 DUP3 DIV DUP5 EQ OR PUSH2 0xB86 JUMPI PUSH2 0xB86 PUSH2 0x13F8 JUMP JUMPDEST PUSH1 0x1 DUP2 DUP2 JUMPDEST DUP1 DUP6 GT ISZERO PUSH2 0x1523 JUMPI DUP2 PUSH1 0x0 NOT DIV DUP3 GT ISZERO PUSH2 0x1509 JUMPI PUSH2 0x1509 PUSH2 0x13F8 JUMP JUMPDEST DUP1 DUP6 AND ISZERO PUSH2 0x1516 JUMPI SWAP2 DUP2 MUL SWAP2 JUMPDEST SWAP4 DUP5 SHR SWAP4 SWAP1 DUP1 MUL SWAP1 PUSH2 0x14ED JUMP JUMPDEST POP SWAP3 POP SWAP3 SWAP1 POP JUMP JUMPDEST PUSH1 0x0 DUP3 PUSH2 0x153A JUMPI POP PUSH1 0x1 PUSH2 0xB86 JUMP JUMPDEST DUP2 PUSH2 0x1547 JUMPI POP PUSH1 0x0 PUSH2 0xB86 JUMP JUMPDEST DUP2 PUSH1 0x1 DUP2 EQ PUSH2 0x155D JUMPI PUSH1 0x2 DUP2 EQ PUSH2 0x1567 JUMPI PUSH2 0x1583 JUMP JUMPDEST PUSH1 0x1 SWAP2 POP POP PUSH2 0xB86 JUMP JUMPDEST PUSH1 0xFF DUP5 GT ISZERO PUSH2 0x1578 JUMPI PUSH2 0x1578 PUSH2 0x13F8 JUMP JUMPDEST POP POP PUSH1 0x1 DUP3 SHL PUSH2 0xB86 JUMP JUMPDEST POP PUSH1 0x20 DUP4 LT PUSH2 0x133 DUP4 LT AND PUSH1 0x4E DUP5 LT PUSH1 0xB DUP5 LT AND OR ISZERO PUSH2 0x15A6 JUMPI POP DUP2 DUP2 EXP PUSH2 0xB86 JUMP JUMPDEST PUSH2 0x15B0 DUP4 DUP4 PUSH2 0x14E8 JUMP JUMPDEST DUP1 PUSH1 0x0 NOT DIV DUP3 GT ISZERO PUSH2 0x15C4 JUMPI PUSH2 0x15C4 PUSH2 0x13F8 JUMP JUMPDEST MUL SWAP4 SWAP3 POP POP POP JUMP JUMPDEST PUSH1 0x0 PUSH2 0xCCC DUP4 DUP4 PUSH2 0x152B JUMP INVALID LOG2 PUSH5 0x6970667358 0x22 SLT KECCAK256 SWAP4 GASLIMIT 0xD7 PUSH31 0xE09056D1FD55EB56E213ACE3A4DA00421AFC26642D95E3A2E579FFEC64736F PUSH13 0x63430008130033000000000000 "
	},
	"Assembly": ".code\n  PUSH 5\t\t\taddress router = 0xb83E47C2bC2...\n  DUP1 \t\t\taddress router = 0xb83E47C2bC2...\n  SLOAD \t\t\taddress router = 0xb83E47C2bC2...\n  PUSH 1\t\t\t\n  PUSH 1\t\t\t\n  PUSH A0\t\t\t\n  SHL \t\t\t\n  SUB \t\t\t\n  NOT \t\t\t\n  AND \t\t\taddress router = 0xb83E47C2bC2...\n  PUSH B83E47C2BC239B3BF370BC41E1459A34B41238D0\t\t\t0xb83E47C2bC239B3bf370bc41e145...\n  OR \t\t\taddress router = 0xb83E47C2bC2...\n  SWAP1 \t\t\taddress router = 0xb83E47C2bC2...\n  SSTORE \t\t\taddress router = 0xb83E47C2bC2...\n  PUSH 1E0\t\t\tstring source =\\n        \"cons...\n  PUSH 40\t\t\tcontract GettingStartedFunctio...\n  MSTORE \t\t\tstring source =\\n        \"cons...\n  PUSH 105\t\t\tstring source =\\n        \"cons...\n  PUSH A0\t\t\tcontract GettingStartedFunctio...\n  DUP2 \t\t\tstring source =\\n        \"cons...\n  DUP2 \t\t\tstring source =\\n        \"cons...\n  MSTORE \t\t\tstring source =\\n        \"cons...\n  SWAP1 \t\t\tcontract GettingStartedFunctio...\n  PUSH data E906A9EEB8903C8E2803AE52B2873B43408469AFA2505733A0EF2C18A80A2441\t\t\tstring source =\\n        \"cons...\n  PUSH C0\t\t\tstring source =\\n        \"cons...\n  CODECOPY \t\t\tstring source =\\n        \"cons...\n  PUSH 6\t\t\tstring source =\\n        \"cons...\n  SWAP1 \t\t\tstring source =\\n        \"cons...\n  PUSH [tag] 1\t\t\tstring source =\\n        \"cons...\n  SWAP1 \t\t\tstring source =\\n        \"cons...\n  DUP3 \t\t\tstring source =\\n        \"cons...\n  PUSH [tag] 2\t\t\tstring source =\\n        \"cons...\n  JUMP \t\t\tstring source =\\n        \"cons...\ntag 1\t\t\tstring source =\\n        \"cons...\n  JUMPDEST \t\t\tstring source =\\n        \"cons...\n  POP \t\t\t\n  PUSH 7\t\t\tuint32 gasLimit = 300000\n  DUP1 \t\t\tuint32 gasLimit = 300000\n  SLOAD \t\t\tuint32 gasLimit = 300000\n  PUSH FFFFFFFF\t\t\t\n  NOT \t\t\t\n  AND \t\t\tuint32 gasLimit = 300000\n  PUSH 493E0\t\t\t300000\n  OR \t\t\tuint32 gasLimit = 300000\n  SWAP1 \t\t\tuint32 gasLimit = 300000\n  SSTORE \t\t\tuint32 gasLimit = 300000\n  PUSH 66756E2D657468657265756D2D7365706F6C69612D3100000000000000000000\t\t\t0x66756e2d657468657265756d2d73...\n  PUSH 8\t\t\tbytes32 donID =\\n        0x667...\n  SSTORE \t\t\tbytes32 donID =\\n        0x667...\n  CALLVALUE \t\t\tconstructor() FunctionsClient(...\n  DUP1 \t\t\tconstructor() FunctionsClient(...\n  ISZERO \t\t\tconstructor() FunctionsClient(...\n  PUSH [tag] 3\t\t\tconstructor() FunctionsClient(...\n  JUMPI \t\t\tconstructor() FunctionsClient(...\n  PUSH 0\t\t\tconstructor() FunctionsClient(...\n  DUP1 \t\t\tconstructor() FunctionsClient(...\n  REVERT \t\t\tconstructor() FunctionsClient(...\ntag 3\t\t\tconstructor() FunctionsClient(...\n  JUMPDEST \t\t\tconstructor() FunctionsClient(...\n  POP \t\t\t\n  PUSH 5\t\t\trouter\n  SLOAD \t\t\trouter\n  PUSH 1\t\t\t\n  PUSH 1\t\t\t\n  PUSH A0\t\t\t\n  SHL \t\t\t\n  SUB \t\t\t\n  AND \t\t\trouter\n  PUSH 80\t\t\tnk\\n * @dev This contract uses...\n  MSTORE \t\t\tnk\\n * @dev This contract uses...\n  CALLER \t\t\tmsg.sender\n  DUP1 \t\t\tmsg.sender\n  PUSH 0\t\t\ts\n  DUP2 \t\t\tmsg.sender\n  PUSH [tag] 10\t\t\tntracts/\\n */\\n\\n/**\\n * @titl...\n  JUMPI \t\t\tntracts/\\n */\\n\\n/**\\n * @titl...\n  PUSH 40\t\t\tntracts/\\n */\\n\\n/**\\n * @titl...\n  MLOAD \t\t\tntracts/\\n */\\n\\n/**\\n * @titl...\n  PUSH 461BCD\t\t\t\n  PUSH E5\t\t\t\n  SHL \t\t\t\n  DUP2 \t\t\tntracts/\\n */\\n\\n/**\\n * @titl...\n  MSTORE \t\t\tntracts/\\n */\\n\\n/**\\n * @titl...\n  PUSH 20\t\t\tqu\n  PUSH 4\t\t\tntracts/\\n */\\n\\n/**\\n * @titl...\n  DUP3 \t\t\tntracts/\\n */\\n\\n/**\\n * @titl...\n  ADD \t\t\tntracts/\\n */\\n\\n/**\\n * @titl...\n  MSTORE \t\t\t\\n     * @return reque\n  PUSH 18\t\t\t  \n  PUSH 24\t\t\the request\\n     */\n  DUP3 \t\t\the request\\n     */\n  ADD \t\t\the request\\n     */\n  MSTORE \t\t\tID of the request\\n     */\\n  ...\n  PUSH 43616E6E6F7420736574206F776E657220746F207A65726F0000000000000000\t\t\t subscriptionId,\\n        s\n  PUSH 44\t\t\tuest(\\n        uint\n  DUP3 \t\t\tuest(\\n        uint\n  ADD \t\t\tuest(\\n        uint\n  MSTORE \t\t\tsendRequest(\\n        uint64 s...\n  PUSH 64\t\t\trgs\\n    ) external\n  ADD \t\t\trgs\\n    ) external\ntag 11\t\t\tntracts/\\n */\\n\\n/**\\n * @titl...\n  JUMPDEST \t\t\tntracts/\\n */\\n\\n/**\\n * @titl...\n  PUSH 40\t\t\tntracts/\\n */\\n\\n/**\\n * @titl...\n  MLOAD \t\t\tntracts/\\n */\\n\\n/**\\n * @titl...\n  DUP1 \t\t\tntracts/\\n */\\n\\n/**\\n * @titl...\n  SWAP2 \t\t\tntracts/\\n */\\n\\n/**\\n * @titl...\n  SUB \t\t\tntracts/\\n */\\n\\n/**\\n * @titl...\n  SWAP1 \t\t\tntracts/\\n */\\n\\n/**\\n * @titl...\n  REVERT \t\t\tntracts/\\n */\\n\\n/**\\n * @titl...\ntag 10\t\t\tntracts/\\n */\\n\\n/**\\n * @titl...\n  JUMPDEST \t\t\tntracts/\\n */\\n\\n/**\\n * @titl...\n  PUSH 0\t\t\ttice Th\n  DUP1 \t\t\ttice This is an ex\n  SLOAD \t\t\ttice This is an ex\n  PUSH 1\t\t\t\n  PUSH 1\t\t\t\n  PUSH A0\t\t\t\n  SHL \t\t\t\n  SUB \t\t\t\n  NOT \t\t\t\n  AND \t\t\ttice This is an ex\n  PUSH 1\t\t\t\n  PUSH 1\t\t\t\n  PUSH A0\t\t\t\n  SHL \t\t\t\n  SUB \t\t\t\n  DUP5 \t\t\ttice This is an ex\n  DUP2 \t\t\ttice This is an ex\n  AND \t\t\ttice This is an ex\n  SWAP2 \t\t\ttice This is an ex\n  SWAP1 \t\t\ttice This is an ex\n  SWAP2 \t\t\ttice This is an ex\n  OR \t\t\ttice This is an ex\n  SWAP1 \t\t\ttice This is an ex\n  SWAP2 \t\t\ttice This is an ex\n  SSTORE \t\t\ttice This is an ex\n  DUP2 \t\t\tract to show how to make H\n  AND \t\t\tract to show how to make H\n  ISZERO \t\t\tract to show how to make H\n  PUSH [tag] 14\t\t\tcontract to show how to make H...\n  JUMPI \t\t\tcontract to show how to make H...\n  PUSH [tag] 14\t\t\tts using Chainlink\\n * @dev Th...\n  DUP2 \t\t\t * @dev This\n  PUSH [tag] 15\t\t\tts using Chainlink\n  JUMP \t\t\tts using Chainlink\\n * @dev Th...\ntag 14\t\t\tts using Chainlink\\n * @dev Th...\n  JUMPDEST \t\t\tts using Chainlink\\n * @dev Th...\n  POP \t\t\tToken Contracts and get the la...\n  POP \t\t\tToken Contracts and get the la...\n  POP \t\t\thainlink/contracts@1.1.1/src/v...\n  PUSH [tag] 28\t\t\tcontract GettingStartedFunctio...\n  JUMP \t\t\tcontract GettingStartedFunctio...\ntag 15\t\t\t-networks\\n    address router ...\n  JUMPDEST \t\t\t-networks\\n    address router ...\n  CALLER \t\t\tcharacter \n  PUSH 1\t\t\t\n  PUSH 1\t\t\t\n  PUSH A0\t\t\t\n  SHL \t\t\t\n  SUB \t\t\t\n  DUP3 \t\t\tFetch character \n  AND \t\t\tFetch character \n  SUB \t\t\tFetch character \n  PUSH [tag] 20\t\t\t\\n    // Fetch character name ...\n  JUMPI \t\t\t\\n    // Fetch character name ...\n  PUSH 40\t\t\t\\n    // Fetch character name ...\n  MLOAD \t\t\t\\n    // Fetch character name ...\n  PUSH 461BCD\t\t\t\n  PUSH E5\t\t\t\n  SHL \t\t\t\n  DUP2 \t\t\t\\n    // Fetch character name ...\n  MSTORE \t\t\t\\n    // Fetch character name ...\n  PUSH 20\t\t\teq\n  PUSH 4\t\t\t\\n    // Fetch character name ...\n  DUP3 \t\t\t\\n    // Fetch character name ...\n  ADD \t\t\t\\n    // Fetch character name ...\n  MSTORE \t\t\targs.length > 0) req.\n  PUSH 17\t\t\tfo\n  PUSH 24\t\t\t/ Set the argument\n  DUP3 \t\t\t/ Set the argument\n  ADD \t\t\t/ Set the argument\n  MSTORE \t\t\trgs); // Set the arguments for\n  PUSH 43616E6E6F74207472616E7366657220746F2073656C66000000000000000000\t\t\tquest and store the reque\n  PUSH 44\t\t\t      // Send the \n  DUP3 \t\t\t      // Send the \n  ADD \t\t\t      // Send the \n  MSTORE \t\t\test\\n\\n        // Send the req...\n  PUSH 64\t\t\tstRequestId = _sen\n  ADD \t\t\tstRequestId = _sen\n  PUSH [tag] 11\t\t\t\\n    // Fetch character name ...\n  JUMP \t\t\treturns (bytes32 requestId) {\\...\ntag 20\t\t\t\\n    // Fetch character name ...\n  JUMPDEST \t\t\t\\n    // Fetch character name ...\n  PUSH 1\t\t\t Documentation\n  DUP1 \t\t\t Documentation: htt\n  SLOAD \t\t\t Documentation: htt\n  PUSH 1\t\t\t\n  PUSH 1\t\t\t\n  PUSH A0\t\t\t\n  SHL \t\t\t\n  SUB \t\t\t\n  NOT \t\t\t\n  AND \t\t\t Documentation: htt\n  PUSH 1\t\t\t\n  PUSH 1\t\t\t\n  PUSH A0\t\t\t\n  SHL \t\t\t\n  SUB \t\t\t\n  DUP4 \t\t\t Documentation: htt\n  DUP2 \t\t\t Documentation: htt\n  AND \t\t\t Documentation: htt\n  SWAP2 \t\t\t Documentation: htt\n  DUP3 \t\t\t Documentation: htt\n  OR \t\t\t Documentation: htt\n  SWAP1 \t\t\t Documentation: htt\n  SWAP3 \t\t\t Documentation: htt\n  SSTORE \t\t\t Documentation: htt\n  PUSH 0\t\t\t\n  DUP1 \t\t\te =\\n   \n  SLOAD \t\t\te =\\n   \n  PUSH 40\t\t\tnfo/people\\n    string source ...\n  MLOAD \t\t\tnfo/people\\n    string source ...\n  SWAP3 \t\t\t Documentation: htt\n  SWAP4 \t\t\t Documentation: htt\n  AND \t\t\te =\\n   \n  SWAP2 \t\t\te =\\n   \n  PUSH ED8889F560326EB138920D842192F0EB3DD22B4F139C87A2C57538E05BAE1278\t\t\tnfo/people\\n    string source ...\n  SWAP2 \t\t\tnfo/people\\n    string source ...\n  SWAP1 \t\t\t\n  LOG3 \t\t\tnfo/people\\n    string source ...\n  POP \t\t\t-networks\\n    address router ...\n  JUMP \t\t\t-networks\\n    address router ...\ntag 23\t\t\te-Identifier: MIT\\npragma soli...\n  JUMPDEST \t\t\te-Identifier: MIT\\npragma soli...\n  PUSH 4E487B71\t\t\tlient} fro\n  PUSH E0\t\t\tion\n  SHL \t\t\tunctionsClient} from\n  PUSH 0\t\t\t \n  MSTORE \t\t\t\\nimport {FunctionsClient} fro...\n  PUSH 41\t\t\tts@1\n  PUSH 4\t\t\tr\n  MSTORE \t\t\tnk/contracts@1.\n  PUSH 24\t\t\tons/\n  PUSH 0\t\t\tc\n  REVERT \t\t\t0.8/functions/v\ntag 24\t\t\tionsClient.sol\";\\nimport {Conf...\n  JUMPDEST \t\t\tionsClient.sol\";\\nimport {Conf...\n  PUSH 1\t\t\t0\n  DUP2 \t\t\trc/v0.8/shar\n  DUP2 \t\t\trc/v0.8/shar\n  SHR \t\t\trc/v0.8/shar\n  SWAP1 \t\t\trc/v0.8/shar\n  DUP3 \t\t\trt {Function\n  AND \t\t\trt {Function\n  DUP1 \t\t\trt {Function\n  PUSH [tag] 31\t\t\t from \"@chainlink/contracts@1....\n  JUMPI \t\t\t from \"@chainlink/contracts@1....\n  PUSH 7F\t\t\t1_0_\n  DUP3 \t\t\tctions\n  AND \t\t\t/functions/v1_0_0\n  SWAP2 \t\t\t1/src/v0.8/functions/v1_0_0\n  POP \t\t\t1/src/v0.8/functions/v1_0_0\ntag 31\t\t\t from \"@chainlink/contracts@1....\n  JUMPDEST \t\t\t from \"@chainlink/contracts@1....\n  PUSH 20\t\t\tt \n  DUP3 \t\t\t* Requ\n  LT \t\t\t*\\n * Request t\n  DUP2 \t\t\tonsRequest.sol\";\\n\\n\n  SUB \t\t\tctionsRequest.sol\";\\n\\n/**\\n *...\n  PUSH [tag] 32\t\t\tFunctionsRequest.sol\";\\n\\n/**\\...\n  JUMPI \t\t\tFunctionsRequest.sol\";\\n\\n/**\\...\n  PUSH 4E487B71\t\t\thain.link/\n  PUSH E0\t\t\tets\n  SHL \t\t\tfaucets.chain.link/\\n\n  PUSH 0\t\t\t:\n  MSTORE \t\t\t: https://faucets.chain.link/\\...\n  PUSH 22\t\t\tINK \n  PUSH 4\t\t\tn\n  MSTORE \t\t\tation on LINK T\n  PUSH 24\t\t\tthe \n  PUSH 0\t\t\te\n  REVERT \t\t\ts and get the l\ntag 32\t\t\tFunctionsRequest.sol\";\\n\\n/**\\...\n  JUMPDEST \t\t\tFunctionsRequest.sol\";\\n\\n/**\\...\n  POP \t\t\tFunctionsRequest.sol\";\\n\\n/**\\...\n  SWAP2 \t\t\tionsClient.sol\";\\nimport {Conf...\n  SWAP1 \t\t\tionsClient.sol\";\\nimport {Conf...\n  POP \t\t\tionsClient.sol\";\\nimport {Conf...\n  JUMP \t\t\tionsClient.sol\";\\nimport {Conf...\ntag 26\t\t\tice This is an example contrac...\n  JUMPDEST \t\t\tice This is an example contrac...\n  PUSH 1F\t\t\tt \n  DUP3 \t\t\tntr\n  GT \t\t\t contract u\n  ISZERO \t\t\this contract uses hardcoded va...\n  PUSH [tag] 35\t\t\this contract uses hardcoded va...\n  JUMPI \t\t\this contract uses hardcoded va...\n  PUSH 0\t\t\to\n  DUP2 \t\t\t\\n */\\n\n  DUP2 \t\t\tio\n  MSTORE \t\t\tproduction.\\n */\\nc\n  PUSH 20\t\t\t is \n  DUP2 \t\t\tum\n  KECCAK256 \t\t\tctionsConsumer is F\n  PUSH 1F\t\t\tun\n  DUP6 \t\t\tequest for\n  ADD \t\t\tonsRequest for Func\n  PUSH 5\t\t\tc\n  SHR \t\t\t FunctionsRequest for Funct\n  DUP2 \t\t\t usi\n  ADD \t\t\t\\n    using FunctionsRequest f...\n  PUSH 20\t\t\tte v\n  DUP7 \t\t\t\\n\\n    // S\n  LT \t\t\tst;\\n\\n    // State va\n  ISZERO \t\t\tquest;\\n\\n    // State variabl...\n  PUSH [tag] 36\t\t\tquest;\\n\\n    // State variabl...\n  JUMPI \t\t\tquest;\\n\\n    // State variabl...\n  POP \t\t\t\n  DUP1 \t\t\the l\ntag 36\t\t\tquest;\\n\\n    // State variabl...\n  JUMPDEST \t\t\tquest;\\n\\n    // State variabl...\n  PUSH 1F\t\t\tli\n  DUP6 \t\t\t2 p\n  ADD \t\t\ttes32 public\n  PUSH 5\t\t\t \n  SHR \t\t\t\\n    bytes32 public \n  DUP3 \t\t\t err\n  ADD \t\t\t and error\\n    bytes32 public...\n  SWAP2 \t\t\t response, and error\\n    byte...\n  POP \t\t\t response, and error\\n    byte...\ntag 37\t\t\t   bytes public s_lastError;\\n...\n  JUMPDEST \t\t\t   bytes public s_lastError;\\n...\n  DUP2 \t\t\tla\n  DUP2 \t\t\tblic \n  LT \t\t\t public s_las\n  ISZERO \t\t\t   bytes public s_lastError;\\n...\n  PUSH [tag] 39\t\t\t   bytes public s_lastError;\\n...\n  JUMPI \t\t\t   bytes public s_lastError;\\n...\n  DUP3 \t\t\tr UnexpectedReque\n  DUP2 \t\t\tr UnexpectedReque\n  SSTORE \t\t\tr UnexpectedReque\n  PUSH 1\t\t\te\n  ADD \t\t\t // Custom er\n  PUSH [tag] 37\t\t\t   bytes public s_lastError;\\n...\n  JUMP \t\t\t   bytes public s_lastError;\\n...\ntag 39\t\t\t   bytes public s_lastError;\\n...\n  JUMPDEST \t\t\t   bytes public s_lastError;\\n...\n  POP \t\t\tyte\n  POP \t\t\tyte\n  POP \t\t\tyte\ntag 35\t\t\this contract uses hardcoded va...\n  JUMPDEST \t\t\this contract uses hardcoded va...\n  POP \t\t\tice This is an example contrac...\n  POP \t\t\tice This is an example contrac...\n  POP \t\t\tice This is an example contrac...\n  JUMP \t\t\tice This is an example contrac...\ntag 2\t\t\tRouter address - Hardcoded for...\n  JUMPDEST \t\t\tRouter address - Hardcoded for...\n  DUP2 \t\t\tain.link/c\n  MLOAD \t\t\tain.link/c\n  PUSH 1\t\t\t\n  PUSH 1\t\t\t\n  PUSH 40\t\t\t\n  SHL \t\t\t\n  SUB \t\t\t\n  DUP2 \t\t\tctions/supported-networks\\n   ...\n  GT \t\t\tctions/supported-networks\\n   ...\n  ISZERO \t\t\tfunctions/supported-networks\\n...\n  PUSH [tag] 43\t\t\tfunctions/supported-networks\\n...\n  JUMPI \t\t\tfunctions/supported-networks\\n...\n  PUSH [tag] 43\t\t\tress router = 0xb8\n  PUSH [tag] 23\t\t\tress router = 0xb8\n  JUMP \t\t\tress router = 0xb8\ntag 43\t\t\tress router = 0xb8\n  JUMPDEST \t\t\tress router = 0xb8\n  PUSH [tag] 44\t\t\tB3bf370bc41e1459A34b41238D0;\\n...\n  DUP2 \t\t\tom the\n  PUSH [tag] 45\t\t\turce code\\n    // Fetch charac...\n  DUP5 \t\t\t nam\n  SLOAD \t\t\tracter name\n  PUSH [tag] 24\t\t\turce code\\n    // Fetch charac...\n  JUMP \t\t\turce code\\n    // Fetch charac...\ntag 45\t\t\turce code\\n    // Fetch charac...\n  JUMPDEST \t\t\turce code\\n    // Fetch charac...\n  DUP5 \t\t\tipt \n  PUSH [tag] 26\t\t\tB3bf370bc41e1459A34b41238D0;\\n...\n  JUMP \t\t\tB3bf370bc41e1459A34b41238D0;\\n...\ntag 44\t\t\tB3bf370bc41e1459A34b41238D0;\\n...\n  JUMPDEST \t\t\tB3bf370bc41e1459A34b41238D0;\\n...\n  PUSH 20\t\t\t/peo\n  DUP1 \t\t\t/peo\n  PUSH 1F\t\t\t;\"\n  DUP4 \t\t\td = args[0];\"\\n\n  GT \t\t\td = args[0];\"\\n\n  PUSH 1\t\t\t \n  DUP2 \t\t\tconst apiResponse = await Func...\n  EQ \t\t\tconst apiResponse = await Func...\n  PUSH [tag] 47\t\t\tconst apiResponse = await Func...\n  JUMPI \t\t\tconst apiResponse = await Func...\n  PUSH 0\t\t\t \n  DUP5 \t\t\t/**\\n  \n  ISZERO \t\t\t   /**\\n     * @notice Initial...\n  PUSH [tag] 48\t\t\t   /**\\n     * @notice Initial...\n  JUMPI \t\t\t   /**\\n     * @notice Initial...\n  POP \t\t\t\n  DUP6 \t\t\t Chainlink router a\n  DUP4 \t\t\t Chainlink router a\n  ADD \t\t\t Chainlink router a\n  MLOAD \t\t\tth the Chainlink router ad\ntag 48\t\t\t   /**\\n     * @notice Initial...\n  JUMPDEST \t\t\t   /**\\n     * @notice Initial...\n  PUSH 0\t\t\t\n  NOT \t\t\t\n  PUSH 3\t\t\tr\n  DUP7 \t\t\ttes respons\n  SWAP1 \t\t\ttes respons\n  SHL \t\t\ttes respons\n  SHR \t\t\t  bytes response,\\n      \n  NOT \t\t\t      bytes response,\\n       \n  AND \t\t\tracter,\\n        bytes respons...\n  PUSH 1\t\t\te\n  DUP6 \t\t\ttes err\\n   \n  SWAP1 \t\t\ttes err\\n   \n  SHL \t\t\ttes err\\n   \n  OR \t\t\tcharacter,\\n        bytes resp...\n  DUP6 \t\t\t owner\\n     */\\n    construct...\n  SSTORE \t\t\t owner\\n     */\\n    construct...\n  PUSH [tag] 39\t\t\tracterId = args[0];\"\\n        ...\n  JUMP \t\t\tracterId = args[0];\"\\n        ...\ntag 47\t\t\tconst apiResponse = await Func...\n  JUMPDEST \t\t\tconst apiResponse = await Func...\n  PUSH 0\t\t\t/\n  DUP6 \t\t\t/\\n */\\n\\n/**\\n * \n  DUP2 \t\t\t/\\n */\\n\\n/**\\n * \n  MSTORE \t\t\t/\\n */\\n\\n/**\\n * \n  PUSH 20\t\t\tCons\n  DUP2 \t\t\trtedFunctionsConsu\n  KECCAK256 \t\t\trtedFunctionsConsu\n  PUSH 1F\t\t\t\n  NOT \t\t\t\n  DUP7 \t\t\tmakeHttpRequest({\"\\n \n  AND \t\t\tmakeHttpRequest({\"\\n \n  SWAP2 \t\t\tmakeHttpRequest({\"\\n \ntag 51\t\t\tse.error) {\"\\n        \"throw E...\n  JUMPDEST \t\t\tse.error) {\"\\n        \"throw E...\n  DUP3 \t\t\t       \n  DUP2 \t\t\t\"\n  LT \t\t\t) {\"\\n        \"\n  ISZERO \t\t\tse.error) {\"\\n        \"throw E...\n  PUSH [tag] 53\t\t\tse.error) {\"\\n        \"throw E...\n  JUMPI \t\t\tse.error) {\"\\n        \"throw E...\n  DUP9 \t\t\t;\"\\n        \"return \n  DUP7 \t\t\t;\"\\n        \"return \n  ADD \t\t\t;\"\\n        \"return \n  MLOAD \t\t\tsponse;\"\\n        \"return F\n  DUP3 \t\t\t data } = apiResponse;\"\\n     ...\n  SSTORE \t\t\t data } = apiResponse;\"\\n     ...\n  SWAP5 \t\t\t gasLimit = 300000;\\n\\n    //\n  DUP5 \t\t\t gasLimit = 300000;\\n\\n    //\n  ADD \t\t\t gasLimit = 300000;\\n\\n    //\n  SWAP5 \t\t\t gasLimit = 300000;\\n\\n    //\n  PUSH 1\t\t\t \n  SWAP1 \t\t\tame);\";\\n\\n    /\n  SWAP2 \t\t\tame);\";\\n\\n    /\n  ADD \t\t\tame);\";\\n\\n    /\n  SWAP1 \t\t\tame);\";\\n\\n    /\n  DUP5 \t\t\tror('Request failed\n  ADD \t\t\tror('Request failed\n  PUSH [tag] 51\t\t\tse.error) {\"\\n        \"throw E...\n  JUMP \t\t\tse.error) {\"\\n        \"throw E...\ntag 53\t\t\tse.error) {\"\\n        \"throw E...\n  JUMPDEST \t\t\tse.error) {\"\\n        \"throw E...\n  POP \t\t\trro\n  DUP6 \t\t\tk to g\n  DUP3 \t\t\t  // Ch\n  LT \t\t\t\\n    // Check to ge\n  ISZERO \t\t\tlia\\n    // Check to get the d...\n  PUSH [tag] 54\t\t\tlia\\n    // Check to get the d...\n  JUMPI \t\t\tlia\\n    // Check to get the d...\n  DUP8 \t\t\tain.link/chainlink-\n  DUP6 \t\t\tain.link/chainlink-\n  ADD \t\t\tain.link/chainlink-\n  MLOAD \t\t\tocs.chain.link/chainlink-f\n  PUSH 0\t\t\t\n  NOT \t\t\t\n  PUSH 3\t\t\te\n  DUP9 \t\t\t6756e2d6574686\n  SWAP1 \t\t\t6756e2d6574686\n  SHL \t\t\t6756e2d6574686\n  PUSH F8\t\t\t265\n  AND \t\t\t 0x66756e2d6574686572657\n  SHR \t\t\t     0x66756e2d657468657265756...\n  NOT \t\t\t\\n        0x66756e2d6574686572...\n  AND \t\t\tbytes32 donID =\\n        0x667...\n  DUP2 \t\t\td-networks\\n    bytes32 donID ...\n  SSTORE \t\t\td-networks\\n    bytes32 donID ...\ntag 54\t\t\tlia\\n    // Check to get the d...\n  JUMPDEST \t\t\tlia\\n    // Check to get the d...\n  POP \t\t\t\n  POP \t\t\t\n  POP \t\t\t\n  POP \t\t\t\n  POP \t\t\t\n  PUSH 1\t\t\tt\n  SWAP1 \t\t\tte variable to\n  DUP2 \t\t\tte variable to\n  SHL \t\t\tte variable to\n  ADD \t\t\t State variable to sto\n  SWAP1 \t\t\t0000;\\n\\n    // State variable...\n  SSTORE \t\t\t0000;\\n\\n    // State variable...\n  POP \t\t\t\n  JUMP \t\t\tRouter address - Hardcoded for...\ntag 28\t\t\treturns (bytes32 requestId) {\\...\n  JUMPDEST \t\t\treturns (bytes32 requestId) {\\...\n  PUSH 80\t\t\tcontract GettingStartedFunctio...\n  MLOAD \t\t\tcontract GettingStartedFunctio...\n  PUSH #[$] 0000000000000000000000000000000000000000000000000000000000000000\t\t\tcontract GettingStartedFunctio...\n  PUSH [$] 0000000000000000000000000000000000000000000000000000000000000000\t\t\tcontract GettingStartedFunctio...\n  PUSH 0\t\t\tcontract GettingStartedFunctio...\n  CODECOPY \t\t\tcontract GettingStartedFunctio...\n  PUSH 0\t\t\tcontract GettingStartedFunctio...\n  ASSIGNIMMUTABLE 17\t\t\tcontract GettingStartedFunctio...\n  PUSH #[$] 0000000000000000000000000000000000000000000000000000000000000000\t\t\tcontract GettingStartedFunctio...\n  PUSH 0\t\t\tcontract GettingStartedFunctio...\n  RETURN \t\t\tcontract GettingStartedFunctio...\n.data\n  0:\n    .code\n      PUSH 80\t\t\tcontract GettingStartedFunctio...\n      PUSH 40\t\t\tcontract GettingStartedFunctio...\n      MSTORE \t\t\tcontract GettingStartedFunctio...\n      CALLVALUE \t\t\tcontract GettingStartedFunctio...\n      DUP1 \t\t\tcontract GettingStartedFunctio...\n      ISZERO \t\t\tcontract GettingStartedFunctio...\n      PUSH [tag] 1\t\t\tcontract GettingStartedFunctio...\n      JUMPI \t\t\tcontract GettingStartedFunctio...\n      PUSH 0\t\t\tcontract GettingStartedFunctio...\n      DUP1 \t\t\tcontract GettingStartedFunctio...\n      REVERT \t\t\tcontract GettingStartedFunctio...\n    tag 1\t\t\tcontract GettingStartedFunctio...\n      JUMPDEST \t\t\tcontract GettingStartedFunctio...\n      POP \t\t\tcontract GettingStartedFunctio...\n      PUSH 4\t\t\tcontract GettingStartedFunctio...\n      CALLDATASIZE \t\t\tcontract GettingStartedFunctio...\n      LT \t\t\tcontract GettingStartedFunctio...\n      PUSH [tag] 2\t\t\tcontract GettingStartedFunctio...\n      JUMPI \t\t\tcontract GettingStartedFunctio...\n      PUSH 0\t\t\tcontract GettingStartedFunctio...\n      CALLDATALOAD \t\t\tcontract GettingStartedFunctio...\n      PUSH E0\t\t\tcontract GettingStartedFunctio...\n      SHR \t\t\tcontract GettingStartedFunctio...\n      DUP1 \t\t\tcontract GettingStartedFunctio...\n      PUSH 4D2E03A0\t\t\tcontract GettingStartedFunctio...\n      GT \t\t\tcontract GettingStartedFunctio...\n      PUSH [tag] 12\t\t\tcontract GettingStartedFunctio...\n      JUMPI \t\t\tcontract GettingStartedFunctio...\n      DUP1 \t\t\tcontract GettingStartedFunctio...\n      PUSH 4D2E03A0\t\t\tcontract GettingStartedFunctio...\n      EQ \t\t\tcontract GettingStartedFunctio...\n      PUSH [tag] 7\t\t\tcontract GettingStartedFunctio...\n      JUMPI \t\t\tcontract GettingStartedFunctio...\n      DUP1 \t\t\tcontract GettingStartedFunctio...\n      PUSH 79BA5097\t\t\tcontract GettingStartedFunctio...\n      EQ \t\t\tcontract GettingStartedFunctio...\n      PUSH [tag] 8\t\t\tcontract GettingStartedFunctio...\n      JUMPI \t\t\tcontract GettingStartedFunctio...\n      DUP1 \t\t\tcontract GettingStartedFunctio...\n      PUSH 8DA5CB5B\t\t\tcontract GettingStartedFunctio...\n      EQ \t\t\tcontract GettingStartedFunctio...\n      PUSH [tag] 9\t\t\tcontract GettingStartedFunctio...\n      JUMPI \t\t\tcontract GettingStartedFunctio...\n      DUP1 \t\t\tcontract GettingStartedFunctio...\n      PUSH B1E21749\t\t\tcontract GettingStartedFunctio...\n      EQ \t\t\tcontract GettingStartedFunctio...\n      PUSH [tag] 10\t\t\tcontract GettingStartedFunctio...\n      JUMPI \t\t\tcontract GettingStartedFunctio...\n      DUP1 \t\t\tcontract GettingStartedFunctio...\n      PUSH F2FDE38B\t\t\tcontract GettingStartedFunctio...\n      EQ \t\t\tcontract GettingStartedFunctio...\n      PUSH [tag] 11\t\t\tcontract GettingStartedFunctio...\n      JUMPI \t\t\tcontract GettingStartedFunctio...\n      PUSH 0\t\t\tcontract GettingStartedFunctio...\n      DUP1 \t\t\tcontract GettingStartedFunctio...\n      REVERT \t\t\tcontract GettingStartedFunctio...\n    tag 12\t\t\tcontract GettingStartedFunctio...\n      JUMPDEST \t\t\tcontract GettingStartedFunctio...\n      DUP1 \t\t\tcontract GettingStartedFunctio...\n      PUSH CA76175\t\t\tcontract GettingStartedFunctio...\n      EQ \t\t\tcontract GettingStartedFunctio...\n      PUSH [tag] 3\t\t\tcontract GettingStartedFunctio...\n      JUMPI \t\t\tcontract GettingStartedFunctio...\n      DUP1 \t\t\tcontract GettingStartedFunctio...\n      PUSH 3944EA3A\t\t\tcontract GettingStartedFunctio...\n      EQ \t\t\tcontract GettingStartedFunctio...\n      PUSH [tag] 4\t\t\tcontract GettingStartedFunctio...\n      JUMPI \t\t\tcontract GettingStartedFunctio...\n      DUP1 \t\t\tcontract GettingStartedFunctio...\n      PUSH 48A7D26D\t\t\tcontract GettingStartedFunctio...\n      EQ \t\t\tcontract GettingStartedFunctio...\n      PUSH [tag] 5\t\t\tcontract GettingStartedFunctio...\n      JUMPI \t\t\tcontract GettingStartedFunctio...\n      DUP1 \t\t\tcontract GettingStartedFunctio...\n      PUSH 4B0795A8\t\t\tcontract GettingStartedFunctio...\n      EQ \t\t\tcontract GettingStartedFunctio...\n      PUSH [tag] 6\t\t\tcontract GettingStartedFunctio...\n      JUMPI \t\t\tcontract GettingStartedFunctio...\n    tag 2\t\t\tcontract GettingStartedFunctio...\n      JUMPDEST \t\t\tcontract GettingStartedFunctio...\n      PUSH 0\t\t\tcontract GettingStartedFunctio...\n      DUP1 \t\t\tcontract GettingStartedFunctio...\n      REVERT \t\t\tcontract GettingStartedFunctio...\n    tag 3\t\t\t\"return Functions.encodeString...\n      JUMPDEST \t\t\t\"return Functions.encodeString...\n      PUSH [tag] 13\t\t\t\"return Functions.encodeString...\n      PUSH [tag] 14\t\t\t\"return Functions.encodeString...\n      CALLDATASIZE \t\t\t\"return Functions.encodeString...\n      PUSH 4\t\t\t\"return Functions.encodeString...\n      PUSH [tag] 15\t\t\t\"return Functions.encodeString...\n      JUMP \t\t\t\"return Functions.encodeString...\n    tag 14\t\t\t\"return Functions.encodeString...\n      JUMPDEST \t\t\t\"return Functions.encodeString...\n      PUSH [tag] 16\t\t\t\"return Functions.encodeString...\n      JUMP \t\t\t\"return Functions.encodeString...\n    tag 13\t\t\t\"return Functions.encodeString...\n      JUMPDEST \t\t\t\"return Functions.encodeString...\n      STOP \t\t\t\"return Functions.encodeString...\n    tag 4\t\t\tbytes public s_lastResponse\n      JUMPDEST \t\t\tbytes public s_lastResponse\n      PUSH [tag] 17\t\t\tbytes public s_lastResponse\n      PUSH [tag] 18\t\t\tbytes public s_lastResponse\n      JUMP \t\t\tbytes public s_lastResponse\n    tag 17\t\t\tbytes public s_lastResponse\n      JUMPDEST \t\t\tbytes public s_lastResponse\n      PUSH 40\t\t\tbytes public s_lastResponse\n      MLOAD \t\t\tbytes public s_lastResponse\n      PUSH [tag] 19\t\t\tbytes public s_lastResponse\n      SWAP2 \t\t\tbytes public s_lastResponse\n      SWAP1 \t\t\tbytes public s_lastResponse\n      PUSH [tag] 20\t\t\tbytes public s_lastResponse\n      JUMP \t\t\tbytes public s_lastResponse\n    tag 19\t\t\tbytes public s_lastResponse\n      JUMPDEST \t\t\tbytes public s_lastResponse\n      PUSH 40\t\t\tbytes public s_lastResponse\n      MLOAD \t\t\tbytes public s_lastResponse\n      DUP1 \t\t\tbytes public s_lastResponse\n      SWAP2 \t\t\tbytes public s_lastResponse\n      SUB \t\t\tbytes public s_lastResponse\n      SWAP1 \t\t\tbytes public s_lastResponse\n      RETURN \t\t\tbytes public s_lastResponse\n    tag 5\t\t\tfunction sendRequest(\\n       ...\n      JUMPDEST \t\t\tfunction sendRequest(\\n       ...\n      PUSH [tag] 21\t\t\tfunction sendRequest(\\n       ...\n      PUSH [tag] 22\t\t\tfunction sendRequest(\\n       ...\n      CALLDATASIZE \t\t\tfunction sendRequest(\\n       ...\n      PUSH 4\t\t\tfunction sendRequest(\\n       ...\n      PUSH [tag] 23\t\t\tfunction sendRequest(\\n       ...\n      JUMP \t\t\tfunction sendRequest(\\n       ...\n    tag 22\t\t\tfunction sendRequest(\\n       ...\n      JUMPDEST \t\t\tfunction sendRequest(\\n       ...\n      PUSH [tag] 24\t\t\tfunction sendRequest(\\n       ...\n      JUMP \t\t\tfunction sendRequest(\\n       ...\n    tag 21\t\t\tfunction sendRequest(\\n       ...\n      JUMPDEST \t\t\tfunction sendRequest(\\n       ...\n      PUSH 40\t\t\tfunction sendRequest(\\n       ...\n      MLOAD \t\t\tfunction sendRequest(\\n       ...\n      SWAP1 \t\t\tde\\n        if (args.lengt\n      DUP2 \t\t\tde\\n        if (args.lengt\n      MSTORE \t\t\tde\\n        if (args.lengt\n      PUSH 20\t\t\tt \n      ADD \t\t\tlize the request w\n      PUSH [tag] 19\t\t\tfunction sendRequest(\\n       ...\n      JUMP \t\t\ttId) {\\n        FunctionsReque...\n    tag 6\t\t\tbytes public s_lastError\n      JUMPDEST \t\t\tbytes public s_lastError\n      PUSH [tag] 17\t\t\tbytes public s_lastError\n      PUSH [tag] 28\t\t\tbytes public s_lastError\n      JUMP \t\t\tbytes public s_lastError\n    tag 7\t\t\tstring public character\n      JUMPDEST \t\t\tstring public character\n      PUSH [tag] 17\t\t\tstring public character\n      PUSH [tag] 31\t\t\tstring public character\n      JUMP \t\t\tstring public character\n    tag 8\t\t\td error\\n    bytes32 public s_...\n      JUMPDEST \t\t\td error\\n    bytes32 public s_...\n      PUSH [tag] 13\t\t\td error\\n    bytes32 public s_...\n      PUSH [tag] 35\t\t\td error\\n    bytes32 public s_...\n      JUMP \t\t\td error\\n    bytes32 public s_...\n    tag 9\t\t\ter address - Hardcoded for Sep...\n      JUMPDEST \t\t\ter address - Hardcoded for Sep...\n      PUSH 0\t\t\t to get\n      SLOAD \t\t\tress fo\n      PUSH 40\t\t\ter address - Hardcoded for Sep...\n      MLOAD \t\t\ter address - Hardcoded for Sep...\n      PUSH 1\t\t\t\n      PUSH 1\t\t\t\n      PUSH A0\t\t\t\n      SHL \t\t\t\n      SUB \t\t\t\n      SWAP1 \t\t\tress fo\n      SWAP2 \t\t\tress fo\n      AND \t\t\tress fo\n      DUP2 \t\t\taram requestId The ID of the r...\n      MSTORE \t\t\taram requestId The ID of the r...\n      PUSH 20\t\t\tst\n      ADD \t\t\tfilling a request\\n\n      PUSH [tag] 19\t\t\ter address - Hardcoded for Sep...\n      JUMP \t\t\t,\\n            donID\\n        ...\n    tag 10\t\t\tbytes32 public s_lastRequestId\n      JUMPDEST \t\t\tbytes32 public s_lastRequestId\n      PUSH [tag] 21\t\t\tbytes32 public s_lastRequestId\n      PUSH 2\t\t\tbytes32 public s_lastRequestId\n      SLOAD \t\t\tbytes32 public s_lastRequestId\n      DUP2 \t\t\tbytes32 public s_lastRequestId\n      JUMP \t\t\tbytes32 public s_lastRequestId\n    tag 11\t\t\tdFunctionsConsumer is Function...\n      JUMPDEST \t\t\tdFunctionsConsumer is Function...\n      PUSH [tag] 13\t\t\tdFunctionsConsumer is Function...\n      PUSH [tag] 44\t\t\tdFunctionsConsumer is Function...\n      CALLDATASIZE \t\t\tdFunctionsConsumer is Function...\n      PUSH 4\t\t\tdFunctionsConsumer is Function...\n      PUSH [tag] 45\t\t\tdFunctionsConsumer is Function...\n      JUMP \t\t\tdFunctionsConsumer is Function...\n    tag 44\t\t\tdFunctionsConsumer is Function...\n      JUMPDEST \t\t\tdFunctionsConsumer is Function...\n      PUSH [tag] 46\t\t\tdFunctionsConsumer is Function...\n      JUMP \t\t\tdFunctionsConsumer is Function...\n    tag 16\t\t\t\"return Functions.encodeString...\n      JUMPDEST \t\t\t\"return Functions.encodeString...\n      CALLER \t\t\tcoded for \n      PUSH 1\t\t\t\n      PUSH 1\t\t\t\n      PUSH A0\t\t\t\n      SHL \t\t\t\n      SUB \t\t\t\n      PUSHIMMUTABLE 17\t\t\t// Check\n      AND \t\t\tcoded for Sepolia\\n    // Chec...\n      EQ \t\t\tcoded for Sepolia\\n    // Chec...\n      PUSH [tag] 48\t\t\tHardcoded for Sepolia\\n    // ...\n      JUMPI \t\t\tHardcoded for Sepolia\\n    // ...\n      PUSH 40\t\t\tfor your supported net\n      MLOAD \t\t\tfor your supported net\n      PUSH C6829F83\t\t\t\n      PUSH E0\t\t\t\n      SHL \t\t\t\n      DUP2 \t\t\tfor your supported net\n      MSTORE \t\t\tfor your supported net\n      PUSH 4\t\t\tfor your supported net\n      ADD \t\t\tfor your supported net\n      PUSH 40\t\t\tfor your supported net\n      MLOAD \t\t\tfor your supported net\n      DUP1 \t\t\tfor your supported net\n      SWAP2 \t\t\tfor your supported net\n      SUB \t\t\tfor your supported net\n      SWAP1 \t\t\tfor your supported net\n      REVERT \t\t\tfor your supported net\n    tag 48\t\t\tHardcoded for Sepolia\\n    // ...\n      JUMPDEST \t\t\tHardcoded for Sepolia\\n    // ...\n      PUSH [tag] 49\t\t\t/docs.chain.link/chainlink-fun...\n      DUP4 \t\t\tk/chainli\n      DUP4 \t\t\t-functio\n      DUP4 \t\t\t/su\n      PUSH [tag] 50\t\t\t/docs.chain.li\n      JUMP \t\t\t/docs.chain.link/chainlink-fun...\n    tag 49\t\t\t/docs.chain.link/chainlink-fun...\n      JUMPDEST \t\t\t/docs.chain.link/chainlink-fun...\n      PUSH 40\t\t\torks\\n    bytes32 donID =\\n  \n      MLOAD \t\t\torks\\n    bytes32 donID =\\n  \n      DUP4 \t\t\tdonID =\\n \n      SWAP1 \t\t\tdonID =\\n \n      PUSH 85E1543BF2F84FE80C6BADBCE3648C8539AD1DF4D2B3D822938CA0538BE727E6\t\t\torks\\n    bytes32 donID =\\n  \n      SWAP1 \t\t\torks\\n    bytes32 donID =\\n  \n      PUSH 0\t\t\torks\\n    bytes32 donID =\\n  \n      SWAP1 \t\t\torks\\n    bytes32 donID =\\n  \n      LOG2 \t\t\torks\\n    bytes32 donID =\\n  \n      POP \t\t\t\"return Functions.encodeString...\n      POP \t\t\t\"return Functions.encodeString...\n      POP \t\t\t\"return Functions.encodeString...\n      JUMP \t\t\t\"return Functions.encodeString...\n    tag 18\t\t\tbytes public s_lastResponse\n      JUMPDEST \t\t\tbytes public s_lastResponse\n      PUSH 3\t\t\tbytes public s_lastResponse\n      DUP1 \t\t\tbytes public s_lastResponse\n      SLOAD \t\t\tbytes public s_lastResponse\n      PUSH [tag] 51\t\t\tbytes public s_lastResponse\n      SWAP1 \t\t\tbytes public s_lastResponse\n      PUSH [tag] 52\t\t\tbytes public s_lastResponse\n      JUMP \t\t\tbytes public s_lastResponse\n    tag 51\t\t\tbytes public s_lastResponse\n      JUMPDEST \t\t\tbytes public s_lastResponse\n      DUP1 \t\t\tbytes public s_lastResponse\n      PUSH 1F\t\t\tbytes public s_lastResponse\n      ADD \t\t\tbytes public s_lastResponse\n      PUSH 20\t\t\tbytes public s_lastResponse\n      DUP1 \t\t\tbytes public s_lastResponse\n      SWAP2 \t\t\tbytes public s_lastResponse\n      DIV \t\t\tbytes public s_lastResponse\n      MUL \t\t\tbytes public s_lastResponse\n      PUSH 20\t\t\tbytes public s_lastResponse\n      ADD \t\t\tbytes public s_lastResponse\n      PUSH 40\t\t\tbytes public s_lastResponse\n      MLOAD \t\t\tbytes public s_lastResponse\n      SWAP1 \t\t\tbytes public s_lastResponse\n      DUP2 \t\t\tbytes public s_lastResponse\n      ADD \t\t\tbytes public s_lastResponse\n      PUSH 40\t\t\tbytes public s_lastResponse\n      MSTORE \t\t\tbytes public s_lastResponse\n      DUP1 \t\t\tbytes public s_lastResponse\n      SWAP3 \t\t\tbytes public s_lastResponse\n      SWAP2 \t\t\tbytes public s_lastResponse\n      SWAP1 \t\t\tbytes public s_lastResponse\n      DUP2 \t\t\tbytes public s_lastResponse\n      DUP2 \t\t\tbytes public s_lastResponse\n      MSTORE \t\t\tbytes public s_lastResponse\n      PUSH 20\t\t\tbytes public s_lastResponse\n      ADD \t\t\tbytes public s_lastResponse\n      DUP3 \t\t\tbytes public s_lastResponse\n      DUP1 \t\t\tbytes public s_lastResponse\n      SLOAD \t\t\tbytes public s_lastResponse\n      PUSH [tag] 53\t\t\tbytes public s_lastResponse\n      SWAP1 \t\t\tbytes public s_lastResponse\n      PUSH [tag] 52\t\t\tbytes public s_lastResponse\n      JUMP \t\t\tbytes public s_lastResponse\n    tag 53\t\t\tbytes public s_lastResponse\n      JUMPDEST \t\t\tbytes public s_lastResponse\n      DUP1 \t\t\tbytes public s_lastResponse\n      ISZERO \t\t\tbytes public s_lastResponse\n      PUSH [tag] 54\t\t\tbytes public s_lastResponse\n      JUMPI \t\t\tbytes public s_lastResponse\n      DUP1 \t\t\tbytes public s_lastResponse\n      PUSH 1F\t\t\tbytes public s_lastResponse\n      LT \t\t\tbytes public s_lastResponse\n      PUSH [tag] 55\t\t\tbytes public s_lastResponse\n      JUMPI \t\t\tbytes public s_lastResponse\n      PUSH 100\t\t\tbytes public s_lastResponse\n      DUP1 \t\t\tbytes public s_lastResponse\n      DUP4 \t\t\tbytes public s_lastResponse\n      SLOAD \t\t\tbytes public s_lastResponse\n      DIV \t\t\tbytes public s_lastResponse\n      MUL \t\t\tbytes public s_lastResponse\n      DUP4 \t\t\tbytes public s_lastResponse\n      MSTORE \t\t\tbytes public s_lastResponse\n      SWAP2 \t\t\tbytes public s_lastResponse\n      PUSH 20\t\t\tbytes public s_lastResponse\n      ADD \t\t\tbytes public s_lastResponse\n      SWAP2 \t\t\tbytes public s_lastResponse\n      PUSH [tag] 54\t\t\tbytes public s_lastResponse\n      JUMP \t\t\tbytes public s_lastResponse\n    tag 55\t\t\tbytes public s_lastResponse\n      JUMPDEST \t\t\tbytes public s_lastResponse\n      DUP3 \t\t\tbytes public s_lastResponse\n      ADD \t\t\tbytes public s_lastResponse\n      SWAP2 \t\t\tbytes public s_lastResponse\n      SWAP1 \t\t\tbytes public s_lastResponse\n      PUSH 0\t\t\tbytes public s_lastResponse\n      MSTORE \t\t\tbytes public s_lastResponse\n      PUSH 20\t\t\tbytes public s_lastResponse\n      PUSH 0\t\t\tbytes public s_lastResponse\n      KECCAK256 \t\t\tbytes public s_lastResponse\n      SWAP1 \t\t\tbytes public s_lastResponse\n    tag 56\t\t\tbytes public s_lastResponse\n      JUMPDEST \t\t\tbytes public s_lastResponse\n      DUP2 \t\t\tbytes public s_lastResponse\n      SLOAD \t\t\tbytes public s_lastResponse\n      DUP2 \t\t\tbytes public s_lastResponse\n      MSTORE \t\t\tbytes public s_lastResponse\n      SWAP1 \t\t\tbytes public s_lastResponse\n      PUSH 1\t\t\tbytes public s_lastResponse\n      ADD \t\t\tbytes public s_lastResponse\n      SWAP1 \t\t\tbytes public s_lastResponse\n      PUSH 20\t\t\tbytes public s_lastResponse\n      ADD \t\t\tbytes public s_lastResponse\n      DUP1 \t\t\tbytes public s_lastResponse\n      DUP4 \t\t\tbytes public s_lastResponse\n      GT \t\t\tbytes public s_lastResponse\n      PUSH [tag] 56\t\t\tbytes public s_lastResponse\n      JUMPI \t\t\tbytes public s_lastResponse\n      DUP3 \t\t\tbytes public s_lastResponse\n      SWAP1 \t\t\tbytes public s_lastResponse\n      SUB \t\t\tbytes public s_lastResponse\n      PUSH 1F\t\t\tbytes public s_lastResponse\n      AND \t\t\tbytes public s_lastResponse\n      DUP3 \t\t\tbytes public s_lastResponse\n      ADD \t\t\tbytes public s_lastResponse\n      SWAP2 \t\t\tbytes public s_lastResponse\n    tag 54\t\t\tbytes public s_lastResponse\n      JUMPDEST \t\t\tbytes public s_lastResponse\n      POP \t\t\tbytes public s_lastResponse\n      POP \t\t\tbytes public s_lastResponse\n      POP \t\t\tbytes public s_lastResponse\n      POP \t\t\tbytes public s_lastResponse\n      POP \t\t\tbytes public s_lastResponse\n      DUP2 \t\t\tbytes public s_lastResponse\n      JUMP \t\t\tbytes public s_lastResponse\n    tag 24\t\t\tfunction sendRequest(\\n       ...\n      JUMPDEST \t\t\tfunction sendRequest(\\n       ...\n      PUSH 0\t\t\tbytes32 requestId\n      PUSH [tag] 58\t\t\t   \"return Functions\n      PUSH [tag] 59\t\t\t   \"return Functio\n      JUMP \t\t\t   \"return Functions\n    tag 58\t\t\t   \"return Functions\n      JUMPDEST \t\t\t   \"return Functions\n      PUSH [tag] 61\t\t\tFunctionsRequest.Request memor...\n      PUSH 40\t\t\t\n      DUP1 \t\t\t\n      MLOAD \t\t\t\n      PUSH E0\t\t\t\n      DUP2 \t\t\t\n      ADD \t\t\t\n      SWAP1 \t\t\t\n      SWAP2 \t\t\t\n      MSTORE \t\t\t\n      DUP1 \t\t\t\n      PUSH 0\t\t\t\n      DUP2 \t\t\t\n      MSTORE \t\t\t\n      PUSH 20\t\t\t\n      ADD \t\t\t\n      PUSH 0\t\t\t\n      DUP2 \t\t\t\n      MSTORE \t\t\t\n      PUSH 20\t\t\t\n      ADD \t\t\t\n      PUSH 0\t\t\t\n      DUP2 \t\t\t\n      MSTORE \t\t\t\n      PUSH 20\t\t\t\n      ADD \t\t\t\n      PUSH 60\t\t\t\n      DUP2 \t\t\t\n      MSTORE \t\t\t\n      PUSH 20\t\t\t\n      ADD \t\t\t\n      PUSH 60\t\t\t\n      DUP2 \t\t\t\n      MSTORE \t\t\t\n      PUSH 20\t\t\t\n      ADD \t\t\t\n      PUSH 60\t\t\t\n      DUP2 \t\t\t\n      MSTORE \t\t\t\n      PUSH 20\t\t\t\n      ADD \t\t\t\n      PUSH 60\t\t\t\n      DUP2 \t\t\t\n      MSTORE \t\t\t\n      POP \t\t\t\n      SWAP1 \t\t\t\n      JUMP \t\t\t\n    tag 61\t\t\tFunctionsRequest.Request memor...\n      JUMPDEST \t\t\tFunctionsRequest.Request memor...\n      PUSH [tag] 63\t\t\treq.initializeRequestForInline...\n      PUSH 6\t\t\tsource\n      DUP1 \t\t\treq.initializeRequestForInline...\n      SLOAD \t\t\treq.initializeRequestForInline...\n      PUSH [tag] 64\t\t\treq.initializeRequestForInline...\n      SWAP1 \t\t\treq.initializeRequestForInline...\n      PUSH [tag] 52\t\t\treq.initializeRequestForInline...\n      JUMP \t\t\treq.initializeRequestForInline...\n    tag 64\t\t\treq.initializeRequestForInline...\n      JUMPDEST \t\t\treq.initializeRequestForInline...\n      DUP1 \t\t\treq.initializeRequestForInline...\n      PUSH 1F\t\t\treq.initializeRequestForInline...\n      ADD \t\t\treq.initializeRequestForInline...\n      PUSH 20\t\t\treq.initializeRequestForInline...\n      DUP1 \t\t\treq.initializeRequestForInline...\n      SWAP2 \t\t\treq.initializeRequestForInline...\n      DIV \t\t\treq.initializeRequestForInline...\n      MUL \t\t\treq.initializeRequestForInline...\n      PUSH 20\t\t\treq.initializeRequestForInline...\n      ADD \t\t\treq.initializeRequestForInline...\n      PUSH 40\t\t\treq.initializeRequestForInline...\n      MLOAD \t\t\treq.initializeRequestForInline...\n      SWAP1 \t\t\treq.initializeRequestForInline...\n      DUP2 \t\t\treq.initializeRequestForInline...\n      ADD \t\t\treq.initializeRequestForInline...\n      PUSH 40\t\t\treq.initializeRequestForInline...\n      MSTORE \t\t\treq.initializeRequestForInline...\n      DUP1 \t\t\treq.initializeRequestForInline...\n      SWAP3 \t\t\treq.initializeRequestForInline...\n      SWAP2 \t\t\treq.initializeRequestForInline...\n      SWAP1 \t\t\treq.initializeRequestForInline...\n      DUP2 \t\t\treq.initializeRequestForInline...\n      DUP2 \t\t\treq.initializeRequestForInline...\n      MSTORE \t\t\treq.initializeRequestForInline...\n      PUSH 20\t\t\treq.initializeRequestForInline...\n      ADD \t\t\treq.initializeRequestForInline...\n      DUP3 \t\t\treq.initializeRequestForInline...\n      DUP1 \t\t\treq.initializeRequestForInline...\n      SLOAD \t\t\treq.initializeRequestForInline...\n      PUSH [tag] 65\t\t\treq.initializeRequestForInline...\n      SWAP1 \t\t\treq.initializeRequestForInline...\n      PUSH [tag] 52\t\t\treq.initializeRequestForInline...\n      JUMP \t\t\treq.initializeRequestForInline...\n    tag 65\t\t\treq.initializeRequestForInline...\n      JUMPDEST \t\t\treq.initializeRequestForInline...\n      DUP1 \t\t\treq.initializeRequestForInline...\n      ISZERO \t\t\treq.initializeRequestForInline...\n      PUSH [tag] 66\t\t\treq.initializeRequestForInline...\n      JUMPI \t\t\treq.initializeRequestForInline...\n      DUP1 \t\t\treq.initializeRequestForInline...\n      PUSH 1F\t\t\treq.initializeRequestForInline...\n      LT \t\t\treq.initializeRequestForInline...\n      PUSH [tag] 67\t\t\treq.initializeRequestForInline...\n      JUMPI \t\t\treq.initializeRequestForInline...\n      PUSH 100\t\t\treq.initializeRequestForInline...\n      DUP1 \t\t\treq.initializeRequestForInline...\n      DUP4 \t\t\treq.initializeRequestForInline...\n      SLOAD \t\t\treq.initializeRequestForInline...\n      DIV \t\t\treq.initializeRequestForInline...\n      MUL \t\t\treq.initializeRequestForInline...\n      DUP4 \t\t\treq.initializeRequestForInline...\n      MSTORE \t\t\treq.initializeRequestForInline...\n      SWAP2 \t\t\treq.initializeRequestForInline...\n      PUSH 20\t\t\treq.initializeRequestForInline...\n      ADD \t\t\treq.initializeRequestForInline...\n      SWAP2 \t\t\treq.initializeRequestForInline...\n      PUSH [tag] 66\t\t\treq.initializeRequestForInline...\n      JUMP \t\t\treq.initializeRequestForInline...\n    tag 67\t\t\treq.initializeRequestForInline...\n      JUMPDEST \t\t\treq.initializeRequestForInline...\n      DUP3 \t\t\treq.initializeRequestForInline...\n      ADD \t\t\treq.initializeRequestForInline...\n      SWAP2 \t\t\treq.initializeRequestForInline...\n      SWAP1 \t\t\treq.initializeRequestForInline...\n      PUSH 0\t\t\treq.initializeRequestForInline...\n      MSTORE \t\t\treq.initializeRequestForInline...\n      PUSH 20\t\t\treq.initializeRequestForInline...\n      PUSH 0\t\t\treq.initializeRequestForInline...\n      KECCAK256 \t\t\treq.initializeRequestForInline...\n      SWAP1 \t\t\treq.initializeRequestForInline...\n    tag 68\t\t\treq.initializeRequestForInline...\n      JUMPDEST \t\t\treq.initializeRequestForInline...\n      DUP2 \t\t\treq.initializeRequestForInline...\n      SLOAD \t\t\treq.initializeRequestForInline...\n      DUP2 \t\t\treq.initializeRequestForInline...\n      MSTORE \t\t\treq.initializeRequestForInline...\n      SWAP1 \t\t\treq.initializeRequestForInline...\n      PUSH 1\t\t\treq.initializeRequestForInline...\n      ADD \t\t\treq.initializeRequestForInline...\n      SWAP1 \t\t\treq.initializeRequestForInline...\n      PUSH 20\t\t\treq.initializeRequestForInline...\n      ADD \t\t\treq.initializeRequestForInline...\n      DUP1 \t\t\treq.initializeRequestForInline...\n      DUP4 \t\t\treq.initializeRequestForInline...\n      GT \t\t\treq.initializeRequestForInline...\n      PUSH [tag] 68\t\t\treq.initializeRequestForInline...\n      JUMPI \t\t\treq.initializeRequestForInline...\n      DUP3 \t\t\treq.initializeRequestForInline...\n      SWAP1 \t\t\treq.initializeRequestForInline...\n      SUB \t\t\treq.initializeRequestForInline...\n      PUSH 1F\t\t\treq.initializeRequestForInline...\n      AND \t\t\treq.initializeRequestForInline...\n      DUP3 \t\t\treq.initializeRequestForInline...\n      ADD \t\t\treq.initializeRequestForInline...\n      SWAP2 \t\t\treq.initializeRequestForInline...\n    tag 66\t\t\treq.initializeRequestForInline...\n      JUMPDEST \t\t\treq.initializeRequestForInline...\n      POP \t\t\treq.initializeRequestForInline...\n      POP \t\t\treq.initializeRequestForInline...\n      POP \t\t\treq.initializeRequestForInline...\n      POP \t\t\treq.initializeRequestForInline...\n      POP \t\t\treq.initializeRequestForInline...\n      DUP3 \t\t\treq\n      PUSH [tag] 69\t\t\treq.initializeRequestForInline...\n      SWAP1 \t\t\treq.initializeRequestForInline...\n      SWAP2 \t\t\treq.initializeRequestForInline...\n      SWAP1 \t\t\treq.initializeRequestForInline...\n      PUSH FFFFFFFF\t\t\treq.initializeRequestForInline...\n      AND \t\t\treq.initializeRequestForInline...\n      JUMP \t\t\treq.initializeRequestForInline...\n    tag 63\t\t\treq.initializeRequestForInline...\n      JUMPDEST \t\t\treq.initializeRequestForInline...\n      DUP3 \t\t\targs.length > 0\n      ISZERO \t\t\targs.length > 0\n      PUSH [tag] 71\t\t\tif (args.length > 0) req.setAr...\n      JUMPI \t\t\tif (args.length > 0) req.setAr...\n      PUSH [tag] 71\t\t\treq.setArgs(args)\n      PUSH [tag] 72\t\t\treq.setArgs(args)\n      DUP5 \t\t\targs\n      DUP7 \t\t\targs\n      PUSH [tag] 73\t\t\treq.setArgs(args)\n      JUMP \t\t\treq.setArgs(args)\n    tag 72\t\t\treq.setArgs(args)\n      JUMPDEST \t\t\treq.setArgs(args)\n      DUP3 \t\t\treq\n      SWAP1 \t\t\treq\n      PUSH [tag] 74\t\t\treq.setArgs\n      JUMP \t\t\treq.setArgs(args)\n    tag 71\t\t\treq.setArgs(args)\n      JUMPDEST \t\t\treq.setArgs(args)\n      PUSH [tag] 75\t\t\t_sendRequest(\\n            req...\n      PUSH [tag] 76\t\t\treq.encodeCBOR()\n      DUP3 \t\t\treq\n      PUSH [tag] 77\t\t\treq.encodeCBOR\n      JUMP \t\t\treq.encodeCBOR()\n    tag 76\t\t\treq.encodeCBOR()\n      JUMPDEST \t\t\treq.encodeCBOR()\n      PUSH 7\t\t\tgasLimit\n      SLOAD \t\t\tgasLimit\n      PUSH 8\t\t\tdonID\n      SLOAD \t\t\tdonID\n      DUP9 \t\t\tsubscriptionId\n      SWAP2 \t\t\tsubscriptionId\n      PUSH FFFFFFFF\t\t\tgasLimit\n      AND \t\t\tgasLimit\n      SWAP1 \t\t\tgasLimit\n      PUSH [tag] 78\t\t\t_sendRequest\n      JUMP \t\t\t_sendRequest(\\n            req...\n    tag 75\t\t\t_sendRequest(\\n            req...\n      JUMPDEST \t\t\t_sendRequest(\\n            req...\n      PUSH 2\t\t\ts_lastRequestId\n      DUP2 \t\t\ts_lastRequestId = _sendRequest...\n      SWAP1 \t\t\ts_lastRequestId = _sendRequest...\n      SSTORE \t\t\ts_lastRequestId = _sendRequest...\n      SWAP6 \t\t\ts_lastRequestId = _sendRequest...\n      SWAP5 \t\t\tfunction sendRequest(\\n       ...\n      POP \t\t\t\n      POP \t\t\t\n      POP \t\t\t\n      POP \t\t\t\n      POP \t\t\t\n      JUMP \t\t\tfunction sendRequest(\\n       ...\n    tag 28\t\t\tbytes public s_lastError\n      JUMPDEST \t\t\tbytes public s_lastError\n      PUSH 4\t\t\tbytes public s_lastError\n      DUP1 \t\t\tbytes public s_lastError\n      SLOAD \t\t\tbytes public s_lastError\n      PUSH [tag] 51\t\t\tbytes public s_lastError\n      SWAP1 \t\t\tbytes public s_lastError\n      PUSH [tag] 52\t\t\tbytes public s_lastError\n      JUMP \t\t\tbytes public s_lastError\n    tag 31\t\t\tstring public character\n      JUMPDEST \t\t\tstring public character\n      PUSH 9\t\t\tstring public character\n      DUP1 \t\t\tstring public character\n      SLOAD \t\t\tstring public character\n      PUSH [tag] 51\t\t\tstring public character\n      SWAP1 \t\t\tstring public character\n      PUSH [tag] 52\t\t\tstring public character\n      JUMP \t\t\tstring public character\n    tag 35\t\t\td error\\n    bytes32 public s_...\n      JUMPDEST \t\t\td error\\n    bytes32 public s_...\n      PUSH 1\t\t\tror type\\n    e\n      SLOAD \t\t\tror type\\n    e\n      PUSH 1\t\t\t\n      PUSH 1\t\t\t\n      PUSH A0\t\t\t\n      SHL \t\t\t\n      SUB \t\t\t\n      AND \t\t\tror type\\n    e\n      CALLER \t\t\t  // Custo\n      EQ \t\t\t  // Custom error type\\n    e\n      PUSH [tag] 90\t\t\tror;\\n\\n    // Custom error ty...\n      JUMPI \t\t\tror;\\n\\n    // Custom error ty...\n      PUSH 40\t\t\tror;\\n\\n    // Custom error ty...\n      MLOAD \t\t\tror;\\n\\n    // Custom error ty...\n      PUSH 461BCD\t\t\t\n      PUSH E5\t\t\t\n      SHL \t\t\t\n      DUP2 \t\t\tror;\\n\\n    // Custom error ty...\n      MSTORE \t\t\tror;\\n\\n    // Custom error ty...\n      PUSH 20\t\t\t\n      PUSH 4\t\t\tror;\\n\\n    // Custom error ty...\n      DUP3 \t\t\tror;\\n\\n    // Custom error ty...\n      ADD \t\t\tror;\\n\\n    // Custom error ty...\n      MSTORE \t\t\t\n      PUSH 16\t\t\t\n      PUSH 24\t\t\t\n      DUP3 \t\t\t\n      ADD \t\t\t\n      MSTORE \t\t\t\n      PUSH 26BAB9BA10313290383937B837B9B2B21037BBB732B9\t\t\t\n      PUSH 51\t\t\t\n      SHL \t\t\t\n      PUSH 44\t\t\t\n      DUP3 \t\t\t\n      ADD \t\t\t\n      MSTORE \t\t\t\n      PUSH 64\t\t\t\n      ADD \t\t\t\n    tag 91\t\t\tror;\\n\\n    // Custom error ty...\n      JUMPDEST \t\t\tror;\\n\\n    // Custom error ty...\n      PUSH 40\t\t\tror;\\n\\n    // Custom error ty...\n      MLOAD \t\t\tror;\\n\\n    // Custom error ty...\n      DUP1 \t\t\tror;\\n\\n    // Custom error ty...\n      SWAP2 \t\t\tror;\\n\\n    // Custom error ty...\n      SUB \t\t\tror;\\n\\n    // Custom error ty...\n      SWAP1 \t\t\tror;\\n\\n    // Custom error ty...\n      REVERT \t\t\tror;\\n\\n    // Custom error ty...\n    tag 90\t\t\tror;\\n\\n    // Custom error ty...\n      JUMPDEST \t\t\tror;\\n\\n    // Custom error ty...\n      PUSH 0\t\t\tequestId);\\n\\n    \n      DUP1 \t\t\tEvent t\n      SLOAD \t\t\tEvent t\n      CALLER \t\t\t    event \n      PUSH 1\t\t\t\n      PUSH 1\t\t\t\n      PUSH A0\t\t\t\n      SHL \t\t\t\n      SUB \t\t\t\n      NOT \t\t\t\n      DUP1 \t\t\tresponses\\n    event \n      DUP4 \t\t\tresponses\\n    event \n      AND \t\t\tresponses\\n    event \n      DUP3 \t\t\tresponses\\n    event \n      OR \t\t\tresponses\\n    event \n      DUP5 \t\t\tresponses\\n    event \n      SSTORE \t\t\tresponses\\n    event \n      PUSH 1\t\t\t\n      DUP1 \t\t\tse(\\n        bytes32 indexed\n      SLOAD \t\t\tse(\\n        bytes32 indexed\n      SWAP1 \t\t\tse(\\n        bytes32 indexed\n      SWAP2 \t\t\tse(\\n        bytes32 indexed\n      AND \t\t\tse(\\n        bytes32 indexed\n      SWAP1 \t\t\tse(\\n        bytes32 indexed\n      SSTORE \t\t\tse(\\n        bytes32 indexed\n      PUSH 40\t\t\t        string character,\\n   ...\n      MLOAD \t\t\t        string character,\\n   ...\n      PUSH 1\t\t\t\n      PUSH 1\t\t\t\n      PUSH A0\t\t\t\n      SHL \t\t\t\n      SUB \t\t\t\n      SWAP1 \t\t\tEvent t\n      SWAP3 \t\t\tEvent t\n      AND \t\t\tEvent t\n      SWAP3 \t\t\tEvent t\n      SWAP1 \t\t\t    event \n      SWAP2 \t\t\t    event \n      DUP4 \t\t\tEvent t\n      SWAP2 \t\t\tEvent t\n      PUSH 8BE0079C531659141344CD1FD0A4F28419497F9722A3DAAFE3B4186F6B6457E0\t\t\t        string character,\\n   ...\n      SWAP2 \t\t\t        string character,\\n   ...\n      LOG3 \t\t\t        string character,\\n   ...\n      POP \t\t\t   bytes public s_lastResponse...\n      JUMP \t\t\td error\\n    bytes32 public s_...\n    tag 46\t\t\tdFunctionsConsumer is Function...\n      JUMPDEST \t\t\tdFunctionsConsumer is Function...\n      PUSH [tag] 95\t\t\t   \"return Functions\n      PUSH [tag] 59\t\t\t   \"return Functio\n      JUMP \t\t\t   \"return Functions\n    tag 95\t\t\t   \"return Functions\n      JUMPDEST \t\t\t   \"return Functions\n      PUSH [tag] 97\t\t\tionsRequest for Functi\n      DUP2 \t\t\tct\n      PUSH [tag] 98\t\t\tionsRequest for Fu\n      JUMP \t\t\tionsRequest for Functi\n    tag 97\t\t\tionsRequest for Functi\n      JUMPDEST \t\t\tionsRequest for Functi\n      POP \t\t\tdFunctionsConsumer is Function...\n      JUMP \t\t\tdFunctionsConsumer is Function...\n    tag 50\t\t\tfunction fulfillRequest(\\n    ...\n      JUMPDEST \t\t\tfunction fulfillRequest(\\n    ...\n      DUP3 \t\t\trequestId\n      PUSH 2\t\t\ts_lastRequestId\n      SLOAD \t\t\ts_lastRequestId\n      EQ \t\t\ts_lastRequestId != requestId\n      PUSH [tag] 100\t\t\tif (s_lastRequestId != request...\n      JUMPI \t\t\tif (s_lastRequestId != request...\n      PUSH 40\t\t\tUnexpectedRequestID(requestId)\n      MLOAD \t\t\tUnexpectedRequestID(requestId)\n      PUSH D068BF5B\t\t\t\n      PUSH E0\t\t\t\n      SHL \t\t\t\n      DUP2 \t\t\tUnexpectedRequestID(requestId)\n      MSTORE \t\t\tUnexpectedRequestID(requestId)\n      PUSH 4\t\t\tUnexpectedRequestID(requestId)\n      DUP2 \t\t\tUnexpectedRequestID(requestId)\n      ADD \t\t\tUnexpectedRequestID(requestId)\n      DUP5 \t\t\tde\\n        if (args.lengt\n      SWAP1 \t\t\tde\\n        if (args.lengt\n      MSTORE \t\t\tde\\n        if (args.lengt\n      PUSH 24\t\t\tlize the request w\n      ADD \t\t\tlize the request w\n      PUSH [tag] 91\t\t\tUnexpectedRequestID(requestId)\n      JUMP \t\t\ttId) {\\n        FunctionsReque...\n    tag 100\t\t\tif (s_lastRequestId != request...\n      JUMPDEST \t\t\tif (s_lastRequestId != request...\n      PUSH 3\t\t\ts_lastResponse\n      PUSH [tag] 102\t\t\ts_lastResponse = response\n      DUP4 \t\t\tresponse\n      DUP3 \t\t\ts_lastResponse\n      PUSH [tag] 103\t\t\ts_lastResponse = response\n      JUMP \t\t\ts_lastResponse = response\n    tag 102\t\t\ts_lastResponse = response\n      JUMPDEST \t\t\ts_lastResponse = response\n      POP \t\t\t\n      PUSH 9\t\t\tcharacter\n      PUSH [tag] 104\t\t\tcharacter = string(response)\n      DUP4 \t\t\tresponse\n      DUP3 \t\t\tcharacter\n      PUSH [tag] 103\t\t\tcharacter = string(response)\n      JUMP \t\t\tcharacter = string(response)\n    tag 104\t\t\tcharacter = string(response)\n      JUMPDEST \t\t\tcharacter = string(response)\n      POP \t\t\t\n      PUSH 4\t\t\ts_lastError\n      PUSH [tag] 106\t\t\ts_lastError = err\n      DUP3 \t\t\terr\n      DUP3 \t\t\ts_lastError\n      PUSH [tag] 103\t\t\ts_lastError = err\n      JUMP \t\t\ts_lastError = err\n    tag 106\t\t\ts_lastError = err\n      JUMPDEST \t\t\ts_lastError = err\n      POP \t\t\ts_lastError = err\n      DUP3 \t\t\trequestId\n      PUSH 160ED0AAFFBEF6885155188B91459CB5A97D5DAADCCF7561D8C46DEEA6641B50\t\t\tResponse(requestId, character,...\n      PUSH 9\t\t\tcharacter\n      PUSH 3\t\t\ts_lastResponse\n      PUSH 4\t\t\ts_lastError\n      PUSH 40\t\t\tResponse(requestId, character,...\n      MLOAD \t\t\tResponse(requestId, character,...\n      PUSH [tag] 107\t\t\tResponse(requestId, character,...\n      SWAP4 \t\t\tResponse(requestId, character,...\n      SWAP3 \t\t\tResponse(requestId, character,...\n      SWAP2 \t\t\tResponse(requestId, character,...\n      SWAP1 \t\t\tResponse(requestId, character,...\n      PUSH [tag] 108\t\t\tResponse(requestId, character,...\n      JUMP \t\t\tResponse(requestId, character,...\n    tag 107\t\t\tResponse(requestId, character,...\n      JUMPDEST \t\t\tResponse(requestId, character,...\n      PUSH 40\t\t\tResponse(requestId, character,...\n      MLOAD \t\t\tResponse(requestId, character,...\n      DUP1 \t\t\tResponse(requestId, character,...\n      SWAP2 \t\t\tResponse(requestId, character,...\n      SUB \t\t\tResponse(requestId, character,...\n      SWAP1 \t\t\tResponse(requestId, character,...\n      LOG2 \t\t\tResponse(requestId, character,...\n      POP \t\t\tfunction fulfillRequest(\\n    ...\n      POP \t\t\tfunction fulfillRequest(\\n    ...\n      POP \t\t\tfunction fulfillRequest(\\n    ...\n      JUMP \t\t\tfunction fulfillRequest(\\n    ...\n    tag 59\t\t\t\"const apiResponse = await Fun...\n      JUMPDEST \t\t\t\"const apiResponse = await Fun...\n      PUSH 0\t\t\t    \"})\n      SLOAD \t\t\t    \"})\n      PUSH 1\t\t\t\n      PUSH 1\t\t\t\n      PUSH A0\t\t\t\n      SHL \t\t\t\n      SUB \t\t\t\n      AND \t\t\t    \"})\n      CALLER \t\t\tterId}/`\"\\n\n      EQ \t\t\tterId}/`\"\\n        \"})\n      PUSH [tag] 110\t\t\t${characterId}/`\"\\n        \"})...\n      JUMPI \t\t\t${characterId}/`\"\\n        \"})...\n      PUSH 40\t\t\t${characterId}/`\"\\n        \"})...\n      MLOAD \t\t\t${characterId}/`\"\\n        \"})...\n      PUSH 461BCD\t\t\t\n      PUSH E5\t\t\t\n      SHL \t\t\t\n      DUP2 \t\t\t${characterId}/`\"\\n        \"})...\n      MSTORE \t\t\t${characterId}/`\"\\n        \"})...\n      PUSH 20\t\t\t\n      PUSH 4\t\t\t${characterId}/`\"\\n        \"})...\n      DUP3 \t\t\t${characterId}/`\"\\n        \"})...\n      ADD \t\t\t${characterId}/`\"\\n        \"})...\n      MSTORE \t\t\t\n      PUSH 16\t\t\t\n      PUSH 24\t\t\t\n      DUP3 \t\t\t\n      ADD \t\t\t\n      MSTORE \t\t\t\n      PUSH 27B7363C9031B0B63630B1363290313C9037BBB732B9\t\t\t\n      PUSH 51\t\t\t\n      SHL \t\t\t\n      PUSH 44\t\t\t\n      DUP3 \t\t\t\n      ADD \t\t\t\n      MSTORE \t\t\t\n      PUSH 64\t\t\t\n      ADD \t\t\t\n      PUSH [tag] 91\t\t\t${characterId}/`\"\\n        \"})...\n      JUMP \t\t\t\n    tag 110\t\t\t${characterId}/`\"\\n        \"})...\n      JUMPDEST \t\t\t${characterId}/`\"\\n        \"})...\n      JUMP \t\t\t\"const apiResponse = await Fun...\n    tag 69\t\t\t       emit Response(requestId...\n      JUMPDEST \t\t\t       emit Response(requestId...\n      PUSH [tag] 114\t\t\t\n      DUP3 \t\t\t\n      PUSH 0\t\t\t\n      DUP1 \t\t\t\n      DUP5 \t\t\t\n      PUSH [tag] 115\t\t\t\n      JUMP \t\t\t\n    tag 114\t\t\t\n      JUMPDEST \t\t\t\n      POP \t\t\t       emit Response(requestId...\n      POP \t\t\t       emit Response(requestId...\n      JUMP \t\t\t       emit Response(requestId...\n    tag 74\t\t\t\n      JUMPDEST \t\t\t\n      DUP1 \t\t\t\n      MLOAD \t\t\t\n      PUSH 0\t\t\t\n      SUB \t\t\t\n      PUSH [tag] 117\t\t\t\n      JUMPI \t\t\t\n      PUSH 40\t\t\t\n      MLOAD \t\t\t\n      PUSH FE936CB7\t\t\t\n      PUSH E0\t\t\t\n      SHL \t\t\t\n      DUP2 \t\t\t\n      MSTORE \t\t\t\n      PUSH 4\t\t\t\n      ADD \t\t\t\n      PUSH 40\t\t\t\n      MLOAD \t\t\t\n      DUP1 \t\t\t\n      SWAP2 \t\t\t\n      SUB \t\t\t\n      SWAP1 \t\t\t\n      REVERT \t\t\t\n    tag 117\t\t\t\n      JUMPDEST \t\t\t\n      PUSH A0\t\t\t\n      SWAP1 \t\t\t\n      SWAP2 \t\t\t\n      ADD \t\t\t\n      MSTORE \t\t\t\n      JUMP \t\t\t\n    tag 77\t\t\t2 gasLimit = 300000;\\n\\n    //...\n      JUMPDEST \t\t\t2 gasLimit = 300000;\\n\\n    //...\n      PUSH 60\t\t\t/ Check to g\n      PUSH 0\t\t\tonID for your supported netwo\n      PUSH [tag] 119\t\t\thttps://docs.chain.link/chainl...\n      PUSH 100\t\t\t.so\n      PUSH [tag] 120\t\t\thttps://doc\n      JUMP \t\t\thttps://docs.chain.link/chainl...\n    tag 119\t\t\thttps://docs.chain.link/chainl...\n      JUMPDEST \t\t\thttps://docs.chain.link/chainl...\n      SWAP1 \t\t\tonID for your supported networ...\n      POP \t\t\tonID for your supported networ...\n      PUSH [tag] 121\t\t\tions/supported-networks\\n    b...\n      PUSH 40\t\t\tions/supported-networks\\n    b...\n      MLOAD \t\t\tions/supported-networks\\n    b...\n      DUP1 \t\t\tions/supported-networks\\n    b...\n      PUSH 40\t\t\tions/supported-networks\\n    b...\n      ADD \t\t\tions/supported-networks\\n    b...\n      PUSH 40\t\t\tions/supported-networks\\n    b...\n      MSTORE \t\t\tions/supported-networks\\n    b...\n      DUP1 \t\t\tions/supported-networks\\n    b...\n      PUSH C\t\t\tions/supported-networks\\n    b...\n      DUP2 \t\t\tions/supported-networks\\n    b...\n      MSTORE \t\t\tions/supported-networks\\n    b...\n      PUSH 20\t\t\tions/supported-networks\\n    b...\n      ADD \t\t\tions/supported-networks\\n    b...\n      PUSH 31B7B232A637B1B0BA34B7B7\t\t\t\n      PUSH A1\t\t\t\n      SHL \t\t\t\n      DUP2 \t\t\tions/supported-networks\\n    b...\n      MSTORE \t\t\tions/supported-networks\\n    b...\n      POP \t\t\tions/supported-networks\\n    b...\n      DUP3 \t\t\tions/s\n      PUSH [tag] 122\t\t\tions/supported-net\n      SWAP1 \t\t\tions/supported-net\n      SWAP2 \t\t\tions/supported-networks\\n    b...\n      SWAP1 \t\t\tions/supported-networks\\n    b...\n      PUSH FFFFFFFF\t\t\tions/supported-networks\\n    b...\n      AND \t\t\tions/supported-networks\\n    b...\n      JUMP \t\t\tions/supported-networks\\n    b...\n    tag 121\t\t\tions/supported-networks\\n    b...\n      JUMPDEST \t\t\tions/supported-networks\\n    b...\n      DUP3 \t\t\t657265756d2d73657\n      MLOAD \t\t\t657265756d2d73657\n      PUSH [tag] 123\t\t\tD =\\n        0x66756e2d6574686...\n      SWAP1 \t\t\tD =\\n        0x66756e2d6574686...\n      PUSH 2\t\t\t2d657468657265756d2d736570\n      DUP2 \t\t\t2d657468657265756d2d736570\n      GT \t\t\t2d657468657265756d2d736570\n      ISZERO \t\t\t2d657468657265756d2d736570\n      PUSH [tag] 125\t\t\t2d657468657265756d2d736570\n      JUMPI \t\t\t2d657468657265756d2d736570\n      PUSH [tag] 125\t\t\t2d657468657265756d2d736570\n      PUSH [tag] 126\t\t\t2d657468657265756d2d736570\n      JUMP \t\t\t2d657468657265756d2d736570\n    tag 125\t\t\t2d657468657265756d2d736570\n      JUMPDEST \t\t\t2d657468657265756d2d736570\n      DUP3 \t\t\tD =\\n  \n      SWAP1 \t\t\tD =\\n  \n      PUSH [tag] 127\t\t\tD =\\n        0x66756\n      JUMP \t\t\tD =\\n        0x66756e2d6574686...\n    tag 123\t\t\tD =\\n        0x66756e2d6574686...\n      JUMPDEST \t\t\tD =\\n        0x66756e2d6574686...\n      PUSH 40\t\t\t2d3100000000000000000000;\\n\\n ...\n      DUP1 \t\t\t2d3100000000000000000000;\\n\\n ...\n      MLOAD \t\t\t2d3100000000000000000000;\\n\\n ...\n      DUP1 \t\t\t2d3100000000000000000000;\\n\\n ...\n      DUP3 \t\t\t2d3100000000000000000000;\\n\\n ...\n      ADD \t\t\t2d3100000000000000000000;\\n\\n ...\n      SWAP1 \t\t\t2d3100000000000000000000;\\n\\n ...\n      SWAP2 \t\t\t2d3100000000000000000000;\\n\\n ...\n      MSTORE \t\t\t2d3100000000000000000000;\\n\\n ...\n      PUSH 8\t\t\t2d3100000000000000000000;\\n\\n ...\n      DUP2 \t\t\t2d3100000000000000000000;\\n\\n ...\n      MSTORE \t\t\t2d3100000000000000000000;\\n\\n ...\n      PUSH 6C616E6775616765\t\t\t\n      PUSH C0\t\t\t\n      SHL \t\t\t\n      PUSH 20\t\t\t2d3100000000000000000000;\\n\\n ...\n      DUP3 \t\t\t2d3100000000000000000000;\\n\\n ...\n      ADD \t\t\t2d3100000000000000000000;\\n\\n ...\n      MSTORE \t\t\t2d3100000000000000000000;\\n\\n ...\n      PUSH [tag] 128\t\t\t2d3100000000000000000000;\\n\\n ...\n      SWAP1 \t\t\t2d3100000000000000000000;\\n\\n ...\n      DUP3 \t\t\t2d3100\n      SWAP1 \t\t\t2d3100\n      PUSH [tag] 122\t\t\t2d3100000000000000\n      JUMP \t\t\t2d3100000000000000000000;\\n\\n ...\n    tag 128\t\t\t2d3100000000000000000000;\\n\\n ...\n      JUMPDEST \t\t\t2d3100000000000000000000;\\n\\n ...\n      PUSH 40\t\t\tturned charac\n      DUP4 \t\t\tturned charac\n      ADD \t\t\tturned charac\n      MLOAD \t\t\tturned charac\n      PUSH [tag] 129\t\t\tate variable to store the retu...\n      SWAP1 \t\t\tate variable to store the retu...\n      DUP1 \t\t\te the returned charact\n      ISZERO \t\t\te the returned charact\n      PUSH [tag] 125\t\t\te the returned charact\n      JUMPI \t\t\te the returned charact\n      PUSH [tag] 125\t\t\te the returned charact\n      PUSH [tag] 126\t\t\te the returned charact\n      JUMP \t\t\te the returned charact\n    tag 129\t\t\tate variable to store the retu...\n      JUMPDEST \t\t\tate variable to store the retu...\n      PUSH 40\t\t\tmation\\n    string public cha\n      DUP1 \t\t\tmation\\n    string public cha\n      MLOAD \t\t\tmation\\n    string public cha\n      DUP1 \t\t\tmation\\n    string public cha\n      DUP3 \t\t\tmation\\n    string public cha\n      ADD \t\t\tmation\\n    string public cha\n      SWAP1 \t\t\tmation\\n    string public cha\n      SWAP2 \t\t\tmation\\n    string public cha\n      MSTORE \t\t\tmation\\n    string public cha\n      PUSH 6\t\t\tmation\\n    string public cha\n      DUP2 \t\t\tmation\\n    string public cha\n      MSTORE \t\t\tmation\\n    string public cha\n      PUSH 736F75726365\t\t\t\n      PUSH D0\t\t\t\n      SHL \t\t\t\n      PUSH 20\t\t\tmation\\n    string public cha\n      DUP3 \t\t\tmation\\n    string public cha\n      ADD \t\t\tmation\\n    string public cha\n      MSTORE \t\t\tmation\\n    string public cha\n      PUSH [tag] 132\t\t\tmation\\n    string public cha\n      SWAP1 \t\t\tmation\\n    string public cha\n      DUP3 \t\t\tmation\n      SWAP1 \t\t\tmation\n      PUSH [tag] 122\t\t\tmation\\n    string \n      JUMP \t\t\tmation\\n    string public cha\n    tag 132\t\t\tmation\\n    string public cha\n      JUMPDEST \t\t\tmation\\n    string public cha\n      PUSH 60\t\t\tnotice Init\n      DUP4 \t\t\tnotice Init\n      ADD \t\t\tnotice Init\n      MLOAD \t\t\tnotice Init\n      PUSH [tag] 133\t\t\t;\\n\\n    /**\\n     * @notice I...\n      SWAP1 \t\t\t;\\n\\n    /**\\n     * @notice I...\n      DUP3 \t\t\t;\\n\\n   \n      SWAP1 \t\t\t;\\n\\n   \n      PUSH [tag] 122\t\t\t;\\n\\n    /**\\n     * \n      JUMP \t\t\t;\\n\\n    /**\\n     * @notice I...\n    tag 133\t\t\t;\\n\\n    /**\\n     * @notice I...\n      JUMPDEST \t\t\t;\\n\\n    /**\\n     * @notice I...\n      PUSH A0\t\t\tcontract \n      DUP4 \t\t\tcontract \n      ADD \t\t\tcontract \n      MLOAD \t\t\tcontract \n      MLOAD \t\t\tcontract with th\n      ISZERO \t\t\tcontract with the Ch\n      PUSH [tag] 147\t\t\tthe contract with the Chainlin...\n      JUMPI \t\t\tthe contract with the Chainlin...\n      PUSH 40\t\t\tuter address and sets the \n      DUP1 \t\t\tuter address and sets the \n      MLOAD \t\t\tuter address and sets the \n      DUP1 \t\t\tuter address and sets the \n      DUP3 \t\t\tuter address and sets the \n      ADD \t\t\tuter address and sets the \n      SWAP1 \t\t\tuter address and sets the \n      SWAP2 \t\t\tuter address and sets the \n      MSTORE \t\t\tuter address and sets the \n      PUSH 4\t\t\tuter address and sets the \n      DUP2 \t\t\tuter address and sets the \n      MSTORE \t\t\tuter address and sets the \n      PUSH 61726773\t\t\t\n      PUSH E0\t\t\t\n      SHL \t\t\t\n      PUSH 20\t\t\tuter address and sets the \n      DUP3 \t\t\tuter address and sets the \n      ADD \t\t\tuter address and sets the \n      MSTORE \t\t\tuter address and sets the \n      PUSH [tag] 135\t\t\tuter address and sets the \n      SWAP1 \t\t\tuter address and sets the \n      DUP3 \t\t\tuter a\n      SWAP1 \t\t\tuter a\n      PUSH [tag] 122\t\t\tuter address and s\n      JUMP \t\t\tuter address and sets the \n    tag 135\t\t\tuter address and sets the \n      JUMPDEST \t\t\tuter address and sets the \n      PUSH [tag] 136\t\t\t owner\\n     */\\n    \n      DUP2 \t\t\t owner\n      PUSH [tag] 137\t\t\t owner\\n     */\\n  \n      JUMP \t\t\t owner\\n     */\\n    \n    tag 136\t\t\t owner\\n     */\\n    \n      JUMPDEST \t\t\t owner\\n     */\\n    \n      PUSH 0\t\t\t Function\n    tag 138\t\t\ttor() FunctionsClient(router) ...\n      JUMPDEST \t\t\ttor() FunctionsClient(router) ...\n      DUP4 \t\t\tuter\n      PUSH A0\t\t\tuter) Con\n      ADD \t\t\tuter) Con\n      MLOAD \t\t\tuter) Con\n      MLOAD \t\t\tuter) ConfirmedO\n      DUP2 \t\t\tt\n      LT \t\t\tt(router) ConfirmedO\n      ISZERO \t\t\ttor() FunctionsClient(router) ...\n      PUSH [tag] 139\t\t\ttor() FunctionsClient(router) ...\n      JUMPI \t\t\ttor() FunctionsClient(router) ...\n      PUSH [tag] 141\t\t\t{}\\n\\n    /**\\n     * @notice ...\n      DUP5 \t\t\t@not\n      PUSH A0\t\t\t@notice S\n      ADD \t\t\t@notice S\n      MLOAD \t\t\t@notice S\n      DUP3 \t\t\tn\n      DUP2 \t\t\t@notice Send\n      MLOAD \t\t\t@notice Send\n      DUP2 \t\t\t@notice Send\n      LT \t\t\t@notice Send\n      PUSH [tag] 143\t\t\t@notice Send\n      JUMPI \t\t\t@notice Send\n      PUSH [tag] 143\t\t\t@notice Send\n      PUSH [tag] 144\t\t\t@notice Send\n      JUMP \t\t\t@notice Send\n    tag 143\t\t\t@notice Send\n      JUMPDEST \t\t\t@notice Send\n      PUSH 20\t\t\t@notice Send\n      MUL \t\t\t@notice Send\n      PUSH 20\t\t\t@notice Send\n      ADD \t\t\t@notice Send\n      ADD \t\t\t@notice Send\n      MLOAD \t\t\t@notice Send\n      DUP4 \t\t\t{}\\n\\n  \n      PUSH [tag] 122\t\t\t{}\\n\\n    /**\\n     *\n      SWAP1 \t\t\t{}\\n\\n    /**\\n     *\n      SWAP2 \t\t\t{}\\n\\n    /**\\n     * @notice ...\n      SWAP1 \t\t\t{}\\n\\n    /**\\n     * @notice ...\n      PUSH FFFFFFFF\t\t\t{}\\n\\n    /**\\n     * @notice ...\n      AND \t\t\t{}\\n\\n    /**\\n     * @notice ...\n      JUMP \t\t\t{}\\n\\n    /**\\n     * @notice ...\n    tag 141\t\t\t{}\\n\\n    /**\\n     * @notice ...\n      JUMPDEST \t\t\t{}\\n\\n    /**\\n     * @notice ...\n      PUSH [tag] 145\t\t\ter(\n      DUP2 \t\t\ter(\n      PUSH [tag] 146\t\t\ter(\n      JUMP \t\t\ter(\n    tag 145\t\t\ter(\n      JUMPDEST \t\t\ter(\n      SWAP1 \t\t\ter(\n      POP \t\t\ter(\n      PUSH [tag] 138\t\t\ttor() FunctionsClient(router) ...\n      JUMP \t\t\ttor() FunctionsClient(router) ...\n    tag 139\t\t\ttor() FunctionsClient(router) ...\n      JUMPDEST \t\t\ttor() FunctionsClient(router) ...\n      POP \t\t\ttor() FunctionsClient(router) ...\n      PUSH [tag] 147\t\t\t for character infor\n      DUP2 \t\t\t for c\n      PUSH [tag] 148\t\t\t for character inf\n      JUMP \t\t\t for character infor\n    tag 147\t\t\t for character infor\n      JUMPDEST \t\t\t for character infor\n      PUSH 80\t\t\tram subscriptionId The ID for \n      DUP4 \t\t\tram subscriptionId The ID for \n      ADD \t\t\tram subscriptionId The ID for \n      MLOAD \t\t\tram subscriptionId The ID for \n      MLOAD \t\t\tram subscriptionId The ID for ...\n      ISZERO \t\t\tram subscriptionId The ID for ...\n      PUSH [tag] 160\t\t\t @param subscriptionId The ID ...\n      JUMPI \t\t\t @param subscriptionId The ID ...\n      PUSH 0\t\t\t arguments to p\n      DUP4 \t\t\tn\\n  \n      PUSH 20\t\t\tn\\n     * @param args\n      ADD \t\t\tn\\n     * @param args\n      MLOAD \t\t\tn\\n     * @param args\n      PUSH 2\t\t\tn\\n     * @param args The argu...\n      DUP2 \t\t\tn\\n     * @param args The argu...\n      GT \t\t\tn\\n     * @param args The argu...\n      ISZERO \t\t\tn\\n     * @param args The argu...\n      PUSH [tag] 153\t\t\tn\\n     * @param args The argu...\n      JUMPI \t\t\tn\\n     * @param args The argu...\n      PUSH [tag] 153\t\t\tn\\n     * @param args The argu...\n      PUSH [tag] 126\t\t\tn\\n     * @param args The argu...\n      JUMP \t\t\tn\\n     * @param args The argu...\n    tag 153\t\t\tn\\n     * @param args The argu...\n      JUMPDEST \t\t\tn\\n     * @param args The argu...\n      SUB \t\t\tn\\n     * @param args The argu...\n      PUSH [tag] 154\t\t\tption\\n     * @param args The ...\n      JUMPI \t\t\tption\\n     * @param args The ...\n      PUSH 40\t\t\tuest\\n     * @retu\n      MLOAD \t\t\tuest\\n     * @retu\n      PUSH A80D31F7\t\t\t\n      PUSH E0\t\t\t\n      SHL \t\t\t\n      DUP2 \t\t\tuest\\n     * @retu\n      MSTORE \t\t\tuest\\n     * @retu\n      PUSH 4\t\t\tuest\\n     * @retu\n      ADD \t\t\tuest\\n     * @retu\n      PUSH 40\t\t\tuest\\n     * @retu\n      MLOAD \t\t\tuest\\n     * @retu\n      DUP1 \t\t\tuest\\n     * @retu\n      SWAP2 \t\t\tuest\\n     * @retu\n      SUB \t\t\tuest\\n     * @retu\n      SWAP1 \t\t\tuest\\n     * @retu\n      REVERT \t\t\tuest\\n     * @retu\n    tag 154\t\t\tption\\n     * @param args The ...\n      JUMPDEST \t\t\tption\\n     * @param args The ...\n      PUSH 40\t\t\t ID of the request\\n     */\\n ...\n      DUP1 \t\t\t ID of the request\\n     */\\n ...\n      MLOAD \t\t\t ID of the request\\n     */\\n ...\n      DUP1 \t\t\t ID of the request\\n     */\\n ...\n      DUP3 \t\t\t ID of the request\\n     */\\n ...\n      ADD \t\t\t ID of the request\\n     */\\n ...\n      SWAP1 \t\t\t ID of the request\\n     */\\n ...\n      SWAP2 \t\t\t ID of the request\\n     */\\n ...\n      MSTORE \t\t\t ID of the request\\n     */\\n ...\n      PUSH F\t\t\t ID of the request\\n     */\\n ...\n      DUP2 \t\t\t ID of the request\\n     */\\n ...\n      MSTORE \t\t\t ID of the request\\n     */\\n ...\n      PUSH 39B2B1B932BA39A637B1B0BA34B7B7\t\t\t\n      PUSH 89\t\t\t\n      SHL \t\t\t\n      PUSH 20\t\t\t ID of the request\\n     */\\n ...\n      DUP3 \t\t\t ID of the request\\n     */\\n ...\n      ADD \t\t\t ID of the request\\n     */\\n ...\n      MSTORE \t\t\t ID of the request\\n     */\\n ...\n      PUSH [tag] 155\t\t\t ID of the request\\n     */\\n ...\n      SWAP1 \t\t\t ID of the request\\n     */\\n ...\n      DUP3 \t\t\t ID of\n      SWAP1 \t\t\t ID of\n      PUSH [tag] 122\t\t\t ID of the request\n      JUMP \t\t\t ID of the request\\n     */\\n ...\n    tag 155\t\t\t ID of the request\\n     */\\n ...\n      JUMPDEST \t\t\t ID of the request\\n     */\\n ...\n      PUSH [tag] 156\t\t\tequest(\\n        uint64 subscr...\n      DUP4 \t\t\tript\n      PUSH 20\t\t\triptionId,\\n        s\n      ADD \t\t\triptionId,\\n        s\n      MLOAD \t\t\triptionId,\\n        s\n      PUSH 2\t\t\t64 subscriptionId,\\n        st\n      DUP2 \t\t\t64 subscriptionId,\\n        st\n      GT \t\t\t64 subscriptionId,\\n        st\n      ISZERO \t\t\t64 subscriptionId,\\n        st\n      PUSH [tag] 125\t\t\t64 subscriptionId,\\n        st\n      JUMPI \t\t\t64 subscriptionId,\\n        st\n      PUSH [tag] 125\t\t\t64 subscriptionId,\\n        st\n      PUSH [tag] 126\t\t\t64 subscriptionId,\\n        st\n      JUMP \t\t\t64 subscriptionId,\\n        st\n    tag 156\t\t\tequest(\\n        uint64 subscr...\n      JUMPDEST \t\t\tequest(\\n        uint64 subscr...\n      PUSH 40\t\t\tlldata args\\n    ) external on\n      DUP1 \t\t\tlldata args\\n    ) external on\n      MLOAD \t\t\tlldata args\\n    ) external on\n      DUP1 \t\t\tlldata args\\n    ) external on\n      DUP3 \t\t\tlldata args\\n    ) external on\n      ADD \t\t\tlldata args\\n    ) external on\n      SWAP1 \t\t\tlldata args\\n    ) external on\n      SWAP2 \t\t\tlldata args\\n    ) external on\n      MSTORE \t\t\tlldata args\\n    ) external on\n      PUSH 7\t\t\tlldata args\\n    ) external on\n      DUP2 \t\t\tlldata args\\n    ) external on\n      MSTORE \t\t\tlldata args\\n    ) external on\n      PUSH 73656372657473\t\t\t\n      PUSH C8\t\t\t\n      SHL \t\t\t\n      PUSH 20\t\t\tlldata args\\n    ) external on\n      DUP3 \t\t\tlldata args\\n    ) external on\n      ADD \t\t\tlldata args\\n    ) external on\n      MSTORE \t\t\tlldata args\\n    ) external on\n      PUSH [tag] 159\t\t\tlldata args\\n    ) external on\n      SWAP1 \t\t\tlldata args\\n    ) external on\n      DUP3 \t\t\tlldata\n      SWAP1 \t\t\tlldata\n      PUSH [tag] 122\t\t\tlldata args\\n    ) \n      JUMP \t\t\tlldata args\\n    ) external on\n    tag 159\t\t\tlldata args\\n    ) external on\n      JUMPDEST \t\t\tlldata args\\n    ) external on\n      PUSH 80\t\t\tequestId) {\\n        Functions...\n      DUP4 \t\t\tequestId) {\\n        Functions...\n      ADD \t\t\tequestId) {\\n        Functions...\n      MLOAD \t\t\tequestId) {\\n        Functions...\n      PUSH [tag] 160\t\t\treturns (bytes32 requestId) {\\...\n      SWAP1 \t\t\treturns (bytes32 requestId) {\\...\n      DUP3 \t\t\treturn\n      SWAP1 \t\t\treturn\n      PUSH [tag] 161\t\t\treturns (bytes32 \n      JUMP \t\t\treturns (bytes32 requestId) {\\...\n    tag 160\t\t\treturns (bytes32 requestId) {\\...\n      JUMPDEST \t\t\treturns (bytes32 requestId) {\\...\n      PUSH C0\t\t\tory req;\\n     \n      DUP4 \t\t\tory req;\\n     \n      ADD \t\t\tory req;\\n     \n      MLOAD \t\t\tory req;\\n     \n      MLOAD \t\t\tory req;\\n        req.\n      ISZERO \t\t\tory req;\\n        req.init\n      PUSH [tag] 172\t\t\t memory req;\\n        req.init...\n      JUMPI \t\t\t memory req;\\n        req.init...\n      PUSH 40\t\t\testForInlineJavaScript(source)...\n      DUP1 \t\t\testForInlineJavaScript(source)...\n      MLOAD \t\t\testForInlineJavaScript(source)...\n      DUP1 \t\t\testForInlineJavaScript(source)...\n      DUP3 \t\t\testForInlineJavaScript(source)...\n      ADD \t\t\testForInlineJavaScript(source)...\n      SWAP1 \t\t\testForInlineJavaScript(source)...\n      SWAP2 \t\t\testForInlineJavaScript(source)...\n      MSTORE \t\t\testForInlineJavaScript(source)...\n      PUSH 9\t\t\testForInlineJavaScript(source)...\n      DUP2 \t\t\testForInlineJavaScript(source)...\n      MSTORE \t\t\testForInlineJavaScript(source)...\n      PUSH 627974657341726773\t\t\t\n      PUSH B8\t\t\t\n      SHL \t\t\t\n      PUSH 20\t\t\testForInlineJavaScript(source)...\n      DUP3 \t\t\testForInlineJavaScript(source)...\n      ADD \t\t\testForInlineJavaScript(source)...\n      MSTORE \t\t\testForInlineJavaScript(source)...\n      PUSH [tag] 163\t\t\testForInlineJavaScript(source)...\n      SWAP1 \t\t\testForInlineJavaScript(source)...\n      DUP3 \t\t\testFor\n      SWAP1 \t\t\testFor\n      PUSH [tag] 122\t\t\testForInlineJavaSc\n      JUMP \t\t\testForInlineJavaScript(source)...\n    tag 163\t\t\testForInlineJavaScript(source)...\n      JUMPDEST \t\t\testForInlineJavaScript(source)...\n      PUSH [tag] 164\t\t\tialize the request \n      DUP2 \t\t\tialize\n      PUSH [tag] 137\t\t\tialize the reques\n      JUMP \t\t\tialize the request \n    tag 164\t\t\tialize the request \n      JUMPDEST \t\t\tialize the request \n      PUSH 0\t\t\t        i\n    tag 165\t\t\tcode\\n        if (args.length ...\n      JUMPDEST \t\t\tcode\\n        if (args.length ...\n      DUP4 \t\t\tngth\n      PUSH C0\t\t\tngth > 0) req.\n      ADD \t\t\tngth > 0) req.\n      MLOAD \t\t\tngth > 0) req.\n      MLOAD \t\t\tngth > 0) req.setArgs\n      DUP2 \t\t\ts\n      LT \t\t\ts.length > 0) req.setArgs\n      ISZERO \t\t\tcode\\n        if (args.length ...\n      PUSH [tag] 166\t\t\tcode\\n        if (args.length ...\n      JUMPI \t\t\tcode\\n        if (args.length ...\n      PUSH [tag] 168\t\t\te arguments for the request\\n\\...\n      DUP5 \t\t\te re\n      PUSH C0\t\t\te request\\n\\n   \n      ADD \t\t\te request\\n\\n   \n      MLOAD \t\t\te request\\n\\n   \n      DUP3 \t\t\t \n      DUP2 \t\t\te request\\n\\n      \n      MLOAD \t\t\te request\\n\\n      \n      DUP2 \t\t\te request\\n\\n      \n      LT \t\t\te request\\n\\n      \n      PUSH [tag] 170\t\t\te request\\n\\n      \n      JUMPI \t\t\te request\\n\\n      \n      PUSH [tag] 170\t\t\te request\\n\\n      \n      PUSH [tag] 144\t\t\te request\\n\\n      \n      JUMP \t\t\te request\\n\\n      \n    tag 170\t\t\te request\\n\\n      \n      JUMPDEST \t\t\te request\\n\\n      \n      PUSH 20\t\t\te request\\n\\n      \n      MUL \t\t\te request\\n\\n      \n      PUSH 20\t\t\te request\\n\\n      \n      ADD \t\t\te request\\n\\n      \n      ADD \t\t\te request\\n\\n      \n      MLOAD \t\t\te request\\n\\n      \n      DUP4 \t\t\te argu\n      PUSH [tag] 161\t\t\te arguments for t\n      SWAP1 \t\t\te arguments for t\n      SWAP2 \t\t\te arguments for the request\\n\\...\n      SWAP1 \t\t\te arguments for the request\\n\\...\n      PUSH FFFFFFFF\t\t\te arguments for the request\\n\\...\n      AND \t\t\te arguments for the request\\n\\...\n      JUMP \t\t\te arguments for the request\\n\\...\n    tag 168\t\t\te arguments for the request\\n\\...\n      JUMPDEST \t\t\te arguments for the request\\n\\...\n      PUSH [tag] 171\t\t\trgs\n      DUP2 \t\t\trgs\n      PUSH [tag] 146\t\t\trgs\n      JUMP \t\t\trgs\n    tag 171\t\t\trgs\n      JUMPDEST \t\t\trgs\n      SWAP1 \t\t\trgs\n      POP \t\t\trgs\n      PUSH [tag] 165\t\t\tcode\\n        if (args.length ...\n      JUMP \t\t\tcode\\n        if (args.length ...\n    tag 166\t\t\tcode\\n        if (args.length ...\n      JUMPDEST \t\t\tcode\\n        if (args.length ...\n      POP \t\t\tcode\\n        if (args.length ...\n      PUSH [tag] 172\t\t\tuest and store the r\n      DUP2 \t\t\tuest a\n      PUSH [tag] 148\t\t\tuest and store the\n      JUMP \t\t\tuest and store the r\n    tag 172\t\t\tuest and store the r\n      JUMPDEST \t\t\tuest and store the r\n      MLOAD \t\t\tlastReques\n      MLOAD \t\t\tlastRequestId \n      SWAP3 \t\t\tlastRequestId \n      SWAP2 \t\t\t2 gasLimit = 300000;\\n\\n    //...\n      POP \t\t\t\n      POP \t\t\t\n      JUMP \t\t\t2 gasLimit = 300000;\\n\\n    //...\n    tag 78\t\t\t\\n    error UnexpectedRequestI...\n      JUMPDEST \t\t\t\\n    error UnexpectedRequestI...\n      PUSH 0\t\t\t   stri\n      DUP1 \t\t\tcter,\\n        byt\n      PUSHIMMUTABLE 17\t\t\tresponse\n      PUSH 1\t\t\t\n      PUSH 1\t\t\t\n      PUSH A0\t\t\t\n      SHL \t\t\t\n      SUB \t\t\t\n      AND \t\t\tresponse,\\n        by\n      PUSH 461D2762\t\t\tresponse,\\n        by\n      DUP7 \t\t\t    );\\n\\n    //\n      DUP9 \t\t\taddr\n      PUSH 1\t\t\t/\n      DUP9 \t\t\touter address fo\n      DUP9 \t\t\tuppor\n      PUSH 40\t\t\tresponse,\\n        bytes err\\n...\n      MLOAD \t\t\tresponse,\\n        bytes err\\n...\n      DUP7 \t\t\tresponse,\\n        bytes err\\n...\n      PUSH FFFFFFFF\t\t\tresponse,\\n        bytes err\\n...\n      AND \t\t\tresponse,\\n        bytes err\\n...\n      PUSH E0\t\t\tresponse,\\n        bytes err\\n...\n      SHL \t\t\tresponse,\\n        bytes err\\n...\n      DUP2 \t\t\tresponse,\\n        bytes err\\n...\n      MSTORE \t\t\tresponse,\\n        bytes err\\n...\n      PUSH 4\t\t\tresponse,\\n        bytes err\\n...\n      ADD \t\t\tresponse,\\n        bytes err\\n...\n      PUSH [tag] 174\t\t\tresponse,\\n        bytes err\\n...\n      SWAP6 \t\t\tresponse,\\n        bytes err\\n...\n      SWAP5 \t\t\tresponse,\\n        bytes err\\n...\n      SWAP4 \t\t\tresponse,\\n        bytes err\\n...\n      SWAP3 \t\t\tresponse,\\n        bytes err\\n...\n      SWAP2 \t\t\tresponse,\\n        bytes err\\n...\n      SWAP1 \t\t\tresponse,\\n        bytes err\\n...\n      PUSH [tag] 175\t\t\tresponse,\\n        bytes err\\n...\n      JUMP \t\t\tresponse,\\n        bytes err\\n...\n    tag 174\t\t\tresponse,\\n        bytes err\\n...\n      JUMPDEST \t\t\tresponse,\\n        bytes err\\n...\n      PUSH 20\t\t\tresponse,\\n        bytes err\\n...\n      PUSH 40\t\t\tresponse,\\n        bytes err\\n...\n      MLOAD \t\t\tresponse,\\n        bytes err\\n...\n      DUP1 \t\t\tresponse,\\n        bytes err\\n...\n      DUP4 \t\t\tresponse,\\n        bytes err\\n...\n      SUB \t\t\tresponse,\\n        bytes err\\n...\n      DUP2 \t\t\tresponse,\\n        bytes err\\n...\n      PUSH 0\t\t\tresponse,\\n        bytes err\\n...\n      DUP8 \t\t\tresponse,\\n        bytes err\\n...\n      GAS \t\t\tresponse,\\n        bytes err\\n...\n      CALL \t\t\tresponse,\\n        bytes err\\n...\n      ISZERO \t\t\tresponse,\\n        bytes err\\n...\n      DUP1 \t\t\tresponse,\\n        bytes err\\n...\n      ISZERO \t\t\tresponse,\\n        bytes err\\n...\n      PUSH [tag] 177\t\t\tresponse,\\n        bytes err\\n...\n      JUMPI \t\t\tresponse,\\n        bytes err\\n...\n      RETURNDATASIZE \t\t\tresponse,\\n        bytes err\\n...\n      PUSH 0\t\t\tresponse,\\n        bytes err\\n...\n      DUP1 \t\t\tresponse,\\n        bytes err\\n...\n      RETURNDATACOPY \t\t\tresponse,\\n        bytes err\\n...\n      RETURNDATASIZE \t\t\tresponse,\\n        bytes err\\n...\n      PUSH 0\t\t\tresponse,\\n        bytes err\\n...\n      REVERT \t\t\tresponse,\\n        bytes err\\n...\n    tag 177\t\t\tresponse,\\n        bytes err\\n...\n      JUMPDEST \t\t\tresponse,\\n        bytes err\\n...\n      POP \t\t\tresponse,\\n        bytes err\\n...\n      POP \t\t\tresponse,\\n        bytes err\\n...\n      POP \t\t\tresponse,\\n        bytes err\\n...\n      POP \t\t\tresponse,\\n        bytes err\\n...\n      PUSH 40\t\t\tresponse,\\n        bytes err\\n...\n      MLOAD \t\t\tresponse,\\n        bytes err\\n...\n      RETURNDATASIZE \t\t\tresponse,\\n        bytes err\\n...\n      PUSH 1F\t\t\tresponse,\\n        bytes err\\n...\n      NOT \t\t\tresponse,\\n        bytes err\\n...\n      PUSH 1F\t\t\tresponse,\\n        bytes err\\n...\n      DUP3 \t\t\tresponse,\\n        bytes err\\n...\n      ADD \t\t\tresponse,\\n        bytes err\\n...\n      AND \t\t\tresponse,\\n        bytes err\\n...\n      DUP3 \t\t\tresponse,\\n        bytes err\\n...\n      ADD \t\t\tresponse,\\n        bytes err\\n...\n      DUP1 \t\t\tresponse,\\n        bytes err\\n...\n      PUSH 40\t\t\tresponse,\\n        bytes err\\n...\n      MSTORE \t\t\tresponse,\\n        bytes err\\n...\n      POP \t\t\tresponse,\\n        bytes err\\n...\n      DUP2 \t\t\tresponse,\\n        bytes err\\n...\n      ADD \t\t\tresponse,\\n        bytes err\\n...\n      SWAP1 \t\t\tresponse,\\n        bytes err\\n...\n      PUSH [tag] 178\t\t\tresponse,\\n        bytes err\\n...\n      SWAP2 \t\t\tresponse,\\n        bytes err\\n...\n      SWAP1 \t\t\tresponse,\\n        bytes err\\n...\n      PUSH [tag] 179\t\t\tresponse,\\n        bytes err\\n...\n      JUMP \t\t\tresponse,\\n        bytes err\\n...\n    tag 178\t\t\tresponse,\\n        bytes err\\n...\n      JUMPDEST \t\t\tresponse,\\n        bytes err\\n...\n      PUSH 40\t\t\t://docs.chain.link/cha\n      MLOAD \t\t\t://docs.chain.link/cha\n      SWAP1 \t\t\tcter,\\n        bytes response,...\n      SWAP2 \t\t\tcter,\\n        bytes response,...\n      POP \t\t\t\n      DUP2 \t\t\tcter,\\n        bytes response,...\n      SWAP1 \t\t\tcter,\\n        bytes response,...\n      PUSH 1131472297A800FEE664D1D89CFA8F7676FF07189ECC53F80BBB5F4969099DB8\t\t\t://docs.chain.link/cha\n      SWAP1 \t\t\t://docs.chain.link/cha\n      PUSH 0\t\t\t://docs.chain.link/cha\n      SWAP1 \t\t\t://docs.chain.link/cha\n      LOG2 \t\t\t://docs.chain.link/cha\n      SWAP6 \t\t\tons/suppo\n      SWAP5 \t\t\t\\n    error UnexpectedRequestI...\n      POP \t\t\t\n      POP \t\t\t\n      POP \t\t\t\n      POP \t\t\t\n      POP \t\t\t\n      JUMP \t\t\t\\n    error UnexpectedRequestI...\n    tag 98\t\t\t-networks\\n    address router ...\n      JUMPDEST \t\t\t-networks\\n    address router ...\n      CALLER \t\t\tcharacter \n      PUSH 1\t\t\t\n      PUSH 1\t\t\t\n      PUSH A0\t\t\t\n      SHL \t\t\t\n      SUB \t\t\t\n      DUP3 \t\t\tFetch character \n      AND \t\t\tFetch character \n      SUB \t\t\tFetch character \n      PUSH [tag] 181\t\t\t\\n    // Fetch character name ...\n      JUMPI \t\t\t\\n    // Fetch character name ...\n      PUSH 40\t\t\t\\n    // Fetch character name ...\n      MLOAD \t\t\t\\n    // Fetch character name ...\n      PUSH 461BCD\t\t\t\n      PUSH E5\t\t\t\n      SHL \t\t\t\n      DUP2 \t\t\t\\n    // Fetch character name ...\n      MSTORE \t\t\t\\n    // Fetch character name ...\n      PUSH 20\t\t\t\n      PUSH 4\t\t\t\\n    // Fetch character name ...\n      DUP3 \t\t\t\\n    // Fetch character name ...\n      ADD \t\t\t\\n    // Fetch character name ...\n      MSTORE \t\t\t\n      PUSH 17\t\t\t\n      PUSH 24\t\t\t\n      DUP3 \t\t\t\n      ADD \t\t\t\n      MSTORE \t\t\t\n      PUSH 43616E6E6F74207472616E7366657220746F2073656C66000000000000000000\t\t\t\n      PUSH 44\t\t\t\n      DUP3 \t\t\t\n      ADD \t\t\t\n      MSTORE \t\t\t\n      PUSH 64\t\t\t\n      ADD \t\t\t\n      PUSH [tag] 91\t\t\t\\n    // Fetch character name ...\n      JUMP \t\t\t\n    tag 181\t\t\t\\n    // Fetch character name ...\n      JUMPDEST \t\t\t\\n    // Fetch character name ...\n      PUSH 1\t\t\t Documentation\n      DUP1 \t\t\t Documentation: htt\n      SLOAD \t\t\t Documentation: htt\n      PUSH 1\t\t\t\n      PUSH 1\t\t\t\n      PUSH A0\t\t\t\n      SHL \t\t\t\n      SUB \t\t\t\n      NOT \t\t\t\n      AND \t\t\t Documentation: htt\n      PUSH 1\t\t\t\n      PUSH 1\t\t\t\n      PUSH A0\t\t\t\n      SHL \t\t\t\n      SUB \t\t\t\n      DUP4 \t\t\t Documentation: htt\n      DUP2 \t\t\t Documentation: htt\n      AND \t\t\t Documentation: htt\n      SWAP2 \t\t\t Documentation: htt\n      DUP3 \t\t\t Documentation: htt\n      OR \t\t\t Documentation: htt\n      SWAP1 \t\t\t Documentation: htt\n      SWAP3 \t\t\t Documentation: htt\n      SSTORE \t\t\t Documentation: htt\n      PUSH 0\t\t\t\n      DUP1 \t\t\te =\\n   \n      SLOAD \t\t\te =\\n   \n      PUSH 40\t\t\tnfo/people\\n    string source ...\n      MLOAD \t\t\tnfo/people\\n    string source ...\n      SWAP3 \t\t\t Documentation: htt\n      SWAP4 \t\t\t Documentation: htt\n      AND \t\t\te =\\n   \n      SWAP2 \t\t\te =\\n   \n      PUSH ED8889F560326EB138920D842192F0EB3DD22B4F139C87A2C57538E05BAE1278\t\t\tnfo/people\\n    string source ...\n      SWAP2 \t\t\tnfo/people\\n    string source ...\n      SWAP1 \t\t\t\n      LOG3 \t\t\tnfo/people\\n    string source ...\n      POP \t\t\t-networks\\n    address router ...\n      JUMP \t\t\t-networks\\n    address router ...\n    tag 115\t\t\ty errors from the Functions re...\n      JUMPDEST \t\t\ty errors from the Functions re...\n      DUP1 \t\t\trnal o\n      MLOAD \t\t\t) internal override \n      PUSH 0\t\t\t \n      SUB \t\t\t) internal override {\\n   \n      PUSH [tag] 185\t\t\t    ) internal override {\\n   ...\n      JUMPI \t\t\t    ) internal override {\\n   ...\n      PUSH 40\t\t\ts_lastRequest\n      MLOAD \t\t\ts_lastRequest\n      PUSH 22CE3EDD\t\t\t\n      PUSH E0\t\t\t\n      SHL \t\t\t\n      DUP2 \t\t\ts_lastRequest\n      MSTORE \t\t\ts_lastRequest\n      PUSH 4\t\t\ts_lastRequest\n      ADD \t\t\ts_lastRequest\n      PUSH 40\t\t\ts_lastRequest\n      MLOAD \t\t\ts_lastRequest\n      DUP1 \t\t\ts_lastRequest\n      SWAP2 \t\t\ts_lastRequest\n      SUB \t\t\ts_lastRequest\n      SWAP1 \t\t\ts_lastRequest\n      REVERT \t\t\ts_lastRequest\n    tag 185\t\t\t    ) internal override {\\n   ...\n      JUMPDEST \t\t\t    ) internal override {\\n   ...\n      DUP4 \t\t\teque\n      DUP4 \t\t\t    revert U\n      PUSH 2\t\t\tequestId) {\\n            rever...\n      DUP2 \t\t\tequestId) {\\n            rever...\n      GT \t\t\tequestId) {\\n            rever...\n      ISZERO \t\t\tequestId) {\\n            rever...\n      PUSH [tag] 187\t\t\tequestId) {\\n            rever...\n      JUMPI \t\t\tequestId) {\\n            rever...\n      PUSH [tag] 187\t\t\tequestId) {\\n            rever...\n      PUSH [tag] 126\t\t\tequestId) {\\n            rever...\n      JUMP \t\t\tequestId) {\\n            rever...\n    tag 187\t\t\tequestId) {\\n            rever...\n      JUMPDEST \t\t\tequestId) {\\n            rever...\n      SWAP1 \t\t\tequestId) {\\n            rever...\n      DUP2 \t\t\tequestId) {\\n            rever...\n      PUSH 2\t\t\tequestId) {\\n            rever...\n      DUP2 \t\t\tequestId) {\\n            rever...\n      GT \t\t\tequestId) {\\n            rever...\n      ISZERO \t\t\tequestId) {\\n            rever...\n      PUSH [tag] 189\t\t\tequestId) {\\n            rever...\n      JUMPI \t\t\tequestId) {\\n            rever...\n      PUSH [tag] 189\t\t\tequestId) {\\n            rever...\n      PUSH [tag] 126\t\t\tequestId) {\\n            rever...\n      JUMP \t\t\tequestId) {\\n            rever...\n    tag 189\t\t\tequestId) {\\n            rever...\n      JUMPDEST \t\t\tequestId) {\\n            rever...\n      SWAP1 \t\t\tequestId) {\\n            rever...\n      MSTORE \t\t\tequestId) {\\n            rever...\n      POP \t\t\t\n      PUSH 40\t\t\ttedRequestID(\n      DUP5 \t\t\ttedRequestID(\n      ADD \t\t\ttedRequestID(\n      DUP3 \t\t\tuestId);\n      DUP1 \t\t\ttedRequestID(requestId);\n      ISZERO \t\t\ttedRequestID(requestId);\n      PUSH [tag] 191\t\t\ttedRequestID(requestId);\n      JUMPI \t\t\ttedRequestID(requestId);\n      PUSH [tag] 191\t\t\ttedRequestID(requestId);\n      PUSH [tag] 126\t\t\ttedRequestID(requestId);\n      JUMP \t\t\ttedRequestID(requestId);\n    tag 191\t\t\ttedRequestID(requestId);\n      JUMPDEST \t\t\ttedRequestID(requestId);\n      SWAP1 \t\t\ttedRequestID(requestId);\n      DUP2 \t\t\ttedRequestID(requestId);\n      DUP1 \t\t\ttedRequestID(requestId);\n      ISZERO \t\t\ttedRequestID(requestId);\n      PUSH [tag] 193\t\t\ttedRequestID(requestId);\n      JUMPI \t\t\ttedRequestID(requestId);\n      PUSH [tag] 193\t\t\ttedRequestID(requestId);\n      PUSH [tag] 126\t\t\ttedRequestID(requestId);\n      JUMP \t\t\ttedRequestID(requestId);\n    tag 193\t\t\ttedRequestID(requestId);\n      JUMPDEST \t\t\ttedRequestID(requestId);\n      SWAP1 \t\t\ttedRequestID(requestId);\n      MSTORE \t\t\ttedRequestID(requestId);\n      POP \t\t\t\n      PUSH 60\t\t\teck if requ\n      SWAP1 \t\t\teck if requ\n      SWAP4 \t\t\teck if requ\n      ADD \t\t\teck if requ\n      SWAP3 \t\t\teck if request IDs m\n      SWAP1 \t\t\teck if request IDs m\n      SWAP3 \t\t\teck if request IDs m\n      MSTORE \t\t\teck if request IDs m\n      POP \t\t\t\n      POP \t\t\t\n      JUMP \t\t\ty errors from the Functions re...\n    tag 120\t\t\t/docs.chain.link/chainlink-fun...\n      JUMPDEST \t\t\t/docs.chain.link/chainlink-fun...\n      PUSH [tag] 194\t\t\t    address router = 0\n      PUSH [tag] 195\t\t\t    address router = 0\n      JUMP \t\t\t    address router = 0\n    tag 194\t\t\t    address router = 0\n      JUMPDEST \t\t\t    address router = 0\n      DUP1 \t\t\t1e1459A3\n      MLOAD \t\t\t1e1459A3\n      PUSH [tag] 197\t\t\t39B3bf370bc41e1459A34b41238D0;...\n      SWAP1 \t\t\t39B3bf370bc41e1459A34b41238D0;...\n      DUP4 \t\t\t41238D0;\n      PUSH [tag] 198\t\t\t39B3bf370bc\n      JUMP \t\t\t39B3bf370bc41e1459A34b41238D0;...\n    tag 197\t\t\t39B3bf370bc41e1459A34b41238D0;...\n      JUMPDEST \t\t\t39B3bf370bc41e1459A34b41238D0;...\n      POP \t\t\t\n      PUSH 0\t\t\tc\n      PUSH 20\t\t\tvaScript s\n      DUP3 \t\t\tvaScript s\n      ADD \t\t\tvaScript s\n      MSTORE \t\t\tvaScript sourc\n      SWAP2 \t\t\tvaSc\n      SWAP1 \t\t\t/docs.chain.link/chainlink-fun...\n      POP \t\t\t\n      JUMP \t\t\t/docs.chain.link/chainlink-fun...\n    tag 122\t\t\triptionId,\\n        string[] c...\n      JUMPDEST \t\t\triptionId,\\n        string[] c...\n      PUSH [tag] 200\t\t\tstId) {\\n        FunctionsRequ...\n      DUP3 \t\t\tnct\n      PUSH 3\t\t\ta\n      DUP4 \t\t\t     \n      MLOAD \t\t\teq;\\n        req.ini\n      PUSH [tag] 201\t\t\tstId) {\\n        F\n      JUMP \t\t\tstId) {\\n        FunctionsRequ...\n    tag 200\t\t\tstId) {\\n        FunctionsRequ...\n      JUMPDEST \t\t\tstId) {\\n        FunctionsRequ...\n      DUP2 \t\t\tstForIn\n      MLOAD \t\t\tstForIn\n      PUSH [tag] 202\t\t\tstForInlineJavaScript(source\n      SWAP1 \t\t\tstForInlineJavaScript(source\n      DUP3 \t\t\t(sour\n      PUSH [tag] 203\t\t\tstForInlineJav\n      JUMP \t\t\tstForInlineJavaScript(source\n    tag 202\t\t\tstForInlineJavaScript(source\n      JUMPDEST \t\t\tstForInlineJavaScript(source\n      POP \t\t\tstForInlineJavaScript(source\n      POP \t\t\triptionId,\\n        string[] c...\n      POP \t\t\triptionId,\\n        string[] c...\n      JUMP \t\t\triptionId,\\n        string[] c...\n    tag 127\t\t\tait Functions.makeHttpRequest(...\n      JUMPDEST \t\t\tait Functions.makeHttpRequest(...\n      DUP2 \t\t\tacterId\n      MLOAD \t\t\tacterId\n      PUSH [tag] 205\t\t\tacterId}/`\"\\n        \"});\"\\n  ...\n      SWAP1 \t\t\tacterId}/`\"\\n        \"});\"\\n  ...\n      PUSH C2\t\t\t        \"if (apiResponse.error...\n      PUSH [tag] 206\t\t\tacterId}/`\"\\n       \n      JUMP \t\t\tacterId}/`\"\\n        \"});\"\\n  ...\n    tag 205\t\t\tacterId}/`\"\\n        \"});\"\\n  ...\n      JUMPDEST \t\t\tacterId}/`\"\\n        \"});\"\\n  ...\n      POP \t\t\tacterId}/`\"\\n        \"});\"\\n  ...\n      PUSH [tag] 114\t\t\trror('Request failed');\"\\n    ...\n      DUP3 \t\t\tst \n      DUP3 \t\t\t     \n      PUSH 40\t\t\tiled');\"\\n        \n      MLOAD \t\t\tiled');\"\\n        \n      PUSH 20\t\t\tiled');\"\\n        \n      ADD \t\t\tiled');\"\\n        \n      PUSH [tag] 208\t\t\tiled');\"\\n        \n      SWAP2 \t\t\tiled');\"\\n        \n      DUP2 \t\t\tde\\n        if (args.lengt\n      MSTORE \t\t\tde\\n        if (args.lengt\n      PUSH 20\t\t\tt \n      ADD \t\t\tlize the request w\n      SWAP1 \t\t\tlize the request w\n      JUMP \t\t\ttId) {\\n        FunctionsReque...\n    tag 208\t\t\tiled');\"\\n        \n      JUMPDEST \t\t\tiled');\"\\n        \n      PUSH 40\t\t\tiled');\"\\n        \n      MLOAD \t\t\tiled');\"\\n        \n      PUSH 20\t\t\tiled');\"\\n        \n      DUP2 \t\t\tiled');\"\\n        \n      DUP4 \t\t\tiled');\"\\n        \n      SUB \t\t\tiled');\"\\n        \n      SUB \t\t\tiled');\"\\n        \n      DUP2 \t\t\tiled');\"\\n        \n      MSTORE \t\t\tiled');\"\\n        \n      SWAP1 \t\t\tiled');\"\\n        \n      PUSH 40\t\t\tiled');\"\\n        \n      MSTORE \t\t\tiled');\"\\n        \n      PUSH [tag] 161\t\t\trror('Requ\n      JUMP \t\t\trror('Request failed');\"\\n    ...\n    tag 137\t\t\tice Callback function for fulf...\n      JUMPDEST \t\t\tice Callback function for fulf...\n      PUSH [tag] 211\t\t\ttId The ID of the request to f...\n      DUP2 \t\t\tto \n      PUSH 4\t\t\tu\n      PUSH [tag] 212\t\t\ttId The ID of the request\n      JUMP \t\t\ttId The ID of the request to f...\n    tag 211\t\t\ttId The ID of the request to f...\n      JUMPDEST \t\t\ttId The ID of the request to f...\n      PUSH 1\t\t\ts\n      DUP2 \t\t\te T\n      PUSH 20\t\t\te The HTT\n      ADD \t\t\te The HTT\n      DUP2 \t\t\te The HTTP res\n      DUP2 \t\t\te The HTTP res\n      MLOAD \t\t\te The HTTP res\n      PUSH [tag] 213\t\t\te The HTTP res\n      SWAP2 \t\t\te The HTTP res\n      SWAP1 \t\t\te The HTTP res\n      PUSH [tag] 214\t\t\te The HTTP res\n      JUMP \t\t\te The HTTP res\n    tag 213\t\t\te The HTTP res\n      JUMPDEST \t\t\te The HTTP res\n      SWAP1 \t\t\te The HTTP res\n      MSTORE \t\t\te The HTTP res\n      POP \t\t\t\n      POP \t\t\t\n      JUMP \t\t\tice Callback function for fulf...\n    tag 148\t\t\t        character = string(res...\n      JUMPDEST \t\t\t        character = string(res...\n      PUSH [tag] 216\t\t\t      // Emit an event to log ...\n      DUP2 \t\t\tlog\n      PUSH 7\t\t\tr\n      PUSH [tag] 212\t\t\t      // Emit an event to\n      JUMP \t\t\t      // Emit an event to log ...\n    tag 216\t\t\t      // Emit an event to log ...\n      JUMPDEST \t\t\t      // Emit an event to log ...\n      PUSH 1\t\t\ta\n      DUP2 \t\t\treq\n      PUSH 20\t\t\trequestId\n      ADD \t\t\trequestId\n      DUP2 \t\t\trequestId, cha\n      DUP2 \t\t\trequestId, cha\n      MLOAD \t\t\trequestId, cha\n      PUSH [tag] 213\t\t\trequestId, cha\n      SWAP2 \t\t\trequestId, cha\n      SWAP1 \t\t\trequestId, cha\n      PUSH [tag] 218\t\t\trequestId, cha\n      JUMP \t\t\trequestId, cha\n    tag 161\t\t\tfor the Chainlink subscription...\n      JUMPDEST \t\t\tfor the Chainlink subscription...\n      PUSH [tag] 200\t\t\tuest\\n     * @return requestId...\n      DUP3 \t\t\tn r\n      PUSH 2\t\t\ts\n      DUP4 \t\t\test\\n \n      MLOAD \t\t\test\\n     */\\n\n      PUSH [tag] 201\t\t\tuest\\n     * @retu\n      JUMP \t\t\tuest\\n     * @return requestId...\n    tag 198\t\t\tse, and error\\n    bytes32 pub...\n      JUMPDEST \t\t\tse, and error\\n    bytes32 pub...\n      PUSH 40\t\t\t\n      DUP1 \t\t\t\n      MLOAD \t\t\t\n      DUP1 \t\t\t\n      DUP3 \t\t\t\n      ADD \t\t\t\n      SWAP1 \t\t\t\n      SWAP2 \t\t\t\n      MSTORE \t\t\t\n      PUSH 60\t\t\t\n      DUP2 \t\t\t\n      MSTORE \t\t\t\n      PUSH 0\t\t\t\n      PUSH 20\t\t\t\n      DUP3 \t\t\t\n      ADD \t\t\t\n      MSTORE \t\t\t\n      PUSH [tag] 225\t\t\t s_lastError;\n      PUSH 20\t\t\tr;\n      DUP4 \t\t\t s_lastE\n      PUSH [tag] 226\t\t\t s_lastError;\n      JUMP \t\t\t s_lastError;\n    tag 225\t\t\t s_lastError;\n      JUMPDEST \t\t\t s_lastError;\n      ISZERO \t\t\t s_lastError;\\n\\n   \n      PUSH [tag] 227\t\t\tblic s_lastError;\\n\\n    // Cu...\n      JUMPI \t\t\tblic s_lastError;\\n\\n    // Cu...\n      PUSH [tag] 228\t\t\texpectedReque\n      PUSH 20\t\t\tue\n      DUP4 \t\t\texpected\n      PUSH [tag] 226\t\t\texpectedReque\n      JUMP \t\t\texpectedReque\n    tag 228\t\t\texpectedReque\n      JUMPDEST \t\t\texpectedReque\n      PUSH [tag] 229\t\t\tror UnexpectedReques\n      SWAP1 \t\t\tror UnexpectedReques\n      PUSH 20\t\t\tro\n      PUSH [tag] 218\t\t\tror UnexpectedReques\n      JUMP \t\t\tror UnexpectedReques\n    tag 229\t\t\tror UnexpectedReques\n      JUMPDEST \t\t\tror UnexpectedReques\n      PUSH [tag] 230\t\t\t type\\n    error UnexpectedReq...\n      SWAP1 \t\t\t type\\n    error UnexpectedReq...\n      DUP4 \t\t\t type\\n    error UnexpectedReq...\n      PUSH [tag] 214\t\t\t type\\n    error UnexpectedReq...\n      JUMP \t\t\t type\\n    error UnexpectedReq...\n    tag 230\t\t\t type\\n    error UnexpectedReq...\n      JUMPDEST \t\t\t type\\n    error UnexpectedReq...\n      SWAP2 \t\t\t type\\n    error UnexpectedReq...\n      POP \t\t\t type\\n    error UnexpectedReq...\n    tag 227\t\t\tblic s_lastError;\\n\\n    // Cu...\n      JUMPDEST \t\t\tblic s_lastError;\\n\\n    // Cu...\n      PUSH 20\t\t\tesponse(\\n   \n      DUP1 \t\t\tesponse(\\n   \n      DUP5 \t\t\tesponse(\\n   \n      ADD \t\t\tesponse(\\n   \n      DUP4 \t\t\tesponse(\\n        bytes3\n      SWAP1 \t\t\tesponse(\\n        bytes3\n      MSTORE \t\t\tesponse(\\n        bytes3\n      PUSH 40\t\t\t    \n      MLOAD \t\t\tr,\\n        \n      DUP1 \t\t\te,\\n        bytes\n      DUP6 \t\t\te,\\n        bytes\n      MSTORE \t\t\te,\\n        bytes\n      PUSH 0\t\t\t\n      DUP2 \t\t\t    // Router \n      MSTORE \t\t\t    // Router \n      SWAP1 \t\t\tr,\\n        \n      DUP2 \t\t\t    // Check to ge\n      DUP5 \t\t\t    // Check to ge\n      ADD \t\t\t    // Check to ge\n      ADD \t\t\tSepolia\\n    // Check to get\n      DUP2 \t\t\tess for your\n      DUP2 \t\t\tess for your\n      LT \t\t\tess for your\n      ISZERO \t\t\tddress for your supported netw...\n      PUSH [tag] 231\t\t\tddress for your supported netw...\n      JUMPI \t\t\tddress for your supported netw...\n      PUSH 0\t\t\tc\n      DUP1 \t\t\t/\n      REVERT \t\t\thttps://docs\n    tag 231\t\t\tddress for your supported netw...\n      JUMPDEST \t\t\tddress for your supported netw...\n      PUSH 40\t\t\tppor\n      MSTORE \t\t\tions/supported-ne\n      POP \t\t\t\n      DUP3 \t\t\t= 0\n      SWAP1 \t\t\t= 0\n      POP \t\t\t\n    tag 224\t\t\tse, and error\\n    bytes32 pub...\n      JUMPDEST \t\t\tse, and error\\n    bytes32 pub...\n      SWAP3 \t\t\tse, and error\\n    bytes32 pub...\n      SWAP2 \t\t\tse, and error\\n    bytes32 pub...\n      POP \t\t\tse, and error\\n    bytes32 pub...\n      POP \t\t\tse, and error\\n    bytes32 pub...\n      JUMP \t\t\tse, and error\\n    bytes32 pub...\n    tag 201\t\t\t\n      JUMPDEST \t\t\t\n      PUSH 17\t\t\t\n      DUP2 \t\t\t\n      PUSH 1\t\t\t\n      PUSH 1\t\t\t\n      PUSH 40\t\t\t\n      SHL \t\t\t\n      SUB \t\t\t\n      AND \t\t\t\n      GT \t\t\t\n      PUSH [tag] 233\t\t\t\n      JUMPI \t\t\t\n      DUP3 \t\t\t\n      MLOAD \t\t\t\n      PUSH [tag] 234\t\t\t\n      SWAP1 \t\t\t\n      PUSH E0\t\t\t\n      PUSH 5\t\t\t\n      DUP6 \t\t\t\n      SWAP1 \t\t\t\n      SHL \t\t\t\n      AND \t\t\t\n      DUP4 \t\t\t\n      OR \t\t\t\n      PUSH [tag] 206\t\t\t\n      JUMP \t\t\t\n    tag 234\t\t\t\n      JUMPDEST \t\t\t\n      POP \t\t\t\n      POP \t\t\tstForInlineJavaScript(source\n      POP \t\t\triptionId,\\n        string[] c...\n      POP \t\t\triptionId,\\n        string[] c...\n      JUMP \t\t\triptionId,\\n        string[] c...\n    tag 233\t\t\t\n      JUMPDEST \t\t\t\n      PUSH FF\t\t\t\n      DUP2 \t\t\t\n      PUSH 1\t\t\t\n      PUSH 1\t\t\t\n      PUSH 40\t\t\t\n      SHL \t\t\t\n      SUB \t\t\t\n      AND \t\t\t\n      GT \t\t\t\n      PUSH [tag] 236\t\t\t\n      JUMPI \t\t\t\n      DUP3 \t\t\t\n      MLOAD \t\t\t\n      PUSH [tag] 237\t\t\t\n      SWAP1 \t\t\t\n      PUSH 18\t\t\t\n      PUSH 1FE0\t\t\t\n      PUSH 5\t\t\t\n      DUP7 \t\t\t\n      SWAP1 \t\t\t\n      SHL \t\t\t\n      AND \t\t\t\n      OR \t\t\t\n      PUSH [tag] 206\t\t\t\n      JUMP \t\t\t\n    tag 237\t\t\t\n      JUMPDEST \t\t\t\n      POP \t\t\t\n      DUP3 \t\t\t\n      MLOAD \t\t\t\n      PUSH [tag] 234\t\t\t\n      SWAP1 \t\t\t\n      PUSH 1\t\t\t\n      PUSH 1\t\t\t\n      PUSH 40\t\t\t\n      SHL \t\t\t\n      SUB \t\t\t\n      DUP4 \t\t\t\n      AND \t\t\t\n      PUSH 1\t\t\t\n      PUSH [tag] 239\t\t\t\n      JUMP \t\t\t\n    tag 236\t\t\t\n      JUMPDEST \t\t\t\n      PUSH FFFF\t\t\t\n      DUP2 \t\t\t\n      PUSH 1\t\t\t\n      PUSH 1\t\t\t\n      PUSH 40\t\t\t\n      SHL \t\t\t\n      SUB \t\t\t\n      AND \t\t\t\n      GT \t\t\t\n      PUSH [tag] 241\t\t\t\n      JUMPI \t\t\t\n      DUP3 \t\t\t\n      MLOAD \t\t\t\n      PUSH [tag] 242\t\t\t\n      SWAP1 \t\t\t\n      PUSH 19\t\t\t\n      PUSH 1FE0\t\t\t\n      PUSH 5\t\t\t\n      DUP7 \t\t\t\n      SWAP1 \t\t\t\n      SHL \t\t\t\n      AND \t\t\t\n      OR \t\t\t\n      PUSH [tag] 206\t\t\t\n      JUMP \t\t\t\n    tag 242\t\t\t\n      JUMPDEST \t\t\t\n      POP \t\t\t\n      DUP3 \t\t\t\n      MLOAD \t\t\t\n      PUSH [tag] 234\t\t\t\n      SWAP1 \t\t\t\n      PUSH 1\t\t\t\n      PUSH 1\t\t\t\n      PUSH 40\t\t\t\n      SHL \t\t\t\n      SUB \t\t\t\n      DUP4 \t\t\t\n      AND \t\t\t\n      PUSH 2\t\t\t\n      PUSH [tag] 239\t\t\t\n      JUMP \t\t\t\n    tag 241\t\t\t\n      JUMPDEST \t\t\t\n      PUSH FFFFFFFF\t\t\t\n      DUP2 \t\t\t\n      PUSH 1\t\t\t\n      PUSH 1\t\t\t\n      PUSH 40\t\t\t\n      SHL \t\t\t\n      SUB \t\t\t\n      AND \t\t\t\n      GT \t\t\t\n      PUSH [tag] 245\t\t\t\n      JUMPI \t\t\t\n      DUP3 \t\t\t\n      MLOAD \t\t\t\n      PUSH [tag] 246\t\t\t\n      SWAP1 \t\t\t\n      PUSH 1A\t\t\t\n      PUSH 1FE0\t\t\t\n      PUSH 5\t\t\t\n      DUP7 \t\t\t\n      SWAP1 \t\t\t\n      SHL \t\t\t\n      AND \t\t\t\n      OR \t\t\t\n      PUSH [tag] 206\t\t\t\n      JUMP \t\t\t\n    tag 246\t\t\t\n      JUMPDEST \t\t\t\n      POP \t\t\t\n      DUP3 \t\t\t\n      MLOAD \t\t\t\n      PUSH [tag] 234\t\t\t\n      SWAP1 \t\t\t\n      PUSH 1\t\t\t\n      PUSH 1\t\t\t\n      PUSH 40\t\t\t\n      SHL \t\t\t\n      SUB \t\t\t\n      DUP4 \t\t\t\n      AND \t\t\t\n      PUSH 4\t\t\t\n      PUSH [tag] 239\t\t\t\n      JUMP \t\t\t\n    tag 245\t\t\t\n      JUMPDEST \t\t\t\n      DUP3 \t\t\t\n      MLOAD \t\t\t\n      PUSH [tag] 249\t\t\t\n      SWAP1 \t\t\t\n      PUSH 1B\t\t\t\n      PUSH 1FE0\t\t\t\n      PUSH 5\t\t\t\n      DUP7 \t\t\t\n      SWAP1 \t\t\t\n      SHL \t\t\t\n      AND \t\t\t\n      OR \t\t\t\n      PUSH [tag] 206\t\t\t\n      JUMP \t\t\t\n    tag 249\t\t\t\n      JUMPDEST \t\t\t\n      POP \t\t\t\n      DUP3 \t\t\t\n      MLOAD \t\t\t\n      PUSH [tag] 234\t\t\t\n      SWAP1 \t\t\t\n      PUSH 1\t\t\t\n      PUSH 1\t\t\t\n      PUSH 40\t\t\t\n      SHL \t\t\t\n      SUB \t\t\t\n      DUP4 \t\t\t\n      AND \t\t\t\n      PUSH 8\t\t\t\n      PUSH [tag] 239\t\t\t\n      JUMP \t\t\t\n    tag 203\t\t\t\n      JUMPDEST \t\t\t\n      PUSH 40\t\t\t\n      DUP1 \t\t\t\n      MLOAD \t\t\t\n      DUP1 \t\t\t\n      DUP3 \t\t\t\n      ADD \t\t\t\n      SWAP1 \t\t\t\n      SWAP2 \t\t\t\n      MSTORE \t\t\t\n      PUSH 60\t\t\t\n      DUP2 \t\t\t\n      MSTORE \t\t\t\n      PUSH 0\t\t\t\n      PUSH 20\t\t\t\n      DUP3 \t\t\t\n      ADD \t\t\t\n      MSTORE \t\t\t\n      PUSH [tag] 253\t\t\t\n      DUP4 \t\t\t\n      DUP4 \t\t\t\n      DUP5 \t\t\t\n      MLOAD \t\t\t\n      PUSH [tag] 254\t\t\t\n      JUMP \t\t\t\n    tag 253\t\t\t\n      JUMPDEST \t\t\t\n      SWAP4 \t\t\t\n      SWAP3 \t\t\t\n      POP \t\t\t\n      POP \t\t\t\n      POP \t\t\t\n      JUMP \t\t\t\n    tag 206\t\t\t\n      JUMPDEST \t\t\t\n      PUSH 40\t\t\t\n      DUP1 \t\t\t\n      MLOAD \t\t\t\n      DUP1 \t\t\t\n      DUP3 \t\t\t\n      ADD \t\t\t\n      SWAP1 \t\t\t\n      SWAP2 \t\t\t\n      MSTORE \t\t\t\n      PUSH 60\t\t\t\n      DUP2 \t\t\t\n      MSTORE \t\t\t\n      PUSH 0\t\t\t\n      PUSH 20\t\t\t\n      DUP3 \t\t\t\n      ADD \t\t\t\n      MSTORE \t\t\t\n      DUP3 \t\t\t\n      MLOAD \t\t\t\n      MLOAD \t\t\t\n      PUSH 0\t\t\t\n      PUSH [tag] 257\t\t\t\n      DUP3 \t\t\t\n      PUSH 1\t\t\t\n      PUSH [tag] 214\t\t\t\n      JUMP \t\t\t\n    tag 257\t\t\t\n      JUMPDEST \t\t\t\n      SWAP1 \t\t\t\n      POP \t\t\t\n      DUP5 \t\t\t\n      PUSH 20\t\t\t\n      ADD \t\t\t\n      MLOAD \t\t\t\n      DUP3 \t\t\t\n      LT \t\t\t\n      PUSH [tag] 259\t\t\t\n      JUMPI \t\t\t\n      PUSH [tag] 259\t\t\t\n      DUP6 \t\t\t\n      PUSH [tag] 260\t\t\t\n      DUP4 \t\t\t\n      PUSH 2\t\t\t\n      PUSH [tag] 261\t\t\t\n      JUMP \t\t\t\n    tag 260\t\t\t\n      JUMPDEST \t\t\t\n      PUSH [tag] 262\t\t\t\n      JUMP \t\t\t\n    tag 259\t\t\t\n      JUMPDEST \t\t\t\n      DUP5 \t\t\t\n      MLOAD \t\t\t\n      PUSH 20\t\t\t\n      DUP4 \t\t\t\n      DUP3 \t\t\t\n      ADD \t\t\t\n      ADD \t\t\t\n      DUP6 \t\t\t\n      DUP2 \t\t\t\n      MSTORE8 \t\t\t\n      POP \t\t\t\n      DUP1 \t\t\t\n      MLOAD \t\t\t\n      DUP3 \t\t\t\n      GT \t\t\t\n      ISZERO \t\t\t\n      PUSH [tag] 263\t\t\t\n      JUMPI \t\t\t\n      DUP2 \t\t\t\n      DUP2 \t\t\t\n      MSTORE \t\t\t\n    tag 263\t\t\t\n      JUMPDEST \t\t\t\n      POP \t\t\t\n      SWAP4 \t\t\t\n      SWAP5 \t\t\t\n      SWAP4 \t\t\t\n      POP \t\t\t\n      POP \t\t\t\n      POP \t\t\t\n      POP \t\t\t\n      JUMP \t\t\t\n    tag 212\t\t\t\n      JUMPDEST \t\t\t\n      DUP2 \t\t\t\n      MLOAD \t\t\t\n      PUSH [tag] 202\t\t\t\n      SWAP1 \t\t\t\n      PUSH 1F\t\t\t\n      PUSH 1FE0\t\t\t\n      PUSH 5\t\t\t\n      DUP6 \t\t\t\n      SWAP1 \t\t\t\n      SHL \t\t\t\n      AND \t\t\t\n      OR \t\t\t\n      PUSH [tag] 206\t\t\t\n      JUMP \t\t\t\n    tag 239\t\t\t\n      JUMPDEST \t\t\t\n      PUSH 40\t\t\t\n      DUP1 \t\t\t\n      MLOAD \t\t\t\n      DUP1 \t\t\t\n      DUP3 \t\t\t\n      ADD \t\t\t\n      SWAP1 \t\t\t\n      SWAP2 \t\t\t\n      MSTORE \t\t\t\n      PUSH 60\t\t\t\n      DUP2 \t\t\t\n      MSTORE \t\t\t\n      PUSH 0\t\t\t\n      PUSH 20\t\t\t\n      DUP3 \t\t\t\n      ADD \t\t\t\n      MSTORE \t\t\t\n      DUP4 \t\t\t\n      MLOAD \t\t\t\n      MLOAD \t\t\t\n      PUSH 0\t\t\t\n      PUSH [tag] 268\t\t\t\n      DUP3 \t\t\t\n      DUP6 \t\t\t\n      PUSH [tag] 214\t\t\t\n      JUMP \t\t\t\n    tag 268\t\t\t\n      JUMPDEST \t\t\t\n      SWAP1 \t\t\t\n      POP \t\t\t\n      DUP6 \t\t\t\n      PUSH 20\t\t\t\n      ADD \t\t\t\n      MLOAD \t\t\t\n      DUP2 \t\t\t\n      GT \t\t\t\n      ISZERO \t\t\t\n      PUSH [tag] 270\t\t\t\n      JUMPI \t\t\t\n      PUSH [tag] 270\t\t\t\n      DUP7 \t\t\t\n      PUSH [tag] 260\t\t\t\n      DUP4 \t\t\t\n      PUSH 2\t\t\t\n      PUSH [tag] 261\t\t\t\n      JUMP \t\t\t\n    tag 270\t\t\t\n      JUMPDEST \t\t\t\n      PUSH 0\t\t\t\n      PUSH 1\t\t\t\n      PUSH [tag] 272\t\t\t\n      DUP7 \t\t\t\n      PUSH 100\t\t\t\n      PUSH [tag] 273\t\t\t\n      JUMP \t\t\t\n    tag 272\t\t\t\n      JUMPDEST \t\t\t\n      PUSH [tag] 274\t\t\t\n      SWAP2 \t\t\t\n      SWAP1 \t\t\t\n      PUSH [tag] 218\t\t\t\n      JUMP \t\t\t\n    tag 274\t\t\t\n      JUMPDEST \t\t\t\n      SWAP1 \t\t\t\n      POP \t\t\t\n      DUP7 \t\t\t\n      MLOAD \t\t\t\n      DUP3 \t\t\t\n      DUP2 \t\t\t\n      ADD \t\t\t\n      DUP8 \t\t\t\n      DUP4 \t\t\t\n      NOT \t\t\t\n      DUP3 \t\t\t\n      MLOAD \t\t\t\n      AND \t\t\t\n      OR \t\t\t\n      DUP2 \t\t\t\n      MSTORE \t\t\t\n      POP \t\t\t\n      DUP1 \t\t\t\n      MLOAD \t\t\t\n      DUP4 \t\t\t\n      GT \t\t\t\n      ISZERO \t\t\t\n      PUSH [tag] 275\t\t\t\n      JUMPI \t\t\t\n      DUP3 \t\t\t\n      DUP2 \t\t\t\n      MSTORE \t\t\t\n    tag 275\t\t\t\n      JUMPDEST \t\t\t\n      POP \t\t\t\n      SWAP6 \t\t\t\n      SWAP7 \t\t\t\n      SWAP6 \t\t\t\n      POP \t\t\t\n      POP \t\t\t\n      POP \t\t\t\n      POP \t\t\t\n      POP \t\t\t\n      POP \t\t\t\n      JUMP \t\t\t\n    tag 254\t\t\tk subscription\\n     * @param ...\n      JUMPDEST \t\t\tk subscription\\n     * @param ...\n      PUSH 40\t\t\t\n      DUP1 \t\t\t\n      MLOAD \t\t\t\n      DUP1 \t\t\t\n      DUP3 \t\t\t\n      ADD \t\t\t\n      SWAP1 \t\t\t\n      SWAP2 \t\t\t\n      MSTORE \t\t\t\n      PUSH 60\t\t\t\n      DUP2 \t\t\t\n      MSTORE \t\t\t\n      PUSH 0\t\t\t\n      PUSH 20\t\t\t\n      DUP3 \t\t\t\n      ADD \t\t\t\n      MSTORE \t\t\t\n      DUP3 \t\t\t  */\n      MLOAD \t\t\t  */\\n    fu\n      DUP3 \t\t\test\n      GT \t\t\test\\n     */\\n    fu\n      ISZERO \t\t\test\\n     */\\n    fu\n      PUSH [tag] 278\t\t\tthe request\\n     */\\n    fun\n      JUMPI \t\t\tthe request\\n     */\\n    fun\n      PUSH 0\t\t\tthe request\\n     */\\n    fun\n      DUP1 \t\t\tthe request\\n     */\\n    fun\n      REVERT \t\t\tthe request\\n     */\\n    fun\n    tag 278\t\t\tthe request\\n     */\\n    fun\n      JUMPDEST \t\t\tthe request\\n     */\\n    fun\n      DUP4 \t\t\t     ui\n      MLOAD \t\t\t     ui\n      MLOAD \t\t\t     uint64 su\n      PUSH 0\t\t\tequest(\\n\n      PUSH [tag] 279\t\t\t] calldat\n      DUP5 \t\t\tdat\n      DUP4 \t\t\t     uint64 su\n      PUSH [tag] 214\t\t\t] calldat\n      JUMP \t\t\t] calldat\n    tag 279\t\t\t] calldat\n      JUMPDEST \t\t\t] calldat\n      SWAP1 \t\t\tId,\\n        string[] calldat\n      POP \t\t\tId,\\n        string[] calldat\n      DUP6 \t\t\tner\n      PUSH 20\t\t\tner returns \n      ADD \t\t\tner returns \n      MLOAD \t\t\tner returns \n      DUP2 \t\t\txternal onl\n      GT \t\t\txternal onlyOwner returns \n      ISZERO \t\t\t ) external onlyOwner returns ...\n      PUSH [tag] 281\t\t\t ) external onlyOwner returns ...\n      JUMPI \t\t\t ) external onlyOwner returns ...\n      PUSH [tag] 281\t\t\tId) {\\n        FunctionsReque\n      DUP7 \t\t\t   \n      PUSH [tag] 260\t\t\t  FunctionsRequ\n      DUP4 \t\t\t  Functions\n      PUSH 2\t\t\tu\n      PUSH [tag] 261\t\t\t  FunctionsRequ\n      JUMP \t\t\t  FunctionsRequ\n    tag 281\t\t\tId) {\\n        FunctionsReque\n      JUMPDEST \t\t\tId) {\\n        FunctionsReque\n      DUP6 \t\t\t> 0) req.s\n      MLOAD \t\t\t> 0) req.s\n      DUP1 \t\t\tequest and st\n      MLOAD \t\t\tequest and st\n      DUP4 \t\t\t subscriptionId,\\n        \n      DUP3 \t\t\t subscriptionId,\\n        \n      ADD \t\t\t subscriptionId,\\n        \n      PUSH 20\t\t\t\\n \n      ADD \t\t\t subscriptionId,\\n        \n      SWAP2 \t\t\t subscriptionId,\\n        \n      PUSH 0\t\t\t;\\n       \n      SWAP2 \t\t\t;\\n       \n      DUP1 \t\t\t;\\n    }\\n\\n    /**\\n     *\n      DUP6 \t\t\t;\\n    }\\n\\n    /**\\n     *\n      GT \t\t\t;\\n    }\\n\\n    /**\\n     *\n      ISZERO \t\t\ttId;\\n    }\\n\\n    /**\\n     *...\n      PUSH [tag] 283\t\t\ttId;\\n    }\\n\\n    /**\\n     *...\n      JUMPI \t\t\ttId;\\n    }\\n\\n    /**\\n     *...\n      DUP5 \t\t\tfilling a r\n      DUP3 \t\t\t for f\n      MSTORE \t\t\tunction for fulfilling a re\n    tag 283\t\t\ttId;\\n    }\\n\\n    /**\\n     *...\n      JUMPDEST \t\t\ttId;\\n    }\\n\\n    /**\\n     *...\n      POP \t\t\t\n      POP \t\t\t\n      POP \t\t\t\n      PUSH 20\t\t\tre\n      DUP7 \t\t\tID of the req\n      ADD \t\t\tID of the req\n    tag 284\t\t\tparam err Any errors from the ...\n      JUMPDEST \t\t\tparam err Any errors from the ...\n      PUSH 20\t\t\ter\n      DUP7 \t\t\trr \n      LT \t\t\trr Any er\n      PUSH [tag] 285\t\t\tparam err Any errors from the ...\n      JUMPI \t\t\tparam err Any errors from the ...\n      DUP1 \t\t\t(\\n        \n      MLOAD \t\t\t(\\n        \n      DUP3 \t\t\tulfillRequest(\\n        b\n      MSTORE \t\t\tulfillRequest(\\n        b\n      PUSH [tag] 287\t\t\tytes memor\n      PUSH 20\t\t\tor\n      DUP4 \t\t\teque\n      PUSH [tag] 214\t\t\tytes memor\n      JUMP \t\t\tytes memor\n    tag 287\t\t\tytes memor\n      JUMPDEST \t\t\tytes memor\n      SWAP2 \t\t\tytes memor\n      POP \t\t\t\n      PUSH [tag] 288\t\t\t      byt\n      PUSH 20\t\t\tyt\n      DUP3 \t\t\t      byt\n      PUSH [tag] 214\t\t\t      byt\n      JUMP \t\t\t      byt\n    tag 288\t\t\t      byt\n      JUMPDEST \t\t\t      byt\n      SWAP1 \t\t\t      byt\n      POP \t\t\t\n      PUSH [tag] 289\t\t\trs from t\n      PUSH 20\t\t\t t\n      DUP8 \t\t\trs from t\n      PUSH [tag] 218\t\t\trs from t\n      JUMP \t\t\trs from t\n    tag 289\t\t\trs from t\n      JUMPDEST \t\t\trs from t\n      SWAP6 \t\t\trs from t\n      POP \t\t\trs from t\n      PUSH [tag] 284\t\t\tparam err Any errors from the ...\n      JUMP \t\t\tparam err Any errors from the ...\n    tag 285\t\t\tparam err Any errors from the ...\n      JUMPDEST \t\t\tparam err Any errors from the ...\n      MLOAD \t\t\t }\\n       \n      DUP2 \t\t\te response \n      MLOAD \t\t\te response \n      PUSH 0\t\t\t\n      NOT \t\t\t\n      PUSH 20\t\t\tve\n      DUP9 \t\t\tvert Une\n      SWAP1 \t\t\tvert Une\n      SUB \t\t\tvert Une\n      PUSH 100\t\t\t   \n      EXP \t\t\t      revert Unex\n      ADD \t\t\t       revert Unexpecte\n      SWAP1 \t\t\th the response and any\n      DUP2 \t\t\th the response and any\n      AND \t\t\th the response and any\n      SWAP1 \t\t\t/ Update \n      NOT \t\t\t/ Update \n      SWAP2 \t\t\t     }\\n        // Update t\n      SWAP1 \t\t\t     }\\n        // Update t\n      SWAP2 \t\t\t     }\\n        // Update t\n      AND \t\t\t     }\\n        // Update t\n      OR \t\t\t = response;\\n        \n      SWAP1 \t\t\t_lastResponse = response;\\n   ...\n      MSTORE \t\t\t_lastResponse = response;\\n   ...\n      POP \t\t\t\n      DUP5 \t\t\tstE\n      SWAP2 \t\t\tstE\n      POP \t\t\t\n      POP \t\t\t\n      SWAP4 \t\t\tk subscription\\n     * @param ...\n      SWAP3 \t\t\tk subscription\\n     * @param ...\n      POP \t\t\tk subscription\\n     * @param ...\n      POP \t\t\tk subscription\\n     * @param ...\n      POP \t\t\tk subscription\\n     * @param ...\n      JUMP \t\t\tk subscription\\n     * @param ...\n    tag 262\t\t\tst failed');\"\\n        \"}\"\\n  ...\n      JUMPDEST \t\t\tst failed');\"\\n        \"}\"\\n  ...\n      DUP2 \t\t\todeStri\n      MLOAD \t\t\todeStri\n      PUSH [tag] 291\t\t\tme);\";\\n\\n    //Callb\n      DUP4 \t\t\tode\n      DUP4 \t\t\t  //Call\n      PUSH [tag] 198\t\t\tme);\n      JUMP \t\t\tme);\";\\n\\n    //Callb\n    tag 291\t\t\tme);\";\\n\\n    //Callb\n      JUMPDEST \t\t\tme);\";\\n\\n    //Callb\n      POP \t\t\tme);\";\\n\\n    //Callb\n      PUSH [tag] 234\t\t\tmit\\n    uint32 gasL\n      DUP4 \t\t\t ui\n      DUP3 \t\t\t32 gas\n      PUSH [tag] 203\t\t\tmit\\n  \n      JUMP \t\t\tmit\\n    uint32 gasL\n    tag 195\t\t\t\n      JUMPDEST \t\t\t\n      PUSH 40\t\t\t\n      MLOAD \t\t\t\n      DUP1 \t\t\t\n      PUSH 40\t\t\t\n      ADD \t\t\t\n      PUSH 40\t\t\t\n      MSTORE \t\t\t\n      DUP1 \t\t\t\n      PUSH [tag] 299\t\t\t\n      PUSH 40\t\t\t\n      MLOAD \t\t\t\n      DUP1 \t\t\t\n      PUSH 40\t\t\t\n      ADD \t\t\t\n      PUSH 40\t\t\t\n      MSTORE \t\t\t\n      DUP1 \t\t\t\n      PUSH 60\t\t\t\n      DUP2 \t\t\t\n      MSTORE \t\t\t\n      PUSH 20\t\t\t\n      ADD \t\t\t\n      PUSH 0\t\t\t\n      DUP2 \t\t\t\n      MSTORE \t\t\t\n      POP \t\t\t\n      SWAP1 \t\t\t\n      JUMP \t\t\t\n    tag 299\t\t\t\n      JUMPDEST \t\t\t\n      DUP2 \t\t\t\n      MSTORE \t\t\t\n      PUSH 20\t\t\t\n      ADD \t\t\t\n      PUSH 0\t\t\t\n      DUP2 \t\t\t\n      MSTORE \t\t\t\n      POP \t\t\t\n      SWAP1 \t\t\t\n      JUMP \t\t\t\n    tag 300\t\t\te-Identifier: MIT\\npragma soli...\n      JUMPDEST \t\t\te-Identifier: MIT\\npragma soli...\n      PUSH 4E487B71\t\t\tlient} fro\n      PUSH E0\t\t\tion\n      SHL \t\t\tunctionsClient} from\n      PUSH 0\t\t\t \n      MSTORE \t\t\t\\nimport {FunctionsClient} fro...\n      PUSH 41\t\t\tts@1\n      PUSH 4\t\t\tr\n      MSTORE \t\t\tnk/contracts@1.\n      PUSH 24\t\t\tons/\n      PUSH 0\t\t\tc\n      REVERT \t\t\t0.8/functions/v\n    tag 301\t\t\tionsClient.sol\";\\nimport {Conf...\n      JUMPDEST \t\t\tionsClient.sol\";\\nimport {Conf...\n      PUSH 40\t\t\t.1\n      MLOAD \t\t\tts@1.1.1/\n      PUSH 1F\t\t\teq\n      DUP3 \t\t\t\\nimport {Func\n      ADD \t\t\t\\nimport {Func\n      PUSH 1F\t\t\t\n      NOT \t\t\t\n      AND \t\t\tol\";\\nimport {FunctionsReque\n      DUP2 \t\t\tirmedOwner.sol\";\\nimport {Func...\n      ADD \t\t\tirmedOwner.sol\";\\nimport {Func...\n      PUSH 1\t\t\t\n      PUSH 1\t\t\t\n      PUSH 40\t\t\t\n      SHL \t\t\t\n      SUB \t\t\t\n      DUP2 \t\t\tlink/contracts@1.1.1/src/v0.8/...\n      GT \t\t\tlink/contracts@1.1.1/src/v0.8/...\n      DUP3 \t\t\tons/v1_0_0/libraries/F\n      DUP3 \t\t\tons/v1_0_0/libraries/F\n      LT \t\t\tons/v1_0_0/libraries/F\n      OR \t\t\tainlink/contracts@1.1.1/src/v0...\n      ISZERO \t\t\t@chainlink/contracts@1.1.1/src...\n      PUSH [tag] 316\t\t\t@chainlink/contracts@1.1.1/src...\n      JUMPI \t\t\t@chainlink/contracts@1.1.1/src...\n      PUSH [tag] 316\t\t\tionsRequest.sol\";\\n\n      PUSH [tag] 300\t\t\tionsRequest.sol\";\\n\n      JUMP \t\t\tionsRequest.sol\";\\n\n    tag 316\t\t\tionsRequest.sol\";\\n\n      JUMPDEST \t\t\tionsRequest.sol\";\\n\n      PUSH 40\t\t\tst\n      MSTORE \t\t\tuest testnet LINK and \n      SWAP2 \t\t\tionsClient.sol\";\\nimport {Conf...\n      SWAP1 \t\t\tionsClient.sol\";\\nimport {Conf...\n      POP \t\t\t\n      JUMP \t\t\tionsClient.sol\";\\nimport {Conf...\n    tag 302\t\t\tttps://faucets.chain.link/\\n *...\n      JUMPDEST \t\t\tttps://faucets.chain.link/\\n *...\n      PUSH 0\t\t\ttract\n      PUSH 1\t\t\t\n      PUSH 1\t\t\t\n      PUSH 40\t\t\t\n      SHL \t\t\t\n      SUB \t\t\t\n      DUP4 \t\t\tETH an\n      GT \t\t\tst ETH and LINK faucets here: \n      ISZERO \t\t\tatest ETH and LINK faucets her...\n      PUSH [tag] 319\t\t\tatest ETH and LINK faucets her...\n      JUMPI \t\t\tatest ETH and LINK faucets her...\n      PUSH [tag] 319\t\t\tps://docs.chain.li\n      PUSH [tag] 300\t\t\tps://docs.chain.li\n      JUMP \t\t\tps://docs.chain.li\n    tag 319\t\t\tps://docs.chain.li\n      JUMPDEST \t\t\tps://docs.chain.li\n      PUSH [tag] 320\t\t\tken-contracts/\\n */\\n\\n/**\\n *...\n      PUSH 1F\t\t\tte\n      DUP5 \t\t\t * @title Getti\n      ADD \t\t\t * @title Getti\n      PUSH 1F\t\t\t\n      NOT \t\t\t\n      AND \t\t\t/**\\n * @title GettingStartedF\n      PUSH 20\t\t\tctio\n      ADD \t\t\t*/\\n\\n/**\\n * @title GettingSt...\n      PUSH [tag] 301\t\t\tken-contracts/\\n */\\n\\n/**\\n *...\n      JUMP \t\t\tken-contracts/\\n */\\n\\n/**\\n *...\n    tag 320\t\t\tken-contracts/\\n */\\n\\n/**\\n *...\n      JUMPDEST \t\t\tken-contracts/\\n */\\n\\n/**\\n *...\n      SWAP1 \t\t\ts/link-token-contracts/\\n */\\n...\n      POP \t\t\ts/link-token-contracts/\\n */\\n...\n      DUP3 \t\t\ts is a\n      DUP2 \t\t\tice T\n      MSTORE \t\t\t * @notice This is an\n      DUP4 \t\t\tmak\n      DUP4 \t\t\tw how \n      DUP4 \t\t\to s\n      ADD \t\t\tct to show how t\n      GT \t\t\ttract to show how to make\n      ISZERO \t\t\tcontract to show how to make H...\n      PUSH [tag] 321\t\t\tcontract to show how to make H...\n      JUMPI \t\t\tcontract to show how to make H...\n      PUSH 0\t\t\ts\n      DUP1 \t\t\te\n      REVERT \t\t\tTP requests \n    tag 321\t\t\tcontract to show how to make H...\n      JUMPDEST \t\t\tcontract to show how to make H...\n      DUP3 \t\t\tcoded \n      DUP3 \t\t\t ha\n      PUSH 20\t\t\tct u\n      DUP4 \t\t\t cont\n      ADD \t\t\tThis contract us\n      CALLDATACOPY \t\t\tlink\\n * @dev This contract us...\n      PUSH 0\t\t\t\\n\n      PUSH 20\t\t\ton.\\n\n      DUP5 \t\t\t produ\n      DUP4 \t\t\tused \n      ADD \t\t\t be used in produc\n      ADD \t\t\t not be used in production.\\n \n      MSTORE \t\t\t should not be used in product...\n      SWAP4 \t\t\tttps://faucets.chain.link/\\n *...\n      SWAP3 \t\t\tttps://faucets.chain.link/\\n *...\n      POP \t\t\tttps://faucets.chain.link/\\n *...\n      POP \t\t\tttps://faucets.chain.link/\\n *...\n      POP \t\t\tttps://faucets.chain.link/\\n *...\n      JUMP \t\t\tttps://faucets.chain.link/\\n *...\n    tag 303\t\t\ttingStartedFunctionsConsumer i...\n      JUMPDEST \t\t\ttingStartedFunctionsConsumer i...\n      PUSH 0\t\t\tlient\n      DUP3 \t\t\tr F\n      PUSH 1F\t\t\tuest\n      DUP4 \t\t\ttionsR\n      ADD \t\t\tFunctionsRequest \n      SLT \t\t\ting FunctionsRequest for Fu\n      PUSH [tag] 323\t\t\tr {\\n    using FunctionsReques...\n      JUMPI \t\t\tr {\\n    using FunctionsReques...\n      PUSH 0\t\t\t.\n      DUP1 \t\t\te\n      REVERT \t\t\tonsRequest.R\n    tag 323\t\t\tr {\\n    using FunctionsReques...\n      JUMPDEST \t\t\tr {\\n    using FunctionsReques...\n      PUSH [tag] 253\t\t\te variables to store the last ...\n      DUP4 \t\t\tubl\n      DUP4 \t\t\tbytes3\n      CALLDATALOAD \t\t\tnd error\\n    bytes32\n      PUSH 20\t\t\tonse\n      DUP6 \t\t\tID, re\n      ADD \t\t\test ID, response,\n      PUSH [tag] 302\t\t\te variables to store the last ...\n      JUMP \t\t\te variables to store the last ...\n    tag 15\t\t\tuestId;\\n    bytes public s_la...\n      JUMPDEST \t\t\tuestId;\\n    bytes public s_la...\n      PUSH 0\t\t\te\\n    \n      DUP1 \t\t\tror Un\n      PUSH 0\t\t\tpected\n      PUSH 60\t\t\tlo\n      DUP5 \t\t\t// Event \n      DUP7 \t\t\td);\\n\\n  \n      SUB \t\t\testId);\\n\\n    // Event t\n      SLT \t\t\trequestId);\\n\\n    // Event to...\n      ISZERO \t\t\t32 requestId);\\n\\n    // Event...\n      PUSH [tag] 326\t\t\t32 requestId);\\n\\n    // Event...\n      JUMPI \t\t\t32 requestId);\\n\\n    // Event...\n      PUSH 0\t\t\t \n      DUP1 \t\t\t\\n\n      REVERT \t\t\tsponses\\n    \n    tag 326\t\t\t32 requestId);\\n\\n    // Event...\n      JUMPDEST \t\t\t32 requestId);\\n\\n    // Event...\n      DUP4 \t\t\tdexed req\n      CALLDATALOAD \t\t\t   bytes32 indexed requ\n      SWAP3 \t\t\tnse(\\n        bytes32 indexed ...\n      POP \t\t\tnse(\\n        bytes32 indexed ...\n      PUSH 20\t\t\ton\n      DUP5 \t\t\t bytes re\n      ADD \t\t\t     bytes respons\n      CALLDATALOAD \t\t\tharacter,\\n        bytes respo...\n      PUSH 1\t\t\t\n      PUSH 1\t\t\t\n      PUSH 40\t\t\t\n      SHL \t\t\t\n      SUB \t\t\t\n      DUP1 \t\t\td \n      DUP3 \t\t\tHardco\n      GT \t\t\t - Hardcoded f\n      ISZERO \t\t\tess - Hardcoded for Sepolia\\n ...\n      PUSH [tag] 327\t\t\tess - Hardcoded for Sepolia\\n ...\n      JUMPI \t\t\tess - Hardcoded for Sepolia\\n ...\n      PUSH 0\t\t\t \n      DUP1 \t\t\t\\n\n      REVERT \t\t\tSepolia\\n    \n    tag 327\t\t\tess - Hardcoded for Sepolia\\n ...\n      JUMPDEST \t\t\tess - Hardcoded for Sepolia\\n ...\n      PUSH [tag] 328\t\t\touter address for your support...\n      DUP8 \t\t\thttps:/\n      DUP4 \t\t\t netwo\n      DUP9 \t\t\tr support\n      ADD \t\t\t your supported networ\n      PUSH [tag] 303\t\t\touter address for your support...\n      JUMP \t\t\touter address for your support...\n    tag 328\t\t\touter address for your support...\n      JUMPDEST \t\t\touter address for your support...\n      SWAP4 \t\t\t get the router address for yo...\n      POP \t\t\t get the router address for yo...\n      PUSH 40\t\t\ts\\n\n      DUP7 \t\t\tted-netwo\n      ADD \t\t\tpported-networks\\n \n      CALLDATALOAD \t\t\t-functions/supported-networks\\...\n      SWAP2 \t\t\tn.link/chainlink-functions/sup...\n      POP \t\t\tn.link/chainlink-functions/sup...\n      DUP1 \t\t\t47\n      DUP3 \t\t\tr = 0xb8\n      GT \t\t\tuter = 0xb83E47C\n      ISZERO \t\t\t router = 0xb83E47C2bC239B3bf3...\n      PUSH [tag] 329\t\t\t router = 0xb83E47C2bC239B3bf3...\n      JUMPI \t\t\t router = 0xb83E47C2bC239B3bf3...\n      PUSH 0\t\t\tb\n      DUP1 \t\t\t3\n      REVERT \t\t\t239B3bf370bc\n    tag 329\t\t\t router = 0xb83E47C2bC239B3bf3...\n      JUMPDEST \t\t\t router = 0xb83E47C2bC239B3bf3...\n      POP \t\t\t router = 0xb83E47C2bC239B3bf3...\n      PUSH [tag] 330\t\t\t    // JavaScript source code\\...\n      DUP7 \t\t\tcharact\n      DUP3 \t\t\t  // Fet\n      DUP8 \t\t\trce code\\n\n      ADD \t\t\t source code\\n    // Fetc\n      PUSH [tag] 303\t\t\t    // JavaScript source code\\...\n      JUMP \t\t\t    // JavaScript source code\\...\n    tag 330\t\t\t    // JavaScript source code\\...\n      JUMPDEST \t\t\t    // JavaScript source code\\...\n      SWAP2 \t\t\t41238D0;\\n\\n    // JavaScript ...\n      POP \t\t\t41238D0;\\n\\n    // JavaScript ...\n      POP \t\t\t41238D0;\\n\\n    // JavaScript ...\n      SWAP3 \t\t\tuestId;\\n    bytes public s_la...\n      POP \t\t\tuestId;\\n    bytes public s_la...\n      SWAP3 \t\t\tuestId;\\n    bytes public s_la...\n      POP \t\t\tuestId;\\n    bytes public s_la...\n      SWAP3 \t\t\tuestId;\\n    bytes public s_la...\n      JUMP \t\t\tuestId;\\n    bytes public s_la...\n    tag 304\t\t\t the Star Wars API.\\n    // Do...\n      JUMPDEST \t\t\t the Star Wars API.\\n    // Do...\n      PUSH 0\t\t\t ht\n      DUP2 \t\t\tsourc\n      MLOAD \t\t\ttring source\n      DUP1 \t\t\tracter\n      DUP5 \t\t\tt c\n      MSTORE \t\t\t  \"const characterI\n      PUSH 0\t\t\t \n    tag 332\t\t\t apiResponse = await Functions...\n      JUMPDEST \t\t\t apiResponse = await Functions...\n      DUP2 \t\t\t await\n      DUP2 \t\t\te\n      LT \t\t\tonse = await \n      ISZERO \t\t\t apiResponse = await Functions...\n      PUSH [tag] 334\t\t\t apiResponse = await Functions...\n      JUMPI \t\t\t apiResponse = await Functions...\n      PUSH 20\t\t\tpi.i\n      DUP2 \t\t\t   \"if (apiRe\n      DUP6 \t\t\t   \"if (apiRe\n      ADD \t\t\t   \"if (apiRe\n      DUP2 \t\t\t       \"if (apiRespons\n      ADD \t\t\t       \"if (apiRespons\n      MLOAD \t\t\t});\"\\n        \"if (apiResponse\n      DUP7 \t\t\terId}/`\"\\n  \n      DUP4 \t\t\terId}/`\"\\n  \n      ADD \t\t\terId}/`\"\\n  \n      DUP3 \t\t\tracterId}/`\"\\n       \n      ADD \t\t\tracterId}/`\"\\n       \n      MSTORE \t\t\te/${characterId}/`\"\\n        \"...\n      ADD \t\t\ts.makeHttpRe\n      PUSH [tag] 332\t\t\t apiResponse = await Functions...\n      JUMP \t\t\t apiResponse = await Functions...\n    tag 334\t\t\t apiResponse = await Functions...\n      JUMPDEST \t\t\t apiResponse = await Functions...\n      POP \t\t\tRes\n      PUSH 0\t\t\t \n      PUSH 20\t\t\t;\"\\n \n      DUP3 \t\t\t faile\n      DUP7 \t\t\tque\n      ADD \t\t\t('Request failed\n      ADD \t\t\trror('Request failed');\"\\n  \n      MSTORE \t\t\tthrow Error('Request failed');...\n      PUSH 20\t\t\t Fun\n      PUSH 1F\t\t\t\"r\n      NOT \t\t\t    \"re\n      PUSH 1F\t\t\t\\n \n      DUP4 \t\t\tsponse\n      ADD \t\t\tpiResponse;\"\\n  \n      AND \t\t\t = apiResponse;\"\\n        \"ret\n      DUP6 \t\t\tata\n      ADD \t\t\t { data } = apiResponse;\"\\n   ...\n      ADD \t\t\tonst { data } = apiResponse;\"\\...\n      SWAP2 \t\t\t     \"const { data } = apiResp...\n      POP \t\t\t     \"const { data } = apiResp...\n      POP \t\t\t     \"const { data } = apiResp...\n      SWAP3 \t\t\t the Star Wars API.\\n    // Do...\n      SWAP2 \t\t\t the Star Wars API.\\n    // Do...\n      POP \t\t\t the Star Wars API.\\n    // Do...\n      POP \t\t\t the Star Wars API.\\n    // Do...\n      JUMP \t\t\t the Star Wars API.\\n    // Do...\n    tag 20\t\t\teString(data.name);\";\\n\\n    /...\n      JUMPDEST \t\t\teString(data.name);\";\\n\\n    /...\n      PUSH 20\t\t\tor\n      DUP2 \t\t\tthe donID\n      MSTORE \t\t\tto get the donID for \n      PUSH 0\t\t\tpoli\n      PUSH [tag] 253\t\t\ttwork https://docs.chain.link/...\n      PUSH 20\t\t\tfu\n      DUP4 \t\t\t/chainlin\n      ADD \t\t\tlink/chainlink-fun\n      DUP5 \t\t\ts.chai\n      PUSH [tag] 304\t\t\ttwork https://docs.chain.link/...\n      JUMP \t\t\ttwork https://docs.chain.link/...\n    tag 23\t\t\trted-networks\\n    bytes32 don...\n      JUMPDEST \t\t\trted-networks\\n    bytes32 don...\n      PUSH 0\t\t\t00;\\n\\n \n      DUP1 \t\t\t // St\n      PUSH 0\t\t\te vari\n      PUSH 40\t\t\tn\\n\n      DUP5 \t\t\tr informa\n      DUP7 \t\t\t charac\n      SUB \t\t\trned character informat\n      SLT \t\t\treturned character information...\n      ISZERO \t\t\the returned character informat...\n      PUSH [tag] 338\t\t\the returned character informat...\n      JUMPI \t\t\the returned character informat...\n      PUSH 0\t\t\tl\n      DUP1 \t\t\tp\n      REVERT \t\t\tstring publi\n    tag 338\t\t\the returned character informat...\n      JUMPDEST \t\t\the returned character informat...\n      DUP4 \t\t\tInitializ\n      CALLDATALOAD \t\t\t   * @notice Initialize\n      PUSH 1\t\t\t\n      PUSH 1\t\t\t\n      PUSH 40\t\t\t\n      SHL \t\t\t\n      SUB \t\t\t\n      DUP1 \t\t\t  \n      DUP3 \t\t\t owne\n      AND \t\t\tract owner\\n   \n      DUP3 \t\t\the co\n      EQ \t\t\ts the contract owner\\n    \n      PUSH [tag] 339\t\t\tss and sets the contract owner...\n      JUMPI \t\t\tss and sets the contract owner...\n      PUSH 0\t\t\tu\n      DUP1 \t\t\ts\n      REVERT \t\t\t    construc\n    tag 339\t\t\tss and sets the contract owner...\n      JUMPDEST \t\t\tss and sets the contract owner...\n      SWAP1 \t\t\t(rout\n      SWAP4 \t\t\t(rout\n      POP \t\t\t\n      PUSH 20\t\t\tno\n      DUP6 \t\t\t   /**\\n     * @not\n      ADD \t\t\t   /**\\n     * @not\n      CALLDATALOAD \t\t\tsender) {}\\n\\n    /**\\n     * ...\n      SWAP1 \t\t\tsender) {}\\n\\n    /**\\n     * ...\n      DUP1 \t\t\tHTTP request f\n      DUP3 \t\t\tHTTP request f\n      GT \t\t\tHTTP request f\n      ISZERO \t\t\tan HTTP request for character ...\n      PUSH [tag] 340\t\t\tan HTTP request for character ...\n      JUMPI \t\t\tan HTTP request for character ...\n      PUSH 0\t\t\ti\n      DUP1 \t\t\te\n      REVERT \t\t\tcharacter in\n    tag 340\t\t\tan HTTP request for character ...\n      JUMPDEST \t\t\tan HTTP request for character ...\n      DUP2 \t\t\tId The\n      DUP7 \t\t\tubscripti\n      ADD \t\t\tam subscriptionId The \n      SWAP2 \t\t\t    * @param subscriptionId Th...\n      POP \t\t\t    * @param subscriptionId Th...\n      DUP7 \t\t\t * @par\n      PUSH 1F\t\t\ton\\n \n      DUP4 \t\t\tip\n      ADD \t\t\tbscription\\n  \n      SLT \t\t\tk subscription\\n     * @para\n      PUSH [tag] 341\t\t\te Chainlink subscription\\n    ...\n      JUMPI \t\t\te Chainlink subscription\\n    ...\n      PUSH 0\t\t\tu\n      DUP1 \t\t\ta\n      REVERT \t\t\tgs The argum\n    tag 341\t\t\te Chainlink subscription\\n    ...\n      JUMPDEST \t\t\te Chainlink subscription\\n    ...\n      DUP2 \t\t\t* \n      CALLDATALOAD \t\t\trequest\\n     * @\n      DUP2 \t\t\t o\n      DUP2 \t\t\td The \n      GT \t\t\tstId The ID of\n      ISZERO \t\t\tquestId The ID of the request\\...\n      PUSH [tag] 342\t\t\tquestId The ID of the request\\...\n      JUMPI \t\t\tquestId The ID of the request\\...\n      PUSH 0\t\t\t \n      DUP1 \t\t\ts\n      REVERT \t\t\te request\\n  \n    tag 342\t\t\tquestId The ID of the request\\...\n      JUMPDEST \t\t\tquestId The ID of the request\\...\n      DUP8 \t\t\tcriptio\n      PUSH 20\t\t\t s\n      DUP3 \t\t\t    ui\n      PUSH 5\t\t\t \n      SHL \t\t\tt(\\n        uin\n      DUP6 \t\t\tqu\n      ADD \t\t\tndRequest(\\n        uint\n      ADD \t\t\tn sendRequest(\\n        uint64...\n      GT \t\t\ttion sendRequest(\\n        uin...\n      ISZERO \t\t\tunction sendRequest(\\n        ...\n      PUSH [tag] 343\t\t\tunction sendRequest(\\n        ...\n      JUMPI \t\t\tunction sendRequest(\\n        ...\n      PUSH 0\t\t\tt\n      DUP1 \t\t\t \n      REVERT \t\t\t\\n        str\n    tag 343\t\t\tunction sendRequest(\\n        ...\n      JUMPDEST \t\t\tunction sendRequest(\\n        ...\n      PUSH 20\t\t\ter\n      DUP4 \t\t\t e\n      ADD \t\t\t   ) extern\n      SWAP5 \t\t\tata args\\n    ) extern\n      POP \t\t\tata args\\n    ) extern\n      DUP1 \t\t\ts (byt\n      SWAP4 \t\t\tner returns (byt\n      POP \t\t\tner returns (byt\n      POP \t\t\tner returns (byt\n      POP \t\t\tner returns (byt\n      POP \t\t\tner returns (byt\n      SWAP3 \t\t\trted-networks\\n    bytes32 don...\n      POP \t\t\trted-networks\\n    bytes32 don...\n      SWAP3 \t\t\trted-networks\\n    bytes32 don...\n      POP \t\t\trted-networks\\n    bytes32 don...\n      SWAP3 \t\t\trted-networks\\n    bytes32 don...\n      JUMP \t\t\trted-networks\\n    bytes32 don...\n    tag 45\t\t\tresponse The HTTP response dat...\n      JUMPDEST \t\t\tresponse The HTTP response dat...\n      PUSH 0\t\t\ts from\n      PUSH 20\t\t\tfi\n      DUP3 \t\t\tfunction \n      DUP5 \t\t\t  */\\n  \n      SUB \t\t\t\\n     */\\n    function f\n      SLT \t\t\tuest\\n     */\\n    function fu...\n      ISZERO \t\t\trequest\\n     */\\n    function...\n      PUSH [tag] 349\t\t\trequest\\n     */\\n    function...\n      JUMPI \t\t\trequest\\n     */\\n    function...\n      PUSH 0\t\t\t \n      DUP1 \t\t\t \n      REVERT \t\t\tquest(\\n     \n    tag 349\t\t\trequest\\n     */\\n    function...\n      JUMPDEST \t\t\trequest\\n     */\\n    function...\n      DUP2 \t\t\t      bytes memory resp\n      CALLDATALOAD \t\t\t      bytes memory resp\n      PUSH 1\t\t\t\n      PUSH 1\t\t\t\n      PUSH A0\t\t\t\n      SHL \t\t\t\n      SUB \t\t\t\n      DUP2 \t\t\tr\\n    ) internal override {\\n...\n      AND \t\t\tr\\n    ) internal override {\\n...\n      DUP2 \t\t\t memory err\\n    ) internal ov...\n      EQ \t\t\t memory err\\n    ) internal ov...\n      PUSH [tag] 253\t\t\t     bytes memory err\\n    ) i...\n      JUMPI \t\t\t     bytes memory err\\n    ) i...\n      PUSH 0\t\t\tR\n      DUP1 \t\t\ta\n      REVERT \t\t\tif (s_lastRe\n    tag 52\t\t\tevert UnexpectedRequestID(requ...\n      JUMPDEST \t\t\tevert UnexpectedRequestID(requ...\n      PUSH 1\t\t\t \n      DUP2 \t\t\t }\\n        /\n      DUP2 \t\t\t }\\n        /\n      SHR \t\t\t }\\n        /\n      SWAP1 \t\t\t }\\n        /\n      DUP3 \t\t\tbles with th\n      AND \t\t\tbles with th\n      DUP1 \t\t\tbles with th\n      PUSH [tag] 352\t\t\te and any errors\\n        s_la...\n      JUMPI \t\t\te and any errors\\n        s_la...\n      PUSH 7F\t\t\t    \n      DUP3 \t\t\tonse;\\n\n      AND \t\t\tresponse;\\n       \n      SWAP2 \t\t\tesponse = response;\\n       \n      POP \t\t\tesponse = response;\\n       \n    tag 352\t\t\te and any errors\\n        s_la...\n      JUMPDEST \t\t\te and any errors\\n        s_la...\n      PUSH 20\t\t\tor\n      DUP3 \t\t\t_lastE\n      LT \t\t\t  s_lastError \n      DUP2 \t\t\tng(response);\\n    \n      SUB \t\t\ttring(response);\\n        s_la...\n      PUSH [tag] 353\t\t\t= string(response);\\n        s...\n      JUMPI \t\t\t= string(response);\\n        s...\n      PUSH 4E487B71\t\t\t response\\n\n      PUSH E0\t\t\tg t\n      SHL \t\t\to log the response\\n \n      PUSH 0\t\t\tt\n      MSTORE \t\t\tan event to log the response\\n...\n      PUSH 22\t\t\tuest\n      PUSH 4\t\t\tr\n      MSTORE \t\t\tsponse(requestI\n      PUSH 24\t\t\tpons\n      PUSH 0\t\t\tR\n      REVERT \t\t\t s_lastResponse\n    tag 353\t\t\t= string(response);\\n        s...\n      JUMPDEST \t\t\t= string(response);\\n        s...\n      POP \t\t\t= string(response);\\n        s...\n      SWAP2 \t\t\tevert UnexpectedRequestID(requ...\n      SWAP1 \t\t\tevert UnexpectedRequestID(requ...\n      POP \t\t\tevert UnexpectedRequestID(requ...\n      JUMP \t\t\tevert UnexpectedRequestID(requ...\n    tag 73\t\t\t\\n}\\n\n      JUMPDEST \t\t\t\\n}\\n\n      PUSH 0\t\t\t\n      PUSH 1\t\t\t\n      PUSH 1\t\t\t\n      PUSH 40\t\t\t\n      SHL \t\t\t\n      SUB \t\t\t\n      DUP1 \t\t\t\n      DUP5 \t\t\t\n      GT \t\t\t\n      ISZERO \t\t\t\n      PUSH [tag] 356\t\t\t\n      JUMPI \t\t\t\n      PUSH [tag] 356\t\t\t\n      PUSH [tag] 300\t\t\t\n      JUMP \t\t\t\n    tag 356\t\t\t\n      JUMPDEST \t\t\t\n      DUP4 \t\t\t\n      PUSH 5\t\t\t\n      SHL \t\t\t\n      PUSH 20\t\t\t\n      PUSH [tag] 357\t\t\t\n      DUP2 \t\t\t\n      DUP4 \t\t\t\n      ADD \t\t\t\n      PUSH [tag] 301\t\t\t\n      JUMP \t\t\t\n    tag 357\t\t\t\n      JUMPDEST \t\t\t\n      DUP7 \t\t\t\n      DUP2 \t\t\t\n      MSTORE \t\t\t\n      SWAP2 \t\t\t\n      DUP6 \t\t\t\n      ADD \t\t\t\n      SWAP2 \t\t\t\n      DUP2 \t\t\t\n      DUP2 \t\t\t\n      ADD \t\t\t\n      SWAP1 \t\t\t\n      CALLDATASIZE \t\t\t\n      DUP5 \t\t\t\n      GT \t\t\t\n      ISZERO \t\t\t\n      PUSH [tag] 358\t\t\t\n      JUMPI \t\t\t\n      PUSH 0\t\t\t\n      DUP1 \t\t\t\n      REVERT \t\t\t\n    tag 358\t\t\t\n      JUMPDEST \t\t\t\n      DUP7 \t\t\t\n    tag 359\t\t\t\n      JUMPDEST \t\t\t\n      DUP5 \t\t\t\n      DUP2 \t\t\t\n      LT \t\t\t\n      ISZERO \t\t\t\n      PUSH [tag] 361\t\t\t\n      JUMPI \t\t\t\n      DUP1 \t\t\t\n      CALLDATALOAD \t\t\t\n      DUP7 \t\t\t\n      DUP2 \t\t\t\n      GT \t\t\t\n      ISZERO \t\t\t\n      PUSH [tag] 362\t\t\t\n      JUMPI \t\t\t\n      PUSH 0\t\t\t\n      DUP1 \t\t\t\n      DUP2 \t\t\t\n      REVERT \t\t\t\n    tag 362\t\t\t\n      JUMPDEST \t\t\t\n      DUP9 \t\t\t\n      ADD \t\t\t\n      CALLDATASIZE \t\t\t\n      PUSH 1F\t\t\t\n      DUP3 \t\t\t\n      ADD \t\t\t\n      SLT \t\t\t\n      PUSH [tag] 363\t\t\t\n      JUMPI \t\t\t\n      PUSH 0\t\t\t\n      DUP1 \t\t\t\n      DUP2 \t\t\t\n      REVERT \t\t\t\n    tag 363\t\t\t\n      JUMPDEST \t\t\t\n      PUSH [tag] 364\t\t\t\n      CALLDATASIZE \t\t\t\n      DUP3 \t\t\t\n      CALLDATALOAD \t\t\t\n      DUP8 \t\t\t\n      DUP5 \t\t\t\n      ADD \t\t\t\n      PUSH [tag] 302\t\t\t\n      JUMP \t\t\t\n    tag 364\t\t\t\n      JUMPDEST \t\t\t\n      DUP5 \t\t\t\n      MSTORE \t\t\t\n      POP \t\t\t\n      SWAP2 \t\t\t\n      DUP4 \t\t\t\n      ADD \t\t\t\n      SWAP2 \t\t\t\n      DUP4 \t\t\t\n      ADD \t\t\t\n      PUSH [tag] 359\t\t\t\n      JUMP \t\t\t\n    tag 361\t\t\t\n      JUMPDEST \t\t\t\n      POP \t\t\t\n      SWAP8 \t\t\t\n      SWAP7 \t\t\t\\n}\\n\n      POP \t\t\t\n      POP \t\t\t\n      POP \t\t\t\n      POP \t\t\t\n      POP \t\t\t\n      POP \t\t\t\n      POP \t\t\t\n      JUMP \t\t\t\\n}\\n\n    tag 306\t\t\t\n      JUMPDEST \t\t\t\n      PUSH 1F\t\t\t\n      DUP3 \t\t\t\n      GT \t\t\t\n      ISZERO \t\t\t\n      PUSH [tag] 202\t\t\t\n      JUMPI \t\t\t\n      PUSH 0\t\t\t\n      DUP2 \t\t\t\n      DUP2 \t\t\t\n      MSTORE \t\t\t\n      PUSH 20\t\t\t\n      DUP2 \t\t\t\n      KECCAK256 \t\t\t\n      PUSH 1F\t\t\t\n      DUP6 \t\t\t\n      ADD \t\t\t\n      PUSH 5\t\t\t\n      SHR \t\t\t\n      DUP2 \t\t\t\n      ADD \t\t\t\n      PUSH 20\t\t\t\n      DUP7 \t\t\t\n      LT \t\t\t\n      ISZERO \t\t\t\n      PUSH [tag] 369\t\t\t\n      JUMPI \t\t\t\n      POP \t\t\t\n      DUP1 \t\t\t\n    tag 369\t\t\t\n      JUMPDEST \t\t\t\n      PUSH 1F\t\t\t\n      DUP6 \t\t\t\n      ADD \t\t\t\n      PUSH 5\t\t\t\n      SHR \t\t\t\n      DUP3 \t\t\t\n      ADD \t\t\t\n      SWAP2 \t\t\t\n      POP \t\t\t\n    tag 370\t\t\t\n      JUMPDEST \t\t\t\n      DUP2 \t\t\t\n      DUP2 \t\t\t\n      LT \t\t\t\n      ISZERO \t\t\t\n      PUSH [tag] 372\t\t\t\n      JUMPI \t\t\t\n      DUP3 \t\t\t\n      DUP2 \t\t\t\n      SSTORE \t\t\t\n      PUSH 1\t\t\t\n      ADD \t\t\t\n      PUSH [tag] 370\t\t\t\n      JUMP \t\t\t\n    tag 372\t\t\t\n      JUMPDEST \t\t\t\n      POP \t\t\t\n      POP \t\t\t\n      POP \t\t\t\n      POP \t\t\t\n      POP \t\t\t\n      POP \t\t\t\n      JUMP \t\t\t\n    tag 103\t\t\t\n      JUMPDEST \t\t\t\n      DUP2 \t\t\t\n      MLOAD \t\t\t\n      PUSH 1\t\t\t\n      PUSH 1\t\t\t\n      PUSH 40\t\t\t\n      SHL \t\t\t\n      SUB \t\t\t\n      DUP2 \t\t\t\n      GT \t\t\t\n      ISZERO \t\t\t\n      PUSH [tag] 376\t\t\t\n      JUMPI \t\t\t\n      PUSH [tag] 376\t\t\t\n      PUSH [tag] 300\t\t\t\n      JUMP \t\t\t\n    tag 376\t\t\t\n      JUMPDEST \t\t\t\n      PUSH [tag] 377\t\t\t\n      DUP2 \t\t\t\n      PUSH [tag] 378\t\t\t\n      DUP5 \t\t\t\n      SLOAD \t\t\t\n      PUSH [tag] 52\t\t\t\n      JUMP \t\t\t\n    tag 378\t\t\t\n      JUMPDEST \t\t\t\n      DUP5 \t\t\t\n      PUSH [tag] 306\t\t\t\n      JUMP \t\t\t\n    tag 377\t\t\t\n      JUMPDEST \t\t\t\n      PUSH 20\t\t\t\n      DUP1 \t\t\t\n      PUSH 1F\t\t\t\n      DUP4 \t\t\t\n      GT \t\t\t\n      PUSH 1\t\t\t\n      DUP2 \t\t\t\n      EQ \t\t\t\n      PUSH [tag] 380\t\t\t\n      JUMPI \t\t\t\n      PUSH 0\t\t\t\n      DUP5 \t\t\t\n      ISZERO \t\t\t\n      PUSH [tag] 381\t\t\t\n      JUMPI \t\t\t\n      POP \t\t\t\n      DUP6 \t\t\t\n      DUP4 \t\t\t\n      ADD \t\t\t\n      MLOAD \t\t\t\n    tag 381\t\t\t\n      JUMPDEST \t\t\t\n      PUSH 0\t\t\t\n      NOT \t\t\t\n      PUSH 3\t\t\t\n      DUP7 \t\t\t\n      SWAP1 \t\t\t\n      SHL \t\t\t\n      SHR \t\t\t\n      NOT \t\t\t\n      AND \t\t\t\n      PUSH 1\t\t\t\n      DUP6 \t\t\t\n      SWAP1 \t\t\t\n      SHL \t\t\t\n      OR \t\t\t\n      DUP6 \t\t\t\n      SSTORE \t\t\t\n      PUSH [tag] 372\t\t\t\n      JUMP \t\t\t\n    tag 380\t\t\t\n      JUMPDEST \t\t\t\n      PUSH 0\t\t\t\n      DUP6 \t\t\t\n      DUP2 \t\t\t\n      MSTORE \t\t\t\n      PUSH 20\t\t\t\n      DUP2 \t\t\t\n      KECCAK256 \t\t\t\n      PUSH 1F\t\t\t\n      NOT \t\t\t\n      DUP7 \t\t\t\n      AND \t\t\t\n      SWAP2 \t\t\t\n    tag 384\t\t\t\n      JUMPDEST \t\t\t\n      DUP3 \t\t\t\n      DUP2 \t\t\t\n      LT \t\t\t\n      ISZERO \t\t\t\n      PUSH [tag] 386\t\t\t\n      JUMPI \t\t\t\n      DUP9 \t\t\t\n      DUP7 \t\t\t\n      ADD \t\t\t\n      MLOAD \t\t\t\n      DUP3 \t\t\t\n      SSTORE \t\t\t\n      SWAP5 \t\t\t\n      DUP5 \t\t\t\n      ADD \t\t\t\n      SWAP5 \t\t\t\n      PUSH 1\t\t\t\n      SWAP1 \t\t\t\n      SWAP2 \t\t\t\n      ADD \t\t\t\n      SWAP1 \t\t\t\n      DUP5 \t\t\t\n      ADD \t\t\t\n      PUSH [tag] 384\t\t\t\n      JUMP \t\t\t\n    tag 386\t\t\t\n      JUMPDEST \t\t\t\n      POP \t\t\t\n      DUP6 \t\t\t\n      DUP3 \t\t\t\n      LT \t\t\t\n      ISZERO \t\t\t\n      PUSH [tag] 387\t\t\t\n      JUMPI \t\t\t\n      DUP8 \t\t\t\n      DUP6 \t\t\t\n      ADD \t\t\t\n      MLOAD \t\t\t\n      PUSH 0\t\t\t\n      NOT \t\t\t\n      PUSH 3\t\t\t\n      DUP9 \t\t\t\n      SWAP1 \t\t\t\n      SHL \t\t\t\n      PUSH F8\t\t\t\n      AND \t\t\t\n      SHR \t\t\t\n      NOT \t\t\t\n      AND \t\t\t\n      DUP2 \t\t\t\n      SSTORE \t\t\t\n    tag 387\t\t\t\n      JUMPDEST \t\t\t\n      POP \t\t\t\n      POP \t\t\t\n      POP \t\t\t\n      POP \t\t\t\n      POP \t\t\t\n      PUSH 1\t\t\t\n      SWAP1 \t\t\t\n      DUP2 \t\t\t\n      SHL \t\t\t\n      ADD \t\t\t\n      SWAP1 \t\t\t\n      SSTORE \t\t\t\n      POP \t\t\t\n      JUMP \t\t\t\n    tag 308\t\t\t\n      JUMPDEST \t\t\t\n      PUSH 0\t\t\t\n      DUP2 \t\t\t\n      SLOAD \t\t\t\n      PUSH [tag] 403\t\t\t\n      DUP2 \t\t\t\n      PUSH [tag] 52\t\t\t\n      JUMP \t\t\t\n    tag 403\t\t\t\n      JUMPDEST \t\t\t\n      DUP1 \t\t\t\n      DUP6 \t\t\t\n      MSTORE \t\t\t\n      PUSH 20\t\t\t\n      PUSH 1\t\t\t\n      DUP4 \t\t\t\n      DUP2 \t\t\t\n      AND \t\t\t\n      DUP1 \t\t\t\n      ISZERO \t\t\t\n      PUSH [tag] 405\t\t\t\n      JUMPI \t\t\t\n      PUSH 1\t\t\t\n      DUP2 \t\t\t\n      EQ \t\t\t\n      PUSH [tag] 406\t\t\t\n      JUMPI \t\t\t\n      PUSH [tag] 404\t\t\t\n      JUMP \t\t\t\n    tag 405\t\t\t\n      JUMPDEST \t\t\t\n      PUSH FF\t\t\t\n      NOT \t\t\t\n      DUP6 \t\t\t\n      AND \t\t\t\n      DUP9 \t\t\t\n      DUP5 \t\t\t\n      ADD \t\t\t\n      MSTORE \t\t\t\n      DUP4 \t\t\t\n      ISZERO \t\t\t\n      ISZERO \t\t\t\n      PUSH 5\t\t\t\n      SHL \t\t\t\n      DUP9 \t\t\t\n      ADD \t\t\t\n      DUP4 \t\t\t\n      ADD \t\t\t\n      SWAP6 \t\t\t\n      POP \t\t\t\n      PUSH [tag] 404\t\t\t\n      JUMP \t\t\t\n    tag 406\t\t\t\n      JUMPDEST \t\t\t\n      DUP7 \t\t\t\n      PUSH 0\t\t\t\n      MSTORE \t\t\t\n      DUP3 \t\t\t\n      PUSH 0\t\t\t\n      KECCAK256 \t\t\t\n      PUSH 0\t\t\t\n    tag 407\t\t\t\n      JUMPDEST \t\t\t\n      DUP6 \t\t\t\n      DUP2 \t\t\t\n      LT \t\t\t\n      ISZERO \t\t\t\n      PUSH [tag] 409\t\t\t\n      JUMPI \t\t\t\n      DUP2 \t\t\t\n      SLOAD \t\t\t\n      DUP11 \t\t\t\n      DUP3 \t\t\t\n      ADD \t\t\t\n      DUP7 \t\t\t\n      ADD \t\t\t\n      MSTORE \t\t\t\n      SWAP1 \t\t\t\n      DUP4 \t\t\t\n      ADD \t\t\t\n      SWAP1 \t\t\t\n      DUP5 \t\t\t\n      ADD \t\t\t\n      PUSH [tag] 407\t\t\t\n      JUMP \t\t\t\n    tag 409\t\t\t\n      JUMPDEST \t\t\t\n      DUP10 \t\t\t\n      ADD \t\t\t\n      DUP5 \t\t\t\n      ADD \t\t\t\n      SWAP7 \t\t\t\n      POP \t\t\t\n      POP \t\t\t\n    tag 404\t\t\t\n      JUMPDEST \t\t\t\n      POP \t\t\t\n      POP \t\t\t\n      POP \t\t\t\n      POP \t\t\t\n      POP \t\t\t\n      SWAP3 \t\t\t\n      SWAP2 \t\t\t\n      POP \t\t\t\n      POP \t\t\t\n      JUMP \t\t\t\n    tag 108\t\t\t\n      JUMPDEST \t\t\t\n      PUSH 60\t\t\t\n      DUP2 \t\t\t\n      MSTORE \t\t\t\n      PUSH 0\t\t\t\n      PUSH [tag] 411\t\t\t\n      PUSH 60\t\t\t\n      DUP4 \t\t\t\n      ADD \t\t\t\n      DUP7 \t\t\t\n      PUSH [tag] 308\t\t\t\n      JUMP \t\t\t\n    tag 411\t\t\t\n      JUMPDEST \t\t\t\n      DUP3 \t\t\t\n      DUP2 \t\t\t\n      SUB \t\t\t\n      PUSH 20\t\t\t\n      DUP5 \t\t\t\n      ADD \t\t\t\n      MSTORE \t\t\t\n      PUSH [tag] 412\t\t\t\n      DUP2 \t\t\t\n      DUP7 \t\t\t\n      PUSH [tag] 308\t\t\t\n      JUMP \t\t\t\n    tag 412\t\t\t\n      JUMPDEST \t\t\t\n      SWAP1 \t\t\t\n      POP \t\t\t\n      DUP3 \t\t\t\n      DUP2 \t\t\t\n      SUB \t\t\t\n      PUSH 40\t\t\t\n      DUP5 \t\t\t\n      ADD \t\t\t\n      MSTORE \t\t\t\n      PUSH [tag] 413\t\t\t\n      DUP2 \t\t\t\n      DUP6 \t\t\t\n      PUSH [tag] 308\t\t\t\n      JUMP \t\t\t\n    tag 413\t\t\t\n      JUMPDEST \t\t\t\n      SWAP7 \t\t\t\n      SWAP6 \t\t\t\n      POP \t\t\t\n      POP \t\t\t\n      POP \t\t\t\n      POP \t\t\t\n      POP \t\t\t\n      POP \t\t\t\n      JUMP \t\t\t\n    tag 126\t\t\t\n      JUMPDEST \t\t\t\n      PUSH 4E487B71\t\t\t\n      PUSH E0\t\t\t\n      SHL \t\t\t\n      PUSH 0\t\t\t\n      MSTORE \t\t\t\n      PUSH 21\t\t\t\n      PUSH 4\t\t\t\n      MSTORE \t\t\t\n      PUSH 24\t\t\t\n      PUSH 0\t\t\t\n      REVERT \t\t\t\n    tag 144\t\t\t\n      JUMPDEST \t\t\t\n      PUSH 4E487B71\t\t\t\n      PUSH E0\t\t\t\n      SHL \t\t\t\n      PUSH 0\t\t\t\n      MSTORE \t\t\t\n      PUSH 32\t\t\t\n      PUSH 4\t\t\t\n      MSTORE \t\t\t\n      PUSH 24\t\t\t\n      PUSH 0\t\t\t\n      REVERT \t\t\t\n    tag 309\t\t\t\n      JUMPDEST \t\t\t\n      PUSH 4E487B71\t\t\t\n      PUSH E0\t\t\t\n      SHL \t\t\t\n      PUSH 0\t\t\t\n      MSTORE \t\t\t\n      PUSH 11\t\t\t\n      PUSH 4\t\t\t\n      MSTORE \t\t\t\n      PUSH 24\t\t\t\n      PUSH 0\t\t\t\n      REVERT \t\t\t\n    tag 146\t\t\t\n      JUMPDEST \t\t\t\n      PUSH 0\t\t\t\n      PUSH 1\t\t\t\n      DUP3 \t\t\t\n      ADD \t\t\t\n      PUSH [tag] 420\t\t\t\n      JUMPI \t\t\t\n      PUSH [tag] 420\t\t\t\n      PUSH [tag] 309\t\t\t\n      JUMP \t\t\t\n    tag 420\t\t\t\n      JUMPDEST \t\t\t\n      POP \t\t\t\n      PUSH 1\t\t\t\n      ADD \t\t\t\n      SWAP1 \t\t\t\n      JUMP \t\t\t\n    tag 175\t\t\t\n      JUMPDEST \t\t\t\n      PUSH 1\t\t\t\n      PUSH 1\t\t\t\n      PUSH 40\t\t\t\n      SHL \t\t\t\n      SUB \t\t\t\n      DUP7 \t\t\t\n      AND \t\t\t\n      DUP2 \t\t\t\n      MSTORE \t\t\t\n      PUSH A0\t\t\t\n      PUSH 20\t\t\t\n      DUP3 \t\t\t\n      ADD \t\t\t\n      MSTORE \t\t\t\n      PUSH 0\t\t\t\n      PUSH [tag] 422\t\t\t\n      PUSH A0\t\t\t\n      DUP4 \t\t\t\n      ADD \t\t\t\n      DUP8 \t\t\t\n      PUSH [tag] 304\t\t\t\n      JUMP \t\t\t\n    tag 422\t\t\t\n      JUMPDEST \t\t\t\n      PUSH FFFF\t\t\t\n      SWAP6 \t\t\t\n      SWAP1 \t\t\t\n      SWAP6 \t\t\t\n      AND \t\t\t\n      PUSH 40\t\t\t\n      DUP4 \t\t\t\n      ADD \t\t\t\n      MSTORE \t\t\t\n      POP \t\t\t\n      PUSH FFFFFFFF\t\t\t\n      SWAP3 \t\t\t\n      SWAP1 \t\t\t\n      SWAP3 \t\t\t\n      AND \t\t\t\n      PUSH 60\t\t\t\n      DUP4 \t\t\t\n      ADD \t\t\t\n      MSTORE \t\t\t\n      PUSH 80\t\t\t\n      SWAP1 \t\t\t\n      SWAP2 \t\t\t\n      ADD \t\t\t\n      MSTORE \t\t\t\n      SWAP3 \t\t\t\n      SWAP2 \t\t\t\n      POP \t\t\t\n      POP \t\t\t\n      JUMP \t\t\t\n    tag 179\t\t\t\n      JUMPDEST \t\t\t\n      PUSH 0\t\t\t\n      PUSH 20\t\t\t\n      DUP3 \t\t\t\n      DUP5 \t\t\t\n      SUB \t\t\t\n      SLT \t\t\t\n      ISZERO \t\t\t\n      PUSH [tag] 424\t\t\t\n      JUMPI \t\t\t\n      PUSH 0\t\t\t\n      DUP1 \t\t\t\n      REVERT \t\t\t\n    tag 424\t\t\t\n      JUMPDEST \t\t\t\n      POP \t\t\t\n      MLOAD \t\t\t\n      SWAP2 \t\t\t\n      SWAP1 \t\t\t\n      POP \t\t\t\n      JUMP \t\t\t\n    tag 214\t\t\t\n      JUMPDEST \t\t\t\n      DUP1 \t\t\t\n      DUP3 \t\t\t\n      ADD \t\t\t\n      DUP1 \t\t\t\n      DUP3 \t\t\t\n      GT \t\t\t\n      ISZERO \t\t\t\n      PUSH [tag] 224\t\t\t\n      JUMPI \t\t\t\n      PUSH [tag] 224\t\t\t\n      PUSH [tag] 309\t\t\t\n      JUMP \t\t\t\n    tag 218\t\t\t\n      JUMPDEST \t\t\t\n      DUP2 \t\t\t\n      DUP2 \t\t\t\n      SUB \t\t\t\n      DUP2 \t\t\t\n      DUP2 \t\t\t\n      GT \t\t\t\n      ISZERO \t\t\t\n      PUSH [tag] 224\t\t\t\n      JUMPI \t\t\t\n      PUSH [tag] 224\t\t\t\n      PUSH [tag] 309\t\t\t\n      JUMP \t\t\t\n    tag 226\t\t\t\n      JUMPDEST \t\t\t\n      PUSH 0\t\t\t\n      DUP3 \t\t\t\n      PUSH [tag] 434\t\t\t\n      JUMPI \t\t\t\n      PUSH 4E487B71\t\t\t\n      PUSH E0\t\t\t\n      SHL \t\t\t\n      PUSH 0\t\t\t\n      MSTORE \t\t\t\n      PUSH 12\t\t\t\n      PUSH 4\t\t\t\n      MSTORE \t\t\t\n      PUSH 24\t\t\t\n      PUSH 0\t\t\t\n      REVERT \t\t\t\n    tag 434\t\t\t\n      JUMPDEST \t\t\t\n      POP \t\t\t\n      MOD \t\t\t\n      SWAP1 \t\t\t\n      JUMP \t\t\t\n    tag 261\t\t\t\n      JUMPDEST \t\t\t\n      DUP1 \t\t\t\n      DUP3 \t\t\t\n      MUL \t\t\t\n      DUP2 \t\t\t\n      ISZERO \t\t\t\n      DUP3 \t\t\t\n      DUP3 \t\t\t\n      DIV \t\t\t\n      DUP5 \t\t\t\n      EQ \t\t\t\n      OR \t\t\t\n      PUSH [tag] 224\t\t\t\n      JUMPI \t\t\t\n      PUSH [tag] 224\t\t\t\n      PUSH [tag] 309\t\t\t\n      JUMP \t\t\t\n    tag 310\t\t\t\n      JUMPDEST \t\t\t\n      PUSH 1\t\t\t\n      DUP2 \t\t\t\n      DUP2 \t\t\t\n    tag 439\t\t\t\n      JUMPDEST \t\t\t\n      DUP1 \t\t\t\n      DUP6 \t\t\t\n      GT \t\t\t\n      ISZERO \t\t\t\n      PUSH [tag] 441\t\t\t\n      JUMPI \t\t\t\n      DUP2 \t\t\t\n      PUSH 0\t\t\t\n      NOT \t\t\t\n      DIV \t\t\t\n      DUP3 \t\t\t\n      GT \t\t\t\n      ISZERO \t\t\t\n      PUSH [tag] 443\t\t\t\n      JUMPI \t\t\t\n      PUSH [tag] 443\t\t\t\n      PUSH [tag] 309\t\t\t\n      JUMP \t\t\t\n    tag 443\t\t\t\n      JUMPDEST \t\t\t\n      DUP1 \t\t\t\n      DUP6 \t\t\t\n      AND \t\t\t\n      ISZERO \t\t\t\n      PUSH [tag] 444\t\t\t\n      JUMPI \t\t\t\n      SWAP2 \t\t\t\n      DUP2 \t\t\t\n      MUL \t\t\t\n      SWAP2 \t\t\t\n    tag 444\t\t\t\n      JUMPDEST \t\t\t\n      SWAP4 \t\t\t\n      DUP5 \t\t\t\n      SHR \t\t\t\n      SWAP4 \t\t\t\n      SWAP1 \t\t\t\n      DUP1 \t\t\t\n      MUL \t\t\t\n      SWAP1 \t\t\t\n      PUSH [tag] 439\t\t\t\n      JUMP \t\t\t\n    tag 441\t\t\t\n      JUMPDEST \t\t\t\n      POP \t\t\t\n      SWAP3 \t\t\t\n      POP \t\t\t\n      SWAP3 \t\t\t\n      SWAP1 \t\t\t\n      POP \t\t\t\n      JUMP \t\t\t\n    tag 311\t\t\t\n      JUMPDEST \t\t\t\n      PUSH 0\t\t\t\n      DUP3 \t\t\t\n      PUSH [tag] 446\t\t\t\n      JUMPI \t\t\t\n      POP \t\t\t\n      PUSH 1\t\t\t\n      PUSH [tag] 224\t\t\t\n      JUMP \t\t\t\n    tag 446\t\t\t\n      JUMPDEST \t\t\t\n      DUP2 \t\t\t\n      PUSH [tag] 447\t\t\t\n      JUMPI \t\t\t\n      POP \t\t\t\n      PUSH 0\t\t\t\n      PUSH [tag] 224\t\t\t\n      JUMP \t\t\t\n    tag 447\t\t\t\n      JUMPDEST \t\t\t\n      DUP2 \t\t\t\n      PUSH 1\t\t\t\n      DUP2 \t\t\t\n      EQ \t\t\t\n      PUSH [tag] 449\t\t\t\n      JUMPI \t\t\t\n      PUSH 2\t\t\t\n      DUP2 \t\t\t\n      EQ \t\t\t\n      PUSH [tag] 450\t\t\t\n      JUMPI \t\t\t\n      PUSH [tag] 448\t\t\t\n      JUMP \t\t\t\n    tag 449\t\t\t\n      JUMPDEST \t\t\t\n      PUSH 1\t\t\t\n      SWAP2 \t\t\t\n      POP \t\t\t\n      POP \t\t\t\n      PUSH [tag] 224\t\t\t\n      JUMP \t\t\t\n    tag 450\t\t\t\n      JUMPDEST \t\t\t\n      PUSH FF\t\t\t\n      DUP5 \t\t\t\n      GT \t\t\t\n      ISZERO \t\t\t\n      PUSH [tag] 452\t\t\t\n      JUMPI \t\t\t\n      PUSH [tag] 452\t\t\t\n      PUSH [tag] 309\t\t\t\n      JUMP \t\t\t\n    tag 452\t\t\t\n      JUMPDEST \t\t\t\n      POP \t\t\t\n      POP \t\t\t\n      PUSH 1\t\t\t\n      DUP3 \t\t\t\n      SHL \t\t\t\n      PUSH [tag] 224\t\t\t\n      JUMP \t\t\t\n    tag 448\t\t\t\n      JUMPDEST \t\t\t\n      POP \t\t\t\n      PUSH 20\t\t\t\n      DUP4 \t\t\t\n      LT \t\t\t\n      PUSH 133\t\t\t\n      DUP4 \t\t\t\n      LT \t\t\t\n      AND \t\t\t\n      PUSH 4E\t\t\t\n      DUP5 \t\t\t\n      LT \t\t\t\n      PUSH B\t\t\t\n      DUP5 \t\t\t\n      LT \t\t\t\n      AND \t\t\t\n      OR \t\t\t\n      ISZERO \t\t\t\n      PUSH [tag] 453\t\t\t\n      JUMPI \t\t\t\n      POP \t\t\t\n      DUP2 \t\t\t\n      DUP2 \t\t\t\n      EXP \t\t\t\n      PUSH [tag] 224\t\t\t\n      JUMP \t\t\t\n    tag 453\t\t\t\n      JUMPDEST \t\t\t\n      PUSH [tag] 454\t\t\t\n      DUP4 \t\t\t\n      DUP4 \t\t\t\n      PUSH [tag] 310\t\t\t\n      JUMP \t\t\t\n    tag 454\t\t\t\n      JUMPDEST \t\t\t\n      DUP1 \t\t\t\n      PUSH 0\t\t\t\n      NOT \t\t\t\n      DIV \t\t\t\n      DUP3 \t\t\t\n      GT \t\t\t\n      ISZERO \t\t\t\n      PUSH [tag] 456\t\t\t\n      JUMPI \t\t\t\n      PUSH [tag] 456\t\t\t\n      PUSH [tag] 309\t\t\t\n      JUMP \t\t\t\n    tag 456\t\t\t\n      JUMPDEST \t\t\t\n      MUL \t\t\t\n      SWAP4 \t\t\t\n      SWAP3 \t\t\t\n      POP \t\t\t\n      POP \t\t\t\n      POP \t\t\t\n      JUMP \t\t\t\n    tag 273\t\t\t\n      JUMPDEST \t\t\t\n      PUSH 0\t\t\t\n      PUSH [tag] 253\t\t\t\n      DUP4 \t\t\t\n      DUP4 \t\t\t\n      PUSH [tag] 311\t\t\t\n      JUMP \t\t\t\n    .data\n  E906A9EEB8903C8E2803AE52B2873B43408469AFA2505733A0EF2C18A80A2441:\n    636f6e7374206368617261637465724964203d20617267735b305d3b636f6e737420617069526573706f6e7365203d2061776169742046756e6374696f6e732e6d616b654874747052657175657374287b75726c3a206068747470733a2f2f73776170692e696e666f2f6170692f70656f706c652f247b63686172616374657249647d2f607d293b69662028617069526573706f6e73652e6572726f7229207b7468726f77204572726f72282752657175657374206661696c656427293b7d636f6e7374207b2064617461207d203d20617069526573706f6e73653b72657475726e2046756e6374696f6e732e656e636f6465537472696e6728646174612e6e616d65293b\n"
}